{
	"contracts/Automobchain.sol": {
		"Automobchain": {
			"abi": [
				{
					"inputs": [],
					"stateMutability": "nonpayable",
					"type": "constructor"
				},
				{
					"inputs": [
						{
							"internalType": "address payable",
							"name": "walletAddress",
							"type": "address"
						},
						{
							"internalType": "string",
							"name": "firstName",
							"type": "string"
						},
						{
							"internalType": "string",
							"name": "lastName",
							"type": "string"
						},
						{
							"internalType": "bool",
							"name": "canRent",
							"type": "bool"
						},
						{
							"internalType": "bool",
							"name": "active",
							"type": "bool"
						},
						{
							"internalType": "uint256",
							"name": "balance",
							"type": "uint256"
						},
						{
							"internalType": "uint256",
							"name": "due",
							"type": "uint256"
						},
						{
							"internalType": "uint256",
							"name": "start",
							"type": "uint256"
						},
						{
							"internalType": "uint256",
							"name": "end",
							"type": "uint256"
						}
					],
					"name": "addRenter",
					"outputs": [],
					"stateMutability": "nonpayable",
					"type": "function"
				},
				{
					"inputs": [],
					"name": "balanceOf",
					"outputs": [
						{
							"internalType": "uint256",
							"name": "",
							"type": "uint256"
						}
					],
					"stateMutability": "view",
					"type": "function"
				},
				{
					"inputs": [
						{
							"internalType": "address",
							"name": "walletAddress",
							"type": "address"
						}
					],
					"name": "balanceOfRenter",
					"outputs": [
						{
							"internalType": "uint256",
							"name": "",
							"type": "uint256"
						}
					],
					"stateMutability": "view",
					"type": "function"
				},
				{
					"inputs": [
						{
							"internalType": "address",
							"name": "walletAddress",
							"type": "address"
						}
					],
					"name": "canRentBike",
					"outputs": [
						{
							"internalType": "bool",
							"name": "",
							"type": "bool"
						}
					],
					"stateMutability": "view",
					"type": "function"
				},
				{
					"inputs": [
						{
							"internalType": "address",
							"name": "walletAddress",
							"type": "address"
						}
					],
					"name": "checkIn",
					"outputs": [],
					"stateMutability": "nonpayable",
					"type": "function"
				},
				{
					"inputs": [
						{
							"internalType": "address",
							"name": "walletAddress",
							"type": "address"
						}
					],
					"name": "checkOut",
					"outputs": [],
					"stateMutability": "nonpayable",
					"type": "function"
				},
				{
					"inputs": [
						{
							"internalType": "address",
							"name": "walletAddress",
							"type": "address"
						}
					],
					"name": "deposit",
					"outputs": [],
					"stateMutability": "payable",
					"type": "function"
				},
				{
					"inputs": [
						{
							"internalType": "address",
							"name": "walletAddress",
							"type": "address"
						}
					],
					"name": "getTotalDuration",
					"outputs": [
						{
							"internalType": "uint256",
							"name": "",
							"type": "uint256"
						}
					],
					"stateMutability": "view",
					"type": "function"
				},
				{
					"inputs": [
						{
							"internalType": "address",
							"name": "walletAddress",
							"type": "address"
						}
					],
					"name": "makePayment",
					"outputs": [],
					"stateMutability": "payable",
					"type": "function"
				},
				{
					"inputs": [
						{
							"internalType": "address",
							"name": "",
							"type": "address"
						}
					],
					"name": "renters",
					"outputs": [
						{
							"internalType": "address payable",
							"name": "walletAddress",
							"type": "address"
						},
						{
							"internalType": "string",
							"name": "firstName",
							"type": "string"
						},
						{
							"internalType": "string",
							"name": "lastName",
							"type": "string"
						},
						{
							"internalType": "bool",
							"name": "canRent",
							"type": "bool"
						},
						{
							"internalType": "bool",
							"name": "active",
							"type": "bool"
						},
						{
							"internalType": "uint256",
							"name": "balance",
							"type": "uint256"
						},
						{
							"internalType": "uint256",
							"name": "due",
							"type": "uint256"
						},
						{
							"internalType": "uint256",
							"name": "start",
							"type": "uint256"
						},
						{
							"internalType": "uint256",
							"name": "end",
							"type": "uint256"
						}
					],
					"stateMutability": "view",
					"type": "function"
				}
			],
			"devdoc": {
				"kind": "dev",
				"methods": {},
				"version": 1
			},
			"evm": {
				"assembly": "    /* \"contracts/Automobchain.sol\":66:2944  contract Automobchain {\r... */\n  mstore(0x40, 0x80)\n    /* \"contracts/Automobchain.sol\":117:168  constructor() {\r... */\n  callvalue\n  dup1\n  iszero\n  tag_1\n  jumpi\n  0x00\n  dup1\n  revert\ntag_1:\n  pop\n    /* \"contracts/Automobchain.sol\":150:160  msg.sender */\n  caller\n    /* \"contracts/Automobchain.sol\":142:147  owner */\n  0x00\n  dup1\n    /* \"contracts/Automobchain.sol\":142:160  owner = msg.sender */\n  0x0100\n  exp\n  dup2\n  sload\n  dup2\n  0xffffffffffffffffffffffffffffffffffffffff\n  mul\n  not\n  and\n  swap1\n  dup4\n  0xffffffffffffffffffffffffffffffffffffffff\n  and\n  mul\n  or\n  swap1\n  sstore\n  pop\n    /* \"contracts/Automobchain.sol\":66:2944  contract Automobchain {\r... */\n  dataSize(sub_0)\n  dup1\n  dataOffset(sub_0)\n  0x00\n  codecopy\n  0x00\n  return\nstop\n\nsub_0: assembly {\n        /* \"contracts/Automobchain.sol\":66:2944  contract Automobchain {\r... */\n      mstore(0x40, 0x80)\n      jumpi(tag_1, lt(calldatasize, 0x04))\n      shr(0xe0, calldataload(0x00))\n      dup1\n      0x722713f7\n      gt\n      tag_12\n      jumpi\n      dup1\n      0x722713f7\n      eq\n      tag_7\n      jumpi\n      dup1\n      0x8d23caa0\n      eq\n      tag_8\n      jumpi\n      dup1\n      0xaad1b617\n      eq\n      tag_9\n      jumpi\n      dup1\n      0xd9a59e33\n      eq\n      tag_10\n      jumpi\n      dup1\n      0xf340fa01\n      eq\n      tag_11\n      jumpi\n      jump(tag_1)\n    tag_12:\n      dup1\n      0x0b88adbe\n      eq\n      tag_2\n      jumpi\n      dup1\n      0x300be4fc\n      eq\n      tag_3\n      jumpi\n      dup1\n      0x41ba6e89\n      eq\n      tag_4\n      jumpi\n      dup1\n      0x5e649727\n      eq\n      tag_5\n      jumpi\n      dup1\n      0x644a1370\n      eq\n      tag_6\n      jumpi\n    tag_1:\n      0x00\n      dup1\n      revert\n        /* \"contracts/Automobchain.sol\":2329:2455  function canRentBike(address walletAddress) public view returns (bool){\r... */\n    tag_2:\n      callvalue\n      dup1\n      iszero\n      tag_13\n      jumpi\n      0x00\n      dup1\n      revert\n    tag_13:\n      pop\n      tag_14\n      0x04\n      dup1\n      calldatasize\n      sub\n      dup2\n      add\n      swap1\n      tag_15\n      swap2\n      swap1\n      tag_16\n      jump\t// in\n    tag_15:\n      tag_17\n      jump\t// in\n    tag_14:\n      mload(0x40)\n      tag_18\n      swap2\n      swap1\n      tag_19\n      jump\t// in\n    tag_18:\n      mload(0x40)\n      dup1\n      swap2\n      sub\n      swap1\n      return\n        /* \"contracts/Automobchain.sol\":2626:2939  function makePayment(address walletAddress) payable public{\r... */\n    tag_3:\n      tag_20\n      0x04\n      dup1\n      calldatasize\n      sub\n      dup2\n      add\n      swap1\n      tag_21\n      swap2\n      swap1\n      tag_16\n      jump\t// in\n    tag_21:\n      tag_22\n      jump\t// in\n    tag_20:\n      stop\n        /* \"contracts/Automobchain.sol\":1474:1740  function getTotalDuration(address walletAddress) public view returns(uint) {\r... */\n    tag_4:\n      callvalue\n      dup1\n      iszero\n      tag_23\n      jumpi\n      0x00\n      dup1\n      revert\n    tag_23:\n      pop\n      tag_24\n      0x04\n      dup1\n      calldatasize\n      sub\n      dup2\n      add\n      swap1\n      tag_25\n      swap2\n      swap1\n      tag_16\n      jump\t// in\n    tag_25:\n      tag_26\n      jump\t// in\n    tag_24:\n      mload(0x40)\n      tag_27\n      swap2\n      swap1\n      tag_28\n      jump\t// in\n    tag_27:\n      mload(0x40)\n      dup1\n      swap2\n      sub\n      swap1\n      return\n        /* \"contracts/Automobchain.sol\":508:822  function addRenter(address payable walletAddress, string memory firstName, string memory lastName, bool canRent, bool active, uint balance, uint due, uint\r... */\n    tag_5:\n      callvalue\n      dup1\n      iszero\n      tag_29\n      jumpi\n      0x00\n      dup1\n      revert\n    tag_29:\n      pop\n      tag_30\n      0x04\n      dup1\n      calldatasize\n      sub\n      dup2\n      add\n      swap1\n      tag_31\n      swap2\n      swap1\n      tag_32\n      jump\t// in\n    tag_31:\n      tag_33\n      jump\t// in\n    tag_30:\n      stop\n        /* \"contracts/Automobchain.sol\":457:499  mapping (address => Renter) public renters */\n    tag_6:\n      callvalue\n      dup1\n      iszero\n      tag_34\n      jumpi\n      0x00\n      dup1\n      revert\n    tag_34:\n      pop\n      tag_35\n      0x04\n      dup1\n      calldatasize\n      sub\n      dup2\n      add\n      swap1\n      tag_36\n      swap2\n      swap1\n      tag_16\n      jump\t// in\n    tag_36:\n      tag_37\n      jump\t// in\n    tag_35:\n      mload(0x40)\n      tag_38\n      swap10\n      swap9\n      swap8\n      swap7\n      swap6\n      swap5\n      swap4\n      swap3\n      swap2\n      swap1\n      tag_39\n      jump\t// in\n    tag_38:\n      mload(0x40)\n      dup1\n      swap2\n      sub\n      swap1\n      return\n        /* \"contracts/Automobchain.sol\":1776:1869  function balanceOf() view public returns(uint){\r... */\n    tag_7:\n      callvalue\n      dup1\n      iszero\n      tag_40\n      jumpi\n      0x00\n      dup1\n      revert\n    tag_40:\n      pop\n      tag_41\n      tag_42\n      jump\t// in\n    tag_41:\n      mload(0x40)\n      tag_43\n      swap2\n      swap1\n      tag_28\n      jump\t// in\n    tag_43:\n      mload(0x40)\n      dup1\n      swap2\n      sub\n      swap1\n      return\n        /* \"contracts/Automobchain.sol\":851:1059  function checkOut(address walletAddress) public{\r... */\n    tag_8:\n      callvalue\n      dup1\n      iszero\n      tag_44\n      jumpi\n      0x00\n      dup1\n      revert\n    tag_44:\n      pop\n      tag_45\n      0x04\n      dup1\n      calldatasize\n      sub\n      dup2\n      add\n      swap1\n      tag_46\n      swap2\n      swap1\n      tag_16\n      jump\t// in\n    tag_46:\n      tag_47\n      jump\t// in\n    tag_45:\n      stop\n        /* \"contracts/Automobchain.sol\":1905:2034  function balanceOfRenter(address walletAddress) public view returns(uint){\r... */\n    tag_9:\n      callvalue\n      dup1\n      iszero\n      tag_48\n      jumpi\n      0x00\n      dup1\n      revert\n    tag_48:\n      pop\n      tag_49\n      0x04\n      dup1\n      calldatasize\n      sub\n      dup2\n      add\n      swap1\n      tag_50\n      swap2\n      swap1\n      tag_16\n      jump\t// in\n    tag_50:\n      tag_51\n      jump\t// in\n    tag_49:\n      mload(0x40)\n      tag_52\n      swap2\n      swap1\n      tag_28\n      jump\t// in\n    tag_52:\n      mload(0x40)\n      dup1\n      swap2\n      sub\n      swap1\n      return\n        /* \"contracts/Automobchain.sol\":1089:1308  function checkIn(address walletAddress) public{\r... */\n    tag_10:\n      callvalue\n      dup1\n      iszero\n      tag_53\n      jumpi\n      0x00\n      dup1\n      revert\n    tag_53:\n      pop\n      tag_54\n      0x04\n      dup1\n      calldatasize\n      sub\n      dup2\n      add\n      swap1\n      tag_55\n      swap2\n      swap1\n      tag_16\n      jump\t// in\n    tag_55:\n      tag_56\n      jump\t// in\n    tag_54:\n      stop\n        /* \"contracts/Automobchain.sol\":2481:2597  function deposit(address walletAddress) payable public{\r... */\n    tag_11:\n      tag_57\n      0x04\n      dup1\n      calldatasize\n      sub\n      dup2\n      add\n      swap1\n      tag_58\n      swap2\n      swap1\n      tag_16\n      jump\t// in\n    tag_58:\n      tag_59\n      jump\t// in\n    tag_57:\n      stop\n        /* \"contracts/Automobchain.sol\":2329:2455  function canRentBike(address walletAddress) public view returns (bool){\r... */\n    tag_17:\n        /* \"contracts/Automobchain.sol\":2394:2398  bool */\n      0x00\n        /* \"contracts/Automobchain.sol\":2417:2424  renters */\n      0x01\n        /* \"contracts/Automobchain.sol\":2417:2439  renters[walletAddress] */\n      0x00\n        /* \"contracts/Automobchain.sol\":2425:2438  walletAddress */\n      dup4\n        /* \"contracts/Automobchain.sol\":2417:2439  renters[walletAddress] */\n      0xffffffffffffffffffffffffffffffffffffffff\n      and\n      0xffffffffffffffffffffffffffffffffffffffff\n      and\n      dup2\n      mstore\n      0x20\n      add\n      swap1\n      dup2\n      mstore\n      0x20\n      add\n      0x00\n      keccak256\n        /* \"contracts/Automobchain.sol\":2417:2447  renters[walletAddress].canRent */\n      0x03\n      add\n      0x00\n      swap1\n      sload\n      swap1\n      0x0100\n      exp\n      swap1\n      div\n      0xff\n      and\n        /* \"contracts/Automobchain.sol\":2410:2447  return renters[walletAddress].canRent */\n      swap1\n      pop\n        /* \"contracts/Automobchain.sol\":2329:2455  function canRentBike(address walletAddress) public view returns (bool){\r... */\n      swap2\n      swap1\n      pop\n      jump\t// out\n        /* \"contracts/Automobchain.sol\":2626:2939  function makePayment(address walletAddress) payable public{\r... */\n    tag_22:\n        /* \"contracts/Automobchain.sol\":2729:2738  msg.value */\n      callvalue\n        /* \"contracts/Automobchain.sol\":2695:2702  renters */\n      0x01\n        /* \"contracts/Automobchain.sol\":2695:2717  renters[walletAddress] */\n      0x00\n        /* \"contracts/Automobchain.sol\":2703:2716  walletAddress */\n      dup4\n        /* \"contracts/Automobchain.sol\":2695:2717  renters[walletAddress] */\n      0xffffffffffffffffffffffffffffffffffffffff\n      and\n      0xffffffffffffffffffffffffffffffffffffffff\n      and\n      dup2\n      mstore\n      0x20\n      add\n      swap1\n      dup2\n      mstore\n      0x20\n      add\n      0x00\n      keccak256\n        /* \"contracts/Automobchain.sol\":2695:2725  renters[walletAddress].balance */\n      0x04\n      add\n      0x00\n        /* \"contracts/Automobchain.sol\":2695:2738  renters[walletAddress].balance -= msg.value */\n      dup3\n      dup3\n      sload\n      tag_62\n      swap2\n      swap1\n      tag_63\n      jump\t// in\n    tag_62:\n      swap3\n      pop\n      pop\n      dup2\n      swap1\n      sstore\n      pop\n        /* \"contracts/Automobchain.sol\":2782:2786  true */\n      0x01\n        /* \"contracts/Automobchain.sol\":2749:2756  renters */\n      dup1\n        /* \"contracts/Automobchain.sol\":2749:2771  renters[walletAddress] */\n      0x00\n        /* \"contracts/Automobchain.sol\":2757:2770  walletAddress */\n      dup4\n        /* \"contracts/Automobchain.sol\":2749:2771  renters[walletAddress] */\n      0xffffffffffffffffffffffffffffffffffffffff\n      and\n      0xffffffffffffffffffffffffffffffffffffffff\n      and\n      dup2\n      mstore\n      0x20\n      add\n      swap1\n      dup2\n      mstore\n      0x20\n      add\n      0x00\n      keccak256\n        /* \"contracts/Automobchain.sol\":2749:2779  renters[walletAddress].canRent */\n      0x03\n      add\n      0x00\n        /* \"contracts/Automobchain.sol\":2749:2786  renters[walletAddress].canRent = true */\n      0x0100\n      exp\n      dup2\n      sload\n      dup2\n      0xff\n      mul\n      not\n      and\n      swap1\n      dup4\n      iszero\n      iszero\n      mul\n      or\n      swap1\n      sstore\n      pop\n        /* \"contracts/Automobchain.sol\":2826:2827  0 */\n      0x00\n        /* \"contracts/Automobchain.sol\":2797:2804  renters */\n      0x01\n        /* \"contracts/Automobchain.sol\":2797:2819  renters[walletAddress] */\n      0x00\n        /* \"contracts/Automobchain.sol\":2805:2818  walletAddress */\n      dup4\n        /* \"contracts/Automobchain.sol\":2797:2819  renters[walletAddress] */\n      0xffffffffffffffffffffffffffffffffffffffff\n      and\n      0xffffffffffffffffffffffffffffffffffffffff\n      and\n      dup2\n      mstore\n      0x20\n      add\n      swap1\n      dup2\n      mstore\n      0x20\n      add\n      0x00\n      keccak256\n        /* \"contracts/Automobchain.sol\":2797:2823  renters[walletAddress].due */\n      0x05\n      add\n        /* \"contracts/Automobchain.sol\":2797:2827  renters[walletAddress].due = 0 */\n      dup2\n      swap1\n      sstore\n      pop\n        /* \"contracts/Automobchain.sol\":2869:2870  0 */\n      0x00\n        /* \"contracts/Automobchain.sol\":2838:2845  renters */\n      0x01\n        /* \"contracts/Automobchain.sol\":2838:2860  renters[walletAddress] */\n      0x00\n        /* \"contracts/Automobchain.sol\":2846:2859  walletAddress */\n      dup4\n        /* \"contracts/Automobchain.sol\":2838:2860  renters[walletAddress] */\n      0xffffffffffffffffffffffffffffffffffffffff\n      and\n      0xffffffffffffffffffffffffffffffffffffffff\n      and\n      dup2\n      mstore\n      0x20\n      add\n      swap1\n      dup2\n      mstore\n      0x20\n      add\n      0x00\n      keccak256\n        /* \"contracts/Automobchain.sol\":2838:2866  renters[walletAddress].start */\n      0x06\n      add\n        /* \"contracts/Automobchain.sol\":2838:2870  renters[walletAddress].start = 0 */\n      dup2\n      swap1\n      sstore\n      pop\n        /* \"contracts/Automobchain.sol\":2910:2911  0 */\n      0x00\n        /* \"contracts/Automobchain.sol\":2881:2888  renters */\n      0x01\n        /* \"contracts/Automobchain.sol\":2881:2903  renters[walletAddress] */\n      0x00\n        /* \"contracts/Automobchain.sol\":2889:2902  walletAddress */\n      dup4\n        /* \"contracts/Automobchain.sol\":2881:2903  renters[walletAddress] */\n      0xffffffffffffffffffffffffffffffffffffffff\n      and\n      0xffffffffffffffffffffffffffffffffffffffff\n      and\n      dup2\n      mstore\n      0x20\n      add\n      swap1\n      dup2\n      mstore\n      0x20\n      add\n      0x00\n      keccak256\n        /* \"contracts/Automobchain.sol\":2881:2907  renters[walletAddress].end */\n      0x07\n      add\n        /* \"contracts/Automobchain.sol\":2881:2911  renters[walletAddress].end = 0 */\n      dup2\n      swap1\n      sstore\n      pop\n        /* \"contracts/Automobchain.sol\":2626:2939  function makePayment(address walletAddress) payable public{\r... */\n      pop\n      jump\t// out\n        /* \"contracts/Automobchain.sol\":1474:1740  function getTotalDuration(address walletAddress) public view returns(uint) {\r... */\n    tag_26:\n        /* \"contracts/Automobchain.sol\":1543:1547  uint */\n      0x00\n        /* \"contracts/Automobchain.sol\":1560:1573  uint timespan */\n      dup1\n        /* \"contracts/Automobchain.sol\":1576:1648  renterTimespan(renters[walletAddress].start, renters[walletAddress].end) */\n      tag_65\n        /* \"contracts/Automobchain.sol\":1591:1598  renters */\n      0x01\n        /* \"contracts/Automobchain.sol\":1591:1613  renters[walletAddress] */\n      0x00\n        /* \"contracts/Automobchain.sol\":1599:1612  walletAddress */\n      dup6\n        /* \"contracts/Automobchain.sol\":1591:1613  renters[walletAddress] */\n      0xffffffffffffffffffffffffffffffffffffffff\n      and\n      0xffffffffffffffffffffffffffffffffffffffff\n      and\n      dup2\n      mstore\n      0x20\n      add\n      swap1\n      dup2\n      mstore\n      0x20\n      add\n      0x00\n      keccak256\n        /* \"contracts/Automobchain.sol\":1591:1619  renters[walletAddress].start */\n      0x06\n      add\n      sload\n        /* \"contracts/Automobchain.sol\":1621:1628  renters */\n      0x01\n        /* \"contracts/Automobchain.sol\":1621:1643  renters[walletAddress] */\n      0x00\n        /* \"contracts/Automobchain.sol\":1629:1642  walletAddress */\n      dup7\n        /* \"contracts/Automobchain.sol\":1621:1643  renters[walletAddress] */\n      0xffffffffffffffffffffffffffffffffffffffff\n      and\n      0xffffffffffffffffffffffffffffffffffffffff\n      and\n      dup2\n      mstore\n      0x20\n      add\n      swap1\n      dup2\n      mstore\n      0x20\n      add\n      0x00\n      keccak256\n        /* \"contracts/Automobchain.sol\":1621:1647  renters[walletAddress].end */\n      0x07\n      add\n      sload\n        /* \"contracts/Automobchain.sol\":1576:1590  renterTimespan */\n      tag_66\n        /* \"contracts/Automobchain.sol\":1576:1648  renterTimespan(renters[walletAddress].start, renters[walletAddress].end) */\n      jump\t// in\n    tag_65:\n        /* \"contracts/Automobchain.sol\":1560:1648  uint timespan = renterTimespan(renters[walletAddress].start, renters[walletAddress].end) */\n      swap1\n      pop\n        /* \"contracts/Automobchain.sol\":1659:1681  uint timespanInMinutes */\n      0x00\n        /* \"contracts/Automobchain.sol\":1695:1697  60 */\n      0x3c\n        /* \"contracts/Automobchain.sol\":1684:1692  timespan */\n      dup3\n        /* \"contracts/Automobchain.sol\":1684:1697  timespan / 60 */\n      tag_67\n      swap2\n      swap1\n      tag_68\n      jump\t// in\n    tag_67:\n        /* \"contracts/Automobchain.sol\":1659:1697  uint timespanInMinutes = timespan / 60 */\n      swap1\n      pop\n        /* \"contracts/Automobchain.sol\":1715:1732  timespanInMinutes */\n      dup1\n        /* \"contracts/Automobchain.sol\":1708:1732  return timespanInMinutes */\n      swap3\n      pop\n      pop\n      pop\n        /* \"contracts/Automobchain.sol\":1474:1740  function getTotalDuration(address walletAddress) public view returns(uint) {\r... */\n      swap2\n      swap1\n      pop\n      jump\t// out\n        /* \"contracts/Automobchain.sol\":508:822  function addRenter(address payable walletAddress, string memory firstName, string memory lastName, bool canRent, bool active, uint balance, uint due, uint\r... */\n    tag_33:\n        /* \"contracts/Automobchain.sol\":729:814  Renter(walletAddress, firstName, lastName, canRent, active, balance, due, start, end) */\n      mload(0x40)\n      dup1\n      0x0120\n      add\n      0x40\n      mstore\n      dup1\n        /* \"contracts/Automobchain.sol\":736:749  walletAddress */\n      dup11\n        /* \"contracts/Automobchain.sol\":729:814  Renter(walletAddress, firstName, lastName, canRent, active, balance, due, start, end) */\n      0xffffffffffffffffffffffffffffffffffffffff\n      and\n      dup2\n      mstore\n      0x20\n      add\n        /* \"contracts/Automobchain.sol\":751:760  firstName */\n      dup10\n        /* \"contracts/Automobchain.sol\":729:814  Renter(walletAddress, firstName, lastName, canRent, active, balance, due, start, end) */\n      dup2\n      mstore\n      0x20\n      add\n        /* \"contracts/Automobchain.sol\":762:770  lastName */\n      dup9\n        /* \"contracts/Automobchain.sol\":729:814  Renter(walletAddress, firstName, lastName, canRent, active, balance, due, start, end) */\n      dup2\n      mstore\n      0x20\n      add\n        /* \"contracts/Automobchain.sol\":772:779  canRent */\n      dup8\n        /* \"contracts/Automobchain.sol\":729:814  Renter(walletAddress, firstName, lastName, canRent, active, balance, due, start, end) */\n      iszero\n      iszero\n      dup2\n      mstore\n      0x20\n      add\n        /* \"contracts/Automobchain.sol\":781:787  active */\n      dup7\n        /* \"contracts/Automobchain.sol\":729:814  Renter(walletAddress, firstName, lastName, canRent, active, balance, due, start, end) */\n      iszero\n      iszero\n      dup2\n      mstore\n      0x20\n      add\n        /* \"contracts/Automobchain.sol\":789:796  balance */\n      dup6\n        /* \"contracts/Automobchain.sol\":729:814  Renter(walletAddress, firstName, lastName, canRent, active, balance, due, start, end) */\n      dup2\n      mstore\n      0x20\n      add\n        /* \"contracts/Automobchain.sol\":798:801  due */\n      dup5\n        /* \"contracts/Automobchain.sol\":729:814  Renter(walletAddress, firstName, lastName, canRent, active, balance, due, start, end) */\n      dup2\n      mstore\n      0x20\n      add\n        /* \"contracts/Automobchain.sol\":803:808  start */\n      dup4\n        /* \"contracts/Automobchain.sol\":729:814  Renter(walletAddress, firstName, lastName, canRent, active, balance, due, start, end) */\n      dup2\n      mstore\n      0x20\n      add\n        /* \"contracts/Automobchain.sol\":810:813  end */\n      dup3\n        /* \"contracts/Automobchain.sol\":729:814  Renter(walletAddress, firstName, lastName, canRent, active, balance, due, start, end) */\n      dup2\n      mstore\n      pop\n        /* \"contracts/Automobchain.sol\":704:711  renters */\n      0x01\n        /* \"contracts/Automobchain.sol\":704:726  renters[walletAddress] */\n      0x00\n        /* \"contracts/Automobchain.sol\":712:725  walletAddress */\n      dup12\n        /* \"contracts/Automobchain.sol\":704:726  renters[walletAddress] */\n      0xffffffffffffffffffffffffffffffffffffffff\n      and\n      0xffffffffffffffffffffffffffffffffffffffff\n      and\n      dup2\n      mstore\n      0x20\n      add\n      swap1\n      dup2\n      mstore\n      0x20\n      add\n      0x00\n      keccak256\n        /* \"contracts/Automobchain.sol\":704:814  renters[walletAddress] = Renter(walletAddress, firstName, lastName, canRent, active, balance, due, start, end) */\n      0x00\n      dup3\n      add\n      mload\n      dup2\n      0x00\n      add\n      exp(0x0100, 0x00)\n      dup2\n      sload\n      dup2\n      0xffffffffffffffffffffffffffffffffffffffff\n      mul\n      not\n      and\n      swap1\n      dup4\n      0xffffffffffffffffffffffffffffffffffffffff\n      and\n      mul\n      or\n      swap1\n      sstore\n      pop\n      0x20\n      dup3\n      add\n      mload\n      dup2\n      0x01\n      add\n      swap1\n      dup1\n      mload\n      swap1\n      0x20\n      add\n      swap1\n      tag_70\n      swap3\n      swap2\n      swap1\n      tag_71\n      jump\t// in\n    tag_70:\n      pop\n      0x40\n      dup3\n      add\n      mload\n      dup2\n      0x02\n      add\n      swap1\n      dup1\n      mload\n      swap1\n      0x20\n      add\n      swap1\n      tag_72\n      swap3\n      swap2\n      swap1\n      tag_71\n      jump\t// in\n    tag_72:\n      pop\n      0x60\n      dup3\n      add\n      mload\n      dup2\n      0x03\n      add\n      exp(0x0100, 0x00)\n      dup2\n      sload\n      dup2\n      0xff\n      mul\n      not\n      and\n      swap1\n      dup4\n      iszero\n      iszero\n      mul\n      or\n      swap1\n      sstore\n      pop\n      0x80\n      dup3\n      add\n      mload\n      dup2\n      0x03\n      add\n      exp(0x0100, 0x01)\n      dup2\n      sload\n      dup2\n      0xff\n      mul\n      not\n      and\n      swap1\n      dup4\n      iszero\n      iszero\n      mul\n      or\n      swap1\n      sstore\n      pop\n      0xa0\n      dup3\n      add\n      mload\n      dup2\n      0x04\n      add\n      sstore\n      0xc0\n      dup3\n      add\n      mload\n      dup2\n      0x05\n      add\n      sstore\n      0xe0\n      dup3\n      add\n      mload\n      dup2\n      0x06\n      add\n      sstore\n      0x0100\n      dup3\n      add\n      mload\n      dup2\n      0x07\n      add\n      sstore\n      swap1\n      pop\n      pop\n        /* \"contracts/Automobchain.sol\":508:822  function addRenter(address payable walletAddress, string memory firstName, string memory lastName, bool canRent, bool active, uint balance, uint due, uint\r... */\n      pop\n      pop\n      pop\n      pop\n      pop\n      pop\n      pop\n      pop\n      pop\n      jump\t// out\n        /* \"contracts/Automobchain.sol\":457:499  mapping (address => Renter) public renters */\n    tag_37:\n      mstore(0x20, 0x01)\n      dup1\n      0x00\n      mstore\n      keccak256(0x00, 0x40)\n      0x00\n      swap2\n      pop\n      swap1\n      pop\n      dup1\n      0x00\n      add\n      0x00\n      swap1\n      sload\n      swap1\n      0x0100\n      exp\n      swap1\n      div\n      0xffffffffffffffffffffffffffffffffffffffff\n      and\n      swap1\n      dup1\n      0x01\n      add\n      dup1\n      sload\n      tag_73\n      swap1\n      tag_74\n      jump\t// in\n    tag_73:\n      dup1\n      0x1f\n      add\n      0x20\n      dup1\n      swap2\n      div\n      mul\n      0x20\n      add\n      mload(0x40)\n      swap1\n      dup2\n      add\n      0x40\n      mstore\n      dup1\n      swap3\n      swap2\n      swap1\n      dup2\n      dup2\n      mstore\n      0x20\n      add\n      dup3\n      dup1\n      sload\n      tag_75\n      swap1\n      tag_74\n      jump\t// in\n    tag_75:\n      dup1\n      iszero\n      tag_76\n      jumpi\n      dup1\n      0x1f\n      lt\n      tag_77\n      jumpi\n      0x0100\n      dup1\n      dup4\n      sload\n      div\n      mul\n      dup4\n      mstore\n      swap2\n      0x20\n      add\n      swap2\n      jump(tag_76)\n    tag_77:\n      dup3\n      add\n      swap2\n      swap1\n      0x00\n      mstore\n      keccak256(0x00, 0x20)\n      swap1\n    tag_78:\n      dup2\n      sload\n      dup2\n      mstore\n      swap1\n      0x01\n      add\n      swap1\n      0x20\n      add\n      dup1\n      dup4\n      gt\n      tag_78\n      jumpi\n      dup3\n      swap1\n      sub\n      0x1f\n      and\n      dup3\n      add\n      swap2\n    tag_76:\n      pop\n      pop\n      pop\n      pop\n      pop\n      swap1\n      dup1\n      0x02\n      add\n      dup1\n      sload\n      tag_79\n      swap1\n      tag_74\n      jump\t// in\n    tag_79:\n      dup1\n      0x1f\n      add\n      0x20\n      dup1\n      swap2\n      div\n      mul\n      0x20\n      add\n      mload(0x40)\n      swap1\n      dup2\n      add\n      0x40\n      mstore\n      dup1\n      swap3\n      swap2\n      swap1\n      dup2\n      dup2\n      mstore\n      0x20\n      add\n      dup3\n      dup1\n      sload\n      tag_80\n      swap1\n      tag_74\n      jump\t// in\n    tag_80:\n      dup1\n      iszero\n      tag_81\n      jumpi\n      dup1\n      0x1f\n      lt\n      tag_82\n      jumpi\n      0x0100\n      dup1\n      dup4\n      sload\n      div\n      mul\n      dup4\n      mstore\n      swap2\n      0x20\n      add\n      swap2\n      jump(tag_81)\n    tag_82:\n      dup3\n      add\n      swap2\n      swap1\n      0x00\n      mstore\n      keccak256(0x00, 0x20)\n      swap1\n    tag_83:\n      dup2\n      sload\n      dup2\n      mstore\n      swap1\n      0x01\n      add\n      swap1\n      0x20\n      add\n      dup1\n      dup4\n      gt\n      tag_83\n      jumpi\n      dup3\n      swap1\n      sub\n      0x1f\n      and\n      dup3\n      add\n      swap2\n    tag_81:\n      pop\n      pop\n      pop\n      pop\n      pop\n      swap1\n      dup1\n      0x03\n      add\n      0x00\n      swap1\n      sload\n      swap1\n      0x0100\n      exp\n      swap1\n      div\n      0xff\n      and\n      swap1\n      dup1\n      0x03\n      add\n      0x01\n      swap1\n      sload\n      swap1\n      0x0100\n      exp\n      swap1\n      div\n      0xff\n      and\n      swap1\n      dup1\n      0x04\n      add\n      sload\n      swap1\n      dup1\n      0x05\n      add\n      sload\n      swap1\n      dup1\n      0x06\n      add\n      sload\n      swap1\n      dup1\n      0x07\n      add\n      sload\n      swap1\n      pop\n      dup10\n      jump\t// out\n        /* \"contracts/Automobchain.sol\":1776:1869  function balanceOf() view public returns(uint){\r... */\n    tag_42:\n        /* \"contracts/Automobchain.sol\":1817:1821  uint */\n      0x00\n        /* \"contracts/Automobchain.sol\":1840:1861  address(this).balance */\n      selfbalance\n        /* \"contracts/Automobchain.sol\":1833:1861  return address(this).balance */\n      swap1\n      pop\n        /* \"contracts/Automobchain.sol\":1776:1869  function balanceOf() view public returns(uint){\r... */\n      swap1\n      jump\t// out\n        /* \"contracts/Automobchain.sol\":851:1059  function checkOut(address walletAddress) public{\r... */\n    tag_47:\n        /* \"contracts/Automobchain.sol\":941:945  true */\n      0x01\n        /* \"contracts/Automobchain.sol\":909:916  renters */\n      dup1\n        /* \"contracts/Automobchain.sol\":909:931  renters[walletAddress] */\n      0x00\n        /* \"contracts/Automobchain.sol\":917:930  walletAddress */\n      dup4\n        /* \"contracts/Automobchain.sol\":909:931  renters[walletAddress] */\n      0xffffffffffffffffffffffffffffffffffffffff\n      and\n      0xffffffffffffffffffffffffffffffffffffffff\n      and\n      dup2\n      mstore\n      0x20\n      add\n      swap1\n      dup2\n      mstore\n      0x20\n      add\n      0x00\n      keccak256\n        /* \"contracts/Automobchain.sol\":909:938  renters[walletAddress].active */\n      0x03\n      add\n      0x01\n        /* \"contracts/Automobchain.sol\":909:945  renters[walletAddress].active = true */\n      0x0100\n      exp\n      dup2\n      sload\n      dup2\n      0xff\n      mul\n      not\n      and\n      swap1\n      dup4\n      iszero\n      iszero\n      mul\n      or\n      swap1\n      sstore\n      pop\n        /* \"contracts/Automobchain.sol\":987:1002  block.timestamp */\n      timestamp\n        /* \"contracts/Automobchain.sol\":956:963  renters */\n      0x01\n        /* \"contracts/Automobchain.sol\":956:978  renters[walletAddress] */\n      0x00\n        /* \"contracts/Automobchain.sol\":964:977  walletAddress */\n      dup4\n        /* \"contracts/Automobchain.sol\":956:978  renters[walletAddress] */\n      0xffffffffffffffffffffffffffffffffffffffff\n      and\n      0xffffffffffffffffffffffffffffffffffffffff\n      and\n      dup2\n      mstore\n      0x20\n      add\n      swap1\n      dup2\n      mstore\n      0x20\n      add\n      0x00\n      keccak256\n        /* \"contracts/Automobchain.sol\":956:984  renters[walletAddress].start */\n      0x06\n      add\n        /* \"contracts/Automobchain.sol\":956:1002  renters[walletAddress].start = block.timestamp */\n      dup2\n      swap1\n      sstore\n      pop\n        /* \"contracts/Automobchain.sol\":1046:1051  false */\n      0x00\n        /* \"contracts/Automobchain.sol\":1013:1020  renters */\n      0x01\n        /* \"contracts/Automobchain.sol\":1013:1035  renters[walletAddress] */\n      0x00\n        /* \"contracts/Automobchain.sol\":1021:1034  walletAddress */\n      dup4\n        /* \"contracts/Automobchain.sol\":1013:1035  renters[walletAddress] */\n      0xffffffffffffffffffffffffffffffffffffffff\n      and\n      0xffffffffffffffffffffffffffffffffffffffff\n      and\n      dup2\n      mstore\n      0x20\n      add\n      swap1\n      dup2\n      mstore\n      0x20\n      add\n      0x00\n      keccak256\n        /* \"contracts/Automobchain.sol\":1013:1043  renters[walletAddress].canRent */\n      0x03\n      add\n      0x00\n        /* \"contracts/Automobchain.sol\":1013:1051  renters[walletAddress].canRent = false */\n      0x0100\n      exp\n      dup2\n      sload\n      dup2\n      0xff\n      mul\n      not\n      and\n      swap1\n      dup4\n      iszero\n      iszero\n      mul\n      or\n      swap1\n      sstore\n      pop\n        /* \"contracts/Automobchain.sol\":851:1059  function checkOut(address walletAddress) public{\r... */\n      pop\n      jump\t// out\n        /* \"contracts/Automobchain.sol\":1905:2034  function balanceOfRenter(address walletAddress) public view returns(uint){\r... */\n    tag_51:\n        /* \"contracts/Automobchain.sol\":1973:1977  uint */\n      0x00\n        /* \"contracts/Automobchain.sol\":1996:2003  renters */\n      0x01\n        /* \"contracts/Automobchain.sol\":1996:2018  renters[walletAddress] */\n      0x00\n        /* \"contracts/Automobchain.sol\":2004:2017  walletAddress */\n      dup4\n        /* \"contracts/Automobchain.sol\":1996:2018  renters[walletAddress] */\n      0xffffffffffffffffffffffffffffffffffffffff\n      and\n      0xffffffffffffffffffffffffffffffffffffffff\n      and\n      dup2\n      mstore\n      0x20\n      add\n      swap1\n      dup2\n      mstore\n      0x20\n      add\n      0x00\n      keccak256\n        /* \"contracts/Automobchain.sol\":1996:2026  renters[walletAddress].balance */\n      0x04\n      add\n      sload\n        /* \"contracts/Automobchain.sol\":1989:2026  return renters[walletAddress].balance */\n      swap1\n      pop\n        /* \"contracts/Automobchain.sol\":1905:2034  function balanceOfRenter(address walletAddress) public view returns(uint){\r... */\n      swap2\n      swap1\n      pop\n      jump\t// out\n        /* \"contracts/Automobchain.sol\":1089:1308  function checkIn(address walletAddress) public{\r... */\n    tag_56:\n        /* \"contracts/Automobchain.sol\":1178:1183  false */\n      0x00\n        /* \"contracts/Automobchain.sol\":1146:1153  renters */\n      0x01\n        /* \"contracts/Automobchain.sol\":1146:1168  renters[walletAddress] */\n      0x00\n        /* \"contracts/Automobchain.sol\":1154:1167  walletAddress */\n      dup4\n        /* \"contracts/Automobchain.sol\":1146:1168  renters[walletAddress] */\n      0xffffffffffffffffffffffffffffffffffffffff\n      and\n      0xffffffffffffffffffffffffffffffffffffffff\n      and\n      dup2\n      mstore\n      0x20\n      add\n      swap1\n      dup2\n      mstore\n      0x20\n      add\n      0x00\n      keccak256\n        /* \"contracts/Automobchain.sol\":1146:1175  renters[walletAddress].active */\n      0x03\n      add\n      0x01\n        /* \"contracts/Automobchain.sol\":1146:1183  renters[walletAddress].active = false */\n      0x0100\n      exp\n      dup2\n      sload\n      dup2\n      0xff\n      mul\n      not\n      and\n      swap1\n      dup4\n      iszero\n      iszero\n      mul\n      or\n      swap1\n      sstore\n      pop\n        /* \"contracts/Automobchain.sol\":1223:1238  block.timestamp */\n      timestamp\n        /* \"contracts/Automobchain.sol\":1194:1201  renters */\n      0x01\n        /* \"contracts/Automobchain.sol\":1194:1216  renters[walletAddress] */\n      0x00\n        /* \"contracts/Automobchain.sol\":1202:1215  walletAddress */\n      dup4\n        /* \"contracts/Automobchain.sol\":1194:1216  renters[walletAddress] */\n      0xffffffffffffffffffffffffffffffffffffffff\n      and\n      0xffffffffffffffffffffffffffffffffffffffff\n      and\n      dup2\n      mstore\n      0x20\n      add\n      swap1\n      dup2\n      mstore\n      0x20\n      add\n      0x00\n      keccak256\n        /* \"contracts/Automobchain.sol\":1194:1220  renters[walletAddress].end */\n      0x07\n      add\n        /* \"contracts/Automobchain.sol\":1194:1238  renters[walletAddress].end = block.timestamp */\n      dup2\n      swap1\n      sstore\n      pop\n        /* \"contracts/Automobchain.sol\":1279:1300  setDue(walletAddress) */\n      tag_88\n        /* \"contracts/Automobchain.sol\":1286:1299  walletAddress */\n      dup2\n        /* \"contracts/Automobchain.sol\":1279:1285  setDue */\n      tag_89\n        /* \"contracts/Automobchain.sol\":1279:1300  setDue(walletAddress) */\n      jump\t// in\n    tag_88:\n        /* \"contracts/Automobchain.sol\":1089:1308  function checkIn(address walletAddress) public{\r... */\n      pop\n      jump\t// out\n        /* \"contracts/Automobchain.sol\":2481:2597  function deposit(address walletAddress) payable public{\r... */\n    tag_59:\n        /* \"contracts/Automobchain.sol\":2580:2589  msg.value */\n      callvalue\n        /* \"contracts/Automobchain.sol\":2546:2553  renters */\n      0x01\n        /* \"contracts/Automobchain.sol\":2546:2568  renters[walletAddress] */\n      0x00\n        /* \"contracts/Automobchain.sol\":2554:2567  walletAddress */\n      dup4\n        /* \"contracts/Automobchain.sol\":2546:2568  renters[walletAddress] */\n      0xffffffffffffffffffffffffffffffffffffffff\n      and\n      0xffffffffffffffffffffffffffffffffffffffff\n      and\n      dup2\n      mstore\n      0x20\n      add\n      swap1\n      dup2\n      mstore\n      0x20\n      add\n      0x00\n      keccak256\n        /* \"contracts/Automobchain.sol\":2546:2576  renters[walletAddress].balance */\n      0x04\n      add\n      0x00\n        /* \"contracts/Automobchain.sol\":2546:2589  renters[walletAddress].balance += msg.value */\n      dup3\n      dup3\n      sload\n      tag_91\n      swap2\n      swap1\n      tag_92\n      jump\t// in\n    tag_91:\n      swap3\n      pop\n      pop\n      dup2\n      swap1\n      sstore\n      pop\n        /* \"contracts/Automobchain.sol\":2481:2597  function deposit(address walletAddress) payable public{\r... */\n      pop\n      jump\t// out\n        /* \"contracts/Automobchain.sol\":1353:1466  function renterTimespan(uint start, uint end) internal pure returns (uint) {\r... */\n    tag_66:\n        /* \"contracts/Automobchain.sol\":1422:1426  uint */\n      0x00\n        /* \"contracts/Automobchain.sol\":1452:1457  start */\n      dup3\n        /* \"contracts/Automobchain.sol\":1446:1449  end */\n      dup3\n        /* \"contracts/Automobchain.sol\":1446:1457  end - start */\n      tag_94\n      swap2\n      swap1\n      tag_63\n      jump\t// in\n    tag_94:\n        /* \"contracts/Automobchain.sol\":1439:1457  return end - start */\n      swap1\n      pop\n        /* \"contracts/Automobchain.sol\":1353:1466  function renterTimespan(uint start, uint end) internal pure returns (uint) {\r... */\n      swap3\n      swap2\n      pop\n      pop\n      jump\t// out\n        /* \"contracts/Automobchain.sol\":2064:2321  function setDue(address walletAddress) internal{\r... */\n    tag_89:\n        /* \"contracts/Automobchain.sol\":2122:2142  uint timespanMinutes */\n      0x00\n        /* \"contracts/Automobchain.sol\":2145:2176  getTotalDuration(walletAddress) */\n      tag_96\n        /* \"contracts/Automobchain.sol\":2162:2175  walletAddress */\n      dup3\n        /* \"contracts/Automobchain.sol\":2145:2161  getTotalDuration */\n      tag_26\n        /* \"contracts/Automobchain.sol\":2145:2176  getTotalDuration(walletAddress) */\n      jump\t// in\n    tag_96:\n        /* \"contracts/Automobchain.sol\":2122:2176  uint timespanMinutes = getTotalDuration(walletAddress) */\n      swap1\n      pop\n        /* \"contracts/Automobchain.sol\":2187:2212  uint fiveMinuteIncrements */\n      0x00\n        /* \"contracts/Automobchain.sol\":2233:2234  5 */\n      0x05\n        /* \"contracts/Automobchain.sol\":2215:2230  timespanMinutes */\n      dup3\n        /* \"contracts/Automobchain.sol\":2215:2234  timespanMinutes / 5 */\n      tag_97\n      swap2\n      swap1\n      tag_68\n      jump\t// in\n    tag_97:\n        /* \"contracts/Automobchain.sol\":2187:2234  uint fiveMinuteIncrements = timespanMinutes / 5 */\n      swap1\n      pop\n        /* \"contracts/Automobchain.sol\":2297:2313  5000000000000000 */\n      0x11c37937e08000\n        /* \"contracts/Automobchain.sol\":2274:2294  fiveMinuteIncrements */\n      dup2\n        /* \"contracts/Automobchain.sol\":2274:2313  fiveMinuteIncrements * 5000000000000000 */\n      tag_98\n      swap2\n      swap1\n      tag_99\n      jump\t// in\n    tag_98:\n        /* \"contracts/Automobchain.sol\":2245:2252  renters */\n      0x01\n        /* \"contracts/Automobchain.sol\":2245:2267  renters[walletAddress] */\n      0x00\n        /* \"contracts/Automobchain.sol\":2253:2266  walletAddress */\n      dup6\n        /* \"contracts/Automobchain.sol\":2245:2267  renters[walletAddress] */\n      0xffffffffffffffffffffffffffffffffffffffff\n      and\n      0xffffffffffffffffffffffffffffffffffffffff\n      and\n      dup2\n      mstore\n      0x20\n      add\n      swap1\n      dup2\n      mstore\n      0x20\n      add\n      0x00\n      keccak256\n        /* \"contracts/Automobchain.sol\":2245:2271  renters[walletAddress].due */\n      0x05\n      add\n        /* \"contracts/Automobchain.sol\":2245:2313  renters[walletAddress].due = fiveMinuteIncrements * 5000000000000000 */\n      dup2\n      swap1\n      sstore\n      pop\n        /* \"contracts/Automobchain.sol\":2111:2321  {\r... */\n      pop\n      pop\n        /* \"contracts/Automobchain.sol\":2064:2321  function setDue(address walletAddress) internal{\r... */\n      pop\n      jump\t// out\n    tag_71:\n      dup3\n      dup1\n      sload\n      tag_100\n      swap1\n      tag_74\n      jump\t// in\n    tag_100:\n      swap1\n      0x00\n      mstore\n      keccak256(0x00, 0x20)\n      swap1\n      0x1f\n      add\n      0x20\n      swap1\n      div\n      dup2\n      add\n      swap3\n      dup3\n      tag_102\n      jumpi\n      0x00\n      dup6\n      sstore\n      jump(tag_101)\n    tag_102:\n      dup3\n      0x1f\n      lt\n      tag_103\n      jumpi\n      dup1\n      mload\n      not(0xff)\n      and\n      dup4\n      dup1\n      add\n      or\n      dup6\n      sstore\n      jump(tag_101)\n    tag_103:\n      dup3\n      dup1\n      add\n      0x01\n      add\n      dup6\n      sstore\n      dup3\n      iszero\n      tag_101\n      jumpi\n      swap2\n      dup3\n      add\n    tag_104:\n      dup3\n      dup2\n      gt\n      iszero\n      tag_105\n      jumpi\n      dup3\n      mload\n      dup3\n      sstore\n      swap2\n      0x20\n      add\n      swap2\n      swap1\n      0x01\n      add\n      swap1\n      jump(tag_104)\n    tag_105:\n    tag_101:\n      pop\n      swap1\n      pop\n      tag_106\n      swap2\n      swap1\n      tag_107\n      jump\t// in\n    tag_106:\n      pop\n      swap1\n      jump\t// out\n    tag_107:\n    tag_108:\n      dup1\n      dup3\n      gt\n      iszero\n      tag_109\n      jumpi\n      0x00\n      dup2\n      0x00\n      swap1\n      sstore\n      pop\n      0x01\n      add\n      jump(tag_108)\n    tag_109:\n      pop\n      swap1\n      jump\t// out\n        /* \"#utility.yul\":7:419   */\n    tag_111:\n        /* \"#utility.yul\":85:90   */\n      0x00\n        /* \"#utility.yul\":110:176   */\n      tag_113\n        /* \"#utility.yul\":126:175   */\n      tag_114\n        /* \"#utility.yul\":168:174   */\n      dup5\n        /* \"#utility.yul\":126:175   */\n      tag_115\n      jump\t// in\n    tag_114:\n        /* \"#utility.yul\":110:176   */\n      tag_116\n      jump\t// in\n    tag_113:\n        /* \"#utility.yul\":101:176   */\n      swap1\n      pop\n        /* \"#utility.yul\":199:205   */\n      dup3\n        /* \"#utility.yul\":192:197   */\n      dup2\n        /* \"#utility.yul\":185:206   */\n      mstore\n        /* \"#utility.yul\":237:241   */\n      0x20\n        /* \"#utility.yul\":230:235   */\n      dup2\n        /* \"#utility.yul\":226:242   */\n      add\n        /* \"#utility.yul\":275:278   */\n      dup5\n        /* \"#utility.yul\":266:272   */\n      dup5\n        /* \"#utility.yul\":261:264   */\n      dup5\n        /* \"#utility.yul\":257:273   */\n      add\n        /* \"#utility.yul\":254:279   */\n      gt\n        /* \"#utility.yul\":251:363   */\n      iszero\n      tag_117\n      jumpi\n        /* \"#utility.yul\":282:361   */\n      tag_118\n      tag_119\n      jump\t// in\n    tag_118:\n        /* \"#utility.yul\":251:363   */\n    tag_117:\n        /* \"#utility.yul\":372:413   */\n      tag_120\n        /* \"#utility.yul\":406:412   */\n      dup5\n        /* \"#utility.yul\":401:404   */\n      dup3\n        /* \"#utility.yul\":396:399   */\n      dup6\n        /* \"#utility.yul\":372:413   */\n      tag_121\n      jump\t// in\n    tag_120:\n        /* \"#utility.yul\":91:419   */\n      pop\n        /* \"#utility.yul\":7:419   */\n      swap4\n      swap3\n      pop\n      pop\n      pop\n      jump\t// out\n        /* \"#utility.yul\":425:564   */\n    tag_122:\n        /* \"#utility.yul\":471:476   */\n      0x00\n        /* \"#utility.yul\":509:515   */\n      dup2\n        /* \"#utility.yul\":496:516   */\n      calldataload\n        /* \"#utility.yul\":487:516   */\n      swap1\n      pop\n        /* \"#utility.yul\":525:558   */\n      tag_124\n        /* \"#utility.yul\":552:557   */\n      dup2\n        /* \"#utility.yul\":525:558   */\n      tag_125\n      jump\t// in\n    tag_124:\n        /* \"#utility.yul\":425:564   */\n      swap3\n      swap2\n      pop\n      pop\n      jump\t// out\n        /* \"#utility.yul\":570:725   */\n    tag_126:\n        /* \"#utility.yul\":624:629   */\n      0x00\n        /* \"#utility.yul\":662:668   */\n      dup2\n        /* \"#utility.yul\":649:669   */\n      calldataload\n        /* \"#utility.yul\":640:669   */\n      swap1\n      pop\n        /* \"#utility.yul\":678:719   */\n      tag_128\n        /* \"#utility.yul\":713:718   */\n      dup2\n        /* \"#utility.yul\":678:719   */\n      tag_129\n      jump\t// in\n    tag_128:\n        /* \"#utility.yul\":570:725   */\n      swap3\n      swap2\n      pop\n      pop\n      jump\t// out\n        /* \"#utility.yul\":731:864   */\n    tag_130:\n        /* \"#utility.yul\":774:779   */\n      0x00\n        /* \"#utility.yul\":812:818   */\n      dup2\n        /* \"#utility.yul\":799:819   */\n      calldataload\n        /* \"#utility.yul\":790:819   */\n      swap1\n      pop\n        /* \"#utility.yul\":828:858   */\n      tag_132\n        /* \"#utility.yul\":852:857   */\n      dup2\n        /* \"#utility.yul\":828:858   */\n      tag_133\n      jump\t// in\n    tag_132:\n        /* \"#utility.yul\":731:864   */\n      swap3\n      swap2\n      pop\n      pop\n      jump\t// out\n        /* \"#utility.yul\":884:1224   */\n    tag_134:\n        /* \"#utility.yul\":940:945   */\n      0x00\n        /* \"#utility.yul\":989:992   */\n      dup3\n        /* \"#utility.yul\":982:986   */\n      0x1f\n        /* \"#utility.yul\":974:980   */\n      dup4\n        /* \"#utility.yul\":970:987   */\n      add\n        /* \"#utility.yul\":966:993   */\n      slt\n        /* \"#utility.yul\":956:1078   */\n      tag_136\n      jumpi\n        /* \"#utility.yul\":997:1076   */\n      tag_137\n      tag_138\n      jump\t// in\n    tag_137:\n        /* \"#utility.yul\":956:1078   */\n    tag_136:\n        /* \"#utility.yul\":1114:1120   */\n      dup2\n        /* \"#utility.yul\":1101:1121   */\n      calldataload\n        /* \"#utility.yul\":1139:1218   */\n      tag_139\n        /* \"#utility.yul\":1214:1217   */\n      dup5\n        /* \"#utility.yul\":1206:1212   */\n      dup3\n        /* \"#utility.yul\":1199:1203   */\n      0x20\n        /* \"#utility.yul\":1191:1197   */\n      dup7\n        /* \"#utility.yul\":1187:1204   */\n      add\n        /* \"#utility.yul\":1139:1218   */\n      tag_111\n      jump\t// in\n    tag_139:\n        /* \"#utility.yul\":1130:1218   */\n      swap2\n      pop\n        /* \"#utility.yul\":946:1224   */\n      pop\n        /* \"#utility.yul\":884:1224   */\n      swap3\n      swap2\n      pop\n      pop\n      jump\t// out\n        /* \"#utility.yul\":1230:1369   */\n    tag_140:\n        /* \"#utility.yul\":1276:1281   */\n      0x00\n        /* \"#utility.yul\":1314:1320   */\n      dup2\n        /* \"#utility.yul\":1301:1321   */\n      calldataload\n        /* \"#utility.yul\":1292:1321   */\n      swap1\n      pop\n        /* \"#utility.yul\":1330:1363   */\n      tag_142\n        /* \"#utility.yul\":1357:1362   */\n      dup2\n        /* \"#utility.yul\":1330:1363   */\n      tag_143\n      jump\t// in\n    tag_142:\n        /* \"#utility.yul\":1230:1369   */\n      swap3\n      swap2\n      pop\n      pop\n      jump\t// out\n        /* \"#utility.yul\":1375:1704   */\n    tag_16:\n        /* \"#utility.yul\":1434:1440   */\n      0x00\n        /* \"#utility.yul\":1483:1485   */\n      0x20\n        /* \"#utility.yul\":1471:1480   */\n      dup3\n        /* \"#utility.yul\":1462:1469   */\n      dup5\n        /* \"#utility.yul\":1458:1481   */\n      sub\n        /* \"#utility.yul\":1454:1486   */\n      slt\n        /* \"#utility.yul\":1451:1570   */\n      iszero\n      tag_145\n      jumpi\n        /* \"#utility.yul\":1489:1568   */\n      tag_146\n      tag_147\n      jump\t// in\n    tag_146:\n        /* \"#utility.yul\":1451:1570   */\n    tag_145:\n        /* \"#utility.yul\":1609:1610   */\n      0x00\n        /* \"#utility.yul\":1634:1687   */\n      tag_148\n        /* \"#utility.yul\":1679:1686   */\n      dup5\n        /* \"#utility.yul\":1670:1676   */\n      dup3\n        /* \"#utility.yul\":1659:1668   */\n      dup6\n        /* \"#utility.yul\":1655:1677   */\n      add\n        /* \"#utility.yul\":1634:1687   */\n      tag_122\n      jump\t// in\n    tag_148:\n        /* \"#utility.yul\":1624:1687   */\n      swap2\n      pop\n        /* \"#utility.yul\":1580:1697   */\n      pop\n        /* \"#utility.yul\":1375:1704   */\n      swap3\n      swap2\n      pop\n      pop\n      jump\t// out\n        /* \"#utility.yul\":1710:3569   */\n    tag_32:\n        /* \"#utility.yul\":1863:1869   */\n      0x00\n        /* \"#utility.yul\":1871:1877   */\n      dup1\n        /* \"#utility.yul\":1879:1885   */\n      0x00\n        /* \"#utility.yul\":1887:1893   */\n      dup1\n        /* \"#utility.yul\":1895:1901   */\n      0x00\n        /* \"#utility.yul\":1903:1909   */\n      dup1\n        /* \"#utility.yul\":1911:1917   */\n      0x00\n        /* \"#utility.yul\":1919:1925   */\n      dup1\n        /* \"#utility.yul\":1927:1933   */\n      0x00\n        /* \"#utility.yul\":1976:1979   */\n      0x0120\n        /* \"#utility.yul\":1964:1973   */\n      dup11\n        /* \"#utility.yul\":1955:1962   */\n      dup13\n        /* \"#utility.yul\":1951:1974   */\n      sub\n        /* \"#utility.yul\":1947:1980   */\n      slt\n        /* \"#utility.yul\":1944:2064   */\n      iszero\n      tag_150\n      jumpi\n        /* \"#utility.yul\":1983:2062   */\n      tag_151\n      tag_147\n      jump\t// in\n    tag_151:\n        /* \"#utility.yul\":1944:2064   */\n    tag_150:\n        /* \"#utility.yul\":2103:2104   */\n      0x00\n        /* \"#utility.yul\":2128:2189   */\n      tag_152\n        /* \"#utility.yul\":2181:2188   */\n      dup13\n        /* \"#utility.yul\":2172:2178   */\n      dup3\n        /* \"#utility.yul\":2161:2170   */\n      dup14\n        /* \"#utility.yul\":2157:2179   */\n      add\n        /* \"#utility.yul\":2128:2189   */\n      tag_126\n      jump\t// in\n    tag_152:\n        /* \"#utility.yul\":2118:2189   */\n      swap10\n      pop\n        /* \"#utility.yul\":2074:2199   */\n      pop\n        /* \"#utility.yul\":2266:2268   */\n      0x20\n        /* \"#utility.yul\":2255:2264   */\n      dup11\n        /* \"#utility.yul\":2251:2269   */\n      add\n        /* \"#utility.yul\":2238:2270   */\n      calldataload\n        /* \"#utility.yul\":2297:2315   */\n      0xffffffffffffffff\n        /* \"#utility.yul\":2289:2295   */\n      dup2\n        /* \"#utility.yul\":2286:2316   */\n      gt\n        /* \"#utility.yul\":2283:2400   */\n      iszero\n      tag_153\n      jumpi\n        /* \"#utility.yul\":2319:2398   */\n      tag_154\n      tag_155\n      jump\t// in\n    tag_154:\n        /* \"#utility.yul\":2283:2400   */\n    tag_153:\n        /* \"#utility.yul\":2424:2487   */\n      tag_156\n        /* \"#utility.yul\":2479:2486   */\n      dup13\n        /* \"#utility.yul\":2470:2476   */\n      dup3\n        /* \"#utility.yul\":2459:2468   */\n      dup14\n        /* \"#utility.yul\":2455:2477   */\n      add\n        /* \"#utility.yul\":2424:2487   */\n      tag_134\n      jump\t// in\n    tag_156:\n        /* \"#utility.yul\":2414:2487   */\n      swap9\n      pop\n        /* \"#utility.yul\":2209:2497   */\n      pop\n        /* \"#utility.yul\":2564:2566   */\n      0x40\n        /* \"#utility.yul\":2553:2562   */\n      dup11\n        /* \"#utility.yul\":2549:2567   */\n      add\n        /* \"#utility.yul\":2536:2568   */\n      calldataload\n        /* \"#utility.yul\":2595:2613   */\n      0xffffffffffffffff\n        /* \"#utility.yul\":2587:2593   */\n      dup2\n        /* \"#utility.yul\":2584:2614   */\n      gt\n        /* \"#utility.yul\":2581:2698   */\n      iszero\n      tag_157\n      jumpi\n        /* \"#utility.yul\":2617:2696   */\n      tag_158\n      tag_155\n      jump\t// in\n    tag_158:\n        /* \"#utility.yul\":2581:2698   */\n    tag_157:\n        /* \"#utility.yul\":2722:2785   */\n      tag_159\n        /* \"#utility.yul\":2777:2784   */\n      dup13\n        /* \"#utility.yul\":2768:2774   */\n      dup3\n        /* \"#utility.yul\":2757:2766   */\n      dup14\n        /* \"#utility.yul\":2753:2775   */\n      add\n        /* \"#utility.yul\":2722:2785   */\n      tag_134\n      jump\t// in\n    tag_159:\n        /* \"#utility.yul\":2712:2785   */\n      swap8\n      pop\n        /* \"#utility.yul\":2507:2795   */\n      pop\n        /* \"#utility.yul\":2834:2836   */\n      0x60\n        /* \"#utility.yul\":2860:2910   */\n      tag_160\n        /* \"#utility.yul\":2902:2909   */\n      dup13\n        /* \"#utility.yul\":2893:2899   */\n      dup3\n        /* \"#utility.yul\":2882:2891   */\n      dup14\n        /* \"#utility.yul\":2878:2900   */\n      add\n        /* \"#utility.yul\":2860:2910   */\n      tag_130\n      jump\t// in\n    tag_160:\n        /* \"#utility.yul\":2850:2910   */\n      swap7\n      pop\n        /* \"#utility.yul\":2805:2920   */\n      pop\n        /* \"#utility.yul\":2959:2962   */\n      0x80\n        /* \"#utility.yul\":2986:3036   */\n      tag_161\n        /* \"#utility.yul\":3028:3035   */\n      dup13\n        /* \"#utility.yul\":3019:3025   */\n      dup3\n        /* \"#utility.yul\":3008:3017   */\n      dup14\n        /* \"#utility.yul\":3004:3026   */\n      add\n        /* \"#utility.yul\":2986:3036   */\n      tag_130\n      jump\t// in\n    tag_161:\n        /* \"#utility.yul\":2976:3036   */\n      swap6\n      pop\n        /* \"#utility.yul\":2930:3046   */\n      pop\n        /* \"#utility.yul\":3085:3088   */\n      0xa0\n        /* \"#utility.yul\":3112:3165   */\n      tag_162\n        /* \"#utility.yul\":3157:3164   */\n      dup13\n        /* \"#utility.yul\":3148:3154   */\n      dup3\n        /* \"#utility.yul\":3137:3146   */\n      dup14\n        /* \"#utility.yul\":3133:3155   */\n      add\n        /* \"#utility.yul\":3112:3165   */\n      tag_140\n      jump\t// in\n    tag_162:\n        /* \"#utility.yul\":3102:3165   */\n      swap5\n      pop\n        /* \"#utility.yul\":3056:3175   */\n      pop\n        /* \"#utility.yul\":3214:3217   */\n      0xc0\n        /* \"#utility.yul\":3241:3294   */\n      tag_163\n        /* \"#utility.yul\":3286:3293   */\n      dup13\n        /* \"#utility.yul\":3277:3283   */\n      dup3\n        /* \"#utility.yul\":3266:3275   */\n      dup14\n        /* \"#utility.yul\":3262:3284   */\n      add\n        /* \"#utility.yul\":3241:3294   */\n      tag_140\n      jump\t// in\n    tag_163:\n        /* \"#utility.yul\":3231:3294   */\n      swap4\n      pop\n        /* \"#utility.yul\":3185:3304   */\n      pop\n        /* \"#utility.yul\":3343:3346   */\n      0xe0\n        /* \"#utility.yul\":3370:3423   */\n      tag_164\n        /* \"#utility.yul\":3415:3422   */\n      dup13\n        /* \"#utility.yul\":3406:3412   */\n      dup3\n        /* \"#utility.yul\":3395:3404   */\n      dup14\n        /* \"#utility.yul\":3391:3413   */\n      add\n        /* \"#utility.yul\":3370:3423   */\n      tag_140\n      jump\t// in\n    tag_164:\n        /* \"#utility.yul\":3360:3423   */\n      swap3\n      pop\n        /* \"#utility.yul\":3314:3433   */\n      pop\n        /* \"#utility.yul\":3472:3475   */\n      0x0100\n        /* \"#utility.yul\":3499:3552   */\n      tag_165\n        /* \"#utility.yul\":3544:3551   */\n      dup13\n        /* \"#utility.yul\":3535:3541   */\n      dup3\n        /* \"#utility.yul\":3524:3533   */\n      dup14\n        /* \"#utility.yul\":3520:3542   */\n      add\n        /* \"#utility.yul\":3499:3552   */\n      tag_140\n      jump\t// in\n    tag_165:\n        /* \"#utility.yul\":3489:3552   */\n      swap2\n      pop\n        /* \"#utility.yul\":3443:3562   */\n      pop\n        /* \"#utility.yul\":1710:3569   */\n      swap3\n      swap6\n      swap9\n      pop\n      swap3\n      swap6\n      swap9\n      pop\n      swap3\n      swap6\n      swap9\n      jump\t// out\n        /* \"#utility.yul\":3575:3717   */\n    tag_166:\n        /* \"#utility.yul\":3678:3710   */\n      tag_168\n        /* \"#utility.yul\":3704:3709   */\n      dup2\n        /* \"#utility.yul\":3678:3710   */\n      tag_169\n      jump\t// in\n    tag_168:\n        /* \"#utility.yul\":3673:3676   */\n      dup3\n        /* \"#utility.yul\":3666:3711   */\n      mstore\n        /* \"#utility.yul\":3575:3717   */\n      pop\n      pop\n      jump\t// out\n        /* \"#utility.yul\":3723:3832   */\n    tag_170:\n        /* \"#utility.yul\":3804:3825   */\n      tag_172\n        /* \"#utility.yul\":3819:3824   */\n      dup2\n        /* \"#utility.yul\":3804:3825   */\n      tag_173\n      jump\t// in\n    tag_172:\n        /* \"#utility.yul\":3799:3802   */\n      dup3\n        /* \"#utility.yul\":3792:3826   */\n      mstore\n        /* \"#utility.yul\":3723:3832   */\n      pop\n      pop\n      jump\t// out\n        /* \"#utility.yul\":3838:4202   */\n    tag_174:\n        /* \"#utility.yul\":3926:3929   */\n      0x00\n        /* \"#utility.yul\":3954:3993   */\n      tag_176\n        /* \"#utility.yul\":3987:3992   */\n      dup3\n        /* \"#utility.yul\":3954:3993   */\n      tag_177\n      jump\t// in\n    tag_176:\n        /* \"#utility.yul\":4009:4080   */\n      tag_178\n        /* \"#utility.yul\":4073:4079   */\n      dup2\n        /* \"#utility.yul\":4068:4071   */\n      dup6\n        /* \"#utility.yul\":4009:4080   */\n      tag_179\n      jump\t// in\n    tag_178:\n        /* \"#utility.yul\":4002:4080   */\n      swap4\n      pop\n        /* \"#utility.yul\":4089:4141   */\n      tag_180\n        /* \"#utility.yul\":4134:4140   */\n      dup2\n        /* \"#utility.yul\":4129:4132   */\n      dup6\n        /* \"#utility.yul\":4122:4126   */\n      0x20\n        /* \"#utility.yul\":4115:4120   */\n      dup7\n        /* \"#utility.yul\":4111:4127   */\n      add\n        /* \"#utility.yul\":4089:4141   */\n      tag_181\n      jump\t// in\n    tag_180:\n        /* \"#utility.yul\":4166:4195   */\n      tag_182\n        /* \"#utility.yul\":4188:4194   */\n      dup2\n        /* \"#utility.yul\":4166:4195   */\n      tag_183\n      jump\t// in\n    tag_182:\n        /* \"#utility.yul\":4161:4164   */\n      dup5\n        /* \"#utility.yul\":4157:4196   */\n      add\n        /* \"#utility.yul\":4150:4196   */\n      swap2\n      pop\n        /* \"#utility.yul\":3930:4202   */\n      pop\n        /* \"#utility.yul\":3838:4202   */\n      swap3\n      swap2\n      pop\n      pop\n      jump\t// out\n        /* \"#utility.yul\":4208:4326   */\n    tag_184:\n        /* \"#utility.yul\":4295:4319   */\n      tag_186\n        /* \"#utility.yul\":4313:4318   */\n      dup2\n        /* \"#utility.yul\":4295:4319   */\n      tag_187\n      jump\t// in\n    tag_186:\n        /* \"#utility.yul\":4290:4293   */\n      dup3\n        /* \"#utility.yul\":4283:4320   */\n      mstore\n        /* \"#utility.yul\":4208:4326   */\n      pop\n      pop\n      jump\t// out\n        /* \"#utility.yul\":4332:5630   */\n    tag_39:\n        /* \"#utility.yul\":4693:4697   */\n      0x00\n        /* \"#utility.yul\":4731:4734   */\n      0x0120\n        /* \"#utility.yul\":4720:4729   */\n      dup3\n        /* \"#utility.yul\":4716:4735   */\n      add\n        /* \"#utility.yul\":4708:4735   */\n      swap1\n      pop\n        /* \"#utility.yul\":4745:4832   */\n      tag_189\n        /* \"#utility.yul\":4829:4830   */\n      0x00\n        /* \"#utility.yul\":4818:4827   */\n      dup4\n        /* \"#utility.yul\":4814:4831   */\n      add\n        /* \"#utility.yul\":4805:4811   */\n      dup13\n        /* \"#utility.yul\":4745:4832   */\n      tag_166\n      jump\t// in\n    tag_189:\n        /* \"#utility.yul\":4879:4888   */\n      dup2\n        /* \"#utility.yul\":4873:4877   */\n      dup2\n        /* \"#utility.yul\":4869:4889   */\n      sub\n        /* \"#utility.yul\":4864:4866   */\n      0x20\n        /* \"#utility.yul\":4853:4862   */\n      dup4\n        /* \"#utility.yul\":4849:4867   */\n      add\n        /* \"#utility.yul\":4842:4890   */\n      mstore\n        /* \"#utility.yul\":4907:4985   */\n      tag_190\n        /* \"#utility.yul\":4980:4984   */\n      dup2\n        /* \"#utility.yul\":4971:4977   */\n      dup12\n        /* \"#utility.yul\":4907:4985   */\n      tag_174\n      jump\t// in\n    tag_190:\n        /* \"#utility.yul\":4899:4985   */\n      swap1\n      pop\n        /* \"#utility.yul\":5032:5041   */\n      dup2\n        /* \"#utility.yul\":5026:5030   */\n      dup2\n        /* \"#utility.yul\":5022:5042   */\n      sub\n        /* \"#utility.yul\":5017:5019   */\n      0x40\n        /* \"#utility.yul\":5006:5015   */\n      dup4\n        /* \"#utility.yul\":5002:5020   */\n      add\n        /* \"#utility.yul\":4995:5043   */\n      mstore\n        /* \"#utility.yul\":5060:5138   */\n      tag_191\n        /* \"#utility.yul\":5133:5137   */\n      dup2\n        /* \"#utility.yul\":5124:5130   */\n      dup11\n        /* \"#utility.yul\":5060:5138   */\n      tag_174\n      jump\t// in\n    tag_191:\n        /* \"#utility.yul\":5052:5138   */\n      swap1\n      pop\n        /* \"#utility.yul\":5148:5214   */\n      tag_192\n        /* \"#utility.yul\":5210:5212   */\n      0x60\n        /* \"#utility.yul\":5199:5208   */\n      dup4\n        /* \"#utility.yul\":5195:5213   */\n      add\n        /* \"#utility.yul\":5186:5192   */\n      dup10\n        /* \"#utility.yul\":5148:5214   */\n      tag_170\n      jump\t// in\n    tag_192:\n        /* \"#utility.yul\":5224:5291   */\n      tag_193\n        /* \"#utility.yul\":5286:5289   */\n      0x80\n        /* \"#utility.yul\":5275:5284   */\n      dup4\n        /* \"#utility.yul\":5271:5290   */\n      add\n        /* \"#utility.yul\":5262:5268   */\n      dup9\n        /* \"#utility.yul\":5224:5291   */\n      tag_170\n      jump\t// in\n    tag_193:\n        /* \"#utility.yul\":5301:5374   */\n      tag_194\n        /* \"#utility.yul\":5369:5372   */\n      0xa0\n        /* \"#utility.yul\":5358:5367   */\n      dup4\n        /* \"#utility.yul\":5354:5373   */\n      add\n        /* \"#utility.yul\":5345:5351   */\n      dup8\n        /* \"#utility.yul\":5301:5374   */\n      tag_184\n      jump\t// in\n    tag_194:\n        /* \"#utility.yul\":5384:5457   */\n      tag_195\n        /* \"#utility.yul\":5452:5455   */\n      0xc0\n        /* \"#utility.yul\":5441:5450   */\n      dup4\n        /* \"#utility.yul\":5437:5456   */\n      add\n        /* \"#utility.yul\":5428:5434   */\n      dup7\n        /* \"#utility.yul\":5384:5457   */\n      tag_184\n      jump\t// in\n    tag_195:\n        /* \"#utility.yul\":5467:5540   */\n      tag_196\n        /* \"#utility.yul\":5535:5538   */\n      0xe0\n        /* \"#utility.yul\":5524:5533   */\n      dup4\n        /* \"#utility.yul\":5520:5539   */\n      add\n        /* \"#utility.yul\":5511:5517   */\n      dup6\n        /* \"#utility.yul\":5467:5540   */\n      tag_184\n      jump\t// in\n    tag_196:\n        /* \"#utility.yul\":5550:5623   */\n      tag_197\n        /* \"#utility.yul\":5618:5621   */\n      0x0100\n        /* \"#utility.yul\":5607:5616   */\n      dup4\n        /* \"#utility.yul\":5603:5622   */\n      add\n        /* \"#utility.yul\":5594:5600   */\n      dup5\n        /* \"#utility.yul\":5550:5623   */\n      tag_184\n      jump\t// in\n    tag_197:\n        /* \"#utility.yul\":4332:5630   */\n      swap11\n      swap10\n      pop\n      pop\n      pop\n      pop\n      pop\n      pop\n      pop\n      pop\n      pop\n      pop\n      jump\t// out\n        /* \"#utility.yul\":5636:5846   */\n    tag_19:\n        /* \"#utility.yul\":5723:5727   */\n      0x00\n        /* \"#utility.yul\":5761:5763   */\n      0x20\n        /* \"#utility.yul\":5750:5759   */\n      dup3\n        /* \"#utility.yul\":5746:5764   */\n      add\n        /* \"#utility.yul\":5738:5764   */\n      swap1\n      pop\n        /* \"#utility.yul\":5774:5839   */\n      tag_199\n        /* \"#utility.yul\":5836:5837   */\n      0x00\n        /* \"#utility.yul\":5825:5834   */\n      dup4\n        /* \"#utility.yul\":5821:5838   */\n      add\n        /* \"#utility.yul\":5812:5818   */\n      dup5\n        /* \"#utility.yul\":5774:5839   */\n      tag_170\n      jump\t// in\n    tag_199:\n        /* \"#utility.yul\":5636:5846   */\n      swap3\n      swap2\n      pop\n      pop\n      jump\t// out\n        /* \"#utility.yul\":5852:6074   */\n    tag_28:\n        /* \"#utility.yul\":5945:5949   */\n      0x00\n        /* \"#utility.yul\":5983:5985   */\n      0x20\n        /* \"#utility.yul\":5972:5981   */\n      dup3\n        /* \"#utility.yul\":5968:5986   */\n      add\n        /* \"#utility.yul\":5960:5986   */\n      swap1\n      pop\n        /* \"#utility.yul\":5996:6067   */\n      tag_201\n        /* \"#utility.yul\":6064:6065   */\n      0x00\n        /* \"#utility.yul\":6053:6062   */\n      dup4\n        /* \"#utility.yul\":6049:6066   */\n      add\n        /* \"#utility.yul\":6040:6046   */\n      dup5\n        /* \"#utility.yul\":5996:6067   */\n      tag_184\n      jump\t// in\n    tag_201:\n        /* \"#utility.yul\":5852:6074   */\n      swap3\n      swap2\n      pop\n      pop\n      jump\t// out\n        /* \"#utility.yul\":6080:6209   */\n    tag_116:\n        /* \"#utility.yul\":6114:6120   */\n      0x00\n        /* \"#utility.yul\":6141:6161   */\n      tag_203\n      tag_204\n      jump\t// in\n    tag_203:\n        /* \"#utility.yul\":6131:6161   */\n      swap1\n      pop\n        /* \"#utility.yul\":6170:6203   */\n      tag_205\n        /* \"#utility.yul\":6198:6202   */\n      dup3\n        /* \"#utility.yul\":6190:6196   */\n      dup3\n        /* \"#utility.yul\":6170:6203   */\n      tag_206\n      jump\t// in\n    tag_205:\n        /* \"#utility.yul\":6080:6209   */\n      swap2\n      swap1\n      pop\n      jump\t// out\n        /* \"#utility.yul\":6215:6290   */\n    tag_204:\n        /* \"#utility.yul\":6248:6254   */\n      0x00\n        /* \"#utility.yul\":6281:6283   */\n      0x40\n        /* \"#utility.yul\":6275:6284   */\n      mload\n        /* \"#utility.yul\":6265:6284   */\n      swap1\n      pop\n        /* \"#utility.yul\":6215:6290   */\n      swap1\n      jump\t// out\n        /* \"#utility.yul\":6296:6604   */\n    tag_115:\n        /* \"#utility.yul\":6358:6362   */\n      0x00\n        /* \"#utility.yul\":6448:6466   */\n      0xffffffffffffffff\n        /* \"#utility.yul\":6440:6446   */\n      dup3\n        /* \"#utility.yul\":6437:6467   */\n      gt\n        /* \"#utility.yul\":6434:6490   */\n      iszero\n      tag_209\n      jumpi\n        /* \"#utility.yul\":6470:6488   */\n      tag_210\n      tag_211\n      jump\t// in\n    tag_210:\n        /* \"#utility.yul\":6434:6490   */\n    tag_209:\n        /* \"#utility.yul\":6508:6537   */\n      tag_212\n        /* \"#utility.yul\":6530:6536   */\n      dup3\n        /* \"#utility.yul\":6508:6537   */\n      tag_183\n      jump\t// in\n    tag_212:\n        /* \"#utility.yul\":6500:6537   */\n      swap1\n      pop\n        /* \"#utility.yul\":6592:6596   */\n      0x20\n        /* \"#utility.yul\":6586:6590   */\n      dup2\n        /* \"#utility.yul\":6582:6597   */\n      add\n        /* \"#utility.yul\":6574:6597   */\n      swap1\n      pop\n        /* \"#utility.yul\":6296:6604   */\n      swap2\n      swap1\n      pop\n      jump\t// out\n        /* \"#utility.yul\":6610:6709   */\n    tag_177:\n        /* \"#utility.yul\":6662:6668   */\n      0x00\n        /* \"#utility.yul\":6696:6701   */\n      dup2\n        /* \"#utility.yul\":6690:6702   */\n      mload\n        /* \"#utility.yul\":6680:6702   */\n      swap1\n      pop\n        /* \"#utility.yul\":6610:6709   */\n      swap2\n      swap1\n      pop\n      jump\t// out\n        /* \"#utility.yul\":6715:6884   */\n    tag_179:\n        /* \"#utility.yul\":6799:6810   */\n      0x00\n        /* \"#utility.yul\":6833:6839   */\n      dup3\n        /* \"#utility.yul\":6828:6831   */\n      dup3\n        /* \"#utility.yul\":6821:6840   */\n      mstore\n        /* \"#utility.yul\":6873:6877   */\n      0x20\n        /* \"#utility.yul\":6868:6871   */\n      dup3\n        /* \"#utility.yul\":6864:6878   */\n      add\n        /* \"#utility.yul\":6849:6878   */\n      swap1\n      pop\n        /* \"#utility.yul\":6715:6884   */\n      swap3\n      swap2\n      pop\n      pop\n      jump\t// out\n        /* \"#utility.yul\":6890:7195   */\n    tag_92:\n        /* \"#utility.yul\":6930:6933   */\n      0x00\n        /* \"#utility.yul\":6949:6969   */\n      tag_216\n        /* \"#utility.yul\":6967:6968   */\n      dup3\n        /* \"#utility.yul\":6949:6969   */\n      tag_187\n      jump\t// in\n    tag_216:\n        /* \"#utility.yul\":6944:6969   */\n      swap2\n      pop\n        /* \"#utility.yul\":6983:7003   */\n      tag_217\n        /* \"#utility.yul\":7001:7002   */\n      dup4\n        /* \"#utility.yul\":6983:7003   */\n      tag_187\n      jump\t// in\n    tag_217:\n        /* \"#utility.yul\":6978:7003   */\n      swap3\n      pop\n        /* \"#utility.yul\":7137:7138   */\n      dup3\n        /* \"#utility.yul\":7069:7135   */\n      0xffffffffffffffffffffffffffffffffffffffffffffffffffffffffffffffff\n        /* \"#utility.yul\":7065:7139   */\n      sub\n        /* \"#utility.yul\":7062:7063   */\n      dup3\n        /* \"#utility.yul\":7059:7140   */\n      gt\n        /* \"#utility.yul\":7056:7163   */\n      iszero\n      tag_218\n      jumpi\n        /* \"#utility.yul\":7143:7161   */\n      tag_219\n      tag_220\n      jump\t// in\n    tag_219:\n        /* \"#utility.yul\":7056:7163   */\n    tag_218:\n        /* \"#utility.yul\":7187:7188   */\n      dup3\n        /* \"#utility.yul\":7184:7185   */\n      dup3\n        /* \"#utility.yul\":7180:7189   */\n      add\n        /* \"#utility.yul\":7173:7189   */\n      swap1\n      pop\n        /* \"#utility.yul\":6890:7195   */\n      swap3\n      swap2\n      pop\n      pop\n      jump\t// out\n        /* \"#utility.yul\":7201:7386   */\n    tag_68:\n        /* \"#utility.yul\":7241:7242   */\n      0x00\n        /* \"#utility.yul\":7258:7278   */\n      tag_222\n        /* \"#utility.yul\":7276:7277   */\n      dup3\n        /* \"#utility.yul\":7258:7278   */\n      tag_187\n      jump\t// in\n    tag_222:\n        /* \"#utility.yul\":7253:7278   */\n      swap2\n      pop\n        /* \"#utility.yul\":7292:7312   */\n      tag_223\n        /* \"#utility.yul\":7310:7311   */\n      dup4\n        /* \"#utility.yul\":7292:7312   */\n      tag_187\n      jump\t// in\n    tag_223:\n        /* \"#utility.yul\":7287:7312   */\n      swap3\n      pop\n        /* \"#utility.yul\":7331:7332   */\n      dup3\n        /* \"#utility.yul\":7321:7356   */\n      tag_224\n      jumpi\n        /* \"#utility.yul\":7336:7354   */\n      tag_225\n      tag_226\n      jump\t// in\n    tag_225:\n        /* \"#utility.yul\":7321:7356   */\n    tag_224:\n        /* \"#utility.yul\":7378:7379   */\n      dup3\n        /* \"#utility.yul\":7375:7376   */\n      dup3\n        /* \"#utility.yul\":7371:7380   */\n      div\n        /* \"#utility.yul\":7366:7380   */\n      swap1\n      pop\n        /* \"#utility.yul\":7201:7386   */\n      swap3\n      swap2\n      pop\n      pop\n      jump\t// out\n        /* \"#utility.yul\":7392:7740   */\n    tag_99:\n        /* \"#utility.yul\":7432:7439   */\n      0x00\n        /* \"#utility.yul\":7455:7475   */\n      tag_228\n        /* \"#utility.yul\":7473:7474   */\n      dup3\n        /* \"#utility.yul\":7455:7475   */\n      tag_187\n      jump\t// in\n    tag_228:\n        /* \"#utility.yul\":7450:7475   */\n      swap2\n      pop\n        /* \"#utility.yul\":7489:7509   */\n      tag_229\n        /* \"#utility.yul\":7507:7508   */\n      dup4\n        /* \"#utility.yul\":7489:7509   */\n      tag_187\n      jump\t// in\n    tag_229:\n        /* \"#utility.yul\":7484:7509   */\n      swap3\n      pop\n        /* \"#utility.yul\":7677:7678   */\n      dup2\n        /* \"#utility.yul\":7609:7675   */\n      0xffffffffffffffffffffffffffffffffffffffffffffffffffffffffffffffff\n        /* \"#utility.yul\":7605:7679   */\n      div\n        /* \"#utility.yul\":7602:7603   */\n      dup4\n        /* \"#utility.yul\":7599:7680   */\n      gt\n        /* \"#utility.yul\":7594:7595   */\n      dup3\n        /* \"#utility.yul\":7587:7596   */\n      iszero\n        /* \"#utility.yul\":7580:7597   */\n      iszero\n        /* \"#utility.yul\":7576:7681   */\n      and\n        /* \"#utility.yul\":7573:7704   */\n      iszero\n      tag_230\n      jumpi\n        /* \"#utility.yul\":7684:7702   */\n      tag_231\n      tag_220\n      jump\t// in\n    tag_231:\n        /* \"#utility.yul\":7573:7704   */\n    tag_230:\n        /* \"#utility.yul\":7732:7733   */\n      dup3\n        /* \"#utility.yul\":7729:7730   */\n      dup3\n        /* \"#utility.yul\":7725:7734   */\n      mul\n        /* \"#utility.yul\":7714:7734   */\n      swap1\n      pop\n        /* \"#utility.yul\":7392:7740   */\n      swap3\n      swap2\n      pop\n      pop\n      jump\t// out\n        /* \"#utility.yul\":7746:7937   */\n    tag_63:\n        /* \"#utility.yul\":7786:7790   */\n      0x00\n        /* \"#utility.yul\":7806:7826   */\n      tag_233\n        /* \"#utility.yul\":7824:7825   */\n      dup3\n        /* \"#utility.yul\":7806:7826   */\n      tag_187\n      jump\t// in\n    tag_233:\n        /* \"#utility.yul\":7801:7826   */\n      swap2\n      pop\n        /* \"#utility.yul\":7840:7860   */\n      tag_234\n        /* \"#utility.yul\":7858:7859   */\n      dup4\n        /* \"#utility.yul\":7840:7860   */\n      tag_187\n      jump\t// in\n    tag_234:\n        /* \"#utility.yul\":7835:7860   */\n      swap3\n      pop\n        /* \"#utility.yul\":7879:7880   */\n      dup3\n        /* \"#utility.yul\":7876:7877   */\n      dup3\n        /* \"#utility.yul\":7873:7881   */\n      lt\n        /* \"#utility.yul\":7870:7904   */\n      iszero\n      tag_235\n      jumpi\n        /* \"#utility.yul\":7884:7902   */\n      tag_236\n      tag_220\n      jump\t// in\n    tag_236:\n        /* \"#utility.yul\":7870:7904   */\n    tag_235:\n        /* \"#utility.yul\":7929:7930   */\n      dup3\n        /* \"#utility.yul\":7926:7927   */\n      dup3\n        /* \"#utility.yul\":7922:7931   */\n      sub\n        /* \"#utility.yul\":7914:7931   */\n      swap1\n      pop\n        /* \"#utility.yul\":7746:7937   */\n      swap3\n      swap2\n      pop\n      pop\n      jump\t// out\n        /* \"#utility.yul\":7943:8039   */\n    tag_237:\n        /* \"#utility.yul\":7980:7987   */\n      0x00\n        /* \"#utility.yul\":8009:8033   */\n      tag_239\n        /* \"#utility.yul\":8027:8032   */\n      dup3\n        /* \"#utility.yul\":8009:8033   */\n      tag_240\n      jump\t// in\n    tag_239:\n        /* \"#utility.yul\":7998:8033   */\n      swap1\n      pop\n        /* \"#utility.yul\":7943:8039   */\n      swap2\n      swap1\n      pop\n      jump\t// out\n        /* \"#utility.yul\":8045:8149   */\n    tag_169:\n        /* \"#utility.yul\":8090:8097   */\n      0x00\n        /* \"#utility.yul\":8119:8143   */\n      tag_242\n        /* \"#utility.yul\":8137:8142   */\n      dup3\n        /* \"#utility.yul\":8119:8143   */\n      tag_240\n      jump\t// in\n    tag_242:\n        /* \"#utility.yul\":8108:8143   */\n      swap1\n      pop\n        /* \"#utility.yul\":8045:8149   */\n      swap2\n      swap1\n      pop\n      jump\t// out\n        /* \"#utility.yul\":8155:8245   */\n    tag_173:\n        /* \"#utility.yul\":8189:8196   */\n      0x00\n        /* \"#utility.yul\":8232:8237   */\n      dup2\n        /* \"#utility.yul\":8225:8238   */\n      iszero\n        /* \"#utility.yul\":8218:8239   */\n      iszero\n        /* \"#utility.yul\":8207:8239   */\n      swap1\n      pop\n        /* \"#utility.yul\":8155:8245   */\n      swap2\n      swap1\n      pop\n      jump\t// out\n        /* \"#utility.yul\":8251:8377   */\n    tag_240:\n        /* \"#utility.yul\":8288:8295   */\n      0x00\n        /* \"#utility.yul\":8328:8370   */\n      0xffffffffffffffffffffffffffffffffffffffff\n        /* \"#utility.yul\":8321:8326   */\n      dup3\n        /* \"#utility.yul\":8317:8371   */\n      and\n        /* \"#utility.yul\":8306:8371   */\n      swap1\n      pop\n        /* \"#utility.yul\":8251:8377   */\n      swap2\n      swap1\n      pop\n      jump\t// out\n        /* \"#utility.yul\":8383:8460   */\n    tag_187:\n        /* \"#utility.yul\":8420:8427   */\n      0x00\n        /* \"#utility.yul\":8449:8454   */\n      dup2\n        /* \"#utility.yul\":8438:8454   */\n      swap1\n      pop\n        /* \"#utility.yul\":8383:8460   */\n      swap2\n      swap1\n      pop\n      jump\t// out\n        /* \"#utility.yul\":8466:8620   */\n    tag_121:\n        /* \"#utility.yul\":8550:8556   */\n      dup3\n        /* \"#utility.yul\":8545:8548   */\n      dup2\n        /* \"#utility.yul\":8540:8543   */\n      dup4\n        /* \"#utility.yul\":8527:8557   */\n      calldatacopy\n        /* \"#utility.yul\":8612:8613   */\n      0x00\n        /* \"#utility.yul\":8603:8609   */\n      dup4\n        /* \"#utility.yul\":8598:8601   */\n      dup4\n        /* \"#utility.yul\":8594:8610   */\n      add\n        /* \"#utility.yul\":8587:8614   */\n      mstore\n        /* \"#utility.yul\":8466:8620   */\n      pop\n      pop\n      pop\n      jump\t// out\n        /* \"#utility.yul\":8626:8933   */\n    tag_181:\n        /* \"#utility.yul\":8694:8695   */\n      0x00\n        /* \"#utility.yul\":8704:8817   */\n    tag_248:\n        /* \"#utility.yul\":8718:8724   */\n      dup4\n        /* \"#utility.yul\":8715:8716   */\n      dup2\n        /* \"#utility.yul\":8712:8725   */\n      lt\n        /* \"#utility.yul\":8704:8817   */\n      iszero\n      tag_250\n      jumpi\n        /* \"#utility.yul\":8803:8804   */\n      dup1\n        /* \"#utility.yul\":8798:8801   */\n      dup3\n        /* \"#utility.yul\":8794:8805   */\n      add\n        /* \"#utility.yul\":8788:8806   */\n      mload\n        /* \"#utility.yul\":8784:8785   */\n      dup2\n        /* \"#utility.yul\":8779:8782   */\n      dup5\n        /* \"#utility.yul\":8775:8786   */\n      add\n        /* \"#utility.yul\":8768:8807   */\n      mstore\n        /* \"#utility.yul\":8740:8742   */\n      0x20\n        /* \"#utility.yul\":8737:8738   */\n      dup2\n        /* \"#utility.yul\":8733:8743   */\n      add\n        /* \"#utility.yul\":8728:8743   */\n      swap1\n      pop\n        /* \"#utility.yul\":8704:8817   */\n      jump(tag_248)\n    tag_250:\n        /* \"#utility.yul\":8835:8841   */\n      dup4\n        /* \"#utility.yul\":8832:8833   */\n      dup2\n        /* \"#utility.yul\":8829:8842   */\n      gt\n        /* \"#utility.yul\":8826:8927   */\n      iszero\n      tag_251\n      jumpi\n        /* \"#utility.yul\":8915:8916   */\n      0x00\n        /* \"#utility.yul\":8906:8912   */\n      dup5\n        /* \"#utility.yul\":8901:8904   */\n      dup5\n        /* \"#utility.yul\":8897:8913   */\n      add\n        /* \"#utility.yul\":8890:8917   */\n      mstore\n        /* \"#utility.yul\":8826:8927   */\n    tag_251:\n        /* \"#utility.yul\":8675:8933   */\n      pop\n        /* \"#utility.yul\":8626:8933   */\n      pop\n      pop\n      pop\n      jump\t// out\n        /* \"#utility.yul\":8939:9259   */\n    tag_74:\n        /* \"#utility.yul\":8983:8989   */\n      0x00\n        /* \"#utility.yul\":9020:9021   */\n      0x02\n        /* \"#utility.yul\":9014:9018   */\n      dup3\n        /* \"#utility.yul\":9010:9022   */\n      div\n        /* \"#utility.yul\":9000:9022   */\n      swap1\n      pop\n        /* \"#utility.yul\":9067:9068   */\n      0x01\n        /* \"#utility.yul\":9061:9065   */\n      dup3\n        /* \"#utility.yul\":9057:9069   */\n      and\n        /* \"#utility.yul\":9088:9106   */\n      dup1\n        /* \"#utility.yul\":9078:9159   */\n      tag_253\n      jumpi\n        /* \"#utility.yul\":9144:9148   */\n      0x7f\n        /* \"#utility.yul\":9136:9142   */\n      dup3\n        /* \"#utility.yul\":9132:9149   */\n      and\n        /* \"#utility.yul\":9122:9149   */\n      swap2\n      pop\n        /* \"#utility.yul\":9078:9159   */\n    tag_253:\n        /* \"#utility.yul\":9206:9208   */\n      0x20\n        /* \"#utility.yul\":9198:9204   */\n      dup3\n        /* \"#utility.yul\":9195:9209   */\n      lt\n        /* \"#utility.yul\":9175:9193   */\n      dup2\n        /* \"#utility.yul\":9172:9210   */\n      eq\n        /* \"#utility.yul\":9169:9253   */\n      iszero\n      tag_254\n      jumpi\n        /* \"#utility.yul\":9225:9243   */\n      tag_255\n      tag_256\n      jump\t// in\n    tag_255:\n        /* \"#utility.yul\":9169:9253   */\n    tag_254:\n        /* \"#utility.yul\":8990:9259   */\n      pop\n        /* \"#utility.yul\":8939:9259   */\n      swap2\n      swap1\n      pop\n      jump\t// out\n        /* \"#utility.yul\":9265:9546   */\n    tag_206:\n        /* \"#utility.yul\":9348:9375   */\n      tag_258\n        /* \"#utility.yul\":9370:9374   */\n      dup3\n        /* \"#utility.yul\":9348:9375   */\n      tag_183\n      jump\t// in\n    tag_258:\n        /* \"#utility.yul\":9340:9346   */\n      dup2\n        /* \"#utility.yul\":9336:9376   */\n      add\n        /* \"#utility.yul\":9478:9484   */\n      dup2\n        /* \"#utility.yul\":9466:9476   */\n      dup2\n        /* \"#utility.yul\":9463:9485   */\n      lt\n        /* \"#utility.yul\":9442:9460   */\n      0xffffffffffffffff\n        /* \"#utility.yul\":9430:9440   */\n      dup3\n        /* \"#utility.yul\":9427:9461   */\n      gt\n        /* \"#utility.yul\":9424:9486   */\n      or\n        /* \"#utility.yul\":9421:9509   */\n      iszero\n      tag_259\n      jumpi\n        /* \"#utility.yul\":9489:9507   */\n      tag_260\n      tag_211\n      jump\t// in\n    tag_260:\n        /* \"#utility.yul\":9421:9509   */\n    tag_259:\n        /* \"#utility.yul\":9529:9539   */\n      dup1\n        /* \"#utility.yul\":9525:9527   */\n      0x40\n        /* \"#utility.yul\":9518:9540   */\n      mstore\n        /* \"#utility.yul\":9308:9546   */\n      pop\n        /* \"#utility.yul\":9265:9546   */\n      pop\n      pop\n      jump\t// out\n        /* \"#utility.yul\":9552:9732   */\n    tag_220:\n        /* \"#utility.yul\":9600:9677   */\n      0x4e487b7100000000000000000000000000000000000000000000000000000000\n        /* \"#utility.yul\":9597:9598   */\n      0x00\n        /* \"#utility.yul\":9590:9678   */\n      mstore\n        /* \"#utility.yul\":9697:9701   */\n      0x11\n        /* \"#utility.yul\":9694:9695   */\n      0x04\n        /* \"#utility.yul\":9687:9702   */\n      mstore\n        /* \"#utility.yul\":9721:9725   */\n      0x24\n        /* \"#utility.yul\":9718:9719   */\n      0x00\n        /* \"#utility.yul\":9711:9726   */\n      revert\n        /* \"#utility.yul\":9738:9918   */\n    tag_226:\n        /* \"#utility.yul\":9786:9863   */\n      0x4e487b7100000000000000000000000000000000000000000000000000000000\n        /* \"#utility.yul\":9783:9784   */\n      0x00\n        /* \"#utility.yul\":9776:9864   */\n      mstore\n        /* \"#utility.yul\":9883:9887   */\n      0x12\n        /* \"#utility.yul\":9880:9881   */\n      0x04\n        /* \"#utility.yul\":9873:9888   */\n      mstore\n        /* \"#utility.yul\":9907:9911   */\n      0x24\n        /* \"#utility.yul\":9904:9905   */\n      0x00\n        /* \"#utility.yul\":9897:9912   */\n      revert\n        /* \"#utility.yul\":9924:10104   */\n    tag_256:\n        /* \"#utility.yul\":9972:10049   */\n      0x4e487b7100000000000000000000000000000000000000000000000000000000\n        /* \"#utility.yul\":9969:9970   */\n      0x00\n        /* \"#utility.yul\":9962:10050   */\n      mstore\n        /* \"#utility.yul\":10069:10073   */\n      0x22\n        /* \"#utility.yul\":10066:10067   */\n      0x04\n        /* \"#utility.yul\":10059:10074   */\n      mstore\n        /* \"#utility.yul\":10093:10097   */\n      0x24\n        /* \"#utility.yul\":10090:10091   */\n      0x00\n        /* \"#utility.yul\":10083:10098   */\n      revert\n        /* \"#utility.yul\":10110:10290   */\n    tag_211:\n        /* \"#utility.yul\":10158:10235   */\n      0x4e487b7100000000000000000000000000000000000000000000000000000000\n        /* \"#utility.yul\":10155:10156   */\n      0x00\n        /* \"#utility.yul\":10148:10236   */\n      mstore\n        /* \"#utility.yul\":10255:10259   */\n      0x41\n        /* \"#utility.yul\":10252:10253   */\n      0x04\n        /* \"#utility.yul\":10245:10260   */\n      mstore\n        /* \"#utility.yul\":10279:10283   */\n      0x24\n        /* \"#utility.yul\":10276:10277   */\n      0x00\n        /* \"#utility.yul\":10269:10284   */\n      revert\n        /* \"#utility.yul\":10296:10413   */\n    tag_138:\n        /* \"#utility.yul\":10405:10406   */\n      0x00\n        /* \"#utility.yul\":10402:10403   */\n      dup1\n        /* \"#utility.yul\":10395:10407   */\n      revert\n        /* \"#utility.yul\":10419:10536   */\n    tag_119:\n        /* \"#utility.yul\":10528:10529   */\n      0x00\n        /* \"#utility.yul\":10525:10526   */\n      dup1\n        /* \"#utility.yul\":10518:10530   */\n      revert\n        /* \"#utility.yul\":10542:10659   */\n    tag_155:\n        /* \"#utility.yul\":10651:10652   */\n      0x00\n        /* \"#utility.yul\":10648:10649   */\n      dup1\n        /* \"#utility.yul\":10641:10653   */\n      revert\n        /* \"#utility.yul\":10665:10782   */\n    tag_147:\n        /* \"#utility.yul\":10774:10775   */\n      0x00\n        /* \"#utility.yul\":10771:10772   */\n      dup1\n        /* \"#utility.yul\":10764:10776   */\n      revert\n        /* \"#utility.yul\":10788:10890   */\n    tag_183:\n        /* \"#utility.yul\":10829:10835   */\n      0x00\n        /* \"#utility.yul\":10880:10882   */\n      0x1f\n        /* \"#utility.yul\":10876:10883   */\n      not\n        /* \"#utility.yul\":10871:10873   */\n      0x1f\n        /* \"#utility.yul\":10864:10869   */\n      dup4\n        /* \"#utility.yul\":10860:10874   */\n      add\n        /* \"#utility.yul\":10856:10884   */\n      and\n        /* \"#utility.yul\":10846:10884   */\n      swap1\n      pop\n        /* \"#utility.yul\":10788:10890   */\n      swap2\n      swap1\n      pop\n      jump\t// out\n        /* \"#utility.yul\":10896:11018   */\n    tag_125:\n        /* \"#utility.yul\":10969:10993   */\n      tag_271\n        /* \"#utility.yul\":10987:10992   */\n      dup2\n        /* \"#utility.yul\":10969:10993   */\n      tag_237\n      jump\t// in\n    tag_271:\n        /* \"#utility.yul\":10962:10967   */\n      dup2\n        /* \"#utility.yul\":10959:10994   */\n      eq\n        /* \"#utility.yul\":10949:11012   */\n      tag_272\n      jumpi\n        /* \"#utility.yul\":11008:11009   */\n      0x00\n        /* \"#utility.yul\":11005:11006   */\n      dup1\n        /* \"#utility.yul\":10998:11010   */\n      revert\n        /* \"#utility.yul\":10949:11012   */\n    tag_272:\n        /* \"#utility.yul\":10896:11018   */\n      pop\n      jump\t// out\n        /* \"#utility.yul\":11024:11162   */\n    tag_129:\n        /* \"#utility.yul\":11105:11137   */\n      tag_274\n        /* \"#utility.yul\":11131:11136   */\n      dup2\n        /* \"#utility.yul\":11105:11137   */\n      tag_169\n      jump\t// in\n    tag_274:\n        /* \"#utility.yul\":11098:11103   */\n      dup2\n        /* \"#utility.yul\":11095:11138   */\n      eq\n        /* \"#utility.yul\":11085:11156   */\n      tag_275\n      jumpi\n        /* \"#utility.yul\":11152:11153   */\n      0x00\n        /* \"#utility.yul\":11149:11150   */\n      dup1\n        /* \"#utility.yul\":11142:11154   */\n      revert\n        /* \"#utility.yul\":11085:11156   */\n    tag_275:\n        /* \"#utility.yul\":11024:11162   */\n      pop\n      jump\t// out\n        /* \"#utility.yul\":11168:11284   */\n    tag_133:\n        /* \"#utility.yul\":11238:11259   */\n      tag_277\n        /* \"#utility.yul\":11253:11258   */\n      dup2\n        /* \"#utility.yul\":11238:11259   */\n      tag_173\n      jump\t// in\n    tag_277:\n        /* \"#utility.yul\":11231:11236   */\n      dup2\n        /* \"#utility.yul\":11228:11260   */\n      eq\n        /* \"#utility.yul\":11218:11278   */\n      tag_278\n      jumpi\n        /* \"#utility.yul\":11274:11275   */\n      0x00\n        /* \"#utility.yul\":11271:11272   */\n      dup1\n        /* \"#utility.yul\":11264:11276   */\n      revert\n        /* \"#utility.yul\":11218:11278   */\n    tag_278:\n        /* \"#utility.yul\":11168:11284   */\n      pop\n      jump\t// out\n        /* \"#utility.yul\":11290:11412   */\n    tag_143:\n        /* \"#utility.yul\":11363:11387   */\n      tag_280\n        /* \"#utility.yul\":11381:11386   */\n      dup2\n        /* \"#utility.yul\":11363:11387   */\n      tag_187\n      jump\t// in\n    tag_280:\n        /* \"#utility.yul\":11356:11361   */\n      dup2\n        /* \"#utility.yul\":11353:11388   */\n      eq\n        /* \"#utility.yul\":11343:11406   */\n      tag_281\n      jumpi\n        /* \"#utility.yul\":11402:11403   */\n      0x00\n        /* \"#utility.yul\":11399:11400   */\n      dup1\n        /* \"#utility.yul\":11392:11404   */\n      revert\n        /* \"#utility.yul\":11343:11406   */\n    tag_281:\n        /* \"#utility.yul\":11290:11412   */\n      pop\n      jump\t// out\n\n    auxdata: 0xa2646970667358221220e073a2a4553ba4636c30acee46fe913f4831cfd90af7b7531fc45f6c06911b1a64736f6c63430008070033\n}\n",
				"bytecode": {
					"linkReferences": {},
					"object": "608060405234801561001057600080fd5b50336000806101000a81548173ffffffffffffffffffffffffffffffffffffffff021916908373ffffffffffffffffffffffffffffffffffffffff1602179055506112e3806100606000396000f3fe6080604052600436106100915760003560e01c8063722713f711610059578063722713f71461019a5780638d23caa0146101c5578063aad1b617146101ee578063d9a59e331461022b578063f340fa011461025457610091565b80630b88adbe14610096578063300be4fc146100d357806341ba6e89146100ef5780635e6497271461012c578063644a137014610155575b600080fd5b3480156100a257600080fd5b506100bd60048036038101906100b89190610c84565b610270565b6040516100ca9190610eb4565b60405180910390f35b6100ed60048036038101906100e89190610c84565b6102c9565b005b3480156100fb57600080fd5b5061011660048036038101906101119190610c84565b610457565b6040516101239190610ecf565b60405180910390f35b34801561013857600080fd5b50610153600480360381019061014e9190610cb1565b610505565b005b34801561016157600080fd5b5061017c60048036038101906101779190610c84565b610696565b60405161019199989796959493929190610e19565b60405180910390f35b3480156101a657600080fd5b506101af61082e565b6040516101bc9190610ecf565b60405180910390f35b3480156101d157600080fd5b506101ec60048036038101906101e79190610c84565b610836565b005b3480156101fa57600080fd5b5061021560048036038101906102109190610c84565b610935565b6040516102229190610ecf565b60405180910390f35b34801561023757600080fd5b50610252600480360381019061024d9190610c84565b610981565b005b61026e60048036038101906102699190610c84565b610a2f565b005b6000600160008373ffffffffffffffffffffffffffffffffffffffff1673ffffffffffffffffffffffffffffffffffffffff16815260200190815260200160002060030160009054906101000a900460ff169050919050565b34600160008373ffffffffffffffffffffffffffffffffffffffff1673ffffffffffffffffffffffffffffffffffffffff168152602001908152602001600020600401600082825461031b919061103d565b9250508190555060018060008373ffffffffffffffffffffffffffffffffffffffff1673ffffffffffffffffffffffffffffffffffffffff16815260200190815260200160002060030160006101000a81548160ff0219169083151502179055506000600160008373ffffffffffffffffffffffffffffffffffffffff1673ffffffffffffffffffffffffffffffffffffffff168152602001908152602001600020600501819055506000600160008373ffffffffffffffffffffffffffffffffffffffff1673ffffffffffffffffffffffffffffffffffffffff168152602001908152602001600020600601819055506000600160008373ffffffffffffffffffffffffffffffffffffffff1673ffffffffffffffffffffffffffffffffffffffff1681526020019081526020016000206007018190555050565b6000806104e8600160008573ffffffffffffffffffffffffffffffffffffffff1673ffffffffffffffffffffffffffffffffffffffff16815260200190815260200160002060060154600160008673ffffffffffffffffffffffffffffffffffffffff1673ffffffffffffffffffffffffffffffffffffffff16815260200190815260200160002060070154610a8b565b90506000603c826104f99190610fb2565b90508092505050919050565b6040518061012001604052808a73ffffffffffffffffffffffffffffffffffffffff1681526020018981526020018881526020018715158152602001861515815260200185815260200184815260200183815260200182815250600160008b73ffffffffffffffffffffffffffffffffffffffff1673ffffffffffffffffffffffffffffffffffffffff16815260200190815260200160002060008201518160000160006101000a81548173ffffffffffffffffffffffffffffffffffffffff021916908373ffffffffffffffffffffffffffffffffffffffff1602179055506020820151816001019080519060200190610601929190610b1d565b50604082015181600201908051906020019061061e929190610b1d565b5060608201518160030160006101000a81548160ff02191690831515021790555060808201518160030160016101000a81548160ff02191690831515021790555060a0820151816004015560c0820151816005015560e082015181600601556101008201518160070155905050505050505050505050565b60016020528060005260406000206000915090508060000160009054906101000a900473ffffffffffffffffffffffffffffffffffffffff16908060010180546106df9061110d565b80601f016020809104026020016040519081016040528092919081815260200182805461070b9061110d565b80156107585780601f1061072d57610100808354040283529160200191610758565b820191906000526020600020905b81548152906001019060200180831161073b57829003601f168201915b50505050509080600201805461076d9061110d565b80601f01602080910402602001604051908101604052809291908181526020018280546107999061110d565b80156107e65780601f106107bb576101008083540402835291602001916107e6565b820191906000526020600020905b8154815290600101906020018083116107c957829003601f168201915b5050505050908060030160009054906101000a900460ff16908060030160019054906101000a900460ff16908060040154908060050154908060060154908060070154905089565b600047905090565b60018060008373ffffffffffffffffffffffffffffffffffffffff1673ffffffffffffffffffffffffffffffffffffffff16815260200190815260200160002060030160016101000a81548160ff02191690831515021790555042600160008373ffffffffffffffffffffffffffffffffffffffff1673ffffffffffffffffffffffffffffffffffffffff168152602001908152602001600020600601819055506000600160008373ffffffffffffffffffffffffffffffffffffffff1673ffffffffffffffffffffffffffffffffffffffff16815260200190815260200160002060030160006101000a81548160ff02191690831515021790555050565b6000600160008373ffffffffffffffffffffffffffffffffffffffff1673ffffffffffffffffffffffffffffffffffffffff168152602001908152602001600020600401549050919050565b6000600160008373ffffffffffffffffffffffffffffffffffffffff1673ffffffffffffffffffffffffffffffffffffffff16815260200190815260200160002060030160016101000a81548160ff02191690831515021790555042600160008373ffffffffffffffffffffffffffffffffffffffff1673ffffffffffffffffffffffffffffffffffffffff16815260200190815260200160002060070181905550610a2c81610aa1565b50565b34600160008373ffffffffffffffffffffffffffffffffffffffff1673ffffffffffffffffffffffffffffffffffffffff1681526020019081526020016000206004016000828254610a819190610f5c565b9250508190555050565b60008282610a99919061103d565b905092915050565b6000610aac82610457565b90506000600582610abd9190610fb2565b90506611c37937e0800081610ad29190610fe3565b600160008573ffffffffffffffffffffffffffffffffffffffff1673ffffffffffffffffffffffffffffffffffffffff16815260200190815260200160002060050181905550505050565b828054610b299061110d565b90600052602060002090601f016020900481019282610b4b5760008555610b92565b82601f10610b6457805160ff1916838001178555610b92565b82800160010185558215610b92579182015b82811115610b91578251825591602001919060010190610b76565b5b509050610b9f9190610ba3565b5090565b5b80821115610bbc576000816000905550600101610ba4565b5090565b6000610bd3610bce84610f0f565b610eea565b905082815260208101848484011115610bef57610bee611231565b5b610bfa8482856110cb565b509392505050565b600081359050610c1181611251565b92915050565b600081359050610c2681611268565b92915050565b600081359050610c3b8161127f565b92915050565b600082601f830112610c5657610c5561122c565b5b8135610c66848260208601610bc0565b91505092915050565b600081359050610c7e81611296565b92915050565b600060208284031215610c9a57610c9961123b565b5b6000610ca884828501610c02565b91505092915050565b60008060008060008060008060006101208a8c031215610cd457610cd361123b565b5b6000610ce28c828d01610c17565b99505060208a013567ffffffffffffffff811115610d0357610d02611236565b5b610d0f8c828d01610c41565b98505060408a013567ffffffffffffffff811115610d3057610d2f611236565b5b610d3c8c828d01610c41565b9750506060610d4d8c828d01610c2c565b9650506080610d5e8c828d01610c2c565b95505060a0610d6f8c828d01610c6f565b94505060c0610d808c828d01610c6f565b93505060e0610d918c828d01610c6f565b925050610100610da38c828d01610c6f565b9150509295985092959850929598565b610dbc81611083565b82525050565b610dcb81611095565b82525050565b6000610ddc82610f40565b610de68185610f4b565b9350610df68185602086016110da565b610dff81611240565b840191505092915050565b610e13816110c1565b82525050565b600061012082019050610e2f600083018c610db3565b8181036020830152610e41818b610dd1565b90508181036040830152610e55818a610dd1565b9050610e646060830189610dc2565b610e716080830188610dc2565b610e7e60a0830187610e0a565b610e8b60c0830186610e0a565b610e9860e0830185610e0a565b610ea6610100830184610e0a565b9a9950505050505050505050565b6000602082019050610ec96000830184610dc2565b92915050565b6000602082019050610ee46000830184610e0a565b92915050565b6000610ef4610f05565b9050610f00828261113f565b919050565b6000604051905090565b600067ffffffffffffffff821115610f2a57610f296111fd565b5b610f3382611240565b9050602081019050919050565b600081519050919050565b600082825260208201905092915050565b6000610f67826110c1565b9150610f72836110c1565b9250827fffffffffffffffffffffffffffffffffffffffffffffffffffffffffffffffff03821115610fa757610fa6611170565b5b828201905092915050565b6000610fbd826110c1565b9150610fc8836110c1565b925082610fd857610fd761119f565b5b828204905092915050565b6000610fee826110c1565b9150610ff9836110c1565b9250817fffffffffffffffffffffffffffffffffffffffffffffffffffffffffffffffff048311821515161561103257611031611170565b5b828202905092915050565b6000611048826110c1565b9150611053836110c1565b92508282101561106657611065611170565b5b828203905092915050565b600061107c826110a1565b9050919050565b600061108e826110a1565b9050919050565b60008115159050919050565b600073ffffffffffffffffffffffffffffffffffffffff82169050919050565b6000819050919050565b82818337600083830152505050565b60005b838110156110f85780820151818401526020810190506110dd565b83811115611107576000848401525b50505050565b6000600282049050600182168061112557607f821691505b60208210811415611139576111386111ce565b5b50919050565b61114882611240565b810181811067ffffffffffffffff82111715611167576111666111fd565b5b80604052505050565b7f4e487b7100000000000000000000000000000000000000000000000000000000600052601160045260246000fd5b7f4e487b7100000000000000000000000000000000000000000000000000000000600052601260045260246000fd5b7f4e487b7100000000000000000000000000000000000000000000000000000000600052602260045260246000fd5b7f4e487b7100000000000000000000000000000000000000000000000000000000600052604160045260246000fd5b600080fd5b600080fd5b600080fd5b600080fd5b6000601f19601f8301169050919050565b61125a81611071565b811461126557600080fd5b50565b61127181611083565b811461127c57600080fd5b50565b61128881611095565b811461129357600080fd5b50565b61129f816110c1565b81146112aa57600080fd5b5056fea2646970667358221220e073a2a4553ba4636c30acee46fe913f4831cfd90af7b7531fc45f6c06911b1a64736f6c63430008070033",
					"opcodes": "PUSH1 0x80 PUSH1 0x40 MSTORE CALLVALUE DUP1 ISZERO PUSH2 0x10 JUMPI PUSH1 0x0 DUP1 REVERT JUMPDEST POP CALLER PUSH1 0x0 DUP1 PUSH2 0x100 EXP DUP2 SLOAD DUP2 PUSH20 0xFFFFFFFFFFFFFFFFFFFFFFFFFFFFFFFFFFFFFFFF MUL NOT AND SWAP1 DUP4 PUSH20 0xFFFFFFFFFFFFFFFFFFFFFFFFFFFFFFFFFFFFFFFF AND MUL OR SWAP1 SSTORE POP PUSH2 0x12E3 DUP1 PUSH2 0x60 PUSH1 0x0 CODECOPY PUSH1 0x0 RETURN INVALID PUSH1 0x80 PUSH1 0x40 MSTORE PUSH1 0x4 CALLDATASIZE LT PUSH2 0x91 JUMPI PUSH1 0x0 CALLDATALOAD PUSH1 0xE0 SHR DUP1 PUSH4 0x722713F7 GT PUSH2 0x59 JUMPI DUP1 PUSH4 0x722713F7 EQ PUSH2 0x19A JUMPI DUP1 PUSH4 0x8D23CAA0 EQ PUSH2 0x1C5 JUMPI DUP1 PUSH4 0xAAD1B617 EQ PUSH2 0x1EE JUMPI DUP1 PUSH4 0xD9A59E33 EQ PUSH2 0x22B JUMPI DUP1 PUSH4 0xF340FA01 EQ PUSH2 0x254 JUMPI PUSH2 0x91 JUMP JUMPDEST DUP1 PUSH4 0xB88ADBE EQ PUSH2 0x96 JUMPI DUP1 PUSH4 0x300BE4FC EQ PUSH2 0xD3 JUMPI DUP1 PUSH4 0x41BA6E89 EQ PUSH2 0xEF JUMPI DUP1 PUSH4 0x5E649727 EQ PUSH2 0x12C JUMPI DUP1 PUSH4 0x644A1370 EQ PUSH2 0x155 JUMPI JUMPDEST PUSH1 0x0 DUP1 REVERT JUMPDEST CALLVALUE DUP1 ISZERO PUSH2 0xA2 JUMPI PUSH1 0x0 DUP1 REVERT JUMPDEST POP PUSH2 0xBD PUSH1 0x4 DUP1 CALLDATASIZE SUB DUP2 ADD SWAP1 PUSH2 0xB8 SWAP2 SWAP1 PUSH2 0xC84 JUMP JUMPDEST PUSH2 0x270 JUMP JUMPDEST PUSH1 0x40 MLOAD PUSH2 0xCA SWAP2 SWAP1 PUSH2 0xEB4 JUMP JUMPDEST PUSH1 0x40 MLOAD DUP1 SWAP2 SUB SWAP1 RETURN JUMPDEST PUSH2 0xED PUSH1 0x4 DUP1 CALLDATASIZE SUB DUP2 ADD SWAP1 PUSH2 0xE8 SWAP2 SWAP1 PUSH2 0xC84 JUMP JUMPDEST PUSH2 0x2C9 JUMP JUMPDEST STOP JUMPDEST CALLVALUE DUP1 ISZERO PUSH2 0xFB JUMPI PUSH1 0x0 DUP1 REVERT JUMPDEST POP PUSH2 0x116 PUSH1 0x4 DUP1 CALLDATASIZE SUB DUP2 ADD SWAP1 PUSH2 0x111 SWAP2 SWAP1 PUSH2 0xC84 JUMP JUMPDEST PUSH2 0x457 JUMP JUMPDEST PUSH1 0x40 MLOAD PUSH2 0x123 SWAP2 SWAP1 PUSH2 0xECF JUMP JUMPDEST PUSH1 0x40 MLOAD DUP1 SWAP2 SUB SWAP1 RETURN JUMPDEST CALLVALUE DUP1 ISZERO PUSH2 0x138 JUMPI PUSH1 0x0 DUP1 REVERT JUMPDEST POP PUSH2 0x153 PUSH1 0x4 DUP1 CALLDATASIZE SUB DUP2 ADD SWAP1 PUSH2 0x14E SWAP2 SWAP1 PUSH2 0xCB1 JUMP JUMPDEST PUSH2 0x505 JUMP JUMPDEST STOP JUMPDEST CALLVALUE DUP1 ISZERO PUSH2 0x161 JUMPI PUSH1 0x0 DUP1 REVERT JUMPDEST POP PUSH2 0x17C PUSH1 0x4 DUP1 CALLDATASIZE SUB DUP2 ADD SWAP1 PUSH2 0x177 SWAP2 SWAP1 PUSH2 0xC84 JUMP JUMPDEST PUSH2 0x696 JUMP JUMPDEST PUSH1 0x40 MLOAD PUSH2 0x191 SWAP10 SWAP9 SWAP8 SWAP7 SWAP6 SWAP5 SWAP4 SWAP3 SWAP2 SWAP1 PUSH2 0xE19 JUMP JUMPDEST PUSH1 0x40 MLOAD DUP1 SWAP2 SUB SWAP1 RETURN JUMPDEST CALLVALUE DUP1 ISZERO PUSH2 0x1A6 JUMPI PUSH1 0x0 DUP1 REVERT JUMPDEST POP PUSH2 0x1AF PUSH2 0x82E JUMP JUMPDEST PUSH1 0x40 MLOAD PUSH2 0x1BC SWAP2 SWAP1 PUSH2 0xECF JUMP JUMPDEST PUSH1 0x40 MLOAD DUP1 SWAP2 SUB SWAP1 RETURN JUMPDEST CALLVALUE DUP1 ISZERO PUSH2 0x1D1 JUMPI PUSH1 0x0 DUP1 REVERT JUMPDEST POP PUSH2 0x1EC PUSH1 0x4 DUP1 CALLDATASIZE SUB DUP2 ADD SWAP1 PUSH2 0x1E7 SWAP2 SWAP1 PUSH2 0xC84 JUMP JUMPDEST PUSH2 0x836 JUMP JUMPDEST STOP JUMPDEST CALLVALUE DUP1 ISZERO PUSH2 0x1FA JUMPI PUSH1 0x0 DUP1 REVERT JUMPDEST POP PUSH2 0x215 PUSH1 0x4 DUP1 CALLDATASIZE SUB DUP2 ADD SWAP1 PUSH2 0x210 SWAP2 SWAP1 PUSH2 0xC84 JUMP JUMPDEST PUSH2 0x935 JUMP JUMPDEST PUSH1 0x40 MLOAD PUSH2 0x222 SWAP2 SWAP1 PUSH2 0xECF JUMP JUMPDEST PUSH1 0x40 MLOAD DUP1 SWAP2 SUB SWAP1 RETURN JUMPDEST CALLVALUE DUP1 ISZERO PUSH2 0x237 JUMPI PUSH1 0x0 DUP1 REVERT JUMPDEST POP PUSH2 0x252 PUSH1 0x4 DUP1 CALLDATASIZE SUB DUP2 ADD SWAP1 PUSH2 0x24D SWAP2 SWAP1 PUSH2 0xC84 JUMP JUMPDEST PUSH2 0x981 JUMP JUMPDEST STOP JUMPDEST PUSH2 0x26E PUSH1 0x4 DUP1 CALLDATASIZE SUB DUP2 ADD SWAP1 PUSH2 0x269 SWAP2 SWAP1 PUSH2 0xC84 JUMP JUMPDEST PUSH2 0xA2F JUMP JUMPDEST STOP JUMPDEST PUSH1 0x0 PUSH1 0x1 PUSH1 0x0 DUP4 PUSH20 0xFFFFFFFFFFFFFFFFFFFFFFFFFFFFFFFFFFFFFFFF AND PUSH20 0xFFFFFFFFFFFFFFFFFFFFFFFFFFFFFFFFFFFFFFFF AND DUP2 MSTORE PUSH1 0x20 ADD SWAP1 DUP2 MSTORE PUSH1 0x20 ADD PUSH1 0x0 KECCAK256 PUSH1 0x3 ADD PUSH1 0x0 SWAP1 SLOAD SWAP1 PUSH2 0x100 EXP SWAP1 DIV PUSH1 0xFF AND SWAP1 POP SWAP2 SWAP1 POP JUMP JUMPDEST CALLVALUE PUSH1 0x1 PUSH1 0x0 DUP4 PUSH20 0xFFFFFFFFFFFFFFFFFFFFFFFFFFFFFFFFFFFFFFFF AND PUSH20 0xFFFFFFFFFFFFFFFFFFFFFFFFFFFFFFFFFFFFFFFF AND DUP2 MSTORE PUSH1 0x20 ADD SWAP1 DUP2 MSTORE PUSH1 0x20 ADD PUSH1 0x0 KECCAK256 PUSH1 0x4 ADD PUSH1 0x0 DUP3 DUP3 SLOAD PUSH2 0x31B SWAP2 SWAP1 PUSH2 0x103D JUMP JUMPDEST SWAP3 POP POP DUP2 SWAP1 SSTORE POP PUSH1 0x1 DUP1 PUSH1 0x0 DUP4 PUSH20 0xFFFFFFFFFFFFFFFFFFFFFFFFFFFFFFFFFFFFFFFF AND PUSH20 0xFFFFFFFFFFFFFFFFFFFFFFFFFFFFFFFFFFFFFFFF AND DUP2 MSTORE PUSH1 0x20 ADD SWAP1 DUP2 MSTORE PUSH1 0x20 ADD PUSH1 0x0 KECCAK256 PUSH1 0x3 ADD PUSH1 0x0 PUSH2 0x100 EXP DUP2 SLOAD DUP2 PUSH1 0xFF MUL NOT AND SWAP1 DUP4 ISZERO ISZERO MUL OR SWAP1 SSTORE POP PUSH1 0x0 PUSH1 0x1 PUSH1 0x0 DUP4 PUSH20 0xFFFFFFFFFFFFFFFFFFFFFFFFFFFFFFFFFFFFFFFF AND PUSH20 0xFFFFFFFFFFFFFFFFFFFFFFFFFFFFFFFFFFFFFFFF AND DUP2 MSTORE PUSH1 0x20 ADD SWAP1 DUP2 MSTORE PUSH1 0x20 ADD PUSH1 0x0 KECCAK256 PUSH1 0x5 ADD DUP2 SWAP1 SSTORE POP PUSH1 0x0 PUSH1 0x1 PUSH1 0x0 DUP4 PUSH20 0xFFFFFFFFFFFFFFFFFFFFFFFFFFFFFFFFFFFFFFFF AND PUSH20 0xFFFFFFFFFFFFFFFFFFFFFFFFFFFFFFFFFFFFFFFF AND DUP2 MSTORE PUSH1 0x20 ADD SWAP1 DUP2 MSTORE PUSH1 0x20 ADD PUSH1 0x0 KECCAK256 PUSH1 0x6 ADD DUP2 SWAP1 SSTORE POP PUSH1 0x0 PUSH1 0x1 PUSH1 0x0 DUP4 PUSH20 0xFFFFFFFFFFFFFFFFFFFFFFFFFFFFFFFFFFFFFFFF AND PUSH20 0xFFFFFFFFFFFFFFFFFFFFFFFFFFFFFFFFFFFFFFFF AND DUP2 MSTORE PUSH1 0x20 ADD SWAP1 DUP2 MSTORE PUSH1 0x20 ADD PUSH1 0x0 KECCAK256 PUSH1 0x7 ADD DUP2 SWAP1 SSTORE POP POP JUMP JUMPDEST PUSH1 0x0 DUP1 PUSH2 0x4E8 PUSH1 0x1 PUSH1 0x0 DUP6 PUSH20 0xFFFFFFFFFFFFFFFFFFFFFFFFFFFFFFFFFFFFFFFF AND PUSH20 0xFFFFFFFFFFFFFFFFFFFFFFFFFFFFFFFFFFFFFFFF AND DUP2 MSTORE PUSH1 0x20 ADD SWAP1 DUP2 MSTORE PUSH1 0x20 ADD PUSH1 0x0 KECCAK256 PUSH1 0x6 ADD SLOAD PUSH1 0x1 PUSH1 0x0 DUP7 PUSH20 0xFFFFFFFFFFFFFFFFFFFFFFFFFFFFFFFFFFFFFFFF AND PUSH20 0xFFFFFFFFFFFFFFFFFFFFFFFFFFFFFFFFFFFFFFFF AND DUP2 MSTORE PUSH1 0x20 ADD SWAP1 DUP2 MSTORE PUSH1 0x20 ADD PUSH1 0x0 KECCAK256 PUSH1 0x7 ADD SLOAD PUSH2 0xA8B JUMP JUMPDEST SWAP1 POP PUSH1 0x0 PUSH1 0x3C DUP3 PUSH2 0x4F9 SWAP2 SWAP1 PUSH2 0xFB2 JUMP JUMPDEST SWAP1 POP DUP1 SWAP3 POP POP POP SWAP2 SWAP1 POP JUMP JUMPDEST PUSH1 0x40 MLOAD DUP1 PUSH2 0x120 ADD PUSH1 0x40 MSTORE DUP1 DUP11 PUSH20 0xFFFFFFFFFFFFFFFFFFFFFFFFFFFFFFFFFFFFFFFF AND DUP2 MSTORE PUSH1 0x20 ADD DUP10 DUP2 MSTORE PUSH1 0x20 ADD DUP9 DUP2 MSTORE PUSH1 0x20 ADD DUP8 ISZERO ISZERO DUP2 MSTORE PUSH1 0x20 ADD DUP7 ISZERO ISZERO DUP2 MSTORE PUSH1 0x20 ADD DUP6 DUP2 MSTORE PUSH1 0x20 ADD DUP5 DUP2 MSTORE PUSH1 0x20 ADD DUP4 DUP2 MSTORE PUSH1 0x20 ADD DUP3 DUP2 MSTORE POP PUSH1 0x1 PUSH1 0x0 DUP12 PUSH20 0xFFFFFFFFFFFFFFFFFFFFFFFFFFFFFFFFFFFFFFFF AND PUSH20 0xFFFFFFFFFFFFFFFFFFFFFFFFFFFFFFFFFFFFFFFF AND DUP2 MSTORE PUSH1 0x20 ADD SWAP1 DUP2 MSTORE PUSH1 0x20 ADD PUSH1 0x0 KECCAK256 PUSH1 0x0 DUP3 ADD MLOAD DUP2 PUSH1 0x0 ADD PUSH1 0x0 PUSH2 0x100 EXP DUP2 SLOAD DUP2 PUSH20 0xFFFFFFFFFFFFFFFFFFFFFFFFFFFFFFFFFFFFFFFF MUL NOT AND SWAP1 DUP4 PUSH20 0xFFFFFFFFFFFFFFFFFFFFFFFFFFFFFFFFFFFFFFFF AND MUL OR SWAP1 SSTORE POP PUSH1 0x20 DUP3 ADD MLOAD DUP2 PUSH1 0x1 ADD SWAP1 DUP1 MLOAD SWAP1 PUSH1 0x20 ADD SWAP1 PUSH2 0x601 SWAP3 SWAP2 SWAP1 PUSH2 0xB1D JUMP JUMPDEST POP PUSH1 0x40 DUP3 ADD MLOAD DUP2 PUSH1 0x2 ADD SWAP1 DUP1 MLOAD SWAP1 PUSH1 0x20 ADD SWAP1 PUSH2 0x61E SWAP3 SWAP2 SWAP1 PUSH2 0xB1D JUMP JUMPDEST POP PUSH1 0x60 DUP3 ADD MLOAD DUP2 PUSH1 0x3 ADD PUSH1 0x0 PUSH2 0x100 EXP DUP2 SLOAD DUP2 PUSH1 0xFF MUL NOT AND SWAP1 DUP4 ISZERO ISZERO MUL OR SWAP1 SSTORE POP PUSH1 0x80 DUP3 ADD MLOAD DUP2 PUSH1 0x3 ADD PUSH1 0x1 PUSH2 0x100 EXP DUP2 SLOAD DUP2 PUSH1 0xFF MUL NOT AND SWAP1 DUP4 ISZERO ISZERO MUL OR SWAP1 SSTORE POP PUSH1 0xA0 DUP3 ADD MLOAD DUP2 PUSH1 0x4 ADD SSTORE PUSH1 0xC0 DUP3 ADD MLOAD DUP2 PUSH1 0x5 ADD SSTORE PUSH1 0xE0 DUP3 ADD MLOAD DUP2 PUSH1 0x6 ADD SSTORE PUSH2 0x100 DUP3 ADD MLOAD DUP2 PUSH1 0x7 ADD SSTORE SWAP1 POP POP POP POP POP POP POP POP POP POP POP JUMP JUMPDEST PUSH1 0x1 PUSH1 0x20 MSTORE DUP1 PUSH1 0x0 MSTORE PUSH1 0x40 PUSH1 0x0 KECCAK256 PUSH1 0x0 SWAP2 POP SWAP1 POP DUP1 PUSH1 0x0 ADD PUSH1 0x0 SWAP1 SLOAD SWAP1 PUSH2 0x100 EXP SWAP1 DIV PUSH20 0xFFFFFFFFFFFFFFFFFFFFFFFFFFFFFFFFFFFFFFFF AND SWAP1 DUP1 PUSH1 0x1 ADD DUP1 SLOAD PUSH2 0x6DF SWAP1 PUSH2 0x110D JUMP JUMPDEST DUP1 PUSH1 0x1F ADD PUSH1 0x20 DUP1 SWAP2 DIV MUL PUSH1 0x20 ADD PUSH1 0x40 MLOAD SWAP1 DUP2 ADD PUSH1 0x40 MSTORE DUP1 SWAP3 SWAP2 SWAP1 DUP2 DUP2 MSTORE PUSH1 0x20 ADD DUP3 DUP1 SLOAD PUSH2 0x70B SWAP1 PUSH2 0x110D JUMP JUMPDEST DUP1 ISZERO PUSH2 0x758 JUMPI DUP1 PUSH1 0x1F LT PUSH2 0x72D JUMPI PUSH2 0x100 DUP1 DUP4 SLOAD DIV MUL DUP4 MSTORE SWAP2 PUSH1 0x20 ADD SWAP2 PUSH2 0x758 JUMP JUMPDEST DUP3 ADD SWAP2 SWAP1 PUSH1 0x0 MSTORE PUSH1 0x20 PUSH1 0x0 KECCAK256 SWAP1 JUMPDEST DUP2 SLOAD DUP2 MSTORE SWAP1 PUSH1 0x1 ADD SWAP1 PUSH1 0x20 ADD DUP1 DUP4 GT PUSH2 0x73B JUMPI DUP3 SWAP1 SUB PUSH1 0x1F AND DUP3 ADD SWAP2 JUMPDEST POP POP POP POP POP SWAP1 DUP1 PUSH1 0x2 ADD DUP1 SLOAD PUSH2 0x76D SWAP1 PUSH2 0x110D JUMP JUMPDEST DUP1 PUSH1 0x1F ADD PUSH1 0x20 DUP1 SWAP2 DIV MUL PUSH1 0x20 ADD PUSH1 0x40 MLOAD SWAP1 DUP2 ADD PUSH1 0x40 MSTORE DUP1 SWAP3 SWAP2 SWAP1 DUP2 DUP2 MSTORE PUSH1 0x20 ADD DUP3 DUP1 SLOAD PUSH2 0x799 SWAP1 PUSH2 0x110D JUMP JUMPDEST DUP1 ISZERO PUSH2 0x7E6 JUMPI DUP1 PUSH1 0x1F LT PUSH2 0x7BB JUMPI PUSH2 0x100 DUP1 DUP4 SLOAD DIV MUL DUP4 MSTORE SWAP2 PUSH1 0x20 ADD SWAP2 PUSH2 0x7E6 JUMP JUMPDEST DUP3 ADD SWAP2 SWAP1 PUSH1 0x0 MSTORE PUSH1 0x20 PUSH1 0x0 KECCAK256 SWAP1 JUMPDEST DUP2 SLOAD DUP2 MSTORE SWAP1 PUSH1 0x1 ADD SWAP1 PUSH1 0x20 ADD DUP1 DUP4 GT PUSH2 0x7C9 JUMPI DUP3 SWAP1 SUB PUSH1 0x1F AND DUP3 ADD SWAP2 JUMPDEST POP POP POP POP POP SWAP1 DUP1 PUSH1 0x3 ADD PUSH1 0x0 SWAP1 SLOAD SWAP1 PUSH2 0x100 EXP SWAP1 DIV PUSH1 0xFF AND SWAP1 DUP1 PUSH1 0x3 ADD PUSH1 0x1 SWAP1 SLOAD SWAP1 PUSH2 0x100 EXP SWAP1 DIV PUSH1 0xFF AND SWAP1 DUP1 PUSH1 0x4 ADD SLOAD SWAP1 DUP1 PUSH1 0x5 ADD SLOAD SWAP1 DUP1 PUSH1 0x6 ADD SLOAD SWAP1 DUP1 PUSH1 0x7 ADD SLOAD SWAP1 POP DUP10 JUMP JUMPDEST PUSH1 0x0 SELFBALANCE SWAP1 POP SWAP1 JUMP JUMPDEST PUSH1 0x1 DUP1 PUSH1 0x0 DUP4 PUSH20 0xFFFFFFFFFFFFFFFFFFFFFFFFFFFFFFFFFFFFFFFF AND PUSH20 0xFFFFFFFFFFFFFFFFFFFFFFFFFFFFFFFFFFFFFFFF AND DUP2 MSTORE PUSH1 0x20 ADD SWAP1 DUP2 MSTORE PUSH1 0x20 ADD PUSH1 0x0 KECCAK256 PUSH1 0x3 ADD PUSH1 0x1 PUSH2 0x100 EXP DUP2 SLOAD DUP2 PUSH1 0xFF MUL NOT AND SWAP1 DUP4 ISZERO ISZERO MUL OR SWAP1 SSTORE POP TIMESTAMP PUSH1 0x1 PUSH1 0x0 DUP4 PUSH20 0xFFFFFFFFFFFFFFFFFFFFFFFFFFFFFFFFFFFFFFFF AND PUSH20 0xFFFFFFFFFFFFFFFFFFFFFFFFFFFFFFFFFFFFFFFF AND DUP2 MSTORE PUSH1 0x20 ADD SWAP1 DUP2 MSTORE PUSH1 0x20 ADD PUSH1 0x0 KECCAK256 PUSH1 0x6 ADD DUP2 SWAP1 SSTORE POP PUSH1 0x0 PUSH1 0x1 PUSH1 0x0 DUP4 PUSH20 0xFFFFFFFFFFFFFFFFFFFFFFFFFFFFFFFFFFFFFFFF AND PUSH20 0xFFFFFFFFFFFFFFFFFFFFFFFFFFFFFFFFFFFFFFFF AND DUP2 MSTORE PUSH1 0x20 ADD SWAP1 DUP2 MSTORE PUSH1 0x20 ADD PUSH1 0x0 KECCAK256 PUSH1 0x3 ADD PUSH1 0x0 PUSH2 0x100 EXP DUP2 SLOAD DUP2 PUSH1 0xFF MUL NOT AND SWAP1 DUP4 ISZERO ISZERO MUL OR SWAP1 SSTORE POP POP JUMP JUMPDEST PUSH1 0x0 PUSH1 0x1 PUSH1 0x0 DUP4 PUSH20 0xFFFFFFFFFFFFFFFFFFFFFFFFFFFFFFFFFFFFFFFF AND PUSH20 0xFFFFFFFFFFFFFFFFFFFFFFFFFFFFFFFFFFFFFFFF AND DUP2 MSTORE PUSH1 0x20 ADD SWAP1 DUP2 MSTORE PUSH1 0x20 ADD PUSH1 0x0 KECCAK256 PUSH1 0x4 ADD SLOAD SWAP1 POP SWAP2 SWAP1 POP JUMP JUMPDEST PUSH1 0x0 PUSH1 0x1 PUSH1 0x0 DUP4 PUSH20 0xFFFFFFFFFFFFFFFFFFFFFFFFFFFFFFFFFFFFFFFF AND PUSH20 0xFFFFFFFFFFFFFFFFFFFFFFFFFFFFFFFFFFFFFFFF AND DUP2 MSTORE PUSH1 0x20 ADD SWAP1 DUP2 MSTORE PUSH1 0x20 ADD PUSH1 0x0 KECCAK256 PUSH1 0x3 ADD PUSH1 0x1 PUSH2 0x100 EXP DUP2 SLOAD DUP2 PUSH1 0xFF MUL NOT AND SWAP1 DUP4 ISZERO ISZERO MUL OR SWAP1 SSTORE POP TIMESTAMP PUSH1 0x1 PUSH1 0x0 DUP4 PUSH20 0xFFFFFFFFFFFFFFFFFFFFFFFFFFFFFFFFFFFFFFFF AND PUSH20 0xFFFFFFFFFFFFFFFFFFFFFFFFFFFFFFFFFFFFFFFF AND DUP2 MSTORE PUSH1 0x20 ADD SWAP1 DUP2 MSTORE PUSH1 0x20 ADD PUSH1 0x0 KECCAK256 PUSH1 0x7 ADD DUP2 SWAP1 SSTORE POP PUSH2 0xA2C DUP2 PUSH2 0xAA1 JUMP JUMPDEST POP JUMP JUMPDEST CALLVALUE PUSH1 0x1 PUSH1 0x0 DUP4 PUSH20 0xFFFFFFFFFFFFFFFFFFFFFFFFFFFFFFFFFFFFFFFF AND PUSH20 0xFFFFFFFFFFFFFFFFFFFFFFFFFFFFFFFFFFFFFFFF AND DUP2 MSTORE PUSH1 0x20 ADD SWAP1 DUP2 MSTORE PUSH1 0x20 ADD PUSH1 0x0 KECCAK256 PUSH1 0x4 ADD PUSH1 0x0 DUP3 DUP3 SLOAD PUSH2 0xA81 SWAP2 SWAP1 PUSH2 0xF5C JUMP JUMPDEST SWAP3 POP POP DUP2 SWAP1 SSTORE POP POP JUMP JUMPDEST PUSH1 0x0 DUP3 DUP3 PUSH2 0xA99 SWAP2 SWAP1 PUSH2 0x103D JUMP JUMPDEST SWAP1 POP SWAP3 SWAP2 POP POP JUMP JUMPDEST PUSH1 0x0 PUSH2 0xAAC DUP3 PUSH2 0x457 JUMP JUMPDEST SWAP1 POP PUSH1 0x0 PUSH1 0x5 DUP3 PUSH2 0xABD SWAP2 SWAP1 PUSH2 0xFB2 JUMP JUMPDEST SWAP1 POP PUSH7 0x11C37937E08000 DUP2 PUSH2 0xAD2 SWAP2 SWAP1 PUSH2 0xFE3 JUMP JUMPDEST PUSH1 0x1 PUSH1 0x0 DUP6 PUSH20 0xFFFFFFFFFFFFFFFFFFFFFFFFFFFFFFFFFFFFFFFF AND PUSH20 0xFFFFFFFFFFFFFFFFFFFFFFFFFFFFFFFFFFFFFFFF AND DUP2 MSTORE PUSH1 0x20 ADD SWAP1 DUP2 MSTORE PUSH1 0x20 ADD PUSH1 0x0 KECCAK256 PUSH1 0x5 ADD DUP2 SWAP1 SSTORE POP POP POP POP JUMP JUMPDEST DUP3 DUP1 SLOAD PUSH2 0xB29 SWAP1 PUSH2 0x110D JUMP JUMPDEST SWAP1 PUSH1 0x0 MSTORE PUSH1 0x20 PUSH1 0x0 KECCAK256 SWAP1 PUSH1 0x1F ADD PUSH1 0x20 SWAP1 DIV DUP2 ADD SWAP3 DUP3 PUSH2 0xB4B JUMPI PUSH1 0x0 DUP6 SSTORE PUSH2 0xB92 JUMP JUMPDEST DUP3 PUSH1 0x1F LT PUSH2 0xB64 JUMPI DUP1 MLOAD PUSH1 0xFF NOT AND DUP4 DUP1 ADD OR DUP6 SSTORE PUSH2 0xB92 JUMP JUMPDEST DUP3 DUP1 ADD PUSH1 0x1 ADD DUP6 SSTORE DUP3 ISZERO PUSH2 0xB92 JUMPI SWAP2 DUP3 ADD JUMPDEST DUP3 DUP2 GT ISZERO PUSH2 0xB91 JUMPI DUP3 MLOAD DUP3 SSTORE SWAP2 PUSH1 0x20 ADD SWAP2 SWAP1 PUSH1 0x1 ADD SWAP1 PUSH2 0xB76 JUMP JUMPDEST JUMPDEST POP SWAP1 POP PUSH2 0xB9F SWAP2 SWAP1 PUSH2 0xBA3 JUMP JUMPDEST POP SWAP1 JUMP JUMPDEST JUMPDEST DUP1 DUP3 GT ISZERO PUSH2 0xBBC JUMPI PUSH1 0x0 DUP2 PUSH1 0x0 SWAP1 SSTORE POP PUSH1 0x1 ADD PUSH2 0xBA4 JUMP JUMPDEST POP SWAP1 JUMP JUMPDEST PUSH1 0x0 PUSH2 0xBD3 PUSH2 0xBCE DUP5 PUSH2 0xF0F JUMP JUMPDEST PUSH2 0xEEA JUMP JUMPDEST SWAP1 POP DUP3 DUP2 MSTORE PUSH1 0x20 DUP2 ADD DUP5 DUP5 DUP5 ADD GT ISZERO PUSH2 0xBEF JUMPI PUSH2 0xBEE PUSH2 0x1231 JUMP JUMPDEST JUMPDEST PUSH2 0xBFA DUP5 DUP3 DUP6 PUSH2 0x10CB JUMP JUMPDEST POP SWAP4 SWAP3 POP POP POP JUMP JUMPDEST PUSH1 0x0 DUP2 CALLDATALOAD SWAP1 POP PUSH2 0xC11 DUP2 PUSH2 0x1251 JUMP JUMPDEST SWAP3 SWAP2 POP POP JUMP JUMPDEST PUSH1 0x0 DUP2 CALLDATALOAD SWAP1 POP PUSH2 0xC26 DUP2 PUSH2 0x1268 JUMP JUMPDEST SWAP3 SWAP2 POP POP JUMP JUMPDEST PUSH1 0x0 DUP2 CALLDATALOAD SWAP1 POP PUSH2 0xC3B DUP2 PUSH2 0x127F JUMP JUMPDEST SWAP3 SWAP2 POP POP JUMP JUMPDEST PUSH1 0x0 DUP3 PUSH1 0x1F DUP4 ADD SLT PUSH2 0xC56 JUMPI PUSH2 0xC55 PUSH2 0x122C JUMP JUMPDEST JUMPDEST DUP2 CALLDATALOAD PUSH2 0xC66 DUP5 DUP3 PUSH1 0x20 DUP7 ADD PUSH2 0xBC0 JUMP JUMPDEST SWAP2 POP POP SWAP3 SWAP2 POP POP JUMP JUMPDEST PUSH1 0x0 DUP2 CALLDATALOAD SWAP1 POP PUSH2 0xC7E DUP2 PUSH2 0x1296 JUMP JUMPDEST SWAP3 SWAP2 POP POP JUMP JUMPDEST PUSH1 0x0 PUSH1 0x20 DUP3 DUP5 SUB SLT ISZERO PUSH2 0xC9A JUMPI PUSH2 0xC99 PUSH2 0x123B JUMP JUMPDEST JUMPDEST PUSH1 0x0 PUSH2 0xCA8 DUP5 DUP3 DUP6 ADD PUSH2 0xC02 JUMP JUMPDEST SWAP2 POP POP SWAP3 SWAP2 POP POP JUMP JUMPDEST PUSH1 0x0 DUP1 PUSH1 0x0 DUP1 PUSH1 0x0 DUP1 PUSH1 0x0 DUP1 PUSH1 0x0 PUSH2 0x120 DUP11 DUP13 SUB SLT ISZERO PUSH2 0xCD4 JUMPI PUSH2 0xCD3 PUSH2 0x123B JUMP JUMPDEST JUMPDEST PUSH1 0x0 PUSH2 0xCE2 DUP13 DUP3 DUP14 ADD PUSH2 0xC17 JUMP JUMPDEST SWAP10 POP POP PUSH1 0x20 DUP11 ADD CALLDATALOAD PUSH8 0xFFFFFFFFFFFFFFFF DUP2 GT ISZERO PUSH2 0xD03 JUMPI PUSH2 0xD02 PUSH2 0x1236 JUMP JUMPDEST JUMPDEST PUSH2 0xD0F DUP13 DUP3 DUP14 ADD PUSH2 0xC41 JUMP JUMPDEST SWAP9 POP POP PUSH1 0x40 DUP11 ADD CALLDATALOAD PUSH8 0xFFFFFFFFFFFFFFFF DUP2 GT ISZERO PUSH2 0xD30 JUMPI PUSH2 0xD2F PUSH2 0x1236 JUMP JUMPDEST JUMPDEST PUSH2 0xD3C DUP13 DUP3 DUP14 ADD PUSH2 0xC41 JUMP JUMPDEST SWAP8 POP POP PUSH1 0x60 PUSH2 0xD4D DUP13 DUP3 DUP14 ADD PUSH2 0xC2C JUMP JUMPDEST SWAP7 POP POP PUSH1 0x80 PUSH2 0xD5E DUP13 DUP3 DUP14 ADD PUSH2 0xC2C JUMP JUMPDEST SWAP6 POP POP PUSH1 0xA0 PUSH2 0xD6F DUP13 DUP3 DUP14 ADD PUSH2 0xC6F JUMP JUMPDEST SWAP5 POP POP PUSH1 0xC0 PUSH2 0xD80 DUP13 DUP3 DUP14 ADD PUSH2 0xC6F JUMP JUMPDEST SWAP4 POP POP PUSH1 0xE0 PUSH2 0xD91 DUP13 DUP3 DUP14 ADD PUSH2 0xC6F JUMP JUMPDEST SWAP3 POP POP PUSH2 0x100 PUSH2 0xDA3 DUP13 DUP3 DUP14 ADD PUSH2 0xC6F JUMP JUMPDEST SWAP2 POP POP SWAP3 SWAP6 SWAP9 POP SWAP3 SWAP6 SWAP9 POP SWAP3 SWAP6 SWAP9 JUMP JUMPDEST PUSH2 0xDBC DUP2 PUSH2 0x1083 JUMP JUMPDEST DUP3 MSTORE POP POP JUMP JUMPDEST PUSH2 0xDCB DUP2 PUSH2 0x1095 JUMP JUMPDEST DUP3 MSTORE POP POP JUMP JUMPDEST PUSH1 0x0 PUSH2 0xDDC DUP3 PUSH2 0xF40 JUMP JUMPDEST PUSH2 0xDE6 DUP2 DUP6 PUSH2 0xF4B JUMP JUMPDEST SWAP4 POP PUSH2 0xDF6 DUP2 DUP6 PUSH1 0x20 DUP7 ADD PUSH2 0x10DA JUMP JUMPDEST PUSH2 0xDFF DUP2 PUSH2 0x1240 JUMP JUMPDEST DUP5 ADD SWAP2 POP POP SWAP3 SWAP2 POP POP JUMP JUMPDEST PUSH2 0xE13 DUP2 PUSH2 0x10C1 JUMP JUMPDEST DUP3 MSTORE POP POP JUMP JUMPDEST PUSH1 0x0 PUSH2 0x120 DUP3 ADD SWAP1 POP PUSH2 0xE2F PUSH1 0x0 DUP4 ADD DUP13 PUSH2 0xDB3 JUMP JUMPDEST DUP2 DUP2 SUB PUSH1 0x20 DUP4 ADD MSTORE PUSH2 0xE41 DUP2 DUP12 PUSH2 0xDD1 JUMP JUMPDEST SWAP1 POP DUP2 DUP2 SUB PUSH1 0x40 DUP4 ADD MSTORE PUSH2 0xE55 DUP2 DUP11 PUSH2 0xDD1 JUMP JUMPDEST SWAP1 POP PUSH2 0xE64 PUSH1 0x60 DUP4 ADD DUP10 PUSH2 0xDC2 JUMP JUMPDEST PUSH2 0xE71 PUSH1 0x80 DUP4 ADD DUP9 PUSH2 0xDC2 JUMP JUMPDEST PUSH2 0xE7E PUSH1 0xA0 DUP4 ADD DUP8 PUSH2 0xE0A JUMP JUMPDEST PUSH2 0xE8B PUSH1 0xC0 DUP4 ADD DUP7 PUSH2 0xE0A JUMP JUMPDEST PUSH2 0xE98 PUSH1 0xE0 DUP4 ADD DUP6 PUSH2 0xE0A JUMP JUMPDEST PUSH2 0xEA6 PUSH2 0x100 DUP4 ADD DUP5 PUSH2 0xE0A JUMP JUMPDEST SWAP11 SWAP10 POP POP POP POP POP POP POP POP POP POP JUMP JUMPDEST PUSH1 0x0 PUSH1 0x20 DUP3 ADD SWAP1 POP PUSH2 0xEC9 PUSH1 0x0 DUP4 ADD DUP5 PUSH2 0xDC2 JUMP JUMPDEST SWAP3 SWAP2 POP POP JUMP JUMPDEST PUSH1 0x0 PUSH1 0x20 DUP3 ADD SWAP1 POP PUSH2 0xEE4 PUSH1 0x0 DUP4 ADD DUP5 PUSH2 0xE0A JUMP JUMPDEST SWAP3 SWAP2 POP POP JUMP JUMPDEST PUSH1 0x0 PUSH2 0xEF4 PUSH2 0xF05 JUMP JUMPDEST SWAP1 POP PUSH2 0xF00 DUP3 DUP3 PUSH2 0x113F JUMP JUMPDEST SWAP2 SWAP1 POP JUMP JUMPDEST PUSH1 0x0 PUSH1 0x40 MLOAD SWAP1 POP SWAP1 JUMP JUMPDEST PUSH1 0x0 PUSH8 0xFFFFFFFFFFFFFFFF DUP3 GT ISZERO PUSH2 0xF2A JUMPI PUSH2 0xF29 PUSH2 0x11FD JUMP JUMPDEST JUMPDEST PUSH2 0xF33 DUP3 PUSH2 0x1240 JUMP JUMPDEST SWAP1 POP PUSH1 0x20 DUP2 ADD SWAP1 POP SWAP2 SWAP1 POP JUMP JUMPDEST PUSH1 0x0 DUP2 MLOAD SWAP1 POP SWAP2 SWAP1 POP JUMP JUMPDEST PUSH1 0x0 DUP3 DUP3 MSTORE PUSH1 0x20 DUP3 ADD SWAP1 POP SWAP3 SWAP2 POP POP JUMP JUMPDEST PUSH1 0x0 PUSH2 0xF67 DUP3 PUSH2 0x10C1 JUMP JUMPDEST SWAP2 POP PUSH2 0xF72 DUP4 PUSH2 0x10C1 JUMP JUMPDEST SWAP3 POP DUP3 PUSH32 0xFFFFFFFFFFFFFFFFFFFFFFFFFFFFFFFFFFFFFFFFFFFFFFFFFFFFFFFFFFFFFFFF SUB DUP3 GT ISZERO PUSH2 0xFA7 JUMPI PUSH2 0xFA6 PUSH2 0x1170 JUMP JUMPDEST JUMPDEST DUP3 DUP3 ADD SWAP1 POP SWAP3 SWAP2 POP POP JUMP JUMPDEST PUSH1 0x0 PUSH2 0xFBD DUP3 PUSH2 0x10C1 JUMP JUMPDEST SWAP2 POP PUSH2 0xFC8 DUP4 PUSH2 0x10C1 JUMP JUMPDEST SWAP3 POP DUP3 PUSH2 0xFD8 JUMPI PUSH2 0xFD7 PUSH2 0x119F JUMP JUMPDEST JUMPDEST DUP3 DUP3 DIV SWAP1 POP SWAP3 SWAP2 POP POP JUMP JUMPDEST PUSH1 0x0 PUSH2 0xFEE DUP3 PUSH2 0x10C1 JUMP JUMPDEST SWAP2 POP PUSH2 0xFF9 DUP4 PUSH2 0x10C1 JUMP JUMPDEST SWAP3 POP DUP2 PUSH32 0xFFFFFFFFFFFFFFFFFFFFFFFFFFFFFFFFFFFFFFFFFFFFFFFFFFFFFFFFFFFFFFFF DIV DUP4 GT DUP3 ISZERO ISZERO AND ISZERO PUSH2 0x1032 JUMPI PUSH2 0x1031 PUSH2 0x1170 JUMP JUMPDEST JUMPDEST DUP3 DUP3 MUL SWAP1 POP SWAP3 SWAP2 POP POP JUMP JUMPDEST PUSH1 0x0 PUSH2 0x1048 DUP3 PUSH2 0x10C1 JUMP JUMPDEST SWAP2 POP PUSH2 0x1053 DUP4 PUSH2 0x10C1 JUMP JUMPDEST SWAP3 POP DUP3 DUP3 LT ISZERO PUSH2 0x1066 JUMPI PUSH2 0x1065 PUSH2 0x1170 JUMP JUMPDEST JUMPDEST DUP3 DUP3 SUB SWAP1 POP SWAP3 SWAP2 POP POP JUMP JUMPDEST PUSH1 0x0 PUSH2 0x107C DUP3 PUSH2 0x10A1 JUMP JUMPDEST SWAP1 POP SWAP2 SWAP1 POP JUMP JUMPDEST PUSH1 0x0 PUSH2 0x108E DUP3 PUSH2 0x10A1 JUMP JUMPDEST SWAP1 POP SWAP2 SWAP1 POP JUMP JUMPDEST PUSH1 0x0 DUP2 ISZERO ISZERO SWAP1 POP SWAP2 SWAP1 POP JUMP JUMPDEST PUSH1 0x0 PUSH20 0xFFFFFFFFFFFFFFFFFFFFFFFFFFFFFFFFFFFFFFFF DUP3 AND SWAP1 POP SWAP2 SWAP1 POP JUMP JUMPDEST PUSH1 0x0 DUP2 SWAP1 POP SWAP2 SWAP1 POP JUMP JUMPDEST DUP3 DUP2 DUP4 CALLDATACOPY PUSH1 0x0 DUP4 DUP4 ADD MSTORE POP POP POP JUMP JUMPDEST PUSH1 0x0 JUMPDEST DUP4 DUP2 LT ISZERO PUSH2 0x10F8 JUMPI DUP1 DUP3 ADD MLOAD DUP2 DUP5 ADD MSTORE PUSH1 0x20 DUP2 ADD SWAP1 POP PUSH2 0x10DD JUMP JUMPDEST DUP4 DUP2 GT ISZERO PUSH2 0x1107 JUMPI PUSH1 0x0 DUP5 DUP5 ADD MSTORE JUMPDEST POP POP POP POP JUMP JUMPDEST PUSH1 0x0 PUSH1 0x2 DUP3 DIV SWAP1 POP PUSH1 0x1 DUP3 AND DUP1 PUSH2 0x1125 JUMPI PUSH1 0x7F DUP3 AND SWAP2 POP JUMPDEST PUSH1 0x20 DUP3 LT DUP2 EQ ISZERO PUSH2 0x1139 JUMPI PUSH2 0x1138 PUSH2 0x11CE JUMP JUMPDEST JUMPDEST POP SWAP2 SWAP1 POP JUMP JUMPDEST PUSH2 0x1148 DUP3 PUSH2 0x1240 JUMP JUMPDEST DUP2 ADD DUP2 DUP2 LT PUSH8 0xFFFFFFFFFFFFFFFF DUP3 GT OR ISZERO PUSH2 0x1167 JUMPI PUSH2 0x1166 PUSH2 0x11FD JUMP JUMPDEST JUMPDEST DUP1 PUSH1 0x40 MSTORE POP POP POP JUMP JUMPDEST PUSH32 0x4E487B7100000000000000000000000000000000000000000000000000000000 PUSH1 0x0 MSTORE PUSH1 0x11 PUSH1 0x4 MSTORE PUSH1 0x24 PUSH1 0x0 REVERT JUMPDEST PUSH32 0x4E487B7100000000000000000000000000000000000000000000000000000000 PUSH1 0x0 MSTORE PUSH1 0x12 PUSH1 0x4 MSTORE PUSH1 0x24 PUSH1 0x0 REVERT JUMPDEST PUSH32 0x4E487B7100000000000000000000000000000000000000000000000000000000 PUSH1 0x0 MSTORE PUSH1 0x22 PUSH1 0x4 MSTORE PUSH1 0x24 PUSH1 0x0 REVERT JUMPDEST PUSH32 0x4E487B7100000000000000000000000000000000000000000000000000000000 PUSH1 0x0 MSTORE PUSH1 0x41 PUSH1 0x4 MSTORE PUSH1 0x24 PUSH1 0x0 REVERT JUMPDEST PUSH1 0x0 DUP1 REVERT JUMPDEST PUSH1 0x0 DUP1 REVERT JUMPDEST PUSH1 0x0 DUP1 REVERT JUMPDEST PUSH1 0x0 DUP1 REVERT JUMPDEST PUSH1 0x0 PUSH1 0x1F NOT PUSH1 0x1F DUP4 ADD AND SWAP1 POP SWAP2 SWAP1 POP JUMP JUMPDEST PUSH2 0x125A DUP2 PUSH2 0x1071 JUMP JUMPDEST DUP2 EQ PUSH2 0x1265 JUMPI PUSH1 0x0 DUP1 REVERT JUMPDEST POP JUMP JUMPDEST PUSH2 0x1271 DUP2 PUSH2 0x1083 JUMP JUMPDEST DUP2 EQ PUSH2 0x127C JUMPI PUSH1 0x0 DUP1 REVERT JUMPDEST POP JUMP JUMPDEST PUSH2 0x1288 DUP2 PUSH2 0x1095 JUMP JUMPDEST DUP2 EQ PUSH2 0x1293 JUMPI PUSH1 0x0 DUP1 REVERT JUMPDEST POP JUMP JUMPDEST PUSH2 0x129F DUP2 PUSH2 0x10C1 JUMP JUMPDEST DUP2 EQ PUSH2 0x12AA JUMPI PUSH1 0x0 DUP1 REVERT JUMPDEST POP JUMP INVALID LOG2 PUSH5 0x6970667358 0x22 SLT KECCAK256 0xE0 PUSH20 0xA2A4553BA4636C30ACEE46FE913F4831CFD90AF7 0xB7 MSTORE8 0x1F 0xC4 0x5F PUSH13 0x6911B1A64736F6C6343000807 STOP CALLER "
				},
				"gasEstimates": {
					"creation": {
						"codeDepositCost": "967000",
						"executionCost": "25274",
						"totalCost": "992274"
					},
					"external": {
						"addRenter(address,string,string,bool,bool,uint256,uint256,uint256,uint256)": "infinite",
						"balanceOf()": "339",
						"balanceOfRenter(address)": "2891",
						"canRentBike(address)": "2890",
						"checkIn(address)": "infinite",
						"checkOut(address)": "71462",
						"deposit(address)": "infinite",
						"getTotalDuration(address)": "infinite",
						"makePayment(address)": "infinite",
						"renters(address)": "infinite"
					},
					"internal": {
						"renterTimespan(uint256,uint256)": "infinite",
						"setDue(address)": "infinite"
					}
				},
				"methodIdentifiers": {
					"addRenter(address,string,string,bool,bool,uint256,uint256,uint256,uint256)": "5e649727",
					"balanceOf()": "722713f7",
					"balanceOfRenter(address)": "aad1b617",
					"canRentBike(address)": "0b88adbe",
					"checkIn(address)": "d9a59e33",
					"checkOut(address)": "8d23caa0",
					"deposit(address)": "f340fa01",
					"getTotalDuration(address)": "41ba6e89",
					"makePayment(address)": "300be4fc",
					"renters(address)": "644a1370"
				}
			},
			"storageLayout": {
				"storage": [
					{
						"astId": 3,
						"contract": "contracts/Automobchain.sol:Automobchain",
						"label": "owner",
						"offset": 0,
						"slot": "0",
						"type": "t_address"
					},
					{
						"astId": 36,
						"contract": "contracts/Automobchain.sol:Automobchain",
						"label": "renters",
						"offset": 0,
						"slot": "1",
						"type": "t_mapping(t_address,t_struct(Renter)31_storage)"
					}
				],
				"types": {
					"t_address": {
						"encoding": "inplace",
						"label": "address",
						"numberOfBytes": "20"
					},
					"t_address_payable": {
						"encoding": "inplace",
						"label": "address payable",
						"numberOfBytes": "20"
					},
					"t_bool": {
						"encoding": "inplace",
						"label": "bool",
						"numberOfBytes": "1"
					},
					"t_mapping(t_address,t_struct(Renter)31_storage)": {
						"encoding": "mapping",
						"key": "t_address",
						"label": "mapping(address => struct Automobchain.Renter)",
						"numberOfBytes": "32",
						"value": "t_struct(Renter)31_storage"
					},
					"t_string_storage": {
						"encoding": "bytes",
						"label": "string",
						"numberOfBytes": "32"
					},
					"t_struct(Renter)31_storage": {
						"encoding": "inplace",
						"label": "struct Automobchain.Renter",
						"members": [
							{
								"astId": 14,
								"contract": "contracts/Automobchain.sol:Automobchain",
								"label": "walletAddress",
								"offset": 0,
								"slot": "0",
								"type": "t_address_payable"
							},
							{
								"astId": 16,
								"contract": "contracts/Automobchain.sol:Automobchain",
								"label": "firstName",
								"offset": 0,
								"slot": "1",
								"type": "t_string_storage"
							},
							{
								"astId": 18,
								"contract": "contracts/Automobchain.sol:Automobchain",
								"label": "lastName",
								"offset": 0,
								"slot": "2",
								"type": "t_string_storage"
							},
							{
								"astId": 20,
								"contract": "contracts/Automobchain.sol:Automobchain",
								"label": "canRent",
								"offset": 0,
								"slot": "3",
								"type": "t_bool"
							},
							{
								"astId": 22,
								"contract": "contracts/Automobchain.sol:Automobchain",
								"label": "active",
								"offset": 1,
								"slot": "3",
								"type": "t_bool"
							},
							{
								"astId": 24,
								"contract": "contracts/Automobchain.sol:Automobchain",
								"label": "balance",
								"offset": 0,
								"slot": "4",
								"type": "t_uint256"
							},
							{
								"astId": 26,
								"contract": "contracts/Automobchain.sol:Automobchain",
								"label": "due",
								"offset": 0,
								"slot": "5",
								"type": "t_uint256"
							},
							{
								"astId": 28,
								"contract": "contracts/Automobchain.sol:Automobchain",
								"label": "start",
								"offset": 0,
								"slot": "6",
								"type": "t_uint256"
							},
							{
								"astId": 30,
								"contract": "contracts/Automobchain.sol:Automobchain",
								"label": "end",
								"offset": 0,
								"slot": "7",
								"type": "t_uint256"
							}
						],
						"numberOfBytes": "256"
					},
					"t_uint256": {
						"encoding": "inplace",
						"label": "uint256",
						"numberOfBytes": "32"
					}
				}
			},
			"userdoc": {
				"kind": "user",
				"methods": {},
				"version": 1
			}
		}
	}
}