{
	"contracts/Automobchain.sol": {
		"Automobchain": {
			"abi": [
				{
					"inputs": [],
					"stateMutability": "nonpayable",
					"type": "constructor"
				},
				{
					"inputs": [
						{
							"internalType": "address payable",
							"name": "walletAddress",
							"type": "address"
						},
						{
							"internalType": "string",
							"name": "firstName",
							"type": "string"
						},
						{
							"internalType": "string",
							"name": "lastName",
							"type": "string"
						},
						{
							"internalType": "bool",
							"name": "canRent",
							"type": "bool"
						},
						{
							"internalType": "bool",
							"name": "active",
							"type": "bool"
						},
						{
							"internalType": "uint256",
							"name": "balance",
							"type": "uint256"
						},
						{
							"internalType": "uint256",
							"name": "due",
							"type": "uint256"
						},
						{
							"internalType": "uint256",
							"name": "start",
							"type": "uint256"
						},
						{
							"internalType": "uint256",
							"name": "end",
							"type": "uint256"
						}
					],
					"name": "addRenter",
					"outputs": [],
					"stateMutability": "nonpayable",
					"type": "function"
				},
				{
					"inputs": [],
					"name": "balanceOf",
					"outputs": [
						{
							"internalType": "uint256",
							"name": "",
							"type": "uint256"
						}
					],
					"stateMutability": "view",
					"type": "function"
				},
				{
					"inputs": [
						{
							"internalType": "address",
							"name": "walletAddress",
							"type": "address"
						}
					],
					"name": "balanceOfRenter",
					"outputs": [
						{
							"internalType": "uint256",
							"name": "",
							"type": "uint256"
						}
					],
					"stateMutability": "view",
					"type": "function"
				},
				{
					"inputs": [
						{
							"internalType": "address",
							"name": "walletAddress",
							"type": "address"
						}
					],
					"name": "canRentBike",
					"outputs": [
						{
							"internalType": "bool",
							"name": "",
							"type": "bool"
						}
					],
					"stateMutability": "view",
					"type": "function"
				},
				{
					"inputs": [
						{
							"internalType": "address",
							"name": "walletAddress",
							"type": "address"
						}
					],
					"name": "checkIn",
					"outputs": [],
					"stateMutability": "nonpayable",
					"type": "function"
				},
				{
					"inputs": [
						{
							"internalType": "address",
							"name": "walletAddress",
							"type": "address"
						}
					],
					"name": "checkOut",
					"outputs": [],
					"stateMutability": "nonpayable",
					"type": "function"
				},
				{
					"inputs": [
						{
							"internalType": "address",
							"name": "walletAddress",
							"type": "address"
						}
					],
					"name": "getTotalDuration",
					"outputs": [
						{
							"internalType": "uint256",
							"name": "",
							"type": "uint256"
						}
					],
					"stateMutability": "view",
					"type": "function"
				},
				{
					"inputs": [
						{
							"internalType": "address",
							"name": "",
							"type": "address"
						}
					],
					"name": "renters",
					"outputs": [
						{
							"internalType": "address payable",
							"name": "walletAddress",
							"type": "address"
						},
						{
							"internalType": "string",
							"name": "firstName",
							"type": "string"
						},
						{
							"internalType": "string",
							"name": "lastName",
							"type": "string"
						},
						{
							"internalType": "bool",
							"name": "canRent",
							"type": "bool"
						},
						{
							"internalType": "bool",
							"name": "active",
							"type": "bool"
						},
						{
							"internalType": "uint256",
							"name": "balance",
							"type": "uint256"
						},
						{
							"internalType": "uint256",
							"name": "due",
							"type": "uint256"
						},
						{
							"internalType": "uint256",
							"name": "start",
							"type": "uint256"
						},
						{
							"internalType": "uint256",
							"name": "end",
							"type": "uint256"
						}
					],
					"stateMutability": "view",
					"type": "function"
				}
			],
			"devdoc": {
				"kind": "dev",
				"methods": {},
				"version": 1
			},
			"evm": {
				"assembly": "    /* \"contracts/Automobchain.sol\":66:2459  contract Automobchain {\r... */\n  mstore(0x40, 0x80)\n    /* \"contracts/Automobchain.sol\":117:168  constructor() {\r... */\n  callvalue\n  dup1\n  iszero\n  tag_1\n  jumpi\n  0x00\n  dup1\n  revert\ntag_1:\n  pop\n    /* \"contracts/Automobchain.sol\":150:160  msg.sender */\n  caller\n    /* \"contracts/Automobchain.sol\":142:147  owner */\n  0x00\n  dup1\n    /* \"contracts/Automobchain.sol\":142:160  owner = msg.sender */\n  0x0100\n  exp\n  dup2\n  sload\n  dup2\n  0xffffffffffffffffffffffffffffffffffffffff\n  mul\n  not\n  and\n  swap1\n  dup4\n  0xffffffffffffffffffffffffffffffffffffffff\n  and\n  mul\n  or\n  swap1\n  sstore\n  pop\n    /* \"contracts/Automobchain.sol\":66:2459  contract Automobchain {\r... */\n  dataSize(sub_0)\n  dup1\n  dataOffset(sub_0)\n  0x00\n  codecopy\n  0x00\n  return\nstop\n\nsub_0: assembly {\n        /* \"contracts/Automobchain.sol\":66:2459  contract Automobchain {\r... */\n      mstore(0x40, 0x80)\n      callvalue\n      dup1\n      iszero\n      tag_1\n      jumpi\n      0x00\n      dup1\n      revert\n    tag_1:\n      pop\n      jumpi(tag_2, lt(calldatasize, 0x04))\n      shr(0xe0, calldataload(0x00))\n      dup1\n      0x722713f7\n      gt\n      tag_11\n      jumpi\n      dup1\n      0x722713f7\n      eq\n      tag_7\n      jumpi\n      dup1\n      0x8d23caa0\n      eq\n      tag_8\n      jumpi\n      dup1\n      0xaad1b617\n      eq\n      tag_9\n      jumpi\n      dup1\n      0xd9a59e33\n      eq\n      tag_10\n      jumpi\n      jump(tag_2)\n    tag_11:\n      dup1\n      0x0b88adbe\n      eq\n      tag_3\n      jumpi\n      dup1\n      0x41ba6e89\n      eq\n      tag_4\n      jumpi\n      dup1\n      0x5e649727\n      eq\n      tag_5\n      jumpi\n      dup1\n      0x644a1370\n      eq\n      tag_6\n      jumpi\n    tag_2:\n      0x00\n      dup1\n      revert\n        /* \"contracts/Automobchain.sol\":2329:2455  function canRentBike(address walletAddress) public view returns (bool){\r... */\n    tag_3:\n      tag_12\n      0x04\n      dup1\n      calldatasize\n      sub\n      dup2\n      add\n      swap1\n      tag_13\n      swap2\n      swap1\n      tag_14\n      jump\t// in\n    tag_13:\n      tag_15\n      jump\t// in\n    tag_12:\n      mload(0x40)\n      tag_16\n      swap2\n      swap1\n      tag_17\n      jump\t// in\n    tag_16:\n      mload(0x40)\n      dup1\n      swap2\n      sub\n      swap1\n      return\n        /* \"contracts/Automobchain.sol\":1474:1740  function getTotalDuration(address walletAddress) public view returns(uint) {\r... */\n    tag_4:\n      tag_18\n      0x04\n      dup1\n      calldatasize\n      sub\n      dup2\n      add\n      swap1\n      tag_19\n      swap2\n      swap1\n      tag_14\n      jump\t// in\n    tag_19:\n      tag_20\n      jump\t// in\n    tag_18:\n      mload(0x40)\n      tag_21\n      swap2\n      swap1\n      tag_22\n      jump\t// in\n    tag_21:\n      mload(0x40)\n      dup1\n      swap2\n      sub\n      swap1\n      return\n        /* \"contracts/Automobchain.sol\":508:822  function addRenter(address payable walletAddress, string memory firstName, string memory lastName, bool canRent, bool active, uint balance, uint due, uint\r... */\n    tag_5:\n      tag_23\n      0x04\n      dup1\n      calldatasize\n      sub\n      dup2\n      add\n      swap1\n      tag_24\n      swap2\n      swap1\n      tag_25\n      jump\t// in\n    tag_24:\n      tag_26\n      jump\t// in\n    tag_23:\n      stop\n        /* \"contracts/Automobchain.sol\":457:499  mapping (address => Renter) public renters */\n    tag_6:\n      tag_27\n      0x04\n      dup1\n      calldatasize\n      sub\n      dup2\n      add\n      swap1\n      tag_28\n      swap2\n      swap1\n      tag_14\n      jump\t// in\n    tag_28:\n      tag_29\n      jump\t// in\n    tag_27:\n      mload(0x40)\n      tag_30\n      swap10\n      swap9\n      swap8\n      swap7\n      swap6\n      swap5\n      swap4\n      swap3\n      swap2\n      swap1\n      tag_31\n      jump\t// in\n    tag_30:\n      mload(0x40)\n      dup1\n      swap2\n      sub\n      swap1\n      return\n        /* \"contracts/Automobchain.sol\":1776:1869  function balanceOf() view public returns(uint){\r... */\n    tag_7:\n      tag_32\n      tag_33\n      jump\t// in\n    tag_32:\n      mload(0x40)\n      tag_34\n      swap2\n      swap1\n      tag_22\n      jump\t// in\n    tag_34:\n      mload(0x40)\n      dup1\n      swap2\n      sub\n      swap1\n      return\n        /* \"contracts/Automobchain.sol\":851:1059  function checkOut(address walletAddress) public{\r... */\n    tag_8:\n      tag_35\n      0x04\n      dup1\n      calldatasize\n      sub\n      dup2\n      add\n      swap1\n      tag_36\n      swap2\n      swap1\n      tag_14\n      jump\t// in\n    tag_36:\n      tag_37\n      jump\t// in\n    tag_35:\n      stop\n        /* \"contracts/Automobchain.sol\":1905:2034  function balanceOfRenter(address walletAddress) public view returns(uint){\r... */\n    tag_9:\n      tag_38\n      0x04\n      dup1\n      calldatasize\n      sub\n      dup2\n      add\n      swap1\n      tag_39\n      swap2\n      swap1\n      tag_14\n      jump\t// in\n    tag_39:\n      tag_40\n      jump\t// in\n    tag_38:\n      mload(0x40)\n      tag_41\n      swap2\n      swap1\n      tag_22\n      jump\t// in\n    tag_41:\n      mload(0x40)\n      dup1\n      swap2\n      sub\n      swap1\n      return\n        /* \"contracts/Automobchain.sol\":1089:1308  function checkIn(address walletAddress) public{\r... */\n    tag_10:\n      tag_42\n      0x04\n      dup1\n      calldatasize\n      sub\n      dup2\n      add\n      swap1\n      tag_43\n      swap2\n      swap1\n      tag_14\n      jump\t// in\n    tag_43:\n      tag_44\n      jump\t// in\n    tag_42:\n      stop\n        /* \"contracts/Automobchain.sol\":2329:2455  function canRentBike(address walletAddress) public view returns (bool){\r... */\n    tag_15:\n        /* \"contracts/Automobchain.sol\":2394:2398  bool */\n      0x00\n        /* \"contracts/Automobchain.sol\":2417:2424  renters */\n      0x01\n        /* \"contracts/Automobchain.sol\":2417:2439  renters[walletAddress] */\n      0x00\n        /* \"contracts/Automobchain.sol\":2425:2438  walletAddress */\n      dup4\n        /* \"contracts/Automobchain.sol\":2417:2439  renters[walletAddress] */\n      0xffffffffffffffffffffffffffffffffffffffff\n      and\n      0xffffffffffffffffffffffffffffffffffffffff\n      and\n      dup2\n      mstore\n      0x20\n      add\n      swap1\n      dup2\n      mstore\n      0x20\n      add\n      0x00\n      keccak256\n        /* \"contracts/Automobchain.sol\":2417:2447  renters[walletAddress].canRent */\n      0x03\n      add\n      0x00\n      swap1\n      sload\n      swap1\n      0x0100\n      exp\n      swap1\n      div\n      0xff\n      and\n        /* \"contracts/Automobchain.sol\":2410:2447  return renters[walletAddress].canRent */\n      swap1\n      pop\n        /* \"contracts/Automobchain.sol\":2329:2455  function canRentBike(address walletAddress) public view returns (bool){\r... */\n      swap2\n      swap1\n      pop\n      jump\t// out\n        /* \"contracts/Automobchain.sol\":1474:1740  function getTotalDuration(address walletAddress) public view returns(uint) {\r... */\n    tag_20:\n        /* \"contracts/Automobchain.sol\":1543:1547  uint */\n      0x00\n        /* \"contracts/Automobchain.sol\":1560:1573  uint timespan */\n      dup1\n        /* \"contracts/Automobchain.sol\":1576:1648  renterTimespan(renters[walletAddress].start, renters[walletAddress].end) */\n      tag_47\n        /* \"contracts/Automobchain.sol\":1591:1598  renters */\n      0x01\n        /* \"contracts/Automobchain.sol\":1591:1613  renters[walletAddress] */\n      0x00\n        /* \"contracts/Automobchain.sol\":1599:1612  walletAddress */\n      dup6\n        /* \"contracts/Automobchain.sol\":1591:1613  renters[walletAddress] */\n      0xffffffffffffffffffffffffffffffffffffffff\n      and\n      0xffffffffffffffffffffffffffffffffffffffff\n      and\n      dup2\n      mstore\n      0x20\n      add\n      swap1\n      dup2\n      mstore\n      0x20\n      add\n      0x00\n      keccak256\n        /* \"contracts/Automobchain.sol\":1591:1619  renters[walletAddress].start */\n      0x06\n      add\n      sload\n        /* \"contracts/Automobchain.sol\":1621:1628  renters */\n      0x01\n        /* \"contracts/Automobchain.sol\":1621:1643  renters[walletAddress] */\n      0x00\n        /* \"contracts/Automobchain.sol\":1629:1642  walletAddress */\n      dup7\n        /* \"contracts/Automobchain.sol\":1621:1643  renters[walletAddress] */\n      0xffffffffffffffffffffffffffffffffffffffff\n      and\n      0xffffffffffffffffffffffffffffffffffffffff\n      and\n      dup2\n      mstore\n      0x20\n      add\n      swap1\n      dup2\n      mstore\n      0x20\n      add\n      0x00\n      keccak256\n        /* \"contracts/Automobchain.sol\":1621:1647  renters[walletAddress].end */\n      0x07\n      add\n      sload\n        /* \"contracts/Automobchain.sol\":1576:1590  renterTimespan */\n      tag_48\n        /* \"contracts/Automobchain.sol\":1576:1648  renterTimespan(renters[walletAddress].start, renters[walletAddress].end) */\n      jump\t// in\n    tag_47:\n        /* \"contracts/Automobchain.sol\":1560:1648  uint timespan = renterTimespan(renters[walletAddress].start, renters[walletAddress].end) */\n      swap1\n      pop\n        /* \"contracts/Automobchain.sol\":1659:1681  uint timespanInMinutes */\n      0x00\n        /* \"contracts/Automobchain.sol\":1695:1697  60 */\n      0x3c\n        /* \"contracts/Automobchain.sol\":1684:1692  timespan */\n      dup3\n        /* \"contracts/Automobchain.sol\":1684:1697  timespan / 60 */\n      tag_49\n      swap2\n      swap1\n      tag_50\n      jump\t// in\n    tag_49:\n        /* \"contracts/Automobchain.sol\":1659:1697  uint timespanInMinutes = timespan / 60 */\n      swap1\n      pop\n        /* \"contracts/Automobchain.sol\":1715:1732  timespanInMinutes */\n      dup1\n        /* \"contracts/Automobchain.sol\":1708:1732  return timespanInMinutes */\n      swap3\n      pop\n      pop\n      pop\n        /* \"contracts/Automobchain.sol\":1474:1740  function getTotalDuration(address walletAddress) public view returns(uint) {\r... */\n      swap2\n      swap1\n      pop\n      jump\t// out\n        /* \"contracts/Automobchain.sol\":508:822  function addRenter(address payable walletAddress, string memory firstName, string memory lastName, bool canRent, bool active, uint balance, uint due, uint\r... */\n    tag_26:\n        /* \"contracts/Automobchain.sol\":729:814  Renter(walletAddress, firstName, lastName, canRent, active, balance, due, start, end) */\n      mload(0x40)\n      dup1\n      0x0120\n      add\n      0x40\n      mstore\n      dup1\n        /* \"contracts/Automobchain.sol\":736:749  walletAddress */\n      dup11\n        /* \"contracts/Automobchain.sol\":729:814  Renter(walletAddress, firstName, lastName, canRent, active, balance, due, start, end) */\n      0xffffffffffffffffffffffffffffffffffffffff\n      and\n      dup2\n      mstore\n      0x20\n      add\n        /* \"contracts/Automobchain.sol\":751:760  firstName */\n      dup10\n        /* \"contracts/Automobchain.sol\":729:814  Renter(walletAddress, firstName, lastName, canRent, active, balance, due, start, end) */\n      dup2\n      mstore\n      0x20\n      add\n        /* \"contracts/Automobchain.sol\":762:770  lastName */\n      dup9\n        /* \"contracts/Automobchain.sol\":729:814  Renter(walletAddress, firstName, lastName, canRent, active, balance, due, start, end) */\n      dup2\n      mstore\n      0x20\n      add\n        /* \"contracts/Automobchain.sol\":772:779  canRent */\n      dup8\n        /* \"contracts/Automobchain.sol\":729:814  Renter(walletAddress, firstName, lastName, canRent, active, balance, due, start, end) */\n      iszero\n      iszero\n      dup2\n      mstore\n      0x20\n      add\n        /* \"contracts/Automobchain.sol\":781:787  active */\n      dup7\n        /* \"contracts/Automobchain.sol\":729:814  Renter(walletAddress, firstName, lastName, canRent, active, balance, due, start, end) */\n      iszero\n      iszero\n      dup2\n      mstore\n      0x20\n      add\n        /* \"contracts/Automobchain.sol\":789:796  balance */\n      dup6\n        /* \"contracts/Automobchain.sol\":729:814  Renter(walletAddress, firstName, lastName, canRent, active, balance, due, start, end) */\n      dup2\n      mstore\n      0x20\n      add\n        /* \"contracts/Automobchain.sol\":798:801  due */\n      dup5\n        /* \"contracts/Automobchain.sol\":729:814  Renter(walletAddress, firstName, lastName, canRent, active, balance, due, start, end) */\n      dup2\n      mstore\n      0x20\n      add\n        /* \"contracts/Automobchain.sol\":803:808  start */\n      dup4\n        /* \"contracts/Automobchain.sol\":729:814  Renter(walletAddress, firstName, lastName, canRent, active, balance, due, start, end) */\n      dup2\n      mstore\n      0x20\n      add\n        /* \"contracts/Automobchain.sol\":810:813  end */\n      dup3\n        /* \"contracts/Automobchain.sol\":729:814  Renter(walletAddress, firstName, lastName, canRent, active, balance, due, start, end) */\n      dup2\n      mstore\n      pop\n        /* \"contracts/Automobchain.sol\":704:711  renters */\n      0x01\n        /* \"contracts/Automobchain.sol\":704:726  renters[walletAddress] */\n      0x00\n        /* \"contracts/Automobchain.sol\":712:725  walletAddress */\n      dup12\n        /* \"contracts/Automobchain.sol\":704:726  renters[walletAddress] */\n      0xffffffffffffffffffffffffffffffffffffffff\n      and\n      0xffffffffffffffffffffffffffffffffffffffff\n      and\n      dup2\n      mstore\n      0x20\n      add\n      swap1\n      dup2\n      mstore\n      0x20\n      add\n      0x00\n      keccak256\n        /* \"contracts/Automobchain.sol\":704:814  renters[walletAddress] = Renter(walletAddress, firstName, lastName, canRent, active, balance, due, start, end) */\n      0x00\n      dup3\n      add\n      mload\n      dup2\n      0x00\n      add\n      exp(0x0100, 0x00)\n      dup2\n      sload\n      dup2\n      0xffffffffffffffffffffffffffffffffffffffff\n      mul\n      not\n      and\n      swap1\n      dup4\n      0xffffffffffffffffffffffffffffffffffffffff\n      and\n      mul\n      or\n      swap1\n      sstore\n      pop\n      0x20\n      dup3\n      add\n      mload\n      dup2\n      0x01\n      add\n      swap1\n      dup1\n      mload\n      swap1\n      0x20\n      add\n      swap1\n      tag_52\n      swap3\n      swap2\n      swap1\n      tag_53\n      jump\t// in\n    tag_52:\n      pop\n      0x40\n      dup3\n      add\n      mload\n      dup2\n      0x02\n      add\n      swap1\n      dup1\n      mload\n      swap1\n      0x20\n      add\n      swap1\n      tag_54\n      swap3\n      swap2\n      swap1\n      tag_53\n      jump\t// in\n    tag_54:\n      pop\n      0x60\n      dup3\n      add\n      mload\n      dup2\n      0x03\n      add\n      exp(0x0100, 0x00)\n      dup2\n      sload\n      dup2\n      0xff\n      mul\n      not\n      and\n      swap1\n      dup4\n      iszero\n      iszero\n      mul\n      or\n      swap1\n      sstore\n      pop\n      0x80\n      dup3\n      add\n      mload\n      dup2\n      0x03\n      add\n      exp(0x0100, 0x01)\n      dup2\n      sload\n      dup2\n      0xff\n      mul\n      not\n      and\n      swap1\n      dup4\n      iszero\n      iszero\n      mul\n      or\n      swap1\n      sstore\n      pop\n      0xa0\n      dup3\n      add\n      mload\n      dup2\n      0x04\n      add\n      sstore\n      0xc0\n      dup3\n      add\n      mload\n      dup2\n      0x05\n      add\n      sstore\n      0xe0\n      dup3\n      add\n      mload\n      dup2\n      0x06\n      add\n      sstore\n      0x0100\n      dup3\n      add\n      mload\n      dup2\n      0x07\n      add\n      sstore\n      swap1\n      pop\n      pop\n        /* \"contracts/Automobchain.sol\":508:822  function addRenter(address payable walletAddress, string memory firstName, string memory lastName, bool canRent, bool active, uint balance, uint due, uint\r... */\n      pop\n      pop\n      pop\n      pop\n      pop\n      pop\n      pop\n      pop\n      pop\n      jump\t// out\n        /* \"contracts/Automobchain.sol\":457:499  mapping (address => Renter) public renters */\n    tag_29:\n      mstore(0x20, 0x01)\n      dup1\n      0x00\n      mstore\n      keccak256(0x00, 0x40)\n      0x00\n      swap2\n      pop\n      swap1\n      pop\n      dup1\n      0x00\n      add\n      0x00\n      swap1\n      sload\n      swap1\n      0x0100\n      exp\n      swap1\n      div\n      0xffffffffffffffffffffffffffffffffffffffff\n      and\n      swap1\n      dup1\n      0x01\n      add\n      dup1\n      sload\n      tag_55\n      swap1\n      tag_56\n      jump\t// in\n    tag_55:\n      dup1\n      0x1f\n      add\n      0x20\n      dup1\n      swap2\n      div\n      mul\n      0x20\n      add\n      mload(0x40)\n      swap1\n      dup2\n      add\n      0x40\n      mstore\n      dup1\n      swap3\n      swap2\n      swap1\n      dup2\n      dup2\n      mstore\n      0x20\n      add\n      dup3\n      dup1\n      sload\n      tag_57\n      swap1\n      tag_56\n      jump\t// in\n    tag_57:\n      dup1\n      iszero\n      tag_58\n      jumpi\n      dup1\n      0x1f\n      lt\n      tag_59\n      jumpi\n      0x0100\n      dup1\n      dup4\n      sload\n      div\n      mul\n      dup4\n      mstore\n      swap2\n      0x20\n      add\n      swap2\n      jump(tag_58)\n    tag_59:\n      dup3\n      add\n      swap2\n      swap1\n      0x00\n      mstore\n      keccak256(0x00, 0x20)\n      swap1\n    tag_60:\n      dup2\n      sload\n      dup2\n      mstore\n      swap1\n      0x01\n      add\n      swap1\n      0x20\n      add\n      dup1\n      dup4\n      gt\n      tag_60\n      jumpi\n      dup3\n      swap1\n      sub\n      0x1f\n      and\n      dup3\n      add\n      swap2\n    tag_58:\n      pop\n      pop\n      pop\n      pop\n      pop\n      swap1\n      dup1\n      0x02\n      add\n      dup1\n      sload\n      tag_61\n      swap1\n      tag_56\n      jump\t// in\n    tag_61:\n      dup1\n      0x1f\n      add\n      0x20\n      dup1\n      swap2\n      div\n      mul\n      0x20\n      add\n      mload(0x40)\n      swap1\n      dup2\n      add\n      0x40\n      mstore\n      dup1\n      swap3\n      swap2\n      swap1\n      dup2\n      dup2\n      mstore\n      0x20\n      add\n      dup3\n      dup1\n      sload\n      tag_62\n      swap1\n      tag_56\n      jump\t// in\n    tag_62:\n      dup1\n      iszero\n      tag_63\n      jumpi\n      dup1\n      0x1f\n      lt\n      tag_64\n      jumpi\n      0x0100\n      dup1\n      dup4\n      sload\n      div\n      mul\n      dup4\n      mstore\n      swap2\n      0x20\n      add\n      swap2\n      jump(tag_63)\n    tag_64:\n      dup3\n      add\n      swap2\n      swap1\n      0x00\n      mstore\n      keccak256(0x00, 0x20)\n      swap1\n    tag_65:\n      dup2\n      sload\n      dup2\n      mstore\n      swap1\n      0x01\n      add\n      swap1\n      0x20\n      add\n      dup1\n      dup4\n      gt\n      tag_65\n      jumpi\n      dup3\n      swap1\n      sub\n      0x1f\n      and\n      dup3\n      add\n      swap2\n    tag_63:\n      pop\n      pop\n      pop\n      pop\n      pop\n      swap1\n      dup1\n      0x03\n      add\n      0x00\n      swap1\n      sload\n      swap1\n      0x0100\n      exp\n      swap1\n      div\n      0xff\n      and\n      swap1\n      dup1\n      0x03\n      add\n      0x01\n      swap1\n      sload\n      swap1\n      0x0100\n      exp\n      swap1\n      div\n      0xff\n      and\n      swap1\n      dup1\n      0x04\n      add\n      sload\n      swap1\n      dup1\n      0x05\n      add\n      sload\n      swap1\n      dup1\n      0x06\n      add\n      sload\n      swap1\n      dup1\n      0x07\n      add\n      sload\n      swap1\n      pop\n      dup10\n      jump\t// out\n        /* \"contracts/Automobchain.sol\":1776:1869  function balanceOf() view public returns(uint){\r... */\n    tag_33:\n        /* \"contracts/Automobchain.sol\":1817:1821  uint */\n      0x00\n        /* \"contracts/Automobchain.sol\":1840:1861  address(this).balance */\n      selfbalance\n        /* \"contracts/Automobchain.sol\":1833:1861  return address(this).balance */\n      swap1\n      pop\n        /* \"contracts/Automobchain.sol\":1776:1869  function balanceOf() view public returns(uint){\r... */\n      swap1\n      jump\t// out\n        /* \"contracts/Automobchain.sol\":851:1059  function checkOut(address walletAddress) public{\r... */\n    tag_37:\n        /* \"contracts/Automobchain.sol\":941:945  true */\n      0x01\n        /* \"contracts/Automobchain.sol\":909:916  renters */\n      dup1\n        /* \"contracts/Automobchain.sol\":909:931  renters[walletAddress] */\n      0x00\n        /* \"contracts/Automobchain.sol\":917:930  walletAddress */\n      dup4\n        /* \"contracts/Automobchain.sol\":909:931  renters[walletAddress] */\n      0xffffffffffffffffffffffffffffffffffffffff\n      and\n      0xffffffffffffffffffffffffffffffffffffffff\n      and\n      dup2\n      mstore\n      0x20\n      add\n      swap1\n      dup2\n      mstore\n      0x20\n      add\n      0x00\n      keccak256\n        /* \"contracts/Automobchain.sol\":909:938  renters[walletAddress].active */\n      0x03\n      add\n      0x01\n        /* \"contracts/Automobchain.sol\":909:945  renters[walletAddress].active = true */\n      0x0100\n      exp\n      dup2\n      sload\n      dup2\n      0xff\n      mul\n      not\n      and\n      swap1\n      dup4\n      iszero\n      iszero\n      mul\n      or\n      swap1\n      sstore\n      pop\n        /* \"contracts/Automobchain.sol\":987:1002  block.timestamp */\n      timestamp\n        /* \"contracts/Automobchain.sol\":956:963  renters */\n      0x01\n        /* \"contracts/Automobchain.sol\":956:978  renters[walletAddress] */\n      0x00\n        /* \"contracts/Automobchain.sol\":964:977  walletAddress */\n      dup4\n        /* \"contracts/Automobchain.sol\":956:978  renters[walletAddress] */\n      0xffffffffffffffffffffffffffffffffffffffff\n      and\n      0xffffffffffffffffffffffffffffffffffffffff\n      and\n      dup2\n      mstore\n      0x20\n      add\n      swap1\n      dup2\n      mstore\n      0x20\n      add\n      0x00\n      keccak256\n        /* \"contracts/Automobchain.sol\":956:984  renters[walletAddress].start */\n      0x06\n      add\n        /* \"contracts/Automobchain.sol\":956:1002  renters[walletAddress].start = block.timestamp */\n      dup2\n      swap1\n      sstore\n      pop\n        /* \"contracts/Automobchain.sol\":1046:1051  false */\n      0x00\n        /* \"contracts/Automobchain.sol\":1013:1020  renters */\n      0x01\n        /* \"contracts/Automobchain.sol\":1013:1035  renters[walletAddress] */\n      0x00\n        /* \"contracts/Automobchain.sol\":1021:1034  walletAddress */\n      dup4\n        /* \"contracts/Automobchain.sol\":1013:1035  renters[walletAddress] */\n      0xffffffffffffffffffffffffffffffffffffffff\n      and\n      0xffffffffffffffffffffffffffffffffffffffff\n      and\n      dup2\n      mstore\n      0x20\n      add\n      swap1\n      dup2\n      mstore\n      0x20\n      add\n      0x00\n      keccak256\n        /* \"contracts/Automobchain.sol\":1013:1043  renters[walletAddress].canRent */\n      0x03\n      add\n      0x00\n        /* \"contracts/Automobchain.sol\":1013:1051  renters[walletAddress].canRent = false */\n      0x0100\n      exp\n      dup2\n      sload\n      dup2\n      0xff\n      mul\n      not\n      and\n      swap1\n      dup4\n      iszero\n      iszero\n      mul\n      or\n      swap1\n      sstore\n      pop\n        /* \"contracts/Automobchain.sol\":851:1059  function checkOut(address walletAddress) public{\r... */\n      pop\n      jump\t// out\n        /* \"contracts/Automobchain.sol\":1905:2034  function balanceOfRenter(address walletAddress) public view returns(uint){\r... */\n    tag_40:\n        /* \"contracts/Automobchain.sol\":1973:1977  uint */\n      0x00\n        /* \"contracts/Automobchain.sol\":1996:2003  renters */\n      0x01\n        /* \"contracts/Automobchain.sol\":1996:2018  renters[walletAddress] */\n      0x00\n        /* \"contracts/Automobchain.sol\":2004:2017  walletAddress */\n      dup4\n        /* \"contracts/Automobchain.sol\":1996:2018  renters[walletAddress] */\n      0xffffffffffffffffffffffffffffffffffffffff\n      and\n      0xffffffffffffffffffffffffffffffffffffffff\n      and\n      dup2\n      mstore\n      0x20\n      add\n      swap1\n      dup2\n      mstore\n      0x20\n      add\n      0x00\n      keccak256\n        /* \"contracts/Automobchain.sol\":1996:2026  renters[walletAddress].balance */\n      0x04\n      add\n      sload\n        /* \"contracts/Automobchain.sol\":1989:2026  return renters[walletAddress].balance */\n      swap1\n      pop\n        /* \"contracts/Automobchain.sol\":1905:2034  function balanceOfRenter(address walletAddress) public view returns(uint){\r... */\n      swap2\n      swap1\n      pop\n      jump\t// out\n        /* \"contracts/Automobchain.sol\":1089:1308  function checkIn(address walletAddress) public{\r... */\n    tag_44:\n        /* \"contracts/Automobchain.sol\":1178:1183  false */\n      0x00\n        /* \"contracts/Automobchain.sol\":1146:1153  renters */\n      0x01\n        /* \"contracts/Automobchain.sol\":1146:1168  renters[walletAddress] */\n      0x00\n        /* \"contracts/Automobchain.sol\":1154:1167  walletAddress */\n      dup4\n        /* \"contracts/Automobchain.sol\":1146:1168  renters[walletAddress] */\n      0xffffffffffffffffffffffffffffffffffffffff\n      and\n      0xffffffffffffffffffffffffffffffffffffffff\n      and\n      dup2\n      mstore\n      0x20\n      add\n      swap1\n      dup2\n      mstore\n      0x20\n      add\n      0x00\n      keccak256\n        /* \"contracts/Automobchain.sol\":1146:1175  renters[walletAddress].active */\n      0x03\n      add\n      0x01\n        /* \"contracts/Automobchain.sol\":1146:1183  renters[walletAddress].active = false */\n      0x0100\n      exp\n      dup2\n      sload\n      dup2\n      0xff\n      mul\n      not\n      and\n      swap1\n      dup4\n      iszero\n      iszero\n      mul\n      or\n      swap1\n      sstore\n      pop\n        /* \"contracts/Automobchain.sol\":1223:1238  block.timestamp */\n      timestamp\n        /* \"contracts/Automobchain.sol\":1194:1201  renters */\n      0x01\n        /* \"contracts/Automobchain.sol\":1194:1216  renters[walletAddress] */\n      0x00\n        /* \"contracts/Automobchain.sol\":1202:1215  walletAddress */\n      dup4\n        /* \"contracts/Automobchain.sol\":1194:1216  renters[walletAddress] */\n      0xffffffffffffffffffffffffffffffffffffffff\n      and\n      0xffffffffffffffffffffffffffffffffffffffff\n      and\n      dup2\n      mstore\n      0x20\n      add\n      swap1\n      dup2\n      mstore\n      0x20\n      add\n      0x00\n      keccak256\n        /* \"contracts/Automobchain.sol\":1194:1220  renters[walletAddress].end */\n      0x07\n      add\n        /* \"contracts/Automobchain.sol\":1194:1238  renters[walletAddress].end = block.timestamp */\n      dup2\n      swap1\n      sstore\n      pop\n        /* \"contracts/Automobchain.sol\":1279:1300  setDue(walletAddress) */\n      tag_70\n        /* \"contracts/Automobchain.sol\":1286:1299  walletAddress */\n      dup2\n        /* \"contracts/Automobchain.sol\":1279:1285  setDue */\n      tag_71\n        /* \"contracts/Automobchain.sol\":1279:1300  setDue(walletAddress) */\n      jump\t// in\n    tag_70:\n        /* \"contracts/Automobchain.sol\":1089:1308  function checkIn(address walletAddress) public{\r... */\n      pop\n      jump\t// out\n        /* \"contracts/Automobchain.sol\":1353:1466  function renterTimespan(uint start, uint end) internal pure returns (uint) {\r... */\n    tag_48:\n        /* \"contracts/Automobchain.sol\":1422:1426  uint */\n      0x00\n        /* \"contracts/Automobchain.sol\":1452:1457  start */\n      dup3\n        /* \"contracts/Automobchain.sol\":1446:1449  end */\n      dup3\n        /* \"contracts/Automobchain.sol\":1446:1457  end - start */\n      tag_73\n      swap2\n      swap1\n      tag_74\n      jump\t// in\n    tag_73:\n        /* \"contracts/Automobchain.sol\":1439:1457  return end - start */\n      swap1\n      pop\n        /* \"contracts/Automobchain.sol\":1353:1466  function renterTimespan(uint start, uint end) internal pure returns (uint) {\r... */\n      swap3\n      swap2\n      pop\n      pop\n      jump\t// out\n        /* \"contracts/Automobchain.sol\":2064:2321  function setDue(address walletAddress) internal{\r... */\n    tag_71:\n        /* \"contracts/Automobchain.sol\":2122:2142  uint timespanMinutes */\n      0x00\n        /* \"contracts/Automobchain.sol\":2145:2176  getTotalDuration(walletAddress) */\n      tag_76\n        /* \"contracts/Automobchain.sol\":2162:2175  walletAddress */\n      dup3\n        /* \"contracts/Automobchain.sol\":2145:2161  getTotalDuration */\n      tag_20\n        /* \"contracts/Automobchain.sol\":2145:2176  getTotalDuration(walletAddress) */\n      jump\t// in\n    tag_76:\n        /* \"contracts/Automobchain.sol\":2122:2176  uint timespanMinutes = getTotalDuration(walletAddress) */\n      swap1\n      pop\n        /* \"contracts/Automobchain.sol\":2187:2212  uint fiveMinuteIncrements */\n      0x00\n        /* \"contracts/Automobchain.sol\":2233:2234  5 */\n      0x05\n        /* \"contracts/Automobchain.sol\":2215:2230  timespanMinutes */\n      dup3\n        /* \"contracts/Automobchain.sol\":2215:2234  timespanMinutes / 5 */\n      tag_77\n      swap2\n      swap1\n      tag_50\n      jump\t// in\n    tag_77:\n        /* \"contracts/Automobchain.sol\":2187:2234  uint fiveMinuteIncrements = timespanMinutes / 5 */\n      swap1\n      pop\n        /* \"contracts/Automobchain.sol\":2297:2313  5000000000000000 */\n      0x11c37937e08000\n        /* \"contracts/Automobchain.sol\":2274:2294  fiveMinuteIncrements */\n      dup2\n        /* \"contracts/Automobchain.sol\":2274:2313  fiveMinuteIncrements * 5000000000000000 */\n      tag_78\n      swap2\n      swap1\n      tag_79\n      jump\t// in\n    tag_78:\n        /* \"contracts/Automobchain.sol\":2245:2252  renters */\n      0x01\n        /* \"contracts/Automobchain.sol\":2245:2267  renters[walletAddress] */\n      0x00\n        /* \"contracts/Automobchain.sol\":2253:2266  walletAddress */\n      dup6\n        /* \"contracts/Automobchain.sol\":2245:2267  renters[walletAddress] */\n      0xffffffffffffffffffffffffffffffffffffffff\n      and\n      0xffffffffffffffffffffffffffffffffffffffff\n      and\n      dup2\n      mstore\n      0x20\n      add\n      swap1\n      dup2\n      mstore\n      0x20\n      add\n      0x00\n      keccak256\n        /* \"contracts/Automobchain.sol\":2245:2271  renters[walletAddress].due */\n      0x05\n      add\n        /* \"contracts/Automobchain.sol\":2245:2313  renters[walletAddress].due = fiveMinuteIncrements * 5000000000000000 */\n      dup2\n      swap1\n      sstore\n      pop\n        /* \"contracts/Automobchain.sol\":2111:2321  {\r... */\n      pop\n      pop\n        /* \"contracts/Automobchain.sol\":2064:2321  function setDue(address walletAddress) internal{\r... */\n      pop\n      jump\t// out\n    tag_53:\n      dup3\n      dup1\n      sload\n      tag_80\n      swap1\n      tag_56\n      jump\t// in\n    tag_80:\n      swap1\n      0x00\n      mstore\n      keccak256(0x00, 0x20)\n      swap1\n      0x1f\n      add\n      0x20\n      swap1\n      div\n      dup2\n      add\n      swap3\n      dup3\n      tag_82\n      jumpi\n      0x00\n      dup6\n      sstore\n      jump(tag_81)\n    tag_82:\n      dup3\n      0x1f\n      lt\n      tag_83\n      jumpi\n      dup1\n      mload\n      not(0xff)\n      and\n      dup4\n      dup1\n      add\n      or\n      dup6\n      sstore\n      jump(tag_81)\n    tag_83:\n      dup3\n      dup1\n      add\n      0x01\n      add\n      dup6\n      sstore\n      dup3\n      iszero\n      tag_81\n      jumpi\n      swap2\n      dup3\n      add\n    tag_84:\n      dup3\n      dup2\n      gt\n      iszero\n      tag_85\n      jumpi\n      dup3\n      mload\n      dup3\n      sstore\n      swap2\n      0x20\n      add\n      swap2\n      swap1\n      0x01\n      add\n      swap1\n      jump(tag_84)\n    tag_85:\n    tag_81:\n      pop\n      swap1\n      pop\n      tag_86\n      swap2\n      swap1\n      tag_87\n      jump\t// in\n    tag_86:\n      pop\n      swap1\n      jump\t// out\n    tag_87:\n    tag_88:\n      dup1\n      dup3\n      gt\n      iszero\n      tag_89\n      jumpi\n      0x00\n      dup2\n      0x00\n      swap1\n      sstore\n      pop\n      0x01\n      add\n      jump(tag_88)\n    tag_89:\n      pop\n      swap1\n      jump\t// out\n        /* \"#utility.yul\":7:419   */\n    tag_91:\n        /* \"#utility.yul\":85:90   */\n      0x00\n        /* \"#utility.yul\":110:176   */\n      tag_93\n        /* \"#utility.yul\":126:175   */\n      tag_94\n        /* \"#utility.yul\":168:174   */\n      dup5\n        /* \"#utility.yul\":126:175   */\n      tag_95\n      jump\t// in\n    tag_94:\n        /* \"#utility.yul\":110:176   */\n      tag_96\n      jump\t// in\n    tag_93:\n        /* \"#utility.yul\":101:176   */\n      swap1\n      pop\n        /* \"#utility.yul\":199:205   */\n      dup3\n        /* \"#utility.yul\":192:197   */\n      dup2\n        /* \"#utility.yul\":185:206   */\n      mstore\n        /* \"#utility.yul\":237:241   */\n      0x20\n        /* \"#utility.yul\":230:235   */\n      dup2\n        /* \"#utility.yul\":226:242   */\n      add\n        /* \"#utility.yul\":275:278   */\n      dup5\n        /* \"#utility.yul\":266:272   */\n      dup5\n        /* \"#utility.yul\":261:264   */\n      dup5\n        /* \"#utility.yul\":257:273   */\n      add\n        /* \"#utility.yul\":254:279   */\n      gt\n        /* \"#utility.yul\":251:363   */\n      iszero\n      tag_97\n      jumpi\n        /* \"#utility.yul\":282:361   */\n      tag_98\n      tag_99\n      jump\t// in\n    tag_98:\n        /* \"#utility.yul\":251:363   */\n    tag_97:\n        /* \"#utility.yul\":372:413   */\n      tag_100\n        /* \"#utility.yul\":406:412   */\n      dup5\n        /* \"#utility.yul\":401:404   */\n      dup3\n        /* \"#utility.yul\":396:399   */\n      dup6\n        /* \"#utility.yul\":372:413   */\n      tag_101\n      jump\t// in\n    tag_100:\n        /* \"#utility.yul\":91:419   */\n      pop\n        /* \"#utility.yul\":7:419   */\n      swap4\n      swap3\n      pop\n      pop\n      pop\n      jump\t// out\n        /* \"#utility.yul\":425:564   */\n    tag_102:\n        /* \"#utility.yul\":471:476   */\n      0x00\n        /* \"#utility.yul\":509:515   */\n      dup2\n        /* \"#utility.yul\":496:516   */\n      calldataload\n        /* \"#utility.yul\":487:516   */\n      swap1\n      pop\n        /* \"#utility.yul\":525:558   */\n      tag_104\n        /* \"#utility.yul\":552:557   */\n      dup2\n        /* \"#utility.yul\":525:558   */\n      tag_105\n      jump\t// in\n    tag_104:\n        /* \"#utility.yul\":425:564   */\n      swap3\n      swap2\n      pop\n      pop\n      jump\t// out\n        /* \"#utility.yul\":570:725   */\n    tag_106:\n        /* \"#utility.yul\":624:629   */\n      0x00\n        /* \"#utility.yul\":662:668   */\n      dup2\n        /* \"#utility.yul\":649:669   */\n      calldataload\n        /* \"#utility.yul\":640:669   */\n      swap1\n      pop\n        /* \"#utility.yul\":678:719   */\n      tag_108\n        /* \"#utility.yul\":713:718   */\n      dup2\n        /* \"#utility.yul\":678:719   */\n      tag_109\n      jump\t// in\n    tag_108:\n        /* \"#utility.yul\":570:725   */\n      swap3\n      swap2\n      pop\n      pop\n      jump\t// out\n        /* \"#utility.yul\":731:864   */\n    tag_110:\n        /* \"#utility.yul\":774:779   */\n      0x00\n        /* \"#utility.yul\":812:818   */\n      dup2\n        /* \"#utility.yul\":799:819   */\n      calldataload\n        /* \"#utility.yul\":790:819   */\n      swap1\n      pop\n        /* \"#utility.yul\":828:858   */\n      tag_112\n        /* \"#utility.yul\":852:857   */\n      dup2\n        /* \"#utility.yul\":828:858   */\n      tag_113\n      jump\t// in\n    tag_112:\n        /* \"#utility.yul\":731:864   */\n      swap3\n      swap2\n      pop\n      pop\n      jump\t// out\n        /* \"#utility.yul\":884:1224   */\n    tag_114:\n        /* \"#utility.yul\":940:945   */\n      0x00\n        /* \"#utility.yul\":989:992   */\n      dup3\n        /* \"#utility.yul\":982:986   */\n      0x1f\n        /* \"#utility.yul\":974:980   */\n      dup4\n        /* \"#utility.yul\":970:987   */\n      add\n        /* \"#utility.yul\":966:993   */\n      slt\n        /* \"#utility.yul\":956:1078   */\n      tag_116\n      jumpi\n        /* \"#utility.yul\":997:1076   */\n      tag_117\n      tag_118\n      jump\t// in\n    tag_117:\n        /* \"#utility.yul\":956:1078   */\n    tag_116:\n        /* \"#utility.yul\":1114:1120   */\n      dup2\n        /* \"#utility.yul\":1101:1121   */\n      calldataload\n        /* \"#utility.yul\":1139:1218   */\n      tag_119\n        /* \"#utility.yul\":1214:1217   */\n      dup5\n        /* \"#utility.yul\":1206:1212   */\n      dup3\n        /* \"#utility.yul\":1199:1203   */\n      0x20\n        /* \"#utility.yul\":1191:1197   */\n      dup7\n        /* \"#utility.yul\":1187:1204   */\n      add\n        /* \"#utility.yul\":1139:1218   */\n      tag_91\n      jump\t// in\n    tag_119:\n        /* \"#utility.yul\":1130:1218   */\n      swap2\n      pop\n        /* \"#utility.yul\":946:1224   */\n      pop\n        /* \"#utility.yul\":884:1224   */\n      swap3\n      swap2\n      pop\n      pop\n      jump\t// out\n        /* \"#utility.yul\":1230:1369   */\n    tag_120:\n        /* \"#utility.yul\":1276:1281   */\n      0x00\n        /* \"#utility.yul\":1314:1320   */\n      dup2\n        /* \"#utility.yul\":1301:1321   */\n      calldataload\n        /* \"#utility.yul\":1292:1321   */\n      swap1\n      pop\n        /* \"#utility.yul\":1330:1363   */\n      tag_122\n        /* \"#utility.yul\":1357:1362   */\n      dup2\n        /* \"#utility.yul\":1330:1363   */\n      tag_123\n      jump\t// in\n    tag_122:\n        /* \"#utility.yul\":1230:1369   */\n      swap3\n      swap2\n      pop\n      pop\n      jump\t// out\n        /* \"#utility.yul\":1375:1704   */\n    tag_14:\n        /* \"#utility.yul\":1434:1440   */\n      0x00\n        /* \"#utility.yul\":1483:1485   */\n      0x20\n        /* \"#utility.yul\":1471:1480   */\n      dup3\n        /* \"#utility.yul\":1462:1469   */\n      dup5\n        /* \"#utility.yul\":1458:1481   */\n      sub\n        /* \"#utility.yul\":1454:1486   */\n      slt\n        /* \"#utility.yul\":1451:1570   */\n      iszero\n      tag_125\n      jumpi\n        /* \"#utility.yul\":1489:1568   */\n      tag_126\n      tag_127\n      jump\t// in\n    tag_126:\n        /* \"#utility.yul\":1451:1570   */\n    tag_125:\n        /* \"#utility.yul\":1609:1610   */\n      0x00\n        /* \"#utility.yul\":1634:1687   */\n      tag_128\n        /* \"#utility.yul\":1679:1686   */\n      dup5\n        /* \"#utility.yul\":1670:1676   */\n      dup3\n        /* \"#utility.yul\":1659:1668   */\n      dup6\n        /* \"#utility.yul\":1655:1677   */\n      add\n        /* \"#utility.yul\":1634:1687   */\n      tag_102\n      jump\t// in\n    tag_128:\n        /* \"#utility.yul\":1624:1687   */\n      swap2\n      pop\n        /* \"#utility.yul\":1580:1697   */\n      pop\n        /* \"#utility.yul\":1375:1704   */\n      swap3\n      swap2\n      pop\n      pop\n      jump\t// out\n        /* \"#utility.yul\":1710:3569   */\n    tag_25:\n        /* \"#utility.yul\":1863:1869   */\n      0x00\n        /* \"#utility.yul\":1871:1877   */\n      dup1\n        /* \"#utility.yul\":1879:1885   */\n      0x00\n        /* \"#utility.yul\":1887:1893   */\n      dup1\n        /* \"#utility.yul\":1895:1901   */\n      0x00\n        /* \"#utility.yul\":1903:1909   */\n      dup1\n        /* \"#utility.yul\":1911:1917   */\n      0x00\n        /* \"#utility.yul\":1919:1925   */\n      dup1\n        /* \"#utility.yul\":1927:1933   */\n      0x00\n        /* \"#utility.yul\":1976:1979   */\n      0x0120\n        /* \"#utility.yul\":1964:1973   */\n      dup11\n        /* \"#utility.yul\":1955:1962   */\n      dup13\n        /* \"#utility.yul\":1951:1974   */\n      sub\n        /* \"#utility.yul\":1947:1980   */\n      slt\n        /* \"#utility.yul\":1944:2064   */\n      iszero\n      tag_130\n      jumpi\n        /* \"#utility.yul\":1983:2062   */\n      tag_131\n      tag_127\n      jump\t// in\n    tag_131:\n        /* \"#utility.yul\":1944:2064   */\n    tag_130:\n        /* \"#utility.yul\":2103:2104   */\n      0x00\n        /* \"#utility.yul\":2128:2189   */\n      tag_132\n        /* \"#utility.yul\":2181:2188   */\n      dup13\n        /* \"#utility.yul\":2172:2178   */\n      dup3\n        /* \"#utility.yul\":2161:2170   */\n      dup14\n        /* \"#utility.yul\":2157:2179   */\n      add\n        /* \"#utility.yul\":2128:2189   */\n      tag_106\n      jump\t// in\n    tag_132:\n        /* \"#utility.yul\":2118:2189   */\n      swap10\n      pop\n        /* \"#utility.yul\":2074:2199   */\n      pop\n        /* \"#utility.yul\":2266:2268   */\n      0x20\n        /* \"#utility.yul\":2255:2264   */\n      dup11\n        /* \"#utility.yul\":2251:2269   */\n      add\n        /* \"#utility.yul\":2238:2270   */\n      calldataload\n        /* \"#utility.yul\":2297:2315   */\n      0xffffffffffffffff\n        /* \"#utility.yul\":2289:2295   */\n      dup2\n        /* \"#utility.yul\":2286:2316   */\n      gt\n        /* \"#utility.yul\":2283:2400   */\n      iszero\n      tag_133\n      jumpi\n        /* \"#utility.yul\":2319:2398   */\n      tag_134\n      tag_135\n      jump\t// in\n    tag_134:\n        /* \"#utility.yul\":2283:2400   */\n    tag_133:\n        /* \"#utility.yul\":2424:2487   */\n      tag_136\n        /* \"#utility.yul\":2479:2486   */\n      dup13\n        /* \"#utility.yul\":2470:2476   */\n      dup3\n        /* \"#utility.yul\":2459:2468   */\n      dup14\n        /* \"#utility.yul\":2455:2477   */\n      add\n        /* \"#utility.yul\":2424:2487   */\n      tag_114\n      jump\t// in\n    tag_136:\n        /* \"#utility.yul\":2414:2487   */\n      swap9\n      pop\n        /* \"#utility.yul\":2209:2497   */\n      pop\n        /* \"#utility.yul\":2564:2566   */\n      0x40\n        /* \"#utility.yul\":2553:2562   */\n      dup11\n        /* \"#utility.yul\":2549:2567   */\n      add\n        /* \"#utility.yul\":2536:2568   */\n      calldataload\n        /* \"#utility.yul\":2595:2613   */\n      0xffffffffffffffff\n        /* \"#utility.yul\":2587:2593   */\n      dup2\n        /* \"#utility.yul\":2584:2614   */\n      gt\n        /* \"#utility.yul\":2581:2698   */\n      iszero\n      tag_137\n      jumpi\n        /* \"#utility.yul\":2617:2696   */\n      tag_138\n      tag_135\n      jump\t// in\n    tag_138:\n        /* \"#utility.yul\":2581:2698   */\n    tag_137:\n        /* \"#utility.yul\":2722:2785   */\n      tag_139\n        /* \"#utility.yul\":2777:2784   */\n      dup13\n        /* \"#utility.yul\":2768:2774   */\n      dup3\n        /* \"#utility.yul\":2757:2766   */\n      dup14\n        /* \"#utility.yul\":2753:2775   */\n      add\n        /* \"#utility.yul\":2722:2785   */\n      tag_114\n      jump\t// in\n    tag_139:\n        /* \"#utility.yul\":2712:2785   */\n      swap8\n      pop\n        /* \"#utility.yul\":2507:2795   */\n      pop\n        /* \"#utility.yul\":2834:2836   */\n      0x60\n        /* \"#utility.yul\":2860:2910   */\n      tag_140\n        /* \"#utility.yul\":2902:2909   */\n      dup13\n        /* \"#utility.yul\":2893:2899   */\n      dup3\n        /* \"#utility.yul\":2882:2891   */\n      dup14\n        /* \"#utility.yul\":2878:2900   */\n      add\n        /* \"#utility.yul\":2860:2910   */\n      tag_110\n      jump\t// in\n    tag_140:\n        /* \"#utility.yul\":2850:2910   */\n      swap7\n      pop\n        /* \"#utility.yul\":2805:2920   */\n      pop\n        /* \"#utility.yul\":2959:2962   */\n      0x80\n        /* \"#utility.yul\":2986:3036   */\n      tag_141\n        /* \"#utility.yul\":3028:3035   */\n      dup13\n        /* \"#utility.yul\":3019:3025   */\n      dup3\n        /* \"#utility.yul\":3008:3017   */\n      dup14\n        /* \"#utility.yul\":3004:3026   */\n      add\n        /* \"#utility.yul\":2986:3036   */\n      tag_110\n      jump\t// in\n    tag_141:\n        /* \"#utility.yul\":2976:3036   */\n      swap6\n      pop\n        /* \"#utility.yul\":2930:3046   */\n      pop\n        /* \"#utility.yul\":3085:3088   */\n      0xa0\n        /* \"#utility.yul\":3112:3165   */\n      tag_142\n        /* \"#utility.yul\":3157:3164   */\n      dup13\n        /* \"#utility.yul\":3148:3154   */\n      dup3\n        /* \"#utility.yul\":3137:3146   */\n      dup14\n        /* \"#utility.yul\":3133:3155   */\n      add\n        /* \"#utility.yul\":3112:3165   */\n      tag_120\n      jump\t// in\n    tag_142:\n        /* \"#utility.yul\":3102:3165   */\n      swap5\n      pop\n        /* \"#utility.yul\":3056:3175   */\n      pop\n        /* \"#utility.yul\":3214:3217   */\n      0xc0\n        /* \"#utility.yul\":3241:3294   */\n      tag_143\n        /* \"#utility.yul\":3286:3293   */\n      dup13\n        /* \"#utility.yul\":3277:3283   */\n      dup3\n        /* \"#utility.yul\":3266:3275   */\n      dup14\n        /* \"#utility.yul\":3262:3284   */\n      add\n        /* \"#utility.yul\":3241:3294   */\n      tag_120\n      jump\t// in\n    tag_143:\n        /* \"#utility.yul\":3231:3294   */\n      swap4\n      pop\n        /* \"#utility.yul\":3185:3304   */\n      pop\n        /* \"#utility.yul\":3343:3346   */\n      0xe0\n        /* \"#utility.yul\":3370:3423   */\n      tag_144\n        /* \"#utility.yul\":3415:3422   */\n      dup13\n        /* \"#utility.yul\":3406:3412   */\n      dup3\n        /* \"#utility.yul\":3395:3404   */\n      dup14\n        /* \"#utility.yul\":3391:3413   */\n      add\n        /* \"#utility.yul\":3370:3423   */\n      tag_120\n      jump\t// in\n    tag_144:\n        /* \"#utility.yul\":3360:3423   */\n      swap3\n      pop\n        /* \"#utility.yul\":3314:3433   */\n      pop\n        /* \"#utility.yul\":3472:3475   */\n      0x0100\n        /* \"#utility.yul\":3499:3552   */\n      tag_145\n        /* \"#utility.yul\":3544:3551   */\n      dup13\n        /* \"#utility.yul\":3535:3541   */\n      dup3\n        /* \"#utility.yul\":3524:3533   */\n      dup14\n        /* \"#utility.yul\":3520:3542   */\n      add\n        /* \"#utility.yul\":3499:3552   */\n      tag_120\n      jump\t// in\n    tag_145:\n        /* \"#utility.yul\":3489:3552   */\n      swap2\n      pop\n        /* \"#utility.yul\":3443:3562   */\n      pop\n        /* \"#utility.yul\":1710:3569   */\n      swap3\n      swap6\n      swap9\n      pop\n      swap3\n      swap6\n      swap9\n      pop\n      swap3\n      swap6\n      swap9\n      jump\t// out\n        /* \"#utility.yul\":3575:3717   */\n    tag_146:\n        /* \"#utility.yul\":3678:3710   */\n      tag_148\n        /* \"#utility.yul\":3704:3709   */\n      dup2\n        /* \"#utility.yul\":3678:3710   */\n      tag_149\n      jump\t// in\n    tag_148:\n        /* \"#utility.yul\":3673:3676   */\n      dup3\n        /* \"#utility.yul\":3666:3711   */\n      mstore\n        /* \"#utility.yul\":3575:3717   */\n      pop\n      pop\n      jump\t// out\n        /* \"#utility.yul\":3723:3832   */\n    tag_150:\n        /* \"#utility.yul\":3804:3825   */\n      tag_152\n        /* \"#utility.yul\":3819:3824   */\n      dup2\n        /* \"#utility.yul\":3804:3825   */\n      tag_153\n      jump\t// in\n    tag_152:\n        /* \"#utility.yul\":3799:3802   */\n      dup3\n        /* \"#utility.yul\":3792:3826   */\n      mstore\n        /* \"#utility.yul\":3723:3832   */\n      pop\n      pop\n      jump\t// out\n        /* \"#utility.yul\":3838:4202   */\n    tag_154:\n        /* \"#utility.yul\":3926:3929   */\n      0x00\n        /* \"#utility.yul\":3954:3993   */\n      tag_156\n        /* \"#utility.yul\":3987:3992   */\n      dup3\n        /* \"#utility.yul\":3954:3993   */\n      tag_157\n      jump\t// in\n    tag_156:\n        /* \"#utility.yul\":4009:4080   */\n      tag_158\n        /* \"#utility.yul\":4073:4079   */\n      dup2\n        /* \"#utility.yul\":4068:4071   */\n      dup6\n        /* \"#utility.yul\":4009:4080   */\n      tag_159\n      jump\t// in\n    tag_158:\n        /* \"#utility.yul\":4002:4080   */\n      swap4\n      pop\n        /* \"#utility.yul\":4089:4141   */\n      tag_160\n        /* \"#utility.yul\":4134:4140   */\n      dup2\n        /* \"#utility.yul\":4129:4132   */\n      dup6\n        /* \"#utility.yul\":4122:4126   */\n      0x20\n        /* \"#utility.yul\":4115:4120   */\n      dup7\n        /* \"#utility.yul\":4111:4127   */\n      add\n        /* \"#utility.yul\":4089:4141   */\n      tag_161\n      jump\t// in\n    tag_160:\n        /* \"#utility.yul\":4166:4195   */\n      tag_162\n        /* \"#utility.yul\":4188:4194   */\n      dup2\n        /* \"#utility.yul\":4166:4195   */\n      tag_163\n      jump\t// in\n    tag_162:\n        /* \"#utility.yul\":4161:4164   */\n      dup5\n        /* \"#utility.yul\":4157:4196   */\n      add\n        /* \"#utility.yul\":4150:4196   */\n      swap2\n      pop\n        /* \"#utility.yul\":3930:4202   */\n      pop\n        /* \"#utility.yul\":3838:4202   */\n      swap3\n      swap2\n      pop\n      pop\n      jump\t// out\n        /* \"#utility.yul\":4208:4326   */\n    tag_164:\n        /* \"#utility.yul\":4295:4319   */\n      tag_166\n        /* \"#utility.yul\":4313:4318   */\n      dup2\n        /* \"#utility.yul\":4295:4319   */\n      tag_167\n      jump\t// in\n    tag_166:\n        /* \"#utility.yul\":4290:4293   */\n      dup3\n        /* \"#utility.yul\":4283:4320   */\n      mstore\n        /* \"#utility.yul\":4208:4326   */\n      pop\n      pop\n      jump\t// out\n        /* \"#utility.yul\":4332:5630   */\n    tag_31:\n        /* \"#utility.yul\":4693:4697   */\n      0x00\n        /* \"#utility.yul\":4731:4734   */\n      0x0120\n        /* \"#utility.yul\":4720:4729   */\n      dup3\n        /* \"#utility.yul\":4716:4735   */\n      add\n        /* \"#utility.yul\":4708:4735   */\n      swap1\n      pop\n        /* \"#utility.yul\":4745:4832   */\n      tag_169\n        /* \"#utility.yul\":4829:4830   */\n      0x00\n        /* \"#utility.yul\":4818:4827   */\n      dup4\n        /* \"#utility.yul\":4814:4831   */\n      add\n        /* \"#utility.yul\":4805:4811   */\n      dup13\n        /* \"#utility.yul\":4745:4832   */\n      tag_146\n      jump\t// in\n    tag_169:\n        /* \"#utility.yul\":4879:4888   */\n      dup2\n        /* \"#utility.yul\":4873:4877   */\n      dup2\n        /* \"#utility.yul\":4869:4889   */\n      sub\n        /* \"#utility.yul\":4864:4866   */\n      0x20\n        /* \"#utility.yul\":4853:4862   */\n      dup4\n        /* \"#utility.yul\":4849:4867   */\n      add\n        /* \"#utility.yul\":4842:4890   */\n      mstore\n        /* \"#utility.yul\":4907:4985   */\n      tag_170\n        /* \"#utility.yul\":4980:4984   */\n      dup2\n        /* \"#utility.yul\":4971:4977   */\n      dup12\n        /* \"#utility.yul\":4907:4985   */\n      tag_154\n      jump\t// in\n    tag_170:\n        /* \"#utility.yul\":4899:4985   */\n      swap1\n      pop\n        /* \"#utility.yul\":5032:5041   */\n      dup2\n        /* \"#utility.yul\":5026:5030   */\n      dup2\n        /* \"#utility.yul\":5022:5042   */\n      sub\n        /* \"#utility.yul\":5017:5019   */\n      0x40\n        /* \"#utility.yul\":5006:5015   */\n      dup4\n        /* \"#utility.yul\":5002:5020   */\n      add\n        /* \"#utility.yul\":4995:5043   */\n      mstore\n        /* \"#utility.yul\":5060:5138   */\n      tag_171\n        /* \"#utility.yul\":5133:5137   */\n      dup2\n        /* \"#utility.yul\":5124:5130   */\n      dup11\n        /* \"#utility.yul\":5060:5138   */\n      tag_154\n      jump\t// in\n    tag_171:\n        /* \"#utility.yul\":5052:5138   */\n      swap1\n      pop\n        /* \"#utility.yul\":5148:5214   */\n      tag_172\n        /* \"#utility.yul\":5210:5212   */\n      0x60\n        /* \"#utility.yul\":5199:5208   */\n      dup4\n        /* \"#utility.yul\":5195:5213   */\n      add\n        /* \"#utility.yul\":5186:5192   */\n      dup10\n        /* \"#utility.yul\":5148:5214   */\n      tag_150\n      jump\t// in\n    tag_172:\n        /* \"#utility.yul\":5224:5291   */\n      tag_173\n        /* \"#utility.yul\":5286:5289   */\n      0x80\n        /* \"#utility.yul\":5275:5284   */\n      dup4\n        /* \"#utility.yul\":5271:5290   */\n      add\n        /* \"#utility.yul\":5262:5268   */\n      dup9\n        /* \"#utility.yul\":5224:5291   */\n      tag_150\n      jump\t// in\n    tag_173:\n        /* \"#utility.yul\":5301:5374   */\n      tag_174\n        /* \"#utility.yul\":5369:5372   */\n      0xa0\n        /* \"#utility.yul\":5358:5367   */\n      dup4\n        /* \"#utility.yul\":5354:5373   */\n      add\n        /* \"#utility.yul\":5345:5351   */\n      dup8\n        /* \"#utility.yul\":5301:5374   */\n      tag_164\n      jump\t// in\n    tag_174:\n        /* \"#utility.yul\":5384:5457   */\n      tag_175\n        /* \"#utility.yul\":5452:5455   */\n      0xc0\n        /* \"#utility.yul\":5441:5450   */\n      dup4\n        /* \"#utility.yul\":5437:5456   */\n      add\n        /* \"#utility.yul\":5428:5434   */\n      dup7\n        /* \"#utility.yul\":5384:5457   */\n      tag_164\n      jump\t// in\n    tag_175:\n        /* \"#utility.yul\":5467:5540   */\n      tag_176\n        /* \"#utility.yul\":5535:5538   */\n      0xe0\n        /* \"#utility.yul\":5524:5533   */\n      dup4\n        /* \"#utility.yul\":5520:5539   */\n      add\n        /* \"#utility.yul\":5511:5517   */\n      dup6\n        /* \"#utility.yul\":5467:5540   */\n      tag_164\n      jump\t// in\n    tag_176:\n        /* \"#utility.yul\":5550:5623   */\n      tag_177\n        /* \"#utility.yul\":5618:5621   */\n      0x0100\n        /* \"#utility.yul\":5607:5616   */\n      dup4\n        /* \"#utility.yul\":5603:5622   */\n      add\n        /* \"#utility.yul\":5594:5600   */\n      dup5\n        /* \"#utility.yul\":5550:5623   */\n      tag_164\n      jump\t// in\n    tag_177:\n        /* \"#utility.yul\":4332:5630   */\n      swap11\n      swap10\n      pop\n      pop\n      pop\n      pop\n      pop\n      pop\n      pop\n      pop\n      pop\n      pop\n      jump\t// out\n        /* \"#utility.yul\":5636:5846   */\n    tag_17:\n        /* \"#utility.yul\":5723:5727   */\n      0x00\n        /* \"#utility.yul\":5761:5763   */\n      0x20\n        /* \"#utility.yul\":5750:5759   */\n      dup3\n        /* \"#utility.yul\":5746:5764   */\n      add\n        /* \"#utility.yul\":5738:5764   */\n      swap1\n      pop\n        /* \"#utility.yul\":5774:5839   */\n      tag_179\n        /* \"#utility.yul\":5836:5837   */\n      0x00\n        /* \"#utility.yul\":5825:5834   */\n      dup4\n        /* \"#utility.yul\":5821:5838   */\n      add\n        /* \"#utility.yul\":5812:5818   */\n      dup5\n        /* \"#utility.yul\":5774:5839   */\n      tag_150\n      jump\t// in\n    tag_179:\n        /* \"#utility.yul\":5636:5846   */\n      swap3\n      swap2\n      pop\n      pop\n      jump\t// out\n        /* \"#utility.yul\":5852:6074   */\n    tag_22:\n        /* \"#utility.yul\":5945:5949   */\n      0x00\n        /* \"#utility.yul\":5983:5985   */\n      0x20\n        /* \"#utility.yul\":5972:5981   */\n      dup3\n        /* \"#utility.yul\":5968:5986   */\n      add\n        /* \"#utility.yul\":5960:5986   */\n      swap1\n      pop\n        /* \"#utility.yul\":5996:6067   */\n      tag_181\n        /* \"#utility.yul\":6064:6065   */\n      0x00\n        /* \"#utility.yul\":6053:6062   */\n      dup4\n        /* \"#utility.yul\":6049:6066   */\n      add\n        /* \"#utility.yul\":6040:6046   */\n      dup5\n        /* \"#utility.yul\":5996:6067   */\n      tag_164\n      jump\t// in\n    tag_181:\n        /* \"#utility.yul\":5852:6074   */\n      swap3\n      swap2\n      pop\n      pop\n      jump\t// out\n        /* \"#utility.yul\":6080:6209   */\n    tag_96:\n        /* \"#utility.yul\":6114:6120   */\n      0x00\n        /* \"#utility.yul\":6141:6161   */\n      tag_183\n      tag_184\n      jump\t// in\n    tag_183:\n        /* \"#utility.yul\":6131:6161   */\n      swap1\n      pop\n        /* \"#utility.yul\":6170:6203   */\n      tag_185\n        /* \"#utility.yul\":6198:6202   */\n      dup3\n        /* \"#utility.yul\":6190:6196   */\n      dup3\n        /* \"#utility.yul\":6170:6203   */\n      tag_186\n      jump\t// in\n    tag_185:\n        /* \"#utility.yul\":6080:6209   */\n      swap2\n      swap1\n      pop\n      jump\t// out\n        /* \"#utility.yul\":6215:6290   */\n    tag_184:\n        /* \"#utility.yul\":6248:6254   */\n      0x00\n        /* \"#utility.yul\":6281:6283   */\n      0x40\n        /* \"#utility.yul\":6275:6284   */\n      mload\n        /* \"#utility.yul\":6265:6284   */\n      swap1\n      pop\n        /* \"#utility.yul\":6215:6290   */\n      swap1\n      jump\t// out\n        /* \"#utility.yul\":6296:6604   */\n    tag_95:\n        /* \"#utility.yul\":6358:6362   */\n      0x00\n        /* \"#utility.yul\":6448:6466   */\n      0xffffffffffffffff\n        /* \"#utility.yul\":6440:6446   */\n      dup3\n        /* \"#utility.yul\":6437:6467   */\n      gt\n        /* \"#utility.yul\":6434:6490   */\n      iszero\n      tag_189\n      jumpi\n        /* \"#utility.yul\":6470:6488   */\n      tag_190\n      tag_191\n      jump\t// in\n    tag_190:\n        /* \"#utility.yul\":6434:6490   */\n    tag_189:\n        /* \"#utility.yul\":6508:6537   */\n      tag_192\n        /* \"#utility.yul\":6530:6536   */\n      dup3\n        /* \"#utility.yul\":6508:6537   */\n      tag_163\n      jump\t// in\n    tag_192:\n        /* \"#utility.yul\":6500:6537   */\n      swap1\n      pop\n        /* \"#utility.yul\":6592:6596   */\n      0x20\n        /* \"#utility.yul\":6586:6590   */\n      dup2\n        /* \"#utility.yul\":6582:6597   */\n      add\n        /* \"#utility.yul\":6574:6597   */\n      swap1\n      pop\n        /* \"#utility.yul\":6296:6604   */\n      swap2\n      swap1\n      pop\n      jump\t// out\n        /* \"#utility.yul\":6610:6709   */\n    tag_157:\n        /* \"#utility.yul\":6662:6668   */\n      0x00\n        /* \"#utility.yul\":6696:6701   */\n      dup2\n        /* \"#utility.yul\":6690:6702   */\n      mload\n        /* \"#utility.yul\":6680:6702   */\n      swap1\n      pop\n        /* \"#utility.yul\":6610:6709   */\n      swap2\n      swap1\n      pop\n      jump\t// out\n        /* \"#utility.yul\":6715:6884   */\n    tag_159:\n        /* \"#utility.yul\":6799:6810   */\n      0x00\n        /* \"#utility.yul\":6833:6839   */\n      dup3\n        /* \"#utility.yul\":6828:6831   */\n      dup3\n        /* \"#utility.yul\":6821:6840   */\n      mstore\n        /* \"#utility.yul\":6873:6877   */\n      0x20\n        /* \"#utility.yul\":6868:6871   */\n      dup3\n        /* \"#utility.yul\":6864:6878   */\n      add\n        /* \"#utility.yul\":6849:6878   */\n      swap1\n      pop\n        /* \"#utility.yul\":6715:6884   */\n      swap3\n      swap2\n      pop\n      pop\n      jump\t// out\n        /* \"#utility.yul\":6890:7075   */\n    tag_50:\n        /* \"#utility.yul\":6930:6931   */\n      0x00\n        /* \"#utility.yul\":6947:6967   */\n      tag_196\n        /* \"#utility.yul\":6965:6966   */\n      dup3\n        /* \"#utility.yul\":6947:6967   */\n      tag_167\n      jump\t// in\n    tag_196:\n        /* \"#utility.yul\":6942:6967   */\n      swap2\n      pop\n        /* \"#utility.yul\":6981:7001   */\n      tag_197\n        /* \"#utility.yul\":6999:7000   */\n      dup4\n        /* \"#utility.yul\":6981:7001   */\n      tag_167\n      jump\t// in\n    tag_197:\n        /* \"#utility.yul\":6976:7001   */\n      swap3\n      pop\n        /* \"#utility.yul\":7020:7021   */\n      dup3\n        /* \"#utility.yul\":7010:7045   */\n      tag_198\n      jumpi\n        /* \"#utility.yul\":7025:7043   */\n      tag_199\n      tag_200\n      jump\t// in\n    tag_199:\n        /* \"#utility.yul\":7010:7045   */\n    tag_198:\n        /* \"#utility.yul\":7067:7068   */\n      dup3\n        /* \"#utility.yul\":7064:7065   */\n      dup3\n        /* \"#utility.yul\":7060:7069   */\n      div\n        /* \"#utility.yul\":7055:7069   */\n      swap1\n      pop\n        /* \"#utility.yul\":6890:7075   */\n      swap3\n      swap2\n      pop\n      pop\n      jump\t// out\n        /* \"#utility.yul\":7081:7429   */\n    tag_79:\n        /* \"#utility.yul\":7121:7128   */\n      0x00\n        /* \"#utility.yul\":7144:7164   */\n      tag_202\n        /* \"#utility.yul\":7162:7163   */\n      dup3\n        /* \"#utility.yul\":7144:7164   */\n      tag_167\n      jump\t// in\n    tag_202:\n        /* \"#utility.yul\":7139:7164   */\n      swap2\n      pop\n        /* \"#utility.yul\":7178:7198   */\n      tag_203\n        /* \"#utility.yul\":7196:7197   */\n      dup4\n        /* \"#utility.yul\":7178:7198   */\n      tag_167\n      jump\t// in\n    tag_203:\n        /* \"#utility.yul\":7173:7198   */\n      swap3\n      pop\n        /* \"#utility.yul\":7366:7367   */\n      dup2\n        /* \"#utility.yul\":7298:7364   */\n      0xffffffffffffffffffffffffffffffffffffffffffffffffffffffffffffffff\n        /* \"#utility.yul\":7294:7368   */\n      div\n        /* \"#utility.yul\":7291:7292   */\n      dup4\n        /* \"#utility.yul\":7288:7369   */\n      gt\n        /* \"#utility.yul\":7283:7284   */\n      dup3\n        /* \"#utility.yul\":7276:7285   */\n      iszero\n        /* \"#utility.yul\":7269:7286   */\n      iszero\n        /* \"#utility.yul\":7265:7370   */\n      and\n        /* \"#utility.yul\":7262:7393   */\n      iszero\n      tag_204\n      jumpi\n        /* \"#utility.yul\":7373:7391   */\n      tag_205\n      tag_206\n      jump\t// in\n    tag_205:\n        /* \"#utility.yul\":7262:7393   */\n    tag_204:\n        /* \"#utility.yul\":7421:7422   */\n      dup3\n        /* \"#utility.yul\":7418:7419   */\n      dup3\n        /* \"#utility.yul\":7414:7423   */\n      mul\n        /* \"#utility.yul\":7403:7423   */\n      swap1\n      pop\n        /* \"#utility.yul\":7081:7429   */\n      swap3\n      swap2\n      pop\n      pop\n      jump\t// out\n        /* \"#utility.yul\":7435:7626   */\n    tag_74:\n        /* \"#utility.yul\":7475:7479   */\n      0x00\n        /* \"#utility.yul\":7495:7515   */\n      tag_208\n        /* \"#utility.yul\":7513:7514   */\n      dup3\n        /* \"#utility.yul\":7495:7515   */\n      tag_167\n      jump\t// in\n    tag_208:\n        /* \"#utility.yul\":7490:7515   */\n      swap2\n      pop\n        /* \"#utility.yul\":7529:7549   */\n      tag_209\n        /* \"#utility.yul\":7547:7548   */\n      dup4\n        /* \"#utility.yul\":7529:7549   */\n      tag_167\n      jump\t// in\n    tag_209:\n        /* \"#utility.yul\":7524:7549   */\n      swap3\n      pop\n        /* \"#utility.yul\":7568:7569   */\n      dup3\n        /* \"#utility.yul\":7565:7566   */\n      dup3\n        /* \"#utility.yul\":7562:7570   */\n      lt\n        /* \"#utility.yul\":7559:7593   */\n      iszero\n      tag_210\n      jumpi\n        /* \"#utility.yul\":7573:7591   */\n      tag_211\n      tag_206\n      jump\t// in\n    tag_211:\n        /* \"#utility.yul\":7559:7593   */\n    tag_210:\n        /* \"#utility.yul\":7618:7619   */\n      dup3\n        /* \"#utility.yul\":7615:7616   */\n      dup3\n        /* \"#utility.yul\":7611:7620   */\n      sub\n        /* \"#utility.yul\":7603:7620   */\n      swap1\n      pop\n        /* \"#utility.yul\":7435:7626   */\n      swap3\n      swap2\n      pop\n      pop\n      jump\t// out\n        /* \"#utility.yul\":7632:7728   */\n    tag_212:\n        /* \"#utility.yul\":7669:7676   */\n      0x00\n        /* \"#utility.yul\":7698:7722   */\n      tag_214\n        /* \"#utility.yul\":7716:7721   */\n      dup3\n        /* \"#utility.yul\":7698:7722   */\n      tag_215\n      jump\t// in\n    tag_214:\n        /* \"#utility.yul\":7687:7722   */\n      swap1\n      pop\n        /* \"#utility.yul\":7632:7728   */\n      swap2\n      swap1\n      pop\n      jump\t// out\n        /* \"#utility.yul\":7734:7838   */\n    tag_149:\n        /* \"#utility.yul\":7779:7786   */\n      0x00\n        /* \"#utility.yul\":7808:7832   */\n      tag_217\n        /* \"#utility.yul\":7826:7831   */\n      dup3\n        /* \"#utility.yul\":7808:7832   */\n      tag_215\n      jump\t// in\n    tag_217:\n        /* \"#utility.yul\":7797:7832   */\n      swap1\n      pop\n        /* \"#utility.yul\":7734:7838   */\n      swap2\n      swap1\n      pop\n      jump\t// out\n        /* \"#utility.yul\":7844:7934   */\n    tag_153:\n        /* \"#utility.yul\":7878:7885   */\n      0x00\n        /* \"#utility.yul\":7921:7926   */\n      dup2\n        /* \"#utility.yul\":7914:7927   */\n      iszero\n        /* \"#utility.yul\":7907:7928   */\n      iszero\n        /* \"#utility.yul\":7896:7928   */\n      swap1\n      pop\n        /* \"#utility.yul\":7844:7934   */\n      swap2\n      swap1\n      pop\n      jump\t// out\n        /* \"#utility.yul\":7940:8066   */\n    tag_215:\n        /* \"#utility.yul\":7977:7984   */\n      0x00\n        /* \"#utility.yul\":8017:8059   */\n      0xffffffffffffffffffffffffffffffffffffffff\n        /* \"#utility.yul\":8010:8015   */\n      dup3\n        /* \"#utility.yul\":8006:8060   */\n      and\n        /* \"#utility.yul\":7995:8060   */\n      swap1\n      pop\n        /* \"#utility.yul\":7940:8066   */\n      swap2\n      swap1\n      pop\n      jump\t// out\n        /* \"#utility.yul\":8072:8149   */\n    tag_167:\n        /* \"#utility.yul\":8109:8116   */\n      0x00\n        /* \"#utility.yul\":8138:8143   */\n      dup2\n        /* \"#utility.yul\":8127:8143   */\n      swap1\n      pop\n        /* \"#utility.yul\":8072:8149   */\n      swap2\n      swap1\n      pop\n      jump\t// out\n        /* \"#utility.yul\":8155:8309   */\n    tag_101:\n        /* \"#utility.yul\":8239:8245   */\n      dup3\n        /* \"#utility.yul\":8234:8237   */\n      dup2\n        /* \"#utility.yul\":8229:8232   */\n      dup4\n        /* \"#utility.yul\":8216:8246   */\n      calldatacopy\n        /* \"#utility.yul\":8301:8302   */\n      0x00\n        /* \"#utility.yul\":8292:8298   */\n      dup4\n        /* \"#utility.yul\":8287:8290   */\n      dup4\n        /* \"#utility.yul\":8283:8299   */\n      add\n        /* \"#utility.yul\":8276:8303   */\n      mstore\n        /* \"#utility.yul\":8155:8309   */\n      pop\n      pop\n      pop\n      jump\t// out\n        /* \"#utility.yul\":8315:8622   */\n    tag_161:\n        /* \"#utility.yul\":8383:8384   */\n      0x00\n        /* \"#utility.yul\":8393:8506   */\n    tag_223:\n        /* \"#utility.yul\":8407:8413   */\n      dup4\n        /* \"#utility.yul\":8404:8405   */\n      dup2\n        /* \"#utility.yul\":8401:8414   */\n      lt\n        /* \"#utility.yul\":8393:8506   */\n      iszero\n      tag_225\n      jumpi\n        /* \"#utility.yul\":8492:8493   */\n      dup1\n        /* \"#utility.yul\":8487:8490   */\n      dup3\n        /* \"#utility.yul\":8483:8494   */\n      add\n        /* \"#utility.yul\":8477:8495   */\n      mload\n        /* \"#utility.yul\":8473:8474   */\n      dup2\n        /* \"#utility.yul\":8468:8471   */\n      dup5\n        /* \"#utility.yul\":8464:8475   */\n      add\n        /* \"#utility.yul\":8457:8496   */\n      mstore\n        /* \"#utility.yul\":8429:8431   */\n      0x20\n        /* \"#utility.yul\":8426:8427   */\n      dup2\n        /* \"#utility.yul\":8422:8432   */\n      add\n        /* \"#utility.yul\":8417:8432   */\n      swap1\n      pop\n        /* \"#utility.yul\":8393:8506   */\n      jump(tag_223)\n    tag_225:\n        /* \"#utility.yul\":8524:8530   */\n      dup4\n        /* \"#utility.yul\":8521:8522   */\n      dup2\n        /* \"#utility.yul\":8518:8531   */\n      gt\n        /* \"#utility.yul\":8515:8616   */\n      iszero\n      tag_226\n      jumpi\n        /* \"#utility.yul\":8604:8605   */\n      0x00\n        /* \"#utility.yul\":8595:8601   */\n      dup5\n        /* \"#utility.yul\":8590:8593   */\n      dup5\n        /* \"#utility.yul\":8586:8602   */\n      add\n        /* \"#utility.yul\":8579:8606   */\n      mstore\n        /* \"#utility.yul\":8515:8616   */\n    tag_226:\n        /* \"#utility.yul\":8364:8622   */\n      pop\n        /* \"#utility.yul\":8315:8622   */\n      pop\n      pop\n      pop\n      jump\t// out\n        /* \"#utility.yul\":8628:8948   */\n    tag_56:\n        /* \"#utility.yul\":8672:8678   */\n      0x00\n        /* \"#utility.yul\":8709:8710   */\n      0x02\n        /* \"#utility.yul\":8703:8707   */\n      dup3\n        /* \"#utility.yul\":8699:8711   */\n      div\n        /* \"#utility.yul\":8689:8711   */\n      swap1\n      pop\n        /* \"#utility.yul\":8756:8757   */\n      0x01\n        /* \"#utility.yul\":8750:8754   */\n      dup3\n        /* \"#utility.yul\":8746:8758   */\n      and\n        /* \"#utility.yul\":8777:8795   */\n      dup1\n        /* \"#utility.yul\":8767:8848   */\n      tag_228\n      jumpi\n        /* \"#utility.yul\":8833:8837   */\n      0x7f\n        /* \"#utility.yul\":8825:8831   */\n      dup3\n        /* \"#utility.yul\":8821:8838   */\n      and\n        /* \"#utility.yul\":8811:8838   */\n      swap2\n      pop\n        /* \"#utility.yul\":8767:8848   */\n    tag_228:\n        /* \"#utility.yul\":8895:8897   */\n      0x20\n        /* \"#utility.yul\":8887:8893   */\n      dup3\n        /* \"#utility.yul\":8884:8898   */\n      lt\n        /* \"#utility.yul\":8864:8882   */\n      dup2\n        /* \"#utility.yul\":8861:8899   */\n      eq\n        /* \"#utility.yul\":8858:8942   */\n      iszero\n      tag_229\n      jumpi\n        /* \"#utility.yul\":8914:8932   */\n      tag_230\n      tag_231\n      jump\t// in\n    tag_230:\n        /* \"#utility.yul\":8858:8942   */\n    tag_229:\n        /* \"#utility.yul\":8679:8948   */\n      pop\n        /* \"#utility.yul\":8628:8948   */\n      swap2\n      swap1\n      pop\n      jump\t// out\n        /* \"#utility.yul\":8954:9235   */\n    tag_186:\n        /* \"#utility.yul\":9037:9064   */\n      tag_233\n        /* \"#utility.yul\":9059:9063   */\n      dup3\n        /* \"#utility.yul\":9037:9064   */\n      tag_163\n      jump\t// in\n    tag_233:\n        /* \"#utility.yul\":9029:9035   */\n      dup2\n        /* \"#utility.yul\":9025:9065   */\n      add\n        /* \"#utility.yul\":9167:9173   */\n      dup2\n        /* \"#utility.yul\":9155:9165   */\n      dup2\n        /* \"#utility.yul\":9152:9174   */\n      lt\n        /* \"#utility.yul\":9131:9149   */\n      0xffffffffffffffff\n        /* \"#utility.yul\":9119:9129   */\n      dup3\n        /* \"#utility.yul\":9116:9150   */\n      gt\n        /* \"#utility.yul\":9113:9175   */\n      or\n        /* \"#utility.yul\":9110:9198   */\n      iszero\n      tag_234\n      jumpi\n        /* \"#utility.yul\":9178:9196   */\n      tag_235\n      tag_191\n      jump\t// in\n    tag_235:\n        /* \"#utility.yul\":9110:9198   */\n    tag_234:\n        /* \"#utility.yul\":9218:9228   */\n      dup1\n        /* \"#utility.yul\":9214:9216   */\n      0x40\n        /* \"#utility.yul\":9207:9229   */\n      mstore\n        /* \"#utility.yul\":8997:9235   */\n      pop\n        /* \"#utility.yul\":8954:9235   */\n      pop\n      pop\n      jump\t// out\n        /* \"#utility.yul\":9241:9421   */\n    tag_206:\n        /* \"#utility.yul\":9289:9366   */\n      0x4e487b7100000000000000000000000000000000000000000000000000000000\n        /* \"#utility.yul\":9286:9287   */\n      0x00\n        /* \"#utility.yul\":9279:9367   */\n      mstore\n        /* \"#utility.yul\":9386:9390   */\n      0x11\n        /* \"#utility.yul\":9383:9384   */\n      0x04\n        /* \"#utility.yul\":9376:9391   */\n      mstore\n        /* \"#utility.yul\":9410:9414   */\n      0x24\n        /* \"#utility.yul\":9407:9408   */\n      0x00\n        /* \"#utility.yul\":9400:9415   */\n      revert\n        /* \"#utility.yul\":9427:9607   */\n    tag_200:\n        /* \"#utility.yul\":9475:9552   */\n      0x4e487b7100000000000000000000000000000000000000000000000000000000\n        /* \"#utility.yul\":9472:9473   */\n      0x00\n        /* \"#utility.yul\":9465:9553   */\n      mstore\n        /* \"#utility.yul\":9572:9576   */\n      0x12\n        /* \"#utility.yul\":9569:9570   */\n      0x04\n        /* \"#utility.yul\":9562:9577   */\n      mstore\n        /* \"#utility.yul\":9596:9600   */\n      0x24\n        /* \"#utility.yul\":9593:9594   */\n      0x00\n        /* \"#utility.yul\":9586:9601   */\n      revert\n        /* \"#utility.yul\":9613:9793   */\n    tag_231:\n        /* \"#utility.yul\":9661:9738   */\n      0x4e487b7100000000000000000000000000000000000000000000000000000000\n        /* \"#utility.yul\":9658:9659   */\n      0x00\n        /* \"#utility.yul\":9651:9739   */\n      mstore\n        /* \"#utility.yul\":9758:9762   */\n      0x22\n        /* \"#utility.yul\":9755:9756   */\n      0x04\n        /* \"#utility.yul\":9748:9763   */\n      mstore\n        /* \"#utility.yul\":9782:9786   */\n      0x24\n        /* \"#utility.yul\":9779:9780   */\n      0x00\n        /* \"#utility.yul\":9772:9787   */\n      revert\n        /* \"#utility.yul\":9799:9979   */\n    tag_191:\n        /* \"#utility.yul\":9847:9924   */\n      0x4e487b7100000000000000000000000000000000000000000000000000000000\n        /* \"#utility.yul\":9844:9845   */\n      0x00\n        /* \"#utility.yul\":9837:9925   */\n      mstore\n        /* \"#utility.yul\":9944:9948   */\n      0x41\n        /* \"#utility.yul\":9941:9942   */\n      0x04\n        /* \"#utility.yul\":9934:9949   */\n      mstore\n        /* \"#utility.yul\":9968:9972   */\n      0x24\n        /* \"#utility.yul\":9965:9966   */\n      0x00\n        /* \"#utility.yul\":9958:9973   */\n      revert\n        /* \"#utility.yul\":9985:10102   */\n    tag_118:\n        /* \"#utility.yul\":10094:10095   */\n      0x00\n        /* \"#utility.yul\":10091:10092   */\n      dup1\n        /* \"#utility.yul\":10084:10096   */\n      revert\n        /* \"#utility.yul\":10108:10225   */\n    tag_99:\n        /* \"#utility.yul\":10217:10218   */\n      0x00\n        /* \"#utility.yul\":10214:10215   */\n      dup1\n        /* \"#utility.yul\":10207:10219   */\n      revert\n        /* \"#utility.yul\":10231:10348   */\n    tag_135:\n        /* \"#utility.yul\":10340:10341   */\n      0x00\n        /* \"#utility.yul\":10337:10338   */\n      dup1\n        /* \"#utility.yul\":10330:10342   */\n      revert\n        /* \"#utility.yul\":10354:10471   */\n    tag_127:\n        /* \"#utility.yul\":10463:10464   */\n      0x00\n        /* \"#utility.yul\":10460:10461   */\n      dup1\n        /* \"#utility.yul\":10453:10465   */\n      revert\n        /* \"#utility.yul\":10477:10579   */\n    tag_163:\n        /* \"#utility.yul\":10518:10524   */\n      0x00\n        /* \"#utility.yul\":10569:10571   */\n      0x1f\n        /* \"#utility.yul\":10565:10572   */\n      not\n        /* \"#utility.yul\":10560:10562   */\n      0x1f\n        /* \"#utility.yul\":10553:10558   */\n      dup4\n        /* \"#utility.yul\":10549:10563   */\n      add\n        /* \"#utility.yul\":10545:10573   */\n      and\n        /* \"#utility.yul\":10535:10573   */\n      swap1\n      pop\n        /* \"#utility.yul\":10477:10579   */\n      swap2\n      swap1\n      pop\n      jump\t// out\n        /* \"#utility.yul\":10585:10707   */\n    tag_105:\n        /* \"#utility.yul\":10658:10682   */\n      tag_246\n        /* \"#utility.yul\":10676:10681   */\n      dup2\n        /* \"#utility.yul\":10658:10682   */\n      tag_212\n      jump\t// in\n    tag_246:\n        /* \"#utility.yul\":10651:10656   */\n      dup2\n        /* \"#utility.yul\":10648:10683   */\n      eq\n        /* \"#utility.yul\":10638:10701   */\n      tag_247\n      jumpi\n        /* \"#utility.yul\":10697:10698   */\n      0x00\n        /* \"#utility.yul\":10694:10695   */\n      dup1\n        /* \"#utility.yul\":10687:10699   */\n      revert\n        /* \"#utility.yul\":10638:10701   */\n    tag_247:\n        /* \"#utility.yul\":10585:10707   */\n      pop\n      jump\t// out\n        /* \"#utility.yul\":10713:10851   */\n    tag_109:\n        /* \"#utility.yul\":10794:10826   */\n      tag_249\n        /* \"#utility.yul\":10820:10825   */\n      dup2\n        /* \"#utility.yul\":10794:10826   */\n      tag_149\n      jump\t// in\n    tag_249:\n        /* \"#utility.yul\":10787:10792   */\n      dup2\n        /* \"#utility.yul\":10784:10827   */\n      eq\n        /* \"#utility.yul\":10774:10845   */\n      tag_250\n      jumpi\n        /* \"#utility.yul\":10841:10842   */\n      0x00\n        /* \"#utility.yul\":10838:10839   */\n      dup1\n        /* \"#utility.yul\":10831:10843   */\n      revert\n        /* \"#utility.yul\":10774:10845   */\n    tag_250:\n        /* \"#utility.yul\":10713:10851   */\n      pop\n      jump\t// out\n        /* \"#utility.yul\":10857:10973   */\n    tag_113:\n        /* \"#utility.yul\":10927:10948   */\n      tag_252\n        /* \"#utility.yul\":10942:10947   */\n      dup2\n        /* \"#utility.yul\":10927:10948   */\n      tag_153\n      jump\t// in\n    tag_252:\n        /* \"#utility.yul\":10920:10925   */\n      dup2\n        /* \"#utility.yul\":10917:10949   */\n      eq\n        /* \"#utility.yul\":10907:10967   */\n      tag_253\n      jumpi\n        /* \"#utility.yul\":10963:10964   */\n      0x00\n        /* \"#utility.yul\":10960:10961   */\n      dup1\n        /* \"#utility.yul\":10953:10965   */\n      revert\n        /* \"#utility.yul\":10907:10967   */\n    tag_253:\n        /* \"#utility.yul\":10857:10973   */\n      pop\n      jump\t// out\n        /* \"#utility.yul\":10979:11101   */\n    tag_123:\n        /* \"#utility.yul\":11052:11076   */\n      tag_255\n        /* \"#utility.yul\":11070:11075   */\n      dup2\n        /* \"#utility.yul\":11052:11076   */\n      tag_167\n      jump\t// in\n    tag_255:\n        /* \"#utility.yul\":11045:11050   */\n      dup2\n        /* \"#utility.yul\":11042:11077   */\n      eq\n        /* \"#utility.yul\":11032:11095   */\n      tag_256\n      jumpi\n        /* \"#utility.yul\":11091:11092   */\n      0x00\n        /* \"#utility.yul\":11088:11089   */\n      dup1\n        /* \"#utility.yul\":11081:11093   */\n      revert\n        /* \"#utility.yul\":11032:11095   */\n    tag_256:\n        /* \"#utility.yul\":10979:11101   */\n      pop\n      jump\t// out\n\n    auxdata: 0xa26469706673582212206b54c96f056e0d303d91151ec6e3abd0682ece316ef00fa82efd668b2d507f6f64736f6c63430008070033\n}\n",
				"bytecode": {
					"linkReferences": {},
					"object": "608060405234801561001057600080fd5b50336000806101000a81548173ffffffffffffffffffffffffffffffffffffffff021916908373ffffffffffffffffffffffffffffffffffffffff160217905550610ffa806100606000396000f3fe608060405234801561001057600080fd5b50600436106100885760003560e01c8063722713f71161005b578063722713f7146101415780638d23caa01461015f578063aad1b6171461017b578063d9a59e33146101ab57610088565b80630b88adbe1461008d57806341ba6e89146100bd5780635e649727146100ed578063644a137014610109575b600080fd5b6100a760048036038101906100a291906109f1565b6101c7565b6040516100b49190610c21565b60405180910390f35b6100d760048036038101906100d291906109f1565b610220565b6040516100e49190610c3c565b60405180910390f35b61010760048036038101906101029190610a1e565b6102ce565b005b610123600480360381019061011e91906109f1565b61045f565b60405161013899989796959493929190610b86565b60405180910390f35b6101496105f7565b6040516101569190610c3c565b60405180910390f35b610179600480360381019061017491906109f1565b6105ff565b005b610195600480360381019061019091906109f1565b6106fe565b6040516101a29190610c3c565b60405180910390f35b6101c560048036038101906101c091906109f1565b61074a565b005b6000600160008373ffffffffffffffffffffffffffffffffffffffff1673ffffffffffffffffffffffffffffffffffffffff16815260200190815260200160002060030160009054906101000a900460ff169050919050565b6000806102b1600160008573ffffffffffffffffffffffffffffffffffffffff1673ffffffffffffffffffffffffffffffffffffffff16815260200190815260200160002060060154600160008673ffffffffffffffffffffffffffffffffffffffff1673ffffffffffffffffffffffffffffffffffffffff168152602001908152602001600020600701546107f8565b90506000603c826102c29190610cc9565b90508092505050919050565b6040518061012001604052808a73ffffffffffffffffffffffffffffffffffffffff1681526020018981526020018881526020018715158152602001861515815260200185815260200184815260200183815260200182815250600160008b73ffffffffffffffffffffffffffffffffffffffff1673ffffffffffffffffffffffffffffffffffffffff16815260200190815260200160002060008201518160000160006101000a81548173ffffffffffffffffffffffffffffffffffffffff021916908373ffffffffffffffffffffffffffffffffffffffff16021790555060208201518160010190805190602001906103ca92919061088a565b5060408201518160020190805190602001906103e792919061088a565b5060608201518160030160006101000a81548160ff02191690831515021790555060808201518160030160016101000a81548160ff02191690831515021790555060a0820151816004015560c0820151816005015560e082015181600601556101008201518160070155905050505050505050505050565b60016020528060005260406000206000915090508060000160009054906101000a900473ffffffffffffffffffffffffffffffffffffffff16908060010180546104a890610e24565b80601f01602080910402602001604051908101604052809291908181526020018280546104d490610e24565b80156105215780601f106104f657610100808354040283529160200191610521565b820191906000526020600020905b81548152906001019060200180831161050457829003601f168201915b50505050509080600201805461053690610e24565b80601f016020809104026020016040519081016040528092919081815260200182805461056290610e24565b80156105af5780601f10610584576101008083540402835291602001916105af565b820191906000526020600020905b81548152906001019060200180831161059257829003601f168201915b5050505050908060030160009054906101000a900460ff16908060030160019054906101000a900460ff16908060040154908060050154908060060154908060070154905089565b600047905090565b60018060008373ffffffffffffffffffffffffffffffffffffffff1673ffffffffffffffffffffffffffffffffffffffff16815260200190815260200160002060030160016101000a81548160ff02191690831515021790555042600160008373ffffffffffffffffffffffffffffffffffffffff1673ffffffffffffffffffffffffffffffffffffffff168152602001908152602001600020600601819055506000600160008373ffffffffffffffffffffffffffffffffffffffff1673ffffffffffffffffffffffffffffffffffffffff16815260200190815260200160002060030160006101000a81548160ff02191690831515021790555050565b6000600160008373ffffffffffffffffffffffffffffffffffffffff1673ffffffffffffffffffffffffffffffffffffffff168152602001908152602001600020600401549050919050565b6000600160008373ffffffffffffffffffffffffffffffffffffffff1673ffffffffffffffffffffffffffffffffffffffff16815260200190815260200160002060030160016101000a81548160ff02191690831515021790555042600160008373ffffffffffffffffffffffffffffffffffffffff1673ffffffffffffffffffffffffffffffffffffffff168152602001908152602001600020600701819055506107f58161080e565b50565b600082826108069190610d54565b905092915050565b600061081982610220565b9050600060058261082a9190610cc9565b90506611c37937e080008161083f9190610cfa565b600160008573ffffffffffffffffffffffffffffffffffffffff1673ffffffffffffffffffffffffffffffffffffffff16815260200190815260200160002060050181905550505050565b82805461089690610e24565b90600052602060002090601f0160209004810192826108b857600085556108ff565b82601f106108d157805160ff19168380011785556108ff565b828001600101855582156108ff579182015b828111156108fe5782518255916020019190600101906108e3565b5b50905061090c9190610910565b5090565b5b80821115610929576000816000905550600101610911565b5090565b600061094061093b84610c7c565b610c57565b90508281526020810184848401111561095c5761095b610f48565b5b610967848285610de2565b509392505050565b60008135905061097e81610f68565b92915050565b60008135905061099381610f7f565b92915050565b6000813590506109a881610f96565b92915050565b600082601f8301126109c3576109c2610f43565b5b81356109d384826020860161092d565b91505092915050565b6000813590506109eb81610fad565b92915050565b600060208284031215610a0757610a06610f52565b5b6000610a158482850161096f565b91505092915050565b60008060008060008060008060006101208a8c031215610a4157610a40610f52565b5b6000610a4f8c828d01610984565b99505060208a013567ffffffffffffffff811115610a7057610a6f610f4d565b5b610a7c8c828d016109ae565b98505060408a013567ffffffffffffffff811115610a9d57610a9c610f4d565b5b610aa98c828d016109ae565b9750506060610aba8c828d01610999565b9650506080610acb8c828d01610999565b95505060a0610adc8c828d016109dc565b94505060c0610aed8c828d016109dc565b93505060e0610afe8c828d016109dc565b925050610100610b108c828d016109dc565b9150509295985092959850929598565b610b2981610d9a565b82525050565b610b3881610dac565b82525050565b6000610b4982610cad565b610b538185610cb8565b9350610b63818560208601610df1565b610b6c81610f57565b840191505092915050565b610b8081610dd8565b82525050565b600061012082019050610b9c600083018c610b20565b8181036020830152610bae818b610b3e565b90508181036040830152610bc2818a610b3e565b9050610bd16060830189610b2f565b610bde6080830188610b2f565b610beb60a0830187610b77565b610bf860c0830186610b77565b610c0560e0830185610b77565b610c13610100830184610b77565b9a9950505050505050505050565b6000602082019050610c366000830184610b2f565b92915050565b6000602082019050610c516000830184610b77565b92915050565b6000610c61610c72565b9050610c6d8282610e56565b919050565b6000604051905090565b600067ffffffffffffffff821115610c9757610c96610f14565b5b610ca082610f57565b9050602081019050919050565b600081519050919050565b600082825260208201905092915050565b6000610cd482610dd8565b9150610cdf83610dd8565b925082610cef57610cee610eb6565b5b828204905092915050565b6000610d0582610dd8565b9150610d1083610dd8565b9250817fffffffffffffffffffffffffffffffffffffffffffffffffffffffffffffffff0483118215151615610d4957610d48610e87565b5b828202905092915050565b6000610d5f82610dd8565b9150610d6a83610dd8565b925082821015610d7d57610d7c610e87565b5b828203905092915050565b6000610d9382610db8565b9050919050565b6000610da582610db8565b9050919050565b60008115159050919050565b600073ffffffffffffffffffffffffffffffffffffffff82169050919050565b6000819050919050565b82818337600083830152505050565b60005b83811015610e0f578082015181840152602081019050610df4565b83811115610e1e576000848401525b50505050565b60006002820490506001821680610e3c57607f821691505b60208210811415610e5057610e4f610ee5565b5b50919050565b610e5f82610f57565b810181811067ffffffffffffffff82111715610e7e57610e7d610f14565b5b80604052505050565b7f4e487b7100000000000000000000000000000000000000000000000000000000600052601160045260246000fd5b7f4e487b7100000000000000000000000000000000000000000000000000000000600052601260045260246000fd5b7f4e487b7100000000000000000000000000000000000000000000000000000000600052602260045260246000fd5b7f4e487b7100000000000000000000000000000000000000000000000000000000600052604160045260246000fd5b600080fd5b600080fd5b600080fd5b600080fd5b6000601f19601f8301169050919050565b610f7181610d88565b8114610f7c57600080fd5b50565b610f8881610d9a565b8114610f9357600080fd5b50565b610f9f81610dac565b8114610faa57600080fd5b50565b610fb681610dd8565b8114610fc157600080fd5b5056fea26469706673582212206b54c96f056e0d303d91151ec6e3abd0682ece316ef00fa82efd668b2d507f6f64736f6c63430008070033",
					"opcodes": "PUSH1 0x80 PUSH1 0x40 MSTORE CALLVALUE DUP1 ISZERO PUSH2 0x10 JUMPI PUSH1 0x0 DUP1 REVERT JUMPDEST POP CALLER PUSH1 0x0 DUP1 PUSH2 0x100 EXP DUP2 SLOAD DUP2 PUSH20 0xFFFFFFFFFFFFFFFFFFFFFFFFFFFFFFFFFFFFFFFF MUL NOT AND SWAP1 DUP4 PUSH20 0xFFFFFFFFFFFFFFFFFFFFFFFFFFFFFFFFFFFFFFFF AND MUL OR SWAP1 SSTORE POP PUSH2 0xFFA DUP1 PUSH2 0x60 PUSH1 0x0 CODECOPY PUSH1 0x0 RETURN INVALID PUSH1 0x80 PUSH1 0x40 MSTORE CALLVALUE DUP1 ISZERO PUSH2 0x10 JUMPI PUSH1 0x0 DUP1 REVERT JUMPDEST POP PUSH1 0x4 CALLDATASIZE LT PUSH2 0x88 JUMPI PUSH1 0x0 CALLDATALOAD PUSH1 0xE0 SHR DUP1 PUSH4 0x722713F7 GT PUSH2 0x5B JUMPI DUP1 PUSH4 0x722713F7 EQ PUSH2 0x141 JUMPI DUP1 PUSH4 0x8D23CAA0 EQ PUSH2 0x15F JUMPI DUP1 PUSH4 0xAAD1B617 EQ PUSH2 0x17B JUMPI DUP1 PUSH4 0xD9A59E33 EQ PUSH2 0x1AB JUMPI PUSH2 0x88 JUMP JUMPDEST DUP1 PUSH4 0xB88ADBE EQ PUSH2 0x8D JUMPI DUP1 PUSH4 0x41BA6E89 EQ PUSH2 0xBD JUMPI DUP1 PUSH4 0x5E649727 EQ PUSH2 0xED JUMPI DUP1 PUSH4 0x644A1370 EQ PUSH2 0x109 JUMPI JUMPDEST PUSH1 0x0 DUP1 REVERT JUMPDEST PUSH2 0xA7 PUSH1 0x4 DUP1 CALLDATASIZE SUB DUP2 ADD SWAP1 PUSH2 0xA2 SWAP2 SWAP1 PUSH2 0x9F1 JUMP JUMPDEST PUSH2 0x1C7 JUMP JUMPDEST PUSH1 0x40 MLOAD PUSH2 0xB4 SWAP2 SWAP1 PUSH2 0xC21 JUMP JUMPDEST PUSH1 0x40 MLOAD DUP1 SWAP2 SUB SWAP1 RETURN JUMPDEST PUSH2 0xD7 PUSH1 0x4 DUP1 CALLDATASIZE SUB DUP2 ADD SWAP1 PUSH2 0xD2 SWAP2 SWAP1 PUSH2 0x9F1 JUMP JUMPDEST PUSH2 0x220 JUMP JUMPDEST PUSH1 0x40 MLOAD PUSH2 0xE4 SWAP2 SWAP1 PUSH2 0xC3C JUMP JUMPDEST PUSH1 0x40 MLOAD DUP1 SWAP2 SUB SWAP1 RETURN JUMPDEST PUSH2 0x107 PUSH1 0x4 DUP1 CALLDATASIZE SUB DUP2 ADD SWAP1 PUSH2 0x102 SWAP2 SWAP1 PUSH2 0xA1E JUMP JUMPDEST PUSH2 0x2CE JUMP JUMPDEST STOP JUMPDEST PUSH2 0x123 PUSH1 0x4 DUP1 CALLDATASIZE SUB DUP2 ADD SWAP1 PUSH2 0x11E SWAP2 SWAP1 PUSH2 0x9F1 JUMP JUMPDEST PUSH2 0x45F JUMP JUMPDEST PUSH1 0x40 MLOAD PUSH2 0x138 SWAP10 SWAP9 SWAP8 SWAP7 SWAP6 SWAP5 SWAP4 SWAP3 SWAP2 SWAP1 PUSH2 0xB86 JUMP JUMPDEST PUSH1 0x40 MLOAD DUP1 SWAP2 SUB SWAP1 RETURN JUMPDEST PUSH2 0x149 PUSH2 0x5F7 JUMP JUMPDEST PUSH1 0x40 MLOAD PUSH2 0x156 SWAP2 SWAP1 PUSH2 0xC3C JUMP JUMPDEST PUSH1 0x40 MLOAD DUP1 SWAP2 SUB SWAP1 RETURN JUMPDEST PUSH2 0x179 PUSH1 0x4 DUP1 CALLDATASIZE SUB DUP2 ADD SWAP1 PUSH2 0x174 SWAP2 SWAP1 PUSH2 0x9F1 JUMP JUMPDEST PUSH2 0x5FF JUMP JUMPDEST STOP JUMPDEST PUSH2 0x195 PUSH1 0x4 DUP1 CALLDATASIZE SUB DUP2 ADD SWAP1 PUSH2 0x190 SWAP2 SWAP1 PUSH2 0x9F1 JUMP JUMPDEST PUSH2 0x6FE JUMP JUMPDEST PUSH1 0x40 MLOAD PUSH2 0x1A2 SWAP2 SWAP1 PUSH2 0xC3C JUMP JUMPDEST PUSH1 0x40 MLOAD DUP1 SWAP2 SUB SWAP1 RETURN JUMPDEST PUSH2 0x1C5 PUSH1 0x4 DUP1 CALLDATASIZE SUB DUP2 ADD SWAP1 PUSH2 0x1C0 SWAP2 SWAP1 PUSH2 0x9F1 JUMP JUMPDEST PUSH2 0x74A JUMP JUMPDEST STOP JUMPDEST PUSH1 0x0 PUSH1 0x1 PUSH1 0x0 DUP4 PUSH20 0xFFFFFFFFFFFFFFFFFFFFFFFFFFFFFFFFFFFFFFFF AND PUSH20 0xFFFFFFFFFFFFFFFFFFFFFFFFFFFFFFFFFFFFFFFF AND DUP2 MSTORE PUSH1 0x20 ADD SWAP1 DUP2 MSTORE PUSH1 0x20 ADD PUSH1 0x0 KECCAK256 PUSH1 0x3 ADD PUSH1 0x0 SWAP1 SLOAD SWAP1 PUSH2 0x100 EXP SWAP1 DIV PUSH1 0xFF AND SWAP1 POP SWAP2 SWAP1 POP JUMP JUMPDEST PUSH1 0x0 DUP1 PUSH2 0x2B1 PUSH1 0x1 PUSH1 0x0 DUP6 PUSH20 0xFFFFFFFFFFFFFFFFFFFFFFFFFFFFFFFFFFFFFFFF AND PUSH20 0xFFFFFFFFFFFFFFFFFFFFFFFFFFFFFFFFFFFFFFFF AND DUP2 MSTORE PUSH1 0x20 ADD SWAP1 DUP2 MSTORE PUSH1 0x20 ADD PUSH1 0x0 KECCAK256 PUSH1 0x6 ADD SLOAD PUSH1 0x1 PUSH1 0x0 DUP7 PUSH20 0xFFFFFFFFFFFFFFFFFFFFFFFFFFFFFFFFFFFFFFFF AND PUSH20 0xFFFFFFFFFFFFFFFFFFFFFFFFFFFFFFFFFFFFFFFF AND DUP2 MSTORE PUSH1 0x20 ADD SWAP1 DUP2 MSTORE PUSH1 0x20 ADD PUSH1 0x0 KECCAK256 PUSH1 0x7 ADD SLOAD PUSH2 0x7F8 JUMP JUMPDEST SWAP1 POP PUSH1 0x0 PUSH1 0x3C DUP3 PUSH2 0x2C2 SWAP2 SWAP1 PUSH2 0xCC9 JUMP JUMPDEST SWAP1 POP DUP1 SWAP3 POP POP POP SWAP2 SWAP1 POP JUMP JUMPDEST PUSH1 0x40 MLOAD DUP1 PUSH2 0x120 ADD PUSH1 0x40 MSTORE DUP1 DUP11 PUSH20 0xFFFFFFFFFFFFFFFFFFFFFFFFFFFFFFFFFFFFFFFF AND DUP2 MSTORE PUSH1 0x20 ADD DUP10 DUP2 MSTORE PUSH1 0x20 ADD DUP9 DUP2 MSTORE PUSH1 0x20 ADD DUP8 ISZERO ISZERO DUP2 MSTORE PUSH1 0x20 ADD DUP7 ISZERO ISZERO DUP2 MSTORE PUSH1 0x20 ADD DUP6 DUP2 MSTORE PUSH1 0x20 ADD DUP5 DUP2 MSTORE PUSH1 0x20 ADD DUP4 DUP2 MSTORE PUSH1 0x20 ADD DUP3 DUP2 MSTORE POP PUSH1 0x1 PUSH1 0x0 DUP12 PUSH20 0xFFFFFFFFFFFFFFFFFFFFFFFFFFFFFFFFFFFFFFFF AND PUSH20 0xFFFFFFFFFFFFFFFFFFFFFFFFFFFFFFFFFFFFFFFF AND DUP2 MSTORE PUSH1 0x20 ADD SWAP1 DUP2 MSTORE PUSH1 0x20 ADD PUSH1 0x0 KECCAK256 PUSH1 0x0 DUP3 ADD MLOAD DUP2 PUSH1 0x0 ADD PUSH1 0x0 PUSH2 0x100 EXP DUP2 SLOAD DUP2 PUSH20 0xFFFFFFFFFFFFFFFFFFFFFFFFFFFFFFFFFFFFFFFF MUL NOT AND SWAP1 DUP4 PUSH20 0xFFFFFFFFFFFFFFFFFFFFFFFFFFFFFFFFFFFFFFFF AND MUL OR SWAP1 SSTORE POP PUSH1 0x20 DUP3 ADD MLOAD DUP2 PUSH1 0x1 ADD SWAP1 DUP1 MLOAD SWAP1 PUSH1 0x20 ADD SWAP1 PUSH2 0x3CA SWAP3 SWAP2 SWAP1 PUSH2 0x88A JUMP JUMPDEST POP PUSH1 0x40 DUP3 ADD MLOAD DUP2 PUSH1 0x2 ADD SWAP1 DUP1 MLOAD SWAP1 PUSH1 0x20 ADD SWAP1 PUSH2 0x3E7 SWAP3 SWAP2 SWAP1 PUSH2 0x88A JUMP JUMPDEST POP PUSH1 0x60 DUP3 ADD MLOAD DUP2 PUSH1 0x3 ADD PUSH1 0x0 PUSH2 0x100 EXP DUP2 SLOAD DUP2 PUSH1 0xFF MUL NOT AND SWAP1 DUP4 ISZERO ISZERO MUL OR SWAP1 SSTORE POP PUSH1 0x80 DUP3 ADD MLOAD DUP2 PUSH1 0x3 ADD PUSH1 0x1 PUSH2 0x100 EXP DUP2 SLOAD DUP2 PUSH1 0xFF MUL NOT AND SWAP1 DUP4 ISZERO ISZERO MUL OR SWAP1 SSTORE POP PUSH1 0xA0 DUP3 ADD MLOAD DUP2 PUSH1 0x4 ADD SSTORE PUSH1 0xC0 DUP3 ADD MLOAD DUP2 PUSH1 0x5 ADD SSTORE PUSH1 0xE0 DUP3 ADD MLOAD DUP2 PUSH1 0x6 ADD SSTORE PUSH2 0x100 DUP3 ADD MLOAD DUP2 PUSH1 0x7 ADD SSTORE SWAP1 POP POP POP POP POP POP POP POP POP POP POP JUMP JUMPDEST PUSH1 0x1 PUSH1 0x20 MSTORE DUP1 PUSH1 0x0 MSTORE PUSH1 0x40 PUSH1 0x0 KECCAK256 PUSH1 0x0 SWAP2 POP SWAP1 POP DUP1 PUSH1 0x0 ADD PUSH1 0x0 SWAP1 SLOAD SWAP1 PUSH2 0x100 EXP SWAP1 DIV PUSH20 0xFFFFFFFFFFFFFFFFFFFFFFFFFFFFFFFFFFFFFFFF AND SWAP1 DUP1 PUSH1 0x1 ADD DUP1 SLOAD PUSH2 0x4A8 SWAP1 PUSH2 0xE24 JUMP JUMPDEST DUP1 PUSH1 0x1F ADD PUSH1 0x20 DUP1 SWAP2 DIV MUL PUSH1 0x20 ADD PUSH1 0x40 MLOAD SWAP1 DUP2 ADD PUSH1 0x40 MSTORE DUP1 SWAP3 SWAP2 SWAP1 DUP2 DUP2 MSTORE PUSH1 0x20 ADD DUP3 DUP1 SLOAD PUSH2 0x4D4 SWAP1 PUSH2 0xE24 JUMP JUMPDEST DUP1 ISZERO PUSH2 0x521 JUMPI DUP1 PUSH1 0x1F LT PUSH2 0x4F6 JUMPI PUSH2 0x100 DUP1 DUP4 SLOAD DIV MUL DUP4 MSTORE SWAP2 PUSH1 0x20 ADD SWAP2 PUSH2 0x521 JUMP JUMPDEST DUP3 ADD SWAP2 SWAP1 PUSH1 0x0 MSTORE PUSH1 0x20 PUSH1 0x0 KECCAK256 SWAP1 JUMPDEST DUP2 SLOAD DUP2 MSTORE SWAP1 PUSH1 0x1 ADD SWAP1 PUSH1 0x20 ADD DUP1 DUP4 GT PUSH2 0x504 JUMPI DUP3 SWAP1 SUB PUSH1 0x1F AND DUP3 ADD SWAP2 JUMPDEST POP POP POP POP POP SWAP1 DUP1 PUSH1 0x2 ADD DUP1 SLOAD PUSH2 0x536 SWAP1 PUSH2 0xE24 JUMP JUMPDEST DUP1 PUSH1 0x1F ADD PUSH1 0x20 DUP1 SWAP2 DIV MUL PUSH1 0x20 ADD PUSH1 0x40 MLOAD SWAP1 DUP2 ADD PUSH1 0x40 MSTORE DUP1 SWAP3 SWAP2 SWAP1 DUP2 DUP2 MSTORE PUSH1 0x20 ADD DUP3 DUP1 SLOAD PUSH2 0x562 SWAP1 PUSH2 0xE24 JUMP JUMPDEST DUP1 ISZERO PUSH2 0x5AF JUMPI DUP1 PUSH1 0x1F LT PUSH2 0x584 JUMPI PUSH2 0x100 DUP1 DUP4 SLOAD DIV MUL DUP4 MSTORE SWAP2 PUSH1 0x20 ADD SWAP2 PUSH2 0x5AF JUMP JUMPDEST DUP3 ADD SWAP2 SWAP1 PUSH1 0x0 MSTORE PUSH1 0x20 PUSH1 0x0 KECCAK256 SWAP1 JUMPDEST DUP2 SLOAD DUP2 MSTORE SWAP1 PUSH1 0x1 ADD SWAP1 PUSH1 0x20 ADD DUP1 DUP4 GT PUSH2 0x592 JUMPI DUP3 SWAP1 SUB PUSH1 0x1F AND DUP3 ADD SWAP2 JUMPDEST POP POP POP POP POP SWAP1 DUP1 PUSH1 0x3 ADD PUSH1 0x0 SWAP1 SLOAD SWAP1 PUSH2 0x100 EXP SWAP1 DIV PUSH1 0xFF AND SWAP1 DUP1 PUSH1 0x3 ADD PUSH1 0x1 SWAP1 SLOAD SWAP1 PUSH2 0x100 EXP SWAP1 DIV PUSH1 0xFF AND SWAP1 DUP1 PUSH1 0x4 ADD SLOAD SWAP1 DUP1 PUSH1 0x5 ADD SLOAD SWAP1 DUP1 PUSH1 0x6 ADD SLOAD SWAP1 DUP1 PUSH1 0x7 ADD SLOAD SWAP1 POP DUP10 JUMP JUMPDEST PUSH1 0x0 SELFBALANCE SWAP1 POP SWAP1 JUMP JUMPDEST PUSH1 0x1 DUP1 PUSH1 0x0 DUP4 PUSH20 0xFFFFFFFFFFFFFFFFFFFFFFFFFFFFFFFFFFFFFFFF AND PUSH20 0xFFFFFFFFFFFFFFFFFFFFFFFFFFFFFFFFFFFFFFFF AND DUP2 MSTORE PUSH1 0x20 ADD SWAP1 DUP2 MSTORE PUSH1 0x20 ADD PUSH1 0x0 KECCAK256 PUSH1 0x3 ADD PUSH1 0x1 PUSH2 0x100 EXP DUP2 SLOAD DUP2 PUSH1 0xFF MUL NOT AND SWAP1 DUP4 ISZERO ISZERO MUL OR SWAP1 SSTORE POP TIMESTAMP PUSH1 0x1 PUSH1 0x0 DUP4 PUSH20 0xFFFFFFFFFFFFFFFFFFFFFFFFFFFFFFFFFFFFFFFF AND PUSH20 0xFFFFFFFFFFFFFFFFFFFFFFFFFFFFFFFFFFFFFFFF AND DUP2 MSTORE PUSH1 0x20 ADD SWAP1 DUP2 MSTORE PUSH1 0x20 ADD PUSH1 0x0 KECCAK256 PUSH1 0x6 ADD DUP2 SWAP1 SSTORE POP PUSH1 0x0 PUSH1 0x1 PUSH1 0x0 DUP4 PUSH20 0xFFFFFFFFFFFFFFFFFFFFFFFFFFFFFFFFFFFFFFFF AND PUSH20 0xFFFFFFFFFFFFFFFFFFFFFFFFFFFFFFFFFFFFFFFF AND DUP2 MSTORE PUSH1 0x20 ADD SWAP1 DUP2 MSTORE PUSH1 0x20 ADD PUSH1 0x0 KECCAK256 PUSH1 0x3 ADD PUSH1 0x0 PUSH2 0x100 EXP DUP2 SLOAD DUP2 PUSH1 0xFF MUL NOT AND SWAP1 DUP4 ISZERO ISZERO MUL OR SWAP1 SSTORE POP POP JUMP JUMPDEST PUSH1 0x0 PUSH1 0x1 PUSH1 0x0 DUP4 PUSH20 0xFFFFFFFFFFFFFFFFFFFFFFFFFFFFFFFFFFFFFFFF AND PUSH20 0xFFFFFFFFFFFFFFFFFFFFFFFFFFFFFFFFFFFFFFFF AND DUP2 MSTORE PUSH1 0x20 ADD SWAP1 DUP2 MSTORE PUSH1 0x20 ADD PUSH1 0x0 KECCAK256 PUSH1 0x4 ADD SLOAD SWAP1 POP SWAP2 SWAP1 POP JUMP JUMPDEST PUSH1 0x0 PUSH1 0x1 PUSH1 0x0 DUP4 PUSH20 0xFFFFFFFFFFFFFFFFFFFFFFFFFFFFFFFFFFFFFFFF AND PUSH20 0xFFFFFFFFFFFFFFFFFFFFFFFFFFFFFFFFFFFFFFFF AND DUP2 MSTORE PUSH1 0x20 ADD SWAP1 DUP2 MSTORE PUSH1 0x20 ADD PUSH1 0x0 KECCAK256 PUSH1 0x3 ADD PUSH1 0x1 PUSH2 0x100 EXP DUP2 SLOAD DUP2 PUSH1 0xFF MUL NOT AND SWAP1 DUP4 ISZERO ISZERO MUL OR SWAP1 SSTORE POP TIMESTAMP PUSH1 0x1 PUSH1 0x0 DUP4 PUSH20 0xFFFFFFFFFFFFFFFFFFFFFFFFFFFFFFFFFFFFFFFF AND PUSH20 0xFFFFFFFFFFFFFFFFFFFFFFFFFFFFFFFFFFFFFFFF AND DUP2 MSTORE PUSH1 0x20 ADD SWAP1 DUP2 MSTORE PUSH1 0x20 ADD PUSH1 0x0 KECCAK256 PUSH1 0x7 ADD DUP2 SWAP1 SSTORE POP PUSH2 0x7F5 DUP2 PUSH2 0x80E JUMP JUMPDEST POP JUMP JUMPDEST PUSH1 0x0 DUP3 DUP3 PUSH2 0x806 SWAP2 SWAP1 PUSH2 0xD54 JUMP JUMPDEST SWAP1 POP SWAP3 SWAP2 POP POP JUMP JUMPDEST PUSH1 0x0 PUSH2 0x819 DUP3 PUSH2 0x220 JUMP JUMPDEST SWAP1 POP PUSH1 0x0 PUSH1 0x5 DUP3 PUSH2 0x82A SWAP2 SWAP1 PUSH2 0xCC9 JUMP JUMPDEST SWAP1 POP PUSH7 0x11C37937E08000 DUP2 PUSH2 0x83F SWAP2 SWAP1 PUSH2 0xCFA JUMP JUMPDEST PUSH1 0x1 PUSH1 0x0 DUP6 PUSH20 0xFFFFFFFFFFFFFFFFFFFFFFFFFFFFFFFFFFFFFFFF AND PUSH20 0xFFFFFFFFFFFFFFFFFFFFFFFFFFFFFFFFFFFFFFFF AND DUP2 MSTORE PUSH1 0x20 ADD SWAP1 DUP2 MSTORE PUSH1 0x20 ADD PUSH1 0x0 KECCAK256 PUSH1 0x5 ADD DUP2 SWAP1 SSTORE POP POP POP POP JUMP JUMPDEST DUP3 DUP1 SLOAD PUSH2 0x896 SWAP1 PUSH2 0xE24 JUMP JUMPDEST SWAP1 PUSH1 0x0 MSTORE PUSH1 0x20 PUSH1 0x0 KECCAK256 SWAP1 PUSH1 0x1F ADD PUSH1 0x20 SWAP1 DIV DUP2 ADD SWAP3 DUP3 PUSH2 0x8B8 JUMPI PUSH1 0x0 DUP6 SSTORE PUSH2 0x8FF JUMP JUMPDEST DUP3 PUSH1 0x1F LT PUSH2 0x8D1 JUMPI DUP1 MLOAD PUSH1 0xFF NOT AND DUP4 DUP1 ADD OR DUP6 SSTORE PUSH2 0x8FF JUMP JUMPDEST DUP3 DUP1 ADD PUSH1 0x1 ADD DUP6 SSTORE DUP3 ISZERO PUSH2 0x8FF JUMPI SWAP2 DUP3 ADD JUMPDEST DUP3 DUP2 GT ISZERO PUSH2 0x8FE JUMPI DUP3 MLOAD DUP3 SSTORE SWAP2 PUSH1 0x20 ADD SWAP2 SWAP1 PUSH1 0x1 ADD SWAP1 PUSH2 0x8E3 JUMP JUMPDEST JUMPDEST POP SWAP1 POP PUSH2 0x90C SWAP2 SWAP1 PUSH2 0x910 JUMP JUMPDEST POP SWAP1 JUMP JUMPDEST JUMPDEST DUP1 DUP3 GT ISZERO PUSH2 0x929 JUMPI PUSH1 0x0 DUP2 PUSH1 0x0 SWAP1 SSTORE POP PUSH1 0x1 ADD PUSH2 0x911 JUMP JUMPDEST POP SWAP1 JUMP JUMPDEST PUSH1 0x0 PUSH2 0x940 PUSH2 0x93B DUP5 PUSH2 0xC7C JUMP JUMPDEST PUSH2 0xC57 JUMP JUMPDEST SWAP1 POP DUP3 DUP2 MSTORE PUSH1 0x20 DUP2 ADD DUP5 DUP5 DUP5 ADD GT ISZERO PUSH2 0x95C JUMPI PUSH2 0x95B PUSH2 0xF48 JUMP JUMPDEST JUMPDEST PUSH2 0x967 DUP5 DUP3 DUP6 PUSH2 0xDE2 JUMP JUMPDEST POP SWAP4 SWAP3 POP POP POP JUMP JUMPDEST PUSH1 0x0 DUP2 CALLDATALOAD SWAP1 POP PUSH2 0x97E DUP2 PUSH2 0xF68 JUMP JUMPDEST SWAP3 SWAP2 POP POP JUMP JUMPDEST PUSH1 0x0 DUP2 CALLDATALOAD SWAP1 POP PUSH2 0x993 DUP2 PUSH2 0xF7F JUMP JUMPDEST SWAP3 SWAP2 POP POP JUMP JUMPDEST PUSH1 0x0 DUP2 CALLDATALOAD SWAP1 POP PUSH2 0x9A8 DUP2 PUSH2 0xF96 JUMP JUMPDEST SWAP3 SWAP2 POP POP JUMP JUMPDEST PUSH1 0x0 DUP3 PUSH1 0x1F DUP4 ADD SLT PUSH2 0x9C3 JUMPI PUSH2 0x9C2 PUSH2 0xF43 JUMP JUMPDEST JUMPDEST DUP2 CALLDATALOAD PUSH2 0x9D3 DUP5 DUP3 PUSH1 0x20 DUP7 ADD PUSH2 0x92D JUMP JUMPDEST SWAP2 POP POP SWAP3 SWAP2 POP POP JUMP JUMPDEST PUSH1 0x0 DUP2 CALLDATALOAD SWAP1 POP PUSH2 0x9EB DUP2 PUSH2 0xFAD JUMP JUMPDEST SWAP3 SWAP2 POP POP JUMP JUMPDEST PUSH1 0x0 PUSH1 0x20 DUP3 DUP5 SUB SLT ISZERO PUSH2 0xA07 JUMPI PUSH2 0xA06 PUSH2 0xF52 JUMP JUMPDEST JUMPDEST PUSH1 0x0 PUSH2 0xA15 DUP5 DUP3 DUP6 ADD PUSH2 0x96F JUMP JUMPDEST SWAP2 POP POP SWAP3 SWAP2 POP POP JUMP JUMPDEST PUSH1 0x0 DUP1 PUSH1 0x0 DUP1 PUSH1 0x0 DUP1 PUSH1 0x0 DUP1 PUSH1 0x0 PUSH2 0x120 DUP11 DUP13 SUB SLT ISZERO PUSH2 0xA41 JUMPI PUSH2 0xA40 PUSH2 0xF52 JUMP JUMPDEST JUMPDEST PUSH1 0x0 PUSH2 0xA4F DUP13 DUP3 DUP14 ADD PUSH2 0x984 JUMP JUMPDEST SWAP10 POP POP PUSH1 0x20 DUP11 ADD CALLDATALOAD PUSH8 0xFFFFFFFFFFFFFFFF DUP2 GT ISZERO PUSH2 0xA70 JUMPI PUSH2 0xA6F PUSH2 0xF4D JUMP JUMPDEST JUMPDEST PUSH2 0xA7C DUP13 DUP3 DUP14 ADD PUSH2 0x9AE JUMP JUMPDEST SWAP9 POP POP PUSH1 0x40 DUP11 ADD CALLDATALOAD PUSH8 0xFFFFFFFFFFFFFFFF DUP2 GT ISZERO PUSH2 0xA9D JUMPI PUSH2 0xA9C PUSH2 0xF4D JUMP JUMPDEST JUMPDEST PUSH2 0xAA9 DUP13 DUP3 DUP14 ADD PUSH2 0x9AE JUMP JUMPDEST SWAP8 POP POP PUSH1 0x60 PUSH2 0xABA DUP13 DUP3 DUP14 ADD PUSH2 0x999 JUMP JUMPDEST SWAP7 POP POP PUSH1 0x80 PUSH2 0xACB DUP13 DUP3 DUP14 ADD PUSH2 0x999 JUMP JUMPDEST SWAP6 POP POP PUSH1 0xA0 PUSH2 0xADC DUP13 DUP3 DUP14 ADD PUSH2 0x9DC JUMP JUMPDEST SWAP5 POP POP PUSH1 0xC0 PUSH2 0xAED DUP13 DUP3 DUP14 ADD PUSH2 0x9DC JUMP JUMPDEST SWAP4 POP POP PUSH1 0xE0 PUSH2 0xAFE DUP13 DUP3 DUP14 ADD PUSH2 0x9DC JUMP JUMPDEST SWAP3 POP POP PUSH2 0x100 PUSH2 0xB10 DUP13 DUP3 DUP14 ADD PUSH2 0x9DC JUMP JUMPDEST SWAP2 POP POP SWAP3 SWAP6 SWAP9 POP SWAP3 SWAP6 SWAP9 POP SWAP3 SWAP6 SWAP9 JUMP JUMPDEST PUSH2 0xB29 DUP2 PUSH2 0xD9A JUMP JUMPDEST DUP3 MSTORE POP POP JUMP JUMPDEST PUSH2 0xB38 DUP2 PUSH2 0xDAC JUMP JUMPDEST DUP3 MSTORE POP POP JUMP JUMPDEST PUSH1 0x0 PUSH2 0xB49 DUP3 PUSH2 0xCAD JUMP JUMPDEST PUSH2 0xB53 DUP2 DUP6 PUSH2 0xCB8 JUMP JUMPDEST SWAP4 POP PUSH2 0xB63 DUP2 DUP6 PUSH1 0x20 DUP7 ADD PUSH2 0xDF1 JUMP JUMPDEST PUSH2 0xB6C DUP2 PUSH2 0xF57 JUMP JUMPDEST DUP5 ADD SWAP2 POP POP SWAP3 SWAP2 POP POP JUMP JUMPDEST PUSH2 0xB80 DUP2 PUSH2 0xDD8 JUMP JUMPDEST DUP3 MSTORE POP POP JUMP JUMPDEST PUSH1 0x0 PUSH2 0x120 DUP3 ADD SWAP1 POP PUSH2 0xB9C PUSH1 0x0 DUP4 ADD DUP13 PUSH2 0xB20 JUMP JUMPDEST DUP2 DUP2 SUB PUSH1 0x20 DUP4 ADD MSTORE PUSH2 0xBAE DUP2 DUP12 PUSH2 0xB3E JUMP JUMPDEST SWAP1 POP DUP2 DUP2 SUB PUSH1 0x40 DUP4 ADD MSTORE PUSH2 0xBC2 DUP2 DUP11 PUSH2 0xB3E JUMP JUMPDEST SWAP1 POP PUSH2 0xBD1 PUSH1 0x60 DUP4 ADD DUP10 PUSH2 0xB2F JUMP JUMPDEST PUSH2 0xBDE PUSH1 0x80 DUP4 ADD DUP9 PUSH2 0xB2F JUMP JUMPDEST PUSH2 0xBEB PUSH1 0xA0 DUP4 ADD DUP8 PUSH2 0xB77 JUMP JUMPDEST PUSH2 0xBF8 PUSH1 0xC0 DUP4 ADD DUP7 PUSH2 0xB77 JUMP JUMPDEST PUSH2 0xC05 PUSH1 0xE0 DUP4 ADD DUP6 PUSH2 0xB77 JUMP JUMPDEST PUSH2 0xC13 PUSH2 0x100 DUP4 ADD DUP5 PUSH2 0xB77 JUMP JUMPDEST SWAP11 SWAP10 POP POP POP POP POP POP POP POP POP POP JUMP JUMPDEST PUSH1 0x0 PUSH1 0x20 DUP3 ADD SWAP1 POP PUSH2 0xC36 PUSH1 0x0 DUP4 ADD DUP5 PUSH2 0xB2F JUMP JUMPDEST SWAP3 SWAP2 POP POP JUMP JUMPDEST PUSH1 0x0 PUSH1 0x20 DUP3 ADD SWAP1 POP PUSH2 0xC51 PUSH1 0x0 DUP4 ADD DUP5 PUSH2 0xB77 JUMP JUMPDEST SWAP3 SWAP2 POP POP JUMP JUMPDEST PUSH1 0x0 PUSH2 0xC61 PUSH2 0xC72 JUMP JUMPDEST SWAP1 POP PUSH2 0xC6D DUP3 DUP3 PUSH2 0xE56 JUMP JUMPDEST SWAP2 SWAP1 POP JUMP JUMPDEST PUSH1 0x0 PUSH1 0x40 MLOAD SWAP1 POP SWAP1 JUMP JUMPDEST PUSH1 0x0 PUSH8 0xFFFFFFFFFFFFFFFF DUP3 GT ISZERO PUSH2 0xC97 JUMPI PUSH2 0xC96 PUSH2 0xF14 JUMP JUMPDEST JUMPDEST PUSH2 0xCA0 DUP3 PUSH2 0xF57 JUMP JUMPDEST SWAP1 POP PUSH1 0x20 DUP2 ADD SWAP1 POP SWAP2 SWAP1 POP JUMP JUMPDEST PUSH1 0x0 DUP2 MLOAD SWAP1 POP SWAP2 SWAP1 POP JUMP JUMPDEST PUSH1 0x0 DUP3 DUP3 MSTORE PUSH1 0x20 DUP3 ADD SWAP1 POP SWAP3 SWAP2 POP POP JUMP JUMPDEST PUSH1 0x0 PUSH2 0xCD4 DUP3 PUSH2 0xDD8 JUMP JUMPDEST SWAP2 POP PUSH2 0xCDF DUP4 PUSH2 0xDD8 JUMP JUMPDEST SWAP3 POP DUP3 PUSH2 0xCEF JUMPI PUSH2 0xCEE PUSH2 0xEB6 JUMP JUMPDEST JUMPDEST DUP3 DUP3 DIV SWAP1 POP SWAP3 SWAP2 POP POP JUMP JUMPDEST PUSH1 0x0 PUSH2 0xD05 DUP3 PUSH2 0xDD8 JUMP JUMPDEST SWAP2 POP PUSH2 0xD10 DUP4 PUSH2 0xDD8 JUMP JUMPDEST SWAP3 POP DUP2 PUSH32 0xFFFFFFFFFFFFFFFFFFFFFFFFFFFFFFFFFFFFFFFFFFFFFFFFFFFFFFFFFFFFFFFF DIV DUP4 GT DUP3 ISZERO ISZERO AND ISZERO PUSH2 0xD49 JUMPI PUSH2 0xD48 PUSH2 0xE87 JUMP JUMPDEST JUMPDEST DUP3 DUP3 MUL SWAP1 POP SWAP3 SWAP2 POP POP JUMP JUMPDEST PUSH1 0x0 PUSH2 0xD5F DUP3 PUSH2 0xDD8 JUMP JUMPDEST SWAP2 POP PUSH2 0xD6A DUP4 PUSH2 0xDD8 JUMP JUMPDEST SWAP3 POP DUP3 DUP3 LT ISZERO PUSH2 0xD7D JUMPI PUSH2 0xD7C PUSH2 0xE87 JUMP JUMPDEST JUMPDEST DUP3 DUP3 SUB SWAP1 POP SWAP3 SWAP2 POP POP JUMP JUMPDEST PUSH1 0x0 PUSH2 0xD93 DUP3 PUSH2 0xDB8 JUMP JUMPDEST SWAP1 POP SWAP2 SWAP1 POP JUMP JUMPDEST PUSH1 0x0 PUSH2 0xDA5 DUP3 PUSH2 0xDB8 JUMP JUMPDEST SWAP1 POP SWAP2 SWAP1 POP JUMP JUMPDEST PUSH1 0x0 DUP2 ISZERO ISZERO SWAP1 POP SWAP2 SWAP1 POP JUMP JUMPDEST PUSH1 0x0 PUSH20 0xFFFFFFFFFFFFFFFFFFFFFFFFFFFFFFFFFFFFFFFF DUP3 AND SWAP1 POP SWAP2 SWAP1 POP JUMP JUMPDEST PUSH1 0x0 DUP2 SWAP1 POP SWAP2 SWAP1 POP JUMP JUMPDEST DUP3 DUP2 DUP4 CALLDATACOPY PUSH1 0x0 DUP4 DUP4 ADD MSTORE POP POP POP JUMP JUMPDEST PUSH1 0x0 JUMPDEST DUP4 DUP2 LT ISZERO PUSH2 0xE0F JUMPI DUP1 DUP3 ADD MLOAD DUP2 DUP5 ADD MSTORE PUSH1 0x20 DUP2 ADD SWAP1 POP PUSH2 0xDF4 JUMP JUMPDEST DUP4 DUP2 GT ISZERO PUSH2 0xE1E JUMPI PUSH1 0x0 DUP5 DUP5 ADD MSTORE JUMPDEST POP POP POP POP JUMP JUMPDEST PUSH1 0x0 PUSH1 0x2 DUP3 DIV SWAP1 POP PUSH1 0x1 DUP3 AND DUP1 PUSH2 0xE3C JUMPI PUSH1 0x7F DUP3 AND SWAP2 POP JUMPDEST PUSH1 0x20 DUP3 LT DUP2 EQ ISZERO PUSH2 0xE50 JUMPI PUSH2 0xE4F PUSH2 0xEE5 JUMP JUMPDEST JUMPDEST POP SWAP2 SWAP1 POP JUMP JUMPDEST PUSH2 0xE5F DUP3 PUSH2 0xF57 JUMP JUMPDEST DUP2 ADD DUP2 DUP2 LT PUSH8 0xFFFFFFFFFFFFFFFF DUP3 GT OR ISZERO PUSH2 0xE7E JUMPI PUSH2 0xE7D PUSH2 0xF14 JUMP JUMPDEST JUMPDEST DUP1 PUSH1 0x40 MSTORE POP POP POP JUMP JUMPDEST PUSH32 0x4E487B7100000000000000000000000000000000000000000000000000000000 PUSH1 0x0 MSTORE PUSH1 0x11 PUSH1 0x4 MSTORE PUSH1 0x24 PUSH1 0x0 REVERT JUMPDEST PUSH32 0x4E487B7100000000000000000000000000000000000000000000000000000000 PUSH1 0x0 MSTORE PUSH1 0x12 PUSH1 0x4 MSTORE PUSH1 0x24 PUSH1 0x0 REVERT JUMPDEST PUSH32 0x4E487B7100000000000000000000000000000000000000000000000000000000 PUSH1 0x0 MSTORE PUSH1 0x22 PUSH1 0x4 MSTORE PUSH1 0x24 PUSH1 0x0 REVERT JUMPDEST PUSH32 0x4E487B7100000000000000000000000000000000000000000000000000000000 PUSH1 0x0 MSTORE PUSH1 0x41 PUSH1 0x4 MSTORE PUSH1 0x24 PUSH1 0x0 REVERT JUMPDEST PUSH1 0x0 DUP1 REVERT JUMPDEST PUSH1 0x0 DUP1 REVERT JUMPDEST PUSH1 0x0 DUP1 REVERT JUMPDEST PUSH1 0x0 DUP1 REVERT JUMPDEST PUSH1 0x0 PUSH1 0x1F NOT PUSH1 0x1F DUP4 ADD AND SWAP1 POP SWAP2 SWAP1 POP JUMP JUMPDEST PUSH2 0xF71 DUP2 PUSH2 0xD88 JUMP JUMPDEST DUP2 EQ PUSH2 0xF7C JUMPI PUSH1 0x0 DUP1 REVERT JUMPDEST POP JUMP JUMPDEST PUSH2 0xF88 DUP2 PUSH2 0xD9A JUMP JUMPDEST DUP2 EQ PUSH2 0xF93 JUMPI PUSH1 0x0 DUP1 REVERT JUMPDEST POP JUMP JUMPDEST PUSH2 0xF9F DUP2 PUSH2 0xDAC JUMP JUMPDEST DUP2 EQ PUSH2 0xFAA JUMPI PUSH1 0x0 DUP1 REVERT JUMPDEST POP JUMP JUMPDEST PUSH2 0xFB6 DUP2 PUSH2 0xDD8 JUMP JUMPDEST DUP2 EQ PUSH2 0xFC1 JUMPI PUSH1 0x0 DUP1 REVERT JUMPDEST POP JUMP INVALID LOG2 PUSH5 0x6970667358 0x22 SLT KECCAK256 PUSH12 0x54C96F056E0D303D91151EC6 0xE3 0xAB 0xD0 PUSH9 0x2ECE316EF00FA82EFD PUSH7 0x8B2D507F6F6473 PUSH16 0x6C634300080700330000000000000000 "
				},
				"gasEstimates": {
					"creation": {
						"codeDepositCost": "818000",
						"executionCost": "25117",
						"totalCost": "843117"
					},
					"external": {
						"addRenter(address,string,string,bool,bool,uint256,uint256,uint256,uint256)": "infinite",
						"balanceOf()": "339",
						"balanceOfRenter(address)": "2891",
						"canRentBike(address)": "2890",
						"checkIn(address)": "infinite",
						"checkOut(address)": "71462",
						"getTotalDuration(address)": "infinite",
						"renters(address)": "infinite"
					},
					"internal": {
						"renterTimespan(uint256,uint256)": "infinite",
						"setDue(address)": "infinite"
					}
				},
				"methodIdentifiers": {
					"addRenter(address,string,string,bool,bool,uint256,uint256,uint256,uint256)": "5e649727",
					"balanceOf()": "722713f7",
					"balanceOfRenter(address)": "aad1b617",
					"canRentBike(address)": "0b88adbe",
					"checkIn(address)": "d9a59e33",
					"checkOut(address)": "8d23caa0",
					"getTotalDuration(address)": "41ba6e89",
					"renters(address)": "644a1370"
				}
			},
			"storageLayout": {
				"storage": [
					{
						"astId": 3,
						"contract": "contracts/Automobchain.sol:Automobchain",
						"label": "owner",
						"offset": 0,
						"slot": "0",
						"type": "t_address"
					},
					{
						"astId": 36,
						"contract": "contracts/Automobchain.sol:Automobchain",
						"label": "renters",
						"offset": 0,
						"slot": "1",
						"type": "t_mapping(t_address,t_struct(Renter)31_storage)"
					}
				],
				"types": {
					"t_address": {
						"encoding": "inplace",
						"label": "address",
						"numberOfBytes": "20"
					},
					"t_address_payable": {
						"encoding": "inplace",
						"label": "address payable",
						"numberOfBytes": "20"
					},
					"t_bool": {
						"encoding": "inplace",
						"label": "bool",
						"numberOfBytes": "1"
					},
					"t_mapping(t_address,t_struct(Renter)31_storage)": {
						"encoding": "mapping",
						"key": "t_address",
						"label": "mapping(address => struct Automobchain.Renter)",
						"numberOfBytes": "32",
						"value": "t_struct(Renter)31_storage"
					},
					"t_string_storage": {
						"encoding": "bytes",
						"label": "string",
						"numberOfBytes": "32"
					},
					"t_struct(Renter)31_storage": {
						"encoding": "inplace",
						"label": "struct Automobchain.Renter",
						"members": [
							{
								"astId": 14,
								"contract": "contracts/Automobchain.sol:Automobchain",
								"label": "walletAddress",
								"offset": 0,
								"slot": "0",
								"type": "t_address_payable"
							},
							{
								"astId": 16,
								"contract": "contracts/Automobchain.sol:Automobchain",
								"label": "firstName",
								"offset": 0,
								"slot": "1",
								"type": "t_string_storage"
							},
							{
								"astId": 18,
								"contract": "contracts/Automobchain.sol:Automobchain",
								"label": "lastName",
								"offset": 0,
								"slot": "2",
								"type": "t_string_storage"
							},
							{
								"astId": 20,
								"contract": "contracts/Automobchain.sol:Automobchain",
								"label": "canRent",
								"offset": 0,
								"slot": "3",
								"type": "t_bool"
							},
							{
								"astId": 22,
								"contract": "contracts/Automobchain.sol:Automobchain",
								"label": "active",
								"offset": 1,
								"slot": "3",
								"type": "t_bool"
							},
							{
								"astId": 24,
								"contract": "contracts/Automobchain.sol:Automobchain",
								"label": "balance",
								"offset": 0,
								"slot": "4",
								"type": "t_uint256"
							},
							{
								"astId": 26,
								"contract": "contracts/Automobchain.sol:Automobchain",
								"label": "due",
								"offset": 0,
								"slot": "5",
								"type": "t_uint256"
							},
							{
								"astId": 28,
								"contract": "contracts/Automobchain.sol:Automobchain",
								"label": "start",
								"offset": 0,
								"slot": "6",
								"type": "t_uint256"
							},
							{
								"astId": 30,
								"contract": "contracts/Automobchain.sol:Automobchain",
								"label": "end",
								"offset": 0,
								"slot": "7",
								"type": "t_uint256"
							}
						],
						"numberOfBytes": "256"
					},
					"t_uint256": {
						"encoding": "inplace",
						"label": "uint256",
						"numberOfBytes": "32"
					}
				}
			},
			"userdoc": {
				"kind": "user",
				"methods": {},
				"version": 1
			}
		}
	}
}