{
	"contracts/Automobchain.sol": {
		"Automobchain": {
			"abi": [
				{
					"inputs": [],
					"stateMutability": "nonpayable",
					"type": "constructor"
				},
				{
					"inputs": [
						{
							"internalType": "address",
							"name": "",
							"type": "address"
						}
					],
					"name": "renters",
					"outputs": [
						{
							"internalType": "address payable",
							"name": "walletaddress",
							"type": "address"
						},
						{
							"internalType": "string",
							"name": "firstName",
							"type": "string"
						},
						{
							"internalType": "string",
							"name": "lastName",
							"type": "string"
						},
						{
							"internalType": "bool",
							"name": "canRent",
							"type": "bool"
						},
						{
							"internalType": "bool",
							"name": "active",
							"type": "bool"
						},
						{
							"internalType": "uint256",
							"name": "balance",
							"type": "uint256"
						},
						{
							"internalType": "uint256",
							"name": "start",
							"type": "uint256"
						},
						{
							"internalType": "uint256",
							"name": "end",
							"type": "uint256"
						}
					],
					"stateMutability": "view",
					"type": "function"
				}
			],
			"devdoc": {
				"kind": "dev",
				"methods": {},
				"version": 1
			},
			"evm": {
				"assembly": "    /* \"contracts/Automobchain.sol\":66:654  contract Automobchain {\r... */\n  mstore(0x40, 0x80)\n    /* \"contracts/Automobchain.sol\":117:168  constructor() {\r... */\n  callvalue\n  dup1\n  iszero\n  tag_1\n  jumpi\n  0x00\n  dup1\n  revert\ntag_1:\n  pop\n    /* \"contracts/Automobchain.sol\":150:160  msg.sender */\n  caller\n    /* \"contracts/Automobchain.sol\":142:147  owner */\n  0x00\n  dup1\n    /* \"contracts/Automobchain.sol\":142:160  owner = msg.sender */\n  0x0100\n  exp\n  dup2\n  sload\n  dup2\n  0xffffffffffffffffffffffffffffffffffffffff\n  mul\n  not\n  and\n  swap1\n  dup4\n  0xffffffffffffffffffffffffffffffffffffffff\n  and\n  mul\n  or\n  swap1\n  sstore\n  pop\n    /* \"contracts/Automobchain.sol\":66:654  contract Automobchain {\r... */\n  dataSize(sub_0)\n  dup1\n  dataOffset(sub_0)\n  0x00\n  codecopy\n  0x00\n  return\nstop\n\nsub_0: assembly {\n        /* \"contracts/Automobchain.sol\":66:654  contract Automobchain {\r... */\n      mstore(0x40, 0x80)\n      callvalue\n      dup1\n      iszero\n      tag_1\n      jumpi\n      0x00\n      dup1\n      revert\n    tag_1:\n      pop\n      jumpi(tag_2, lt(calldatasize, 0x04))\n      shr(0xe0, calldataload(0x00))\n      dup1\n      0x644a1370\n      eq\n      tag_3\n      jumpi\n    tag_2:\n      0x00\n      dup1\n      revert\n        /* \"contracts/Automobchain.sol\":438:480  mapping (address => Renter) public renters */\n    tag_3:\n      tag_4\n      0x04\n      dup1\n      calldatasize\n      sub\n      dup2\n      add\n      swap1\n      tag_5\n      swap2\n      swap1\n      tag_6\n      jump\t// in\n    tag_5:\n      tag_7\n      jump\t// in\n    tag_4:\n      mload(0x40)\n      tag_8\n      swap9\n      swap8\n      swap7\n      swap6\n      swap5\n      swap4\n      swap3\n      swap2\n      swap1\n      tag_9\n      jump\t// in\n    tag_8:\n      mload(0x40)\n      dup1\n      swap2\n      sub\n      swap1\n      return\n    tag_7:\n      mstore(0x20, 0x01)\n      dup1\n      0x00\n      mstore\n      keccak256(0x00, 0x40)\n      0x00\n      swap2\n      pop\n      swap1\n      pop\n      dup1\n      0x00\n      add\n      0x00\n      swap1\n      sload\n      swap1\n      0x0100\n      exp\n      swap1\n      div\n      0xffffffffffffffffffffffffffffffffffffffff\n      and\n      swap1\n      dup1\n      0x01\n      add\n      dup1\n      sload\n      tag_10\n      swap1\n      tag_11\n      jump\t// in\n    tag_10:\n      dup1\n      0x1f\n      add\n      0x20\n      dup1\n      swap2\n      div\n      mul\n      0x20\n      add\n      mload(0x40)\n      swap1\n      dup2\n      add\n      0x40\n      mstore\n      dup1\n      swap3\n      swap2\n      swap1\n      dup2\n      dup2\n      mstore\n      0x20\n      add\n      dup3\n      dup1\n      sload\n      tag_12\n      swap1\n      tag_11\n      jump\t// in\n    tag_12:\n      dup1\n      iszero\n      tag_13\n      jumpi\n      dup1\n      0x1f\n      lt\n      tag_14\n      jumpi\n      0x0100\n      dup1\n      dup4\n      sload\n      div\n      mul\n      dup4\n      mstore\n      swap2\n      0x20\n      add\n      swap2\n      jump(tag_13)\n    tag_14:\n      dup3\n      add\n      swap2\n      swap1\n      0x00\n      mstore\n      keccak256(0x00, 0x20)\n      swap1\n    tag_15:\n      dup2\n      sload\n      dup2\n      mstore\n      swap1\n      0x01\n      add\n      swap1\n      0x20\n      add\n      dup1\n      dup4\n      gt\n      tag_15\n      jumpi\n      dup3\n      swap1\n      sub\n      0x1f\n      and\n      dup3\n      add\n      swap2\n    tag_13:\n      pop\n      pop\n      pop\n      pop\n      pop\n      swap1\n      dup1\n      0x02\n      add\n      dup1\n      sload\n      tag_16\n      swap1\n      tag_11\n      jump\t// in\n    tag_16:\n      dup1\n      0x1f\n      add\n      0x20\n      dup1\n      swap2\n      div\n      mul\n      0x20\n      add\n      mload(0x40)\n      swap1\n      dup2\n      add\n      0x40\n      mstore\n      dup1\n      swap3\n      swap2\n      swap1\n      dup2\n      dup2\n      mstore\n      0x20\n      add\n      dup3\n      dup1\n      sload\n      tag_17\n      swap1\n      tag_11\n      jump\t// in\n    tag_17:\n      dup1\n      iszero\n      tag_18\n      jumpi\n      dup1\n      0x1f\n      lt\n      tag_19\n      jumpi\n      0x0100\n      dup1\n      dup4\n      sload\n      div\n      mul\n      dup4\n      mstore\n      swap2\n      0x20\n      add\n      swap2\n      jump(tag_18)\n    tag_19:\n      dup3\n      add\n      swap2\n      swap1\n      0x00\n      mstore\n      keccak256(0x00, 0x20)\n      swap1\n    tag_20:\n      dup2\n      sload\n      dup2\n      mstore\n      swap1\n      0x01\n      add\n      swap1\n      0x20\n      add\n      dup1\n      dup4\n      gt\n      tag_20\n      jumpi\n      dup3\n      swap1\n      sub\n      0x1f\n      and\n      dup3\n      add\n      swap2\n    tag_18:\n      pop\n      pop\n      pop\n      pop\n      pop\n      swap1\n      dup1\n      0x03\n      add\n      0x00\n      swap1\n      sload\n      swap1\n      0x0100\n      exp\n      swap1\n      div\n      0xff\n      and\n      swap1\n      dup1\n      0x03\n      add\n      0x01\n      swap1\n      sload\n      swap1\n      0x0100\n      exp\n      swap1\n      div\n      0xff\n      and\n      swap1\n      dup1\n      0x04\n      add\n      sload\n      swap1\n      dup1\n      0x05\n      add\n      sload\n      swap1\n      dup1\n      0x06\n      add\n      sload\n      swap1\n      pop\n      dup9\n      jump\t// out\n        /* \"#utility.yul\":7:146   */\n    tag_22:\n        /* \"#utility.yul\":53:58   */\n      0x00\n        /* \"#utility.yul\":91:97   */\n      dup2\n        /* \"#utility.yul\":78:98   */\n      calldataload\n        /* \"#utility.yul\":69:98   */\n      swap1\n      pop\n        /* \"#utility.yul\":107:140   */\n      tag_24\n        /* \"#utility.yul\":134:139   */\n      dup2\n        /* \"#utility.yul\":107:140   */\n      tag_25\n      jump\t// in\n    tag_24:\n        /* \"#utility.yul\":7:146   */\n      swap3\n      swap2\n      pop\n      pop\n      jump\t// out\n        /* \"#utility.yul\":152:481   */\n    tag_6:\n        /* \"#utility.yul\":211:217   */\n      0x00\n        /* \"#utility.yul\":260:262   */\n      0x20\n        /* \"#utility.yul\":248:257   */\n      dup3\n        /* \"#utility.yul\":239:246   */\n      dup5\n        /* \"#utility.yul\":235:258   */\n      sub\n        /* \"#utility.yul\":231:263   */\n      slt\n        /* \"#utility.yul\":228:347   */\n      iszero\n      tag_27\n      jumpi\n        /* \"#utility.yul\":266:345   */\n      tag_28\n      tag_29\n      jump\t// in\n    tag_28:\n        /* \"#utility.yul\":228:347   */\n    tag_27:\n        /* \"#utility.yul\":386:387   */\n      0x00\n        /* \"#utility.yul\":411:464   */\n      tag_30\n        /* \"#utility.yul\":456:463   */\n      dup5\n        /* \"#utility.yul\":447:453   */\n      dup3\n        /* \"#utility.yul\":436:445   */\n      dup6\n        /* \"#utility.yul\":432:454   */\n      add\n        /* \"#utility.yul\":411:464   */\n      tag_22\n      jump\t// in\n    tag_30:\n        /* \"#utility.yul\":401:464   */\n      swap2\n      pop\n        /* \"#utility.yul\":357:474   */\n      pop\n        /* \"#utility.yul\":152:481   */\n      swap3\n      swap2\n      pop\n      pop\n      jump\t// out\n        /* \"#utility.yul\":487:629   */\n    tag_31:\n        /* \"#utility.yul\":590:622   */\n      tag_33\n        /* \"#utility.yul\":616:621   */\n      dup2\n        /* \"#utility.yul\":590:622   */\n      tag_34\n      jump\t// in\n    tag_33:\n        /* \"#utility.yul\":585:588   */\n      dup3\n        /* \"#utility.yul\":578:623   */\n      mstore\n        /* \"#utility.yul\":487:629   */\n      pop\n      pop\n      jump\t// out\n        /* \"#utility.yul\":635:744   */\n    tag_35:\n        /* \"#utility.yul\":716:737   */\n      tag_37\n        /* \"#utility.yul\":731:736   */\n      dup2\n        /* \"#utility.yul\":716:737   */\n      tag_38\n      jump\t// in\n    tag_37:\n        /* \"#utility.yul\":711:714   */\n      dup3\n        /* \"#utility.yul\":704:738   */\n      mstore\n        /* \"#utility.yul\":635:744   */\n      pop\n      pop\n      jump\t// out\n        /* \"#utility.yul\":750:1114   */\n    tag_39:\n        /* \"#utility.yul\":838:841   */\n      0x00\n        /* \"#utility.yul\":866:905   */\n      tag_41\n        /* \"#utility.yul\":899:904   */\n      dup3\n        /* \"#utility.yul\":866:905   */\n      tag_42\n      jump\t// in\n    tag_41:\n        /* \"#utility.yul\":921:992   */\n      tag_43\n        /* \"#utility.yul\":985:991   */\n      dup2\n        /* \"#utility.yul\":980:983   */\n      dup6\n        /* \"#utility.yul\":921:992   */\n      tag_44\n      jump\t// in\n    tag_43:\n        /* \"#utility.yul\":914:992   */\n      swap4\n      pop\n        /* \"#utility.yul\":1001:1053   */\n      tag_45\n        /* \"#utility.yul\":1046:1052   */\n      dup2\n        /* \"#utility.yul\":1041:1044   */\n      dup6\n        /* \"#utility.yul\":1034:1038   */\n      0x20\n        /* \"#utility.yul\":1027:1032   */\n      dup7\n        /* \"#utility.yul\":1023:1039   */\n      add\n        /* \"#utility.yul\":1001:1053   */\n      tag_46\n      jump\t// in\n    tag_45:\n        /* \"#utility.yul\":1078:1107   */\n      tag_47\n        /* \"#utility.yul\":1100:1106   */\n      dup2\n        /* \"#utility.yul\":1078:1107   */\n      tag_48\n      jump\t// in\n    tag_47:\n        /* \"#utility.yul\":1073:1076   */\n      dup5\n        /* \"#utility.yul\":1069:1108   */\n      add\n        /* \"#utility.yul\":1062:1108   */\n      swap2\n      pop\n        /* \"#utility.yul\":842:1114   */\n      pop\n        /* \"#utility.yul\":750:1114   */\n      swap3\n      swap2\n      pop\n      pop\n      jump\t// out\n        /* \"#utility.yul\":1120:1238   */\n    tag_49:\n        /* \"#utility.yul\":1207:1231   */\n      tag_51\n        /* \"#utility.yul\":1225:1230   */\n      dup2\n        /* \"#utility.yul\":1207:1231   */\n      tag_52\n      jump\t// in\n    tag_51:\n        /* \"#utility.yul\":1202:1205   */\n      dup3\n        /* \"#utility.yul\":1195:1232   */\n      mstore\n        /* \"#utility.yul\":1120:1238   */\n      pop\n      pop\n      jump\t// out\n        /* \"#utility.yul\":1244:2431   */\n    tag_9:\n        /* \"#utility.yul\":1577:1581   */\n      0x00\n        /* \"#utility.yul\":1615:1618   */\n      0x0100\n        /* \"#utility.yul\":1604:1613   */\n      dup3\n        /* \"#utility.yul\":1600:1619   */\n      add\n        /* \"#utility.yul\":1592:1619   */\n      swap1\n      pop\n        /* \"#utility.yul\":1629:1716   */\n      tag_54\n        /* \"#utility.yul\":1713:1714   */\n      0x00\n        /* \"#utility.yul\":1702:1711   */\n      dup4\n        /* \"#utility.yul\":1698:1715   */\n      add\n        /* \"#utility.yul\":1689:1695   */\n      dup12\n        /* \"#utility.yul\":1629:1716   */\n      tag_31\n      jump\t// in\n    tag_54:\n        /* \"#utility.yul\":1763:1772   */\n      dup2\n        /* \"#utility.yul\":1757:1761   */\n      dup2\n        /* \"#utility.yul\":1753:1773   */\n      sub\n        /* \"#utility.yul\":1748:1750   */\n      0x20\n        /* \"#utility.yul\":1737:1746   */\n      dup4\n        /* \"#utility.yul\":1733:1751   */\n      add\n        /* \"#utility.yul\":1726:1774   */\n      mstore\n        /* \"#utility.yul\":1791:1869   */\n      tag_55\n        /* \"#utility.yul\":1864:1868   */\n      dup2\n        /* \"#utility.yul\":1855:1861   */\n      dup11\n        /* \"#utility.yul\":1791:1869   */\n      tag_39\n      jump\t// in\n    tag_55:\n        /* \"#utility.yul\":1783:1869   */\n      swap1\n      pop\n        /* \"#utility.yul\":1916:1925   */\n      dup2\n        /* \"#utility.yul\":1910:1914   */\n      dup2\n        /* \"#utility.yul\":1906:1926   */\n      sub\n        /* \"#utility.yul\":1901:1903   */\n      0x40\n        /* \"#utility.yul\":1890:1899   */\n      dup4\n        /* \"#utility.yul\":1886:1904   */\n      add\n        /* \"#utility.yul\":1879:1927   */\n      mstore\n        /* \"#utility.yul\":1944:2022   */\n      tag_56\n        /* \"#utility.yul\":2017:2021   */\n      dup2\n        /* \"#utility.yul\":2008:2014   */\n      dup10\n        /* \"#utility.yul\":1944:2022   */\n      tag_39\n      jump\t// in\n    tag_56:\n        /* \"#utility.yul\":1936:2022   */\n      swap1\n      pop\n        /* \"#utility.yul\":2032:2098   */\n      tag_57\n        /* \"#utility.yul\":2094:2096   */\n      0x60\n        /* \"#utility.yul\":2083:2092   */\n      dup4\n        /* \"#utility.yul\":2079:2097   */\n      add\n        /* \"#utility.yul\":2070:2076   */\n      dup9\n        /* \"#utility.yul\":2032:2098   */\n      tag_35\n      jump\t// in\n    tag_57:\n        /* \"#utility.yul\":2108:2175   */\n      tag_58\n        /* \"#utility.yul\":2170:2173   */\n      0x80\n        /* \"#utility.yul\":2159:2168   */\n      dup4\n        /* \"#utility.yul\":2155:2174   */\n      add\n        /* \"#utility.yul\":2146:2152   */\n      dup8\n        /* \"#utility.yul\":2108:2175   */\n      tag_35\n      jump\t// in\n    tag_58:\n        /* \"#utility.yul\":2185:2258   */\n      tag_59\n        /* \"#utility.yul\":2253:2256   */\n      0xa0\n        /* \"#utility.yul\":2242:2251   */\n      dup4\n        /* \"#utility.yul\":2238:2257   */\n      add\n        /* \"#utility.yul\":2229:2235   */\n      dup7\n        /* \"#utility.yul\":2185:2258   */\n      tag_49\n      jump\t// in\n    tag_59:\n        /* \"#utility.yul\":2268:2341   */\n      tag_60\n        /* \"#utility.yul\":2336:2339   */\n      0xc0\n        /* \"#utility.yul\":2325:2334   */\n      dup4\n        /* \"#utility.yul\":2321:2340   */\n      add\n        /* \"#utility.yul\":2312:2318   */\n      dup6\n        /* \"#utility.yul\":2268:2341   */\n      tag_49\n      jump\t// in\n    tag_60:\n        /* \"#utility.yul\":2351:2424   */\n      tag_61\n        /* \"#utility.yul\":2419:2422   */\n      0xe0\n        /* \"#utility.yul\":2408:2417   */\n      dup4\n        /* \"#utility.yul\":2404:2423   */\n      add\n        /* \"#utility.yul\":2395:2401   */\n      dup5\n        /* \"#utility.yul\":2351:2424   */\n      tag_49\n      jump\t// in\n    tag_61:\n        /* \"#utility.yul\":1244:2431   */\n      swap10\n      swap9\n      pop\n      pop\n      pop\n      pop\n      pop\n      pop\n      pop\n      pop\n      pop\n      jump\t// out\n        /* \"#utility.yul\":2518:2617   */\n    tag_42:\n        /* \"#utility.yul\":2570:2576   */\n      0x00\n        /* \"#utility.yul\":2604:2609   */\n      dup2\n        /* \"#utility.yul\":2598:2610   */\n      mload\n        /* \"#utility.yul\":2588:2610   */\n      swap1\n      pop\n        /* \"#utility.yul\":2518:2617   */\n      swap2\n      swap1\n      pop\n      jump\t// out\n        /* \"#utility.yul\":2623:2792   */\n    tag_44:\n        /* \"#utility.yul\":2707:2718   */\n      0x00\n        /* \"#utility.yul\":2741:2747   */\n      dup3\n        /* \"#utility.yul\":2736:2739   */\n      dup3\n        /* \"#utility.yul\":2729:2748   */\n      mstore\n        /* \"#utility.yul\":2781:2785   */\n      0x20\n        /* \"#utility.yul\":2776:2779   */\n      dup3\n        /* \"#utility.yul\":2772:2786   */\n      add\n        /* \"#utility.yul\":2757:2786   */\n      swap1\n      pop\n        /* \"#utility.yul\":2623:2792   */\n      swap3\n      swap2\n      pop\n      pop\n      jump\t// out\n        /* \"#utility.yul\":2798:2894   */\n    tag_66:\n        /* \"#utility.yul\":2835:2842   */\n      0x00\n        /* \"#utility.yul\":2864:2888   */\n      tag_68\n        /* \"#utility.yul\":2882:2887   */\n      dup3\n        /* \"#utility.yul\":2864:2888   */\n      tag_69\n      jump\t// in\n    tag_68:\n        /* \"#utility.yul\":2853:2888   */\n      swap1\n      pop\n        /* \"#utility.yul\":2798:2894   */\n      swap2\n      swap1\n      pop\n      jump\t// out\n        /* \"#utility.yul\":2900:3004   */\n    tag_34:\n        /* \"#utility.yul\":2945:2952   */\n      0x00\n        /* \"#utility.yul\":2974:2998   */\n      tag_71\n        /* \"#utility.yul\":2992:2997   */\n      dup3\n        /* \"#utility.yul\":2974:2998   */\n      tag_69\n      jump\t// in\n    tag_71:\n        /* \"#utility.yul\":2963:2998   */\n      swap1\n      pop\n        /* \"#utility.yul\":2900:3004   */\n      swap2\n      swap1\n      pop\n      jump\t// out\n        /* \"#utility.yul\":3010:3100   */\n    tag_38:\n        /* \"#utility.yul\":3044:3051   */\n      0x00\n        /* \"#utility.yul\":3087:3092   */\n      dup2\n        /* \"#utility.yul\":3080:3093   */\n      iszero\n        /* \"#utility.yul\":3073:3094   */\n      iszero\n        /* \"#utility.yul\":3062:3094   */\n      swap1\n      pop\n        /* \"#utility.yul\":3010:3100   */\n      swap2\n      swap1\n      pop\n      jump\t// out\n        /* \"#utility.yul\":3106:3232   */\n    tag_69:\n        /* \"#utility.yul\":3143:3150   */\n      0x00\n        /* \"#utility.yul\":3183:3225   */\n      0xffffffffffffffffffffffffffffffffffffffff\n        /* \"#utility.yul\":3176:3181   */\n      dup3\n        /* \"#utility.yul\":3172:3226   */\n      and\n        /* \"#utility.yul\":3161:3226   */\n      swap1\n      pop\n        /* \"#utility.yul\":3106:3232   */\n      swap2\n      swap1\n      pop\n      jump\t// out\n        /* \"#utility.yul\":3238:3315   */\n    tag_52:\n        /* \"#utility.yul\":3275:3282   */\n      0x00\n        /* \"#utility.yul\":3304:3309   */\n      dup2\n        /* \"#utility.yul\":3293:3309   */\n      swap1\n      pop\n        /* \"#utility.yul\":3238:3315   */\n      swap2\n      swap1\n      pop\n      jump\t// out\n        /* \"#utility.yul\":3321:3628   */\n    tag_46:\n        /* \"#utility.yul\":3389:3390   */\n      0x00\n        /* \"#utility.yul\":3399:3512   */\n    tag_76:\n        /* \"#utility.yul\":3413:3419   */\n      dup4\n        /* \"#utility.yul\":3410:3411   */\n      dup2\n        /* \"#utility.yul\":3407:3420   */\n      lt\n        /* \"#utility.yul\":3399:3512   */\n      iszero\n      tag_78\n      jumpi\n        /* \"#utility.yul\":3498:3499   */\n      dup1\n        /* \"#utility.yul\":3493:3496   */\n      dup3\n        /* \"#utility.yul\":3489:3500   */\n      add\n        /* \"#utility.yul\":3483:3501   */\n      mload\n        /* \"#utility.yul\":3479:3480   */\n      dup2\n        /* \"#utility.yul\":3474:3477   */\n      dup5\n        /* \"#utility.yul\":3470:3481   */\n      add\n        /* \"#utility.yul\":3463:3502   */\n      mstore\n        /* \"#utility.yul\":3435:3437   */\n      0x20\n        /* \"#utility.yul\":3432:3433   */\n      dup2\n        /* \"#utility.yul\":3428:3438   */\n      add\n        /* \"#utility.yul\":3423:3438   */\n      swap1\n      pop\n        /* \"#utility.yul\":3399:3512   */\n      jump(tag_76)\n    tag_78:\n        /* \"#utility.yul\":3530:3536   */\n      dup4\n        /* \"#utility.yul\":3527:3528   */\n      dup2\n        /* \"#utility.yul\":3524:3537   */\n      gt\n        /* \"#utility.yul\":3521:3622   */\n      iszero\n      tag_79\n      jumpi\n        /* \"#utility.yul\":3610:3611   */\n      0x00\n        /* \"#utility.yul\":3601:3607   */\n      dup5\n        /* \"#utility.yul\":3596:3599   */\n      dup5\n        /* \"#utility.yul\":3592:3608   */\n      add\n        /* \"#utility.yul\":3585:3612   */\n      mstore\n        /* \"#utility.yul\":3521:3622   */\n    tag_79:\n        /* \"#utility.yul\":3370:3628   */\n      pop\n        /* \"#utility.yul\":3321:3628   */\n      pop\n      pop\n      pop\n      jump\t// out\n        /* \"#utility.yul\":3634:3954   */\n    tag_11:\n        /* \"#utility.yul\":3678:3684   */\n      0x00\n        /* \"#utility.yul\":3715:3716   */\n      0x02\n        /* \"#utility.yul\":3709:3713   */\n      dup3\n        /* \"#utility.yul\":3705:3717   */\n      div\n        /* \"#utility.yul\":3695:3717   */\n      swap1\n      pop\n        /* \"#utility.yul\":3762:3763   */\n      0x01\n        /* \"#utility.yul\":3756:3760   */\n      dup3\n        /* \"#utility.yul\":3752:3764   */\n      and\n        /* \"#utility.yul\":3783:3801   */\n      dup1\n        /* \"#utility.yul\":3773:3854   */\n      tag_81\n      jumpi\n        /* \"#utility.yul\":3839:3843   */\n      0x7f\n        /* \"#utility.yul\":3831:3837   */\n      dup3\n        /* \"#utility.yul\":3827:3844   */\n      and\n        /* \"#utility.yul\":3817:3844   */\n      swap2\n      pop\n        /* \"#utility.yul\":3773:3854   */\n    tag_81:\n        /* \"#utility.yul\":3901:3903   */\n      0x20\n        /* \"#utility.yul\":3893:3899   */\n      dup3\n        /* \"#utility.yul\":3890:3904   */\n      lt\n        /* \"#utility.yul\":3870:3888   */\n      dup2\n        /* \"#utility.yul\":3867:3905   */\n      eq\n        /* \"#utility.yul\":3864:3948   */\n      iszero\n      tag_82\n      jumpi\n        /* \"#utility.yul\":3920:3938   */\n      tag_83\n      tag_84\n      jump\t// in\n    tag_83:\n        /* \"#utility.yul\":3864:3948   */\n    tag_82:\n        /* \"#utility.yul\":3685:3954   */\n      pop\n        /* \"#utility.yul\":3634:3954   */\n      swap2\n      swap1\n      pop\n      jump\t// out\n        /* \"#utility.yul\":3960:4140   */\n    tag_84:\n        /* \"#utility.yul\":4008:4085   */\n      0x4e487b7100000000000000000000000000000000000000000000000000000000\n        /* \"#utility.yul\":4005:4006   */\n      0x00\n        /* \"#utility.yul\":3998:4086   */\n      mstore\n        /* \"#utility.yul\":4105:4109   */\n      0x22\n        /* \"#utility.yul\":4102:4103   */\n      0x04\n        /* \"#utility.yul\":4095:4110   */\n      mstore\n        /* \"#utility.yul\":4129:4133   */\n      0x24\n        /* \"#utility.yul\":4126:4127   */\n      0x00\n        /* \"#utility.yul\":4119:4134   */\n      revert\n        /* \"#utility.yul\":4269:4386   */\n    tag_29:\n        /* \"#utility.yul\":4378:4379   */\n      0x00\n        /* \"#utility.yul\":4375:4376   */\n      dup1\n        /* \"#utility.yul\":4368:4380   */\n      revert\n        /* \"#utility.yul\":4392:4494   */\n    tag_48:\n        /* \"#utility.yul\":4433:4439   */\n      0x00\n        /* \"#utility.yul\":4484:4486   */\n      0x1f\n        /* \"#utility.yul\":4480:4487   */\n      not\n        /* \"#utility.yul\":4475:4477   */\n      0x1f\n        /* \"#utility.yul\":4468:4473   */\n      dup4\n        /* \"#utility.yul\":4464:4478   */\n      add\n        /* \"#utility.yul\":4460:4488   */\n      and\n        /* \"#utility.yul\":4450:4488   */\n      swap1\n      pop\n        /* \"#utility.yul\":4392:4494   */\n      swap2\n      swap1\n      pop\n      jump\t// out\n        /* \"#utility.yul\":4500:4622   */\n    tag_25:\n        /* \"#utility.yul\":4573:4597   */\n      tag_91\n        /* \"#utility.yul\":4591:4596   */\n      dup2\n        /* \"#utility.yul\":4573:4597   */\n      tag_66\n      jump\t// in\n    tag_91:\n        /* \"#utility.yul\":4566:4571   */\n      dup2\n        /* \"#utility.yul\":4563:4598   */\n      eq\n        /* \"#utility.yul\":4553:4616   */\n      tag_92\n      jumpi\n        /* \"#utility.yul\":4612:4613   */\n      0x00\n        /* \"#utility.yul\":4609:4610   */\n      dup1\n        /* \"#utility.yul\":4602:4614   */\n      revert\n        /* \"#utility.yul\":4553:4616   */\n    tag_92:\n        /* \"#utility.yul\":4500:4622   */\n      pop\n      jump\t// out\n\n    auxdata: 0xa26469706673582212200656de42e91f7021d106120f00466d620059d021d7f190957eaf85545a26630b64736f6c63430008070033\n}\n",
				"bytecode": {
					"linkReferences": {},
					"object": "608060405234801561001057600080fd5b50336000806101000a81548173ffffffffffffffffffffffffffffffffffffffff021916908373ffffffffffffffffffffffffffffffffffffffff16021790555061049a806100606000396000f3fe608060405234801561001057600080fd5b506004361061002b5760003560e01c8063644a137014610030575b600080fd5b61004a6004803603810190610045919061020e565b610067565b60405161005e9897969594939291906102a1565b60405180910390f35b60016020528060005260406000206000915090508060000160009054906101000a900473ffffffffffffffffffffffffffffffffffffffff16908060010180546100b0906103d6565b80601f01602080910402602001604051908101604052809291908181526020018280546100dc906103d6565b80156101295780601f106100fe57610100808354040283529160200191610129565b820191906000526020600020905b81548152906001019060200180831161010c57829003601f168201915b50505050509080600201805461013e906103d6565b80601f016020809104026020016040519081016040528092919081815260200182805461016a906103d6565b80156101b75780601f1061018c576101008083540402835291602001916101b7565b820191906000526020600020905b81548152906001019060200180831161019a57829003601f168201915b5050505050908060030160009054906101000a900460ff16908060030160019054906101000a900460ff16908060040154908060050154908060060154905088565b6000813590506102088161044d565b92915050565b60006020828403121561022457610223610437565b5b6000610232848285016101f9565b91505092915050565b6102448161035b565b82525050565b6102538161036d565b82525050565b60006102648261032d565b61026e8185610338565b935061027e8185602086016103a3565b6102878161043c565b840191505092915050565b61029b81610399565b82525050565b6000610100820190506102b7600083018b61023b565b81810360208301526102c9818a610259565b905081810360408301526102dd8189610259565b90506102ec606083018861024a565b6102f9608083018761024a565b61030660a0830186610292565b61031360c0830185610292565b61032060e0830184610292565b9998505050505050505050565b600081519050919050565b600082825260208201905092915050565b600061035482610379565b9050919050565b600061036682610379565b9050919050565b60008115159050919050565b600073ffffffffffffffffffffffffffffffffffffffff82169050919050565b6000819050919050565b60005b838110156103c15780820151818401526020810190506103a6565b838111156103d0576000848401525b50505050565b600060028204905060018216806103ee57607f821691505b6020821081141561040257610401610408565b5b50919050565b7f4e487b7100000000000000000000000000000000000000000000000000000000600052602260045260246000fd5b600080fd5b6000601f19601f8301169050919050565b61045681610349565b811461046157600080fd5b5056fea26469706673582212200656de42e91f7021d106120f00466d620059d021d7f190957eaf85545a26630b64736f6c63430008070033",
					"opcodes": "PUSH1 0x80 PUSH1 0x40 MSTORE CALLVALUE DUP1 ISZERO PUSH2 0x10 JUMPI PUSH1 0x0 DUP1 REVERT JUMPDEST POP CALLER PUSH1 0x0 DUP1 PUSH2 0x100 EXP DUP2 SLOAD DUP2 PUSH20 0xFFFFFFFFFFFFFFFFFFFFFFFFFFFFFFFFFFFFFFFF MUL NOT AND SWAP1 DUP4 PUSH20 0xFFFFFFFFFFFFFFFFFFFFFFFFFFFFFFFFFFFFFFFF AND MUL OR SWAP1 SSTORE POP PUSH2 0x49A DUP1 PUSH2 0x60 PUSH1 0x0 CODECOPY PUSH1 0x0 RETURN INVALID PUSH1 0x80 PUSH1 0x40 MSTORE CALLVALUE DUP1 ISZERO PUSH2 0x10 JUMPI PUSH1 0x0 DUP1 REVERT JUMPDEST POP PUSH1 0x4 CALLDATASIZE LT PUSH2 0x2B JUMPI PUSH1 0x0 CALLDATALOAD PUSH1 0xE0 SHR DUP1 PUSH4 0x644A1370 EQ PUSH2 0x30 JUMPI JUMPDEST PUSH1 0x0 DUP1 REVERT JUMPDEST PUSH2 0x4A PUSH1 0x4 DUP1 CALLDATASIZE SUB DUP2 ADD SWAP1 PUSH2 0x45 SWAP2 SWAP1 PUSH2 0x20E JUMP JUMPDEST PUSH2 0x67 JUMP JUMPDEST PUSH1 0x40 MLOAD PUSH2 0x5E SWAP9 SWAP8 SWAP7 SWAP6 SWAP5 SWAP4 SWAP3 SWAP2 SWAP1 PUSH2 0x2A1 JUMP JUMPDEST PUSH1 0x40 MLOAD DUP1 SWAP2 SUB SWAP1 RETURN JUMPDEST PUSH1 0x1 PUSH1 0x20 MSTORE DUP1 PUSH1 0x0 MSTORE PUSH1 0x40 PUSH1 0x0 KECCAK256 PUSH1 0x0 SWAP2 POP SWAP1 POP DUP1 PUSH1 0x0 ADD PUSH1 0x0 SWAP1 SLOAD SWAP1 PUSH2 0x100 EXP SWAP1 DIV PUSH20 0xFFFFFFFFFFFFFFFFFFFFFFFFFFFFFFFFFFFFFFFF AND SWAP1 DUP1 PUSH1 0x1 ADD DUP1 SLOAD PUSH2 0xB0 SWAP1 PUSH2 0x3D6 JUMP JUMPDEST DUP1 PUSH1 0x1F ADD PUSH1 0x20 DUP1 SWAP2 DIV MUL PUSH1 0x20 ADD PUSH1 0x40 MLOAD SWAP1 DUP2 ADD PUSH1 0x40 MSTORE DUP1 SWAP3 SWAP2 SWAP1 DUP2 DUP2 MSTORE PUSH1 0x20 ADD DUP3 DUP1 SLOAD PUSH2 0xDC SWAP1 PUSH2 0x3D6 JUMP JUMPDEST DUP1 ISZERO PUSH2 0x129 JUMPI DUP1 PUSH1 0x1F LT PUSH2 0xFE JUMPI PUSH2 0x100 DUP1 DUP4 SLOAD DIV MUL DUP4 MSTORE SWAP2 PUSH1 0x20 ADD SWAP2 PUSH2 0x129 JUMP JUMPDEST DUP3 ADD SWAP2 SWAP1 PUSH1 0x0 MSTORE PUSH1 0x20 PUSH1 0x0 KECCAK256 SWAP1 JUMPDEST DUP2 SLOAD DUP2 MSTORE SWAP1 PUSH1 0x1 ADD SWAP1 PUSH1 0x20 ADD DUP1 DUP4 GT PUSH2 0x10C JUMPI DUP3 SWAP1 SUB PUSH1 0x1F AND DUP3 ADD SWAP2 JUMPDEST POP POP POP POP POP SWAP1 DUP1 PUSH1 0x2 ADD DUP1 SLOAD PUSH2 0x13E SWAP1 PUSH2 0x3D6 JUMP JUMPDEST DUP1 PUSH1 0x1F ADD PUSH1 0x20 DUP1 SWAP2 DIV MUL PUSH1 0x20 ADD PUSH1 0x40 MLOAD SWAP1 DUP2 ADD PUSH1 0x40 MSTORE DUP1 SWAP3 SWAP2 SWAP1 DUP2 DUP2 MSTORE PUSH1 0x20 ADD DUP3 DUP1 SLOAD PUSH2 0x16A SWAP1 PUSH2 0x3D6 JUMP JUMPDEST DUP1 ISZERO PUSH2 0x1B7 JUMPI DUP1 PUSH1 0x1F LT PUSH2 0x18C JUMPI PUSH2 0x100 DUP1 DUP4 SLOAD DIV MUL DUP4 MSTORE SWAP2 PUSH1 0x20 ADD SWAP2 PUSH2 0x1B7 JUMP JUMPDEST DUP3 ADD SWAP2 SWAP1 PUSH1 0x0 MSTORE PUSH1 0x20 PUSH1 0x0 KECCAK256 SWAP1 JUMPDEST DUP2 SLOAD DUP2 MSTORE SWAP1 PUSH1 0x1 ADD SWAP1 PUSH1 0x20 ADD DUP1 DUP4 GT PUSH2 0x19A JUMPI DUP3 SWAP1 SUB PUSH1 0x1F AND DUP3 ADD SWAP2 JUMPDEST POP POP POP POP POP SWAP1 DUP1 PUSH1 0x3 ADD PUSH1 0x0 SWAP1 SLOAD SWAP1 PUSH2 0x100 EXP SWAP1 DIV PUSH1 0xFF AND SWAP1 DUP1 PUSH1 0x3 ADD PUSH1 0x1 SWAP1 SLOAD SWAP1 PUSH2 0x100 EXP SWAP1 DIV PUSH1 0xFF AND SWAP1 DUP1 PUSH1 0x4 ADD SLOAD SWAP1 DUP1 PUSH1 0x5 ADD SLOAD SWAP1 DUP1 PUSH1 0x6 ADD SLOAD SWAP1 POP DUP9 JUMP JUMPDEST PUSH1 0x0 DUP2 CALLDATALOAD SWAP1 POP PUSH2 0x208 DUP2 PUSH2 0x44D JUMP JUMPDEST SWAP3 SWAP2 POP POP JUMP JUMPDEST PUSH1 0x0 PUSH1 0x20 DUP3 DUP5 SUB SLT ISZERO PUSH2 0x224 JUMPI PUSH2 0x223 PUSH2 0x437 JUMP JUMPDEST JUMPDEST PUSH1 0x0 PUSH2 0x232 DUP5 DUP3 DUP6 ADD PUSH2 0x1F9 JUMP JUMPDEST SWAP2 POP POP SWAP3 SWAP2 POP POP JUMP JUMPDEST PUSH2 0x244 DUP2 PUSH2 0x35B JUMP JUMPDEST DUP3 MSTORE POP POP JUMP JUMPDEST PUSH2 0x253 DUP2 PUSH2 0x36D JUMP JUMPDEST DUP3 MSTORE POP POP JUMP JUMPDEST PUSH1 0x0 PUSH2 0x264 DUP3 PUSH2 0x32D JUMP JUMPDEST PUSH2 0x26E DUP2 DUP6 PUSH2 0x338 JUMP JUMPDEST SWAP4 POP PUSH2 0x27E DUP2 DUP6 PUSH1 0x20 DUP7 ADD PUSH2 0x3A3 JUMP JUMPDEST PUSH2 0x287 DUP2 PUSH2 0x43C JUMP JUMPDEST DUP5 ADD SWAP2 POP POP SWAP3 SWAP2 POP POP JUMP JUMPDEST PUSH2 0x29B DUP2 PUSH2 0x399 JUMP JUMPDEST DUP3 MSTORE POP POP JUMP JUMPDEST PUSH1 0x0 PUSH2 0x100 DUP3 ADD SWAP1 POP PUSH2 0x2B7 PUSH1 0x0 DUP4 ADD DUP12 PUSH2 0x23B JUMP JUMPDEST DUP2 DUP2 SUB PUSH1 0x20 DUP4 ADD MSTORE PUSH2 0x2C9 DUP2 DUP11 PUSH2 0x259 JUMP JUMPDEST SWAP1 POP DUP2 DUP2 SUB PUSH1 0x40 DUP4 ADD MSTORE PUSH2 0x2DD DUP2 DUP10 PUSH2 0x259 JUMP JUMPDEST SWAP1 POP PUSH2 0x2EC PUSH1 0x60 DUP4 ADD DUP9 PUSH2 0x24A JUMP JUMPDEST PUSH2 0x2F9 PUSH1 0x80 DUP4 ADD DUP8 PUSH2 0x24A JUMP JUMPDEST PUSH2 0x306 PUSH1 0xA0 DUP4 ADD DUP7 PUSH2 0x292 JUMP JUMPDEST PUSH2 0x313 PUSH1 0xC0 DUP4 ADD DUP6 PUSH2 0x292 JUMP JUMPDEST PUSH2 0x320 PUSH1 0xE0 DUP4 ADD DUP5 PUSH2 0x292 JUMP JUMPDEST SWAP10 SWAP9 POP POP POP POP POP POP POP POP POP JUMP JUMPDEST PUSH1 0x0 DUP2 MLOAD SWAP1 POP SWAP2 SWAP1 POP JUMP JUMPDEST PUSH1 0x0 DUP3 DUP3 MSTORE PUSH1 0x20 DUP3 ADD SWAP1 POP SWAP3 SWAP2 POP POP JUMP JUMPDEST PUSH1 0x0 PUSH2 0x354 DUP3 PUSH2 0x379 JUMP JUMPDEST SWAP1 POP SWAP2 SWAP1 POP JUMP JUMPDEST PUSH1 0x0 PUSH2 0x366 DUP3 PUSH2 0x379 JUMP JUMPDEST SWAP1 POP SWAP2 SWAP1 POP JUMP JUMPDEST PUSH1 0x0 DUP2 ISZERO ISZERO SWAP1 POP SWAP2 SWAP1 POP JUMP JUMPDEST PUSH1 0x0 PUSH20 0xFFFFFFFFFFFFFFFFFFFFFFFFFFFFFFFFFFFFFFFF DUP3 AND SWAP1 POP SWAP2 SWAP1 POP JUMP JUMPDEST PUSH1 0x0 DUP2 SWAP1 POP SWAP2 SWAP1 POP JUMP JUMPDEST PUSH1 0x0 JUMPDEST DUP4 DUP2 LT ISZERO PUSH2 0x3C1 JUMPI DUP1 DUP3 ADD MLOAD DUP2 DUP5 ADD MSTORE PUSH1 0x20 DUP2 ADD SWAP1 POP PUSH2 0x3A6 JUMP JUMPDEST DUP4 DUP2 GT ISZERO PUSH2 0x3D0 JUMPI PUSH1 0x0 DUP5 DUP5 ADD MSTORE JUMPDEST POP POP POP POP JUMP JUMPDEST PUSH1 0x0 PUSH1 0x2 DUP3 DIV SWAP1 POP PUSH1 0x1 DUP3 AND DUP1 PUSH2 0x3EE JUMPI PUSH1 0x7F DUP3 AND SWAP2 POP JUMPDEST PUSH1 0x20 DUP3 LT DUP2 EQ ISZERO PUSH2 0x402 JUMPI PUSH2 0x401 PUSH2 0x408 JUMP JUMPDEST JUMPDEST POP SWAP2 SWAP1 POP JUMP JUMPDEST PUSH32 0x4E487B7100000000000000000000000000000000000000000000000000000000 PUSH1 0x0 MSTORE PUSH1 0x22 PUSH1 0x4 MSTORE PUSH1 0x24 PUSH1 0x0 REVERT JUMPDEST PUSH1 0x0 DUP1 REVERT JUMPDEST PUSH1 0x0 PUSH1 0x1F NOT PUSH1 0x1F DUP4 ADD AND SWAP1 POP SWAP2 SWAP1 POP JUMP JUMPDEST PUSH2 0x456 DUP2 PUSH2 0x349 JUMP JUMPDEST DUP2 EQ PUSH2 0x461 JUMPI PUSH1 0x0 DUP1 REVERT JUMPDEST POP JUMP INVALID LOG2 PUSH5 0x6970667358 0x22 SLT KECCAK256 MOD JUMP 0xDE TIMESTAMP 0xE9 0x1F PUSH17 0x21D106120F00466D620059D021D7F19095 PUSH31 0xAF85545A26630B64736F6C6343000807003300000000000000000000000000 "
				},
				"gasEstimates": {
					"creation": {
						"codeDepositCost": "235600",
						"executionCost": "24541",
						"totalCost": "260141"
					},
					"external": {
						"renters(address)": "infinite"
					}
				},
				"methodIdentifiers": {
					"renters(address)": "644a1370"
				}
			},
			"storageLayout": {
				"storage": [
					{
						"astId": 3,
						"contract": "contracts/Automobchain.sol:Automobchain",
						"label": "owner",
						"offset": 0,
						"slot": "0",
						"type": "t_address"
					},
					{
						"astId": 34,
						"contract": "contracts/Automobchain.sol:Automobchain",
						"label": "renters",
						"offset": 0,
						"slot": "1",
						"type": "t_mapping(t_address,t_struct(Renter)29_storage)"
					}
				],
				"types": {
					"t_address": {
						"encoding": "inplace",
						"label": "address",
						"numberOfBytes": "20"
					},
					"t_address_payable": {
						"encoding": "inplace",
						"label": "address payable",
						"numberOfBytes": "20"
					},
					"t_bool": {
						"encoding": "inplace",
						"label": "bool",
						"numberOfBytes": "1"
					},
					"t_mapping(t_address,t_struct(Renter)29_storage)": {
						"encoding": "mapping",
						"key": "t_address",
						"label": "mapping(address => struct Automobchain.Renter)",
						"numberOfBytes": "32",
						"value": "t_struct(Renter)29_storage"
					},
					"t_string_storage": {
						"encoding": "bytes",
						"label": "string",
						"numberOfBytes": "32"
					},
					"t_struct(Renter)29_storage": {
						"encoding": "inplace",
						"label": "struct Automobchain.Renter",
						"members": [
							{
								"astId": 14,
								"contract": "contracts/Automobchain.sol:Automobchain",
								"label": "walletaddress",
								"offset": 0,
								"slot": "0",
								"type": "t_address_payable"
							},
							{
								"astId": 16,
								"contract": "contracts/Automobchain.sol:Automobchain",
								"label": "firstName",
								"offset": 0,
								"slot": "1",
								"type": "t_string_storage"
							},
							{
								"astId": 18,
								"contract": "contracts/Automobchain.sol:Automobchain",
								"label": "lastName",
								"offset": 0,
								"slot": "2",
								"type": "t_string_storage"
							},
							{
								"astId": 20,
								"contract": "contracts/Automobchain.sol:Automobchain",
								"label": "canRent",
								"offset": 0,
								"slot": "3",
								"type": "t_bool"
							},
							{
								"astId": 22,
								"contract": "contracts/Automobchain.sol:Automobchain",
								"label": "active",
								"offset": 1,
								"slot": "3",
								"type": "t_bool"
							},
							{
								"astId": 24,
								"contract": "contracts/Automobchain.sol:Automobchain",
								"label": "balance",
								"offset": 0,
								"slot": "4",
								"type": "t_uint256"
							},
							{
								"astId": 26,
								"contract": "contracts/Automobchain.sol:Automobchain",
								"label": "start",
								"offset": 0,
								"slot": "5",
								"type": "t_uint256"
							},
							{
								"astId": 28,
								"contract": "contracts/Automobchain.sol:Automobchain",
								"label": "end",
								"offset": 0,
								"slot": "6",
								"type": "t_uint256"
							}
						],
						"numberOfBytes": "224"
					},
					"t_uint256": {
						"encoding": "inplace",
						"label": "uint256",
						"numberOfBytes": "32"
					}
				}
			},
			"userdoc": {
				"kind": "user",
				"methods": {},
				"version": 1
			}
		}
	}
}