{
	"contracts/Automobchain.sol": {
		"Automobchain": {
			"abi": [
				{
					"inputs": [],
					"stateMutability": "nonpayable",
					"type": "constructor"
				},
				{
					"inputs": [
						{
							"internalType": "address payable",
							"name": "walletAddress",
							"type": "address"
						},
						{
							"internalType": "string",
							"name": "firstName",
							"type": "string"
						},
						{
							"internalType": "string",
							"name": "lastName",
							"type": "string"
						},
						{
							"internalType": "bool",
							"name": "canRent",
							"type": "bool"
						},
						{
							"internalType": "bool",
							"name": "active",
							"type": "bool"
						},
						{
							"internalType": "uint256",
							"name": "balance",
							"type": "uint256"
						},
						{
							"internalType": "uint256",
							"name": "due",
							"type": "uint256"
						},
						{
							"internalType": "uint256",
							"name": "start",
							"type": "uint256"
						},
						{
							"internalType": "uint256",
							"name": "end",
							"type": "uint256"
						}
					],
					"name": "addRenter",
					"outputs": [],
					"stateMutability": "nonpayable",
					"type": "function"
				},
				{
					"inputs": [
						{
							"internalType": "address",
							"name": "walletAddress",
							"type": "address"
						}
					],
					"name": "checkIn",
					"outputs": [],
					"stateMutability": "nonpayable",
					"type": "function"
				},
				{
					"inputs": [
						{
							"internalType": "address",
							"name": "walletAddress",
							"type": "address"
						}
					],
					"name": "checkOut",
					"outputs": [],
					"stateMutability": "nonpayable",
					"type": "function"
				},
				{
					"inputs": [
						{
							"internalType": "address",
							"name": "walletAddress",
							"type": "address"
						}
					],
					"name": "getTotalDuration",
					"outputs": [
						{
							"internalType": "uint256",
							"name": "",
							"type": "uint256"
						}
					],
					"stateMutability": "nonpayable",
					"type": "function"
				},
				{
					"inputs": [
						{
							"internalType": "address",
							"name": "",
							"type": "address"
						}
					],
					"name": "renters",
					"outputs": [
						{
							"internalType": "address payable",
							"name": "walletAddress",
							"type": "address"
						},
						{
							"internalType": "string",
							"name": "firstName",
							"type": "string"
						},
						{
							"internalType": "string",
							"name": "lastName",
							"type": "string"
						},
						{
							"internalType": "bool",
							"name": "canRent",
							"type": "bool"
						},
						{
							"internalType": "bool",
							"name": "active",
							"type": "bool"
						},
						{
							"internalType": "uint256",
							"name": "balance",
							"type": "uint256"
						},
						{
							"internalType": "uint256",
							"name": "due",
							"type": "uint256"
						},
						{
							"internalType": "uint256",
							"name": "start",
							"type": "uint256"
						},
						{
							"internalType": "uint256",
							"name": "end",
							"type": "uint256"
						}
					],
					"stateMutability": "view",
					"type": "function"
				}
			],
			"devdoc": {
				"kind": "dev",
				"methods": {},
				"version": 1
			},
			"evm": {
				"assembly": "    /* \"contracts/Automobchain.sol\":66:1790  contract Automobchain {\r... */\n  mstore(0x40, 0x80)\n    /* \"contracts/Automobchain.sol\":117:168  constructor() {\r... */\n  callvalue\n  dup1\n  iszero\n  tag_1\n  jumpi\n  0x00\n  dup1\n  revert\ntag_1:\n  pop\n    /* \"contracts/Automobchain.sol\":150:160  msg.sender */\n  caller\n    /* \"contracts/Automobchain.sol\":142:147  owner */\n  0x00\n  dup1\n    /* \"contracts/Automobchain.sol\":142:160  owner = msg.sender */\n  0x0100\n  exp\n  dup2\n  sload\n  dup2\n  0xffffffffffffffffffffffffffffffffffffffff\n  mul\n  not\n  and\n  swap1\n  dup4\n  0xffffffffffffffffffffffffffffffffffffffff\n  and\n  mul\n  or\n  swap1\n  sstore\n  pop\n    /* \"contracts/Automobchain.sol\":66:1790  contract Automobchain {\r... */\n  dataSize(sub_0)\n  dup1\n  dataOffset(sub_0)\n  0x00\n  codecopy\n  0x00\n  return\nstop\n\nsub_0: assembly {\n        /* \"contracts/Automobchain.sol\":66:1790  contract Automobchain {\r... */\n      mstore(0x40, 0x80)\n      callvalue\n      dup1\n      iszero\n      tag_1\n      jumpi\n      0x00\n      dup1\n      revert\n    tag_1:\n      pop\n      jumpi(tag_2, lt(calldatasize, 0x04))\n      shr(0xe0, calldataload(0x00))\n      dup1\n      0x41ba6e89\n      eq\n      tag_3\n      jumpi\n      dup1\n      0x5e649727\n      eq\n      tag_4\n      jumpi\n      dup1\n      0x644a1370\n      eq\n      tag_5\n      jumpi\n      dup1\n      0x8d23caa0\n      eq\n      tag_6\n      jumpi\n      dup1\n      0xd9a59e33\n      eq\n      tag_7\n      jumpi\n    tag_2:\n      0x00\n      dup1\n      revert\n        /* \"contracts/Automobchain.sol\":1442:1703  function getTotalDuration(address walletAddress) public returns(uint) {\r... */\n    tag_3:\n      tag_8\n      0x04\n      dup1\n      calldatasize\n      sub\n      dup2\n      add\n      swap1\n      tag_9\n      swap2\n      swap1\n      tag_10\n      jump\t// in\n    tag_9:\n      tag_11\n      jump\t// in\n    tag_8:\n      mload(0x40)\n      tag_12\n      swap2\n      swap1\n      tag_13\n      jump\t// in\n    tag_12:\n      mload(0x40)\n      dup1\n      swap2\n      sub\n      swap1\n      return\n        /* \"contracts/Automobchain.sol\":508:822  function addRenter(address payable walletAddress, string memory firstName, string memory lastName, bool canRent, bool active, uint balance, uint due, uint\r... */\n    tag_4:\n      tag_14\n      0x04\n      dup1\n      calldatasize\n      sub\n      dup2\n      add\n      swap1\n      tag_15\n      swap2\n      swap1\n      tag_16\n      jump\t// in\n    tag_15:\n      tag_17\n      jump\t// in\n    tag_14:\n      stop\n        /* \"contracts/Automobchain.sol\":457:499  mapping (address => Renter) public renters */\n    tag_5:\n      tag_18\n      0x04\n      dup1\n      calldatasize\n      sub\n      dup2\n      add\n      swap1\n      tag_19\n      swap2\n      swap1\n      tag_10\n      jump\t// in\n    tag_19:\n      tag_20\n      jump\t// in\n    tag_18:\n      mload(0x40)\n      tag_21\n      swap10\n      swap9\n      swap8\n      swap7\n      swap6\n      swap5\n      swap4\n      swap3\n      swap2\n      swap1\n      tag_22\n      jump\t// in\n    tag_21:\n      mload(0x40)\n      dup1\n      swap2\n      sub\n      swap1\n      return\n        /* \"contracts/Automobchain.sol\":851:1059  function checkOut(address walletAddress) public{\r... */\n    tag_6:\n      tag_23\n      0x04\n      dup1\n      calldatasize\n      sub\n      dup2\n      add\n      swap1\n      tag_24\n      swap2\n      swap1\n      tag_10\n      jump\t// in\n    tag_24:\n      tag_25\n      jump\t// in\n    tag_23:\n      stop\n        /* \"contracts/Automobchain.sol\":1089:1276  function checkIn(address walletAddress) public{\r... */\n    tag_7:\n      tag_26\n      0x04\n      dup1\n      calldatasize\n      sub\n      dup2\n      add\n      swap1\n      tag_27\n      swap2\n      swap1\n      tag_10\n      jump\t// in\n    tag_27:\n      tag_28\n      jump\t// in\n    tag_26:\n      stop\n        /* \"contracts/Automobchain.sol\":1442:1703  function getTotalDuration(address walletAddress) public returns(uint) {\r... */\n    tag_11:\n        /* \"contracts/Automobchain.sol\":1506:1510  uint */\n      0x00\n        /* \"contracts/Automobchain.sol\":1523:1536  uint timespan */\n      dup1\n        /* \"contracts/Automobchain.sol\":1539:1611  renterTimespan(renters[walletAddress].start, renters[walletAddress].end) */\n      tag_30\n        /* \"contracts/Automobchain.sol\":1554:1561  renters */\n      0x01\n        /* \"contracts/Automobchain.sol\":1554:1576  renters[walletAddress] */\n      0x00\n        /* \"contracts/Automobchain.sol\":1562:1575  walletAddress */\n      dup6\n        /* \"contracts/Automobchain.sol\":1554:1576  renters[walletAddress] */\n      0xffffffffffffffffffffffffffffffffffffffff\n      and\n      0xffffffffffffffffffffffffffffffffffffffff\n      and\n      dup2\n      mstore\n      0x20\n      add\n      swap1\n      dup2\n      mstore\n      0x20\n      add\n      0x00\n      keccak256\n        /* \"contracts/Automobchain.sol\":1554:1582  renters[walletAddress].start */\n      0x06\n      add\n      sload\n        /* \"contracts/Automobchain.sol\":1584:1591  renters */\n      0x01\n        /* \"contracts/Automobchain.sol\":1584:1606  renters[walletAddress] */\n      0x00\n        /* \"contracts/Automobchain.sol\":1592:1605  walletAddress */\n      dup7\n        /* \"contracts/Automobchain.sol\":1584:1606  renters[walletAddress] */\n      0xffffffffffffffffffffffffffffffffffffffff\n      and\n      0xffffffffffffffffffffffffffffffffffffffff\n      and\n      dup2\n      mstore\n      0x20\n      add\n      swap1\n      dup2\n      mstore\n      0x20\n      add\n      0x00\n      keccak256\n        /* \"contracts/Automobchain.sol\":1584:1610  renters[walletAddress].end */\n      0x07\n      add\n      sload\n        /* \"contracts/Automobchain.sol\":1539:1553  renterTimespan */\n      tag_31\n        /* \"contracts/Automobchain.sol\":1539:1611  renterTimespan(renters[walletAddress].start, renters[walletAddress].end) */\n      jump\t// in\n    tag_30:\n        /* \"contracts/Automobchain.sol\":1523:1611  uint timespan = renterTimespan(renters[walletAddress].start, renters[walletAddress].end) */\n      swap1\n      pop\n        /* \"contracts/Automobchain.sol\":1622:1644  uint timespanInMinutes */\n      0x00\n        /* \"contracts/Automobchain.sol\":1658:1660  60 */\n      0x3c\n        /* \"contracts/Automobchain.sol\":1647:1655  timespan */\n      dup3\n        /* \"contracts/Automobchain.sol\":1647:1660  timespan / 60 */\n      tag_32\n      swap2\n      swap1\n      tag_33\n      jump\t// in\n    tag_32:\n        /* \"contracts/Automobchain.sol\":1622:1660  uint timespanInMinutes = timespan / 60 */\n      swap1\n      pop\n        /* \"contracts/Automobchain.sol\":1678:1695  timespanInMinutes */\n      dup1\n        /* \"contracts/Automobchain.sol\":1671:1695  return timespanInMinutes */\n      swap3\n      pop\n      pop\n      pop\n        /* \"contracts/Automobchain.sol\":1442:1703  function getTotalDuration(address walletAddress) public returns(uint) {\r... */\n      swap2\n      swap1\n      pop\n      jump\t// out\n        /* \"contracts/Automobchain.sol\":508:822  function addRenter(address payable walletAddress, string memory firstName, string memory lastName, bool canRent, bool active, uint balance, uint due, uint\r... */\n    tag_17:\n        /* \"contracts/Automobchain.sol\":729:814  Renter(walletAddress, firstName, lastName, canRent, active, balance, due, start, end) */\n      mload(0x40)\n      dup1\n      0x0120\n      add\n      0x40\n      mstore\n      dup1\n        /* \"contracts/Automobchain.sol\":736:749  walletAddress */\n      dup11\n        /* \"contracts/Automobchain.sol\":729:814  Renter(walletAddress, firstName, lastName, canRent, active, balance, due, start, end) */\n      0xffffffffffffffffffffffffffffffffffffffff\n      and\n      dup2\n      mstore\n      0x20\n      add\n        /* \"contracts/Automobchain.sol\":751:760  firstName */\n      dup10\n        /* \"contracts/Automobchain.sol\":729:814  Renter(walletAddress, firstName, lastName, canRent, active, balance, due, start, end) */\n      dup2\n      mstore\n      0x20\n      add\n        /* \"contracts/Automobchain.sol\":762:770  lastName */\n      dup9\n        /* \"contracts/Automobchain.sol\":729:814  Renter(walletAddress, firstName, lastName, canRent, active, balance, due, start, end) */\n      dup2\n      mstore\n      0x20\n      add\n        /* \"contracts/Automobchain.sol\":772:779  canRent */\n      dup8\n        /* \"contracts/Automobchain.sol\":729:814  Renter(walletAddress, firstName, lastName, canRent, active, balance, due, start, end) */\n      iszero\n      iszero\n      dup2\n      mstore\n      0x20\n      add\n        /* \"contracts/Automobchain.sol\":781:787  active */\n      dup7\n        /* \"contracts/Automobchain.sol\":729:814  Renter(walletAddress, firstName, lastName, canRent, active, balance, due, start, end) */\n      iszero\n      iszero\n      dup2\n      mstore\n      0x20\n      add\n        /* \"contracts/Automobchain.sol\":789:796  balance */\n      dup6\n        /* \"contracts/Automobchain.sol\":729:814  Renter(walletAddress, firstName, lastName, canRent, active, balance, due, start, end) */\n      dup2\n      mstore\n      0x20\n      add\n        /* \"contracts/Automobchain.sol\":798:801  due */\n      dup5\n        /* \"contracts/Automobchain.sol\":729:814  Renter(walletAddress, firstName, lastName, canRent, active, balance, due, start, end) */\n      dup2\n      mstore\n      0x20\n      add\n        /* \"contracts/Automobchain.sol\":803:808  start */\n      dup4\n        /* \"contracts/Automobchain.sol\":729:814  Renter(walletAddress, firstName, lastName, canRent, active, balance, due, start, end) */\n      dup2\n      mstore\n      0x20\n      add\n        /* \"contracts/Automobchain.sol\":810:813  end */\n      dup3\n        /* \"contracts/Automobchain.sol\":729:814  Renter(walletAddress, firstName, lastName, canRent, active, balance, due, start, end) */\n      dup2\n      mstore\n      pop\n        /* \"contracts/Automobchain.sol\":704:711  renters */\n      0x01\n        /* \"contracts/Automobchain.sol\":704:726  renters[walletAddress] */\n      0x00\n        /* \"contracts/Automobchain.sol\":712:725  walletAddress */\n      dup12\n        /* \"contracts/Automobchain.sol\":704:726  renters[walletAddress] */\n      0xffffffffffffffffffffffffffffffffffffffff\n      and\n      0xffffffffffffffffffffffffffffffffffffffff\n      and\n      dup2\n      mstore\n      0x20\n      add\n      swap1\n      dup2\n      mstore\n      0x20\n      add\n      0x00\n      keccak256\n        /* \"contracts/Automobchain.sol\":704:814  renters[walletAddress] = Renter(walletAddress, firstName, lastName, canRent, active, balance, due, start, end) */\n      0x00\n      dup3\n      add\n      mload\n      dup2\n      0x00\n      add\n      exp(0x0100, 0x00)\n      dup2\n      sload\n      dup2\n      0xffffffffffffffffffffffffffffffffffffffff\n      mul\n      not\n      and\n      swap1\n      dup4\n      0xffffffffffffffffffffffffffffffffffffffff\n      and\n      mul\n      or\n      swap1\n      sstore\n      pop\n      0x20\n      dup3\n      add\n      mload\n      dup2\n      0x01\n      add\n      swap1\n      dup1\n      mload\n      swap1\n      0x20\n      add\n      swap1\n      tag_35\n      swap3\n      swap2\n      swap1\n      tag_36\n      jump\t// in\n    tag_35:\n      pop\n      0x40\n      dup3\n      add\n      mload\n      dup2\n      0x02\n      add\n      swap1\n      dup1\n      mload\n      swap1\n      0x20\n      add\n      swap1\n      tag_37\n      swap3\n      swap2\n      swap1\n      tag_36\n      jump\t// in\n    tag_37:\n      pop\n      0x60\n      dup3\n      add\n      mload\n      dup2\n      0x03\n      add\n      exp(0x0100, 0x00)\n      dup2\n      sload\n      dup2\n      0xff\n      mul\n      not\n      and\n      swap1\n      dup4\n      iszero\n      iszero\n      mul\n      or\n      swap1\n      sstore\n      pop\n      0x80\n      dup3\n      add\n      mload\n      dup2\n      0x03\n      add\n      exp(0x0100, 0x01)\n      dup2\n      sload\n      dup2\n      0xff\n      mul\n      not\n      and\n      swap1\n      dup4\n      iszero\n      iszero\n      mul\n      or\n      swap1\n      sstore\n      pop\n      0xa0\n      dup3\n      add\n      mload\n      dup2\n      0x04\n      add\n      sstore\n      0xc0\n      dup3\n      add\n      mload\n      dup2\n      0x05\n      add\n      sstore\n      0xe0\n      dup3\n      add\n      mload\n      dup2\n      0x06\n      add\n      sstore\n      0x0100\n      dup3\n      add\n      mload\n      dup2\n      0x07\n      add\n      sstore\n      swap1\n      pop\n      pop\n        /* \"contracts/Automobchain.sol\":508:822  function addRenter(address payable walletAddress, string memory firstName, string memory lastName, bool canRent, bool active, uint balance, uint due, uint\r... */\n      pop\n      pop\n      pop\n      pop\n      pop\n      pop\n      pop\n      pop\n      pop\n      jump\t// out\n        /* \"contracts/Automobchain.sol\":457:499  mapping (address => Renter) public renters */\n    tag_20:\n      mstore(0x20, 0x01)\n      dup1\n      0x00\n      mstore\n      keccak256(0x00, 0x40)\n      0x00\n      swap2\n      pop\n      swap1\n      pop\n      dup1\n      0x00\n      add\n      0x00\n      swap1\n      sload\n      swap1\n      0x0100\n      exp\n      swap1\n      div\n      0xffffffffffffffffffffffffffffffffffffffff\n      and\n      swap1\n      dup1\n      0x01\n      add\n      dup1\n      sload\n      tag_38\n      swap1\n      tag_39\n      jump\t// in\n    tag_38:\n      dup1\n      0x1f\n      add\n      0x20\n      dup1\n      swap2\n      div\n      mul\n      0x20\n      add\n      mload(0x40)\n      swap1\n      dup2\n      add\n      0x40\n      mstore\n      dup1\n      swap3\n      swap2\n      swap1\n      dup2\n      dup2\n      mstore\n      0x20\n      add\n      dup3\n      dup1\n      sload\n      tag_40\n      swap1\n      tag_39\n      jump\t// in\n    tag_40:\n      dup1\n      iszero\n      tag_41\n      jumpi\n      dup1\n      0x1f\n      lt\n      tag_42\n      jumpi\n      0x0100\n      dup1\n      dup4\n      sload\n      div\n      mul\n      dup4\n      mstore\n      swap2\n      0x20\n      add\n      swap2\n      jump(tag_41)\n    tag_42:\n      dup3\n      add\n      swap2\n      swap1\n      0x00\n      mstore\n      keccak256(0x00, 0x20)\n      swap1\n    tag_43:\n      dup2\n      sload\n      dup2\n      mstore\n      swap1\n      0x01\n      add\n      swap1\n      0x20\n      add\n      dup1\n      dup4\n      gt\n      tag_43\n      jumpi\n      dup3\n      swap1\n      sub\n      0x1f\n      and\n      dup3\n      add\n      swap2\n    tag_41:\n      pop\n      pop\n      pop\n      pop\n      pop\n      swap1\n      dup1\n      0x02\n      add\n      dup1\n      sload\n      tag_44\n      swap1\n      tag_39\n      jump\t// in\n    tag_44:\n      dup1\n      0x1f\n      add\n      0x20\n      dup1\n      swap2\n      div\n      mul\n      0x20\n      add\n      mload(0x40)\n      swap1\n      dup2\n      add\n      0x40\n      mstore\n      dup1\n      swap3\n      swap2\n      swap1\n      dup2\n      dup2\n      mstore\n      0x20\n      add\n      dup3\n      dup1\n      sload\n      tag_45\n      swap1\n      tag_39\n      jump\t// in\n    tag_45:\n      dup1\n      iszero\n      tag_46\n      jumpi\n      dup1\n      0x1f\n      lt\n      tag_47\n      jumpi\n      0x0100\n      dup1\n      dup4\n      sload\n      div\n      mul\n      dup4\n      mstore\n      swap2\n      0x20\n      add\n      swap2\n      jump(tag_46)\n    tag_47:\n      dup3\n      add\n      swap2\n      swap1\n      0x00\n      mstore\n      keccak256(0x00, 0x20)\n      swap1\n    tag_48:\n      dup2\n      sload\n      dup2\n      mstore\n      swap1\n      0x01\n      add\n      swap1\n      0x20\n      add\n      dup1\n      dup4\n      gt\n      tag_48\n      jumpi\n      dup3\n      swap1\n      sub\n      0x1f\n      and\n      dup3\n      add\n      swap2\n    tag_46:\n      pop\n      pop\n      pop\n      pop\n      pop\n      swap1\n      dup1\n      0x03\n      add\n      0x00\n      swap1\n      sload\n      swap1\n      0x0100\n      exp\n      swap1\n      div\n      0xff\n      and\n      swap1\n      dup1\n      0x03\n      add\n      0x01\n      swap1\n      sload\n      swap1\n      0x0100\n      exp\n      swap1\n      div\n      0xff\n      and\n      swap1\n      dup1\n      0x04\n      add\n      sload\n      swap1\n      dup1\n      0x05\n      add\n      sload\n      swap1\n      dup1\n      0x06\n      add\n      sload\n      swap1\n      dup1\n      0x07\n      add\n      sload\n      swap1\n      pop\n      dup10\n      jump\t// out\n        /* \"contracts/Automobchain.sol\":851:1059  function checkOut(address walletAddress) public{\r... */\n    tag_25:\n        /* \"contracts/Automobchain.sol\":941:945  true */\n      0x01\n        /* \"contracts/Automobchain.sol\":909:916  renters */\n      dup1\n        /* \"contracts/Automobchain.sol\":909:931  renters[walletAddress] */\n      0x00\n        /* \"contracts/Automobchain.sol\":917:930  walletAddress */\n      dup4\n        /* \"contracts/Automobchain.sol\":909:931  renters[walletAddress] */\n      0xffffffffffffffffffffffffffffffffffffffff\n      and\n      0xffffffffffffffffffffffffffffffffffffffff\n      and\n      dup2\n      mstore\n      0x20\n      add\n      swap1\n      dup2\n      mstore\n      0x20\n      add\n      0x00\n      keccak256\n        /* \"contracts/Automobchain.sol\":909:938  renters[walletAddress].active */\n      0x03\n      add\n      0x01\n        /* \"contracts/Automobchain.sol\":909:945  renters[walletAddress].active = true */\n      0x0100\n      exp\n      dup2\n      sload\n      dup2\n      0xff\n      mul\n      not\n      and\n      swap1\n      dup4\n      iszero\n      iszero\n      mul\n      or\n      swap1\n      sstore\n      pop\n        /* \"contracts/Automobchain.sol\":987:1002  block.timestamp */\n      timestamp\n        /* \"contracts/Automobchain.sol\":956:963  renters */\n      0x01\n        /* \"contracts/Automobchain.sol\":956:978  renters[walletAddress] */\n      0x00\n        /* \"contracts/Automobchain.sol\":964:977  walletAddress */\n      dup4\n        /* \"contracts/Automobchain.sol\":956:978  renters[walletAddress] */\n      0xffffffffffffffffffffffffffffffffffffffff\n      and\n      0xffffffffffffffffffffffffffffffffffffffff\n      and\n      dup2\n      mstore\n      0x20\n      add\n      swap1\n      dup2\n      mstore\n      0x20\n      add\n      0x00\n      keccak256\n        /* \"contracts/Automobchain.sol\":956:984  renters[walletAddress].start */\n      0x06\n      add\n        /* \"contracts/Automobchain.sol\":956:1002  renters[walletAddress].start = block.timestamp */\n      dup2\n      swap1\n      sstore\n      pop\n        /* \"contracts/Automobchain.sol\":1046:1051  false */\n      0x00\n        /* \"contracts/Automobchain.sol\":1013:1020  renters */\n      0x01\n        /* \"contracts/Automobchain.sol\":1013:1035  renters[walletAddress] */\n      0x00\n        /* \"contracts/Automobchain.sol\":1021:1034  walletAddress */\n      dup4\n        /* \"contracts/Automobchain.sol\":1013:1035  renters[walletAddress] */\n      0xffffffffffffffffffffffffffffffffffffffff\n      and\n      0xffffffffffffffffffffffffffffffffffffffff\n      and\n      dup2\n      mstore\n      0x20\n      add\n      swap1\n      dup2\n      mstore\n      0x20\n      add\n      0x00\n      keccak256\n        /* \"contracts/Automobchain.sol\":1013:1043  renters[walletAddress].canRent */\n      0x03\n      add\n      0x00\n        /* \"contracts/Automobchain.sol\":1013:1051  renters[walletAddress].canRent = false */\n      0x0100\n      exp\n      dup2\n      sload\n      dup2\n      0xff\n      mul\n      not\n      and\n      swap1\n      dup4\n      iszero\n      iszero\n      mul\n      or\n      swap1\n      sstore\n      pop\n        /* \"contracts/Automobchain.sol\":851:1059  function checkOut(address walletAddress) public{\r... */\n      pop\n      jump\t// out\n        /* \"contracts/Automobchain.sol\":1089:1276  function checkIn(address walletAddress) public{\r... */\n    tag_28:\n        /* \"contracts/Automobchain.sol\":1178:1183  false */\n      0x00\n        /* \"contracts/Automobchain.sol\":1146:1153  renters */\n      0x01\n        /* \"contracts/Automobchain.sol\":1146:1168  renters[walletAddress] */\n      0x00\n        /* \"contracts/Automobchain.sol\":1154:1167  walletAddress */\n      dup4\n        /* \"contracts/Automobchain.sol\":1146:1168  renters[walletAddress] */\n      0xffffffffffffffffffffffffffffffffffffffff\n      and\n      0xffffffffffffffffffffffffffffffffffffffff\n      and\n      dup2\n      mstore\n      0x20\n      add\n      swap1\n      dup2\n      mstore\n      0x20\n      add\n      0x00\n      keccak256\n        /* \"contracts/Automobchain.sol\":1146:1175  renters[walletAddress].active */\n      0x03\n      add\n      0x01\n        /* \"contracts/Automobchain.sol\":1146:1183  renters[walletAddress].active = false */\n      0x0100\n      exp\n      dup2\n      sload\n      dup2\n      0xff\n      mul\n      not\n      and\n      swap1\n      dup4\n      iszero\n      iszero\n      mul\n      or\n      swap1\n      sstore\n      pop\n        /* \"contracts/Automobchain.sol\":1223:1238  block.timestamp */\n      timestamp\n        /* \"contracts/Automobchain.sol\":1194:1201  renters */\n      0x01\n        /* \"contracts/Automobchain.sol\":1194:1216  renters[walletAddress] */\n      0x00\n        /* \"contracts/Automobchain.sol\":1202:1215  walletAddress */\n      dup4\n        /* \"contracts/Automobchain.sol\":1194:1216  renters[walletAddress] */\n      0xffffffffffffffffffffffffffffffffffffffff\n      and\n      0xffffffffffffffffffffffffffffffffffffffff\n      and\n      dup2\n      mstore\n      0x20\n      add\n      swap1\n      dup2\n      mstore\n      0x20\n      add\n      0x00\n      keccak256\n        /* \"contracts/Automobchain.sol\":1194:1220  renters[walletAddress].end */\n      0x07\n      add\n        /* \"contracts/Automobchain.sol\":1194:1238  renters[walletAddress].end = block.timestamp */\n      dup2\n      swap1\n      sstore\n      pop\n        /* \"contracts/Automobchain.sol\":1089:1276  function checkIn(address walletAddress) public{\r... */\n      pop\n      jump\t// out\n        /* \"contracts/Automobchain.sol\":1321:1434  function renterTimespan(uint start, uint end) internal pure returns (uint) {\r... */\n    tag_31:\n        /* \"contracts/Automobchain.sol\":1390:1394  uint */\n      0x00\n        /* \"contracts/Automobchain.sol\":1420:1425  start */\n      dup3\n        /* \"contracts/Automobchain.sol\":1414:1417  end */\n      dup3\n        /* \"contracts/Automobchain.sol\":1414:1425  end - start */\n      tag_52\n      swap2\n      swap1\n      tag_53\n      jump\t// in\n    tag_52:\n        /* \"contracts/Automobchain.sol\":1407:1425  return end - start */\n      swap1\n      pop\n        /* \"contracts/Automobchain.sol\":1321:1434  function renterTimespan(uint start, uint end) internal pure returns (uint) {\r... */\n      swap3\n      swap2\n      pop\n      pop\n      jump\t// out\n    tag_36:\n      dup3\n      dup1\n      sload\n      tag_54\n      swap1\n      tag_39\n      jump\t// in\n    tag_54:\n      swap1\n      0x00\n      mstore\n      keccak256(0x00, 0x20)\n      swap1\n      0x1f\n      add\n      0x20\n      swap1\n      div\n      dup2\n      add\n      swap3\n      dup3\n      tag_56\n      jumpi\n      0x00\n      dup6\n      sstore\n      jump(tag_55)\n    tag_56:\n      dup3\n      0x1f\n      lt\n      tag_57\n      jumpi\n      dup1\n      mload\n      not(0xff)\n      and\n      dup4\n      dup1\n      add\n      or\n      dup6\n      sstore\n      jump(tag_55)\n    tag_57:\n      dup3\n      dup1\n      add\n      0x01\n      add\n      dup6\n      sstore\n      dup3\n      iszero\n      tag_55\n      jumpi\n      swap2\n      dup3\n      add\n    tag_58:\n      dup3\n      dup2\n      gt\n      iszero\n      tag_59\n      jumpi\n      dup3\n      mload\n      dup3\n      sstore\n      swap2\n      0x20\n      add\n      swap2\n      swap1\n      0x01\n      add\n      swap1\n      jump(tag_58)\n    tag_59:\n    tag_55:\n      pop\n      swap1\n      pop\n      tag_60\n      swap2\n      swap1\n      tag_61\n      jump\t// in\n    tag_60:\n      pop\n      swap1\n      jump\t// out\n    tag_61:\n    tag_62:\n      dup1\n      dup3\n      gt\n      iszero\n      tag_63\n      jumpi\n      0x00\n      dup2\n      0x00\n      swap1\n      sstore\n      pop\n      0x01\n      add\n      jump(tag_62)\n    tag_63:\n      pop\n      swap1\n      jump\t// out\n        /* \"#utility.yul\":7:419   */\n    tag_65:\n        /* \"#utility.yul\":85:90   */\n      0x00\n        /* \"#utility.yul\":110:176   */\n      tag_67\n        /* \"#utility.yul\":126:175   */\n      tag_68\n        /* \"#utility.yul\":168:174   */\n      dup5\n        /* \"#utility.yul\":126:175   */\n      tag_69\n      jump\t// in\n    tag_68:\n        /* \"#utility.yul\":110:176   */\n      tag_70\n      jump\t// in\n    tag_67:\n        /* \"#utility.yul\":101:176   */\n      swap1\n      pop\n        /* \"#utility.yul\":199:205   */\n      dup3\n        /* \"#utility.yul\":192:197   */\n      dup2\n        /* \"#utility.yul\":185:206   */\n      mstore\n        /* \"#utility.yul\":237:241   */\n      0x20\n        /* \"#utility.yul\":230:235   */\n      dup2\n        /* \"#utility.yul\":226:242   */\n      add\n        /* \"#utility.yul\":275:278   */\n      dup5\n        /* \"#utility.yul\":266:272   */\n      dup5\n        /* \"#utility.yul\":261:264   */\n      dup5\n        /* \"#utility.yul\":257:273   */\n      add\n        /* \"#utility.yul\":254:279   */\n      gt\n        /* \"#utility.yul\":251:363   */\n      iszero\n      tag_71\n      jumpi\n        /* \"#utility.yul\":282:361   */\n      tag_72\n      tag_73\n      jump\t// in\n    tag_72:\n        /* \"#utility.yul\":251:363   */\n    tag_71:\n        /* \"#utility.yul\":372:413   */\n      tag_74\n        /* \"#utility.yul\":406:412   */\n      dup5\n        /* \"#utility.yul\":401:404   */\n      dup3\n        /* \"#utility.yul\":396:399   */\n      dup6\n        /* \"#utility.yul\":372:413   */\n      tag_75\n      jump\t// in\n    tag_74:\n        /* \"#utility.yul\":91:419   */\n      pop\n        /* \"#utility.yul\":7:419   */\n      swap4\n      swap3\n      pop\n      pop\n      pop\n      jump\t// out\n        /* \"#utility.yul\":425:564   */\n    tag_76:\n        /* \"#utility.yul\":471:476   */\n      0x00\n        /* \"#utility.yul\":509:515   */\n      dup2\n        /* \"#utility.yul\":496:516   */\n      calldataload\n        /* \"#utility.yul\":487:516   */\n      swap1\n      pop\n        /* \"#utility.yul\":525:558   */\n      tag_78\n        /* \"#utility.yul\":552:557   */\n      dup2\n        /* \"#utility.yul\":525:558   */\n      tag_79\n      jump\t// in\n    tag_78:\n        /* \"#utility.yul\":425:564   */\n      swap3\n      swap2\n      pop\n      pop\n      jump\t// out\n        /* \"#utility.yul\":570:725   */\n    tag_80:\n        /* \"#utility.yul\":624:629   */\n      0x00\n        /* \"#utility.yul\":662:668   */\n      dup2\n        /* \"#utility.yul\":649:669   */\n      calldataload\n        /* \"#utility.yul\":640:669   */\n      swap1\n      pop\n        /* \"#utility.yul\":678:719   */\n      tag_82\n        /* \"#utility.yul\":713:718   */\n      dup2\n        /* \"#utility.yul\":678:719   */\n      tag_83\n      jump\t// in\n    tag_82:\n        /* \"#utility.yul\":570:725   */\n      swap3\n      swap2\n      pop\n      pop\n      jump\t// out\n        /* \"#utility.yul\":731:864   */\n    tag_84:\n        /* \"#utility.yul\":774:779   */\n      0x00\n        /* \"#utility.yul\":812:818   */\n      dup2\n        /* \"#utility.yul\":799:819   */\n      calldataload\n        /* \"#utility.yul\":790:819   */\n      swap1\n      pop\n        /* \"#utility.yul\":828:858   */\n      tag_86\n        /* \"#utility.yul\":852:857   */\n      dup2\n        /* \"#utility.yul\":828:858   */\n      tag_87\n      jump\t// in\n    tag_86:\n        /* \"#utility.yul\":731:864   */\n      swap3\n      swap2\n      pop\n      pop\n      jump\t// out\n        /* \"#utility.yul\":884:1224   */\n    tag_88:\n        /* \"#utility.yul\":940:945   */\n      0x00\n        /* \"#utility.yul\":989:992   */\n      dup3\n        /* \"#utility.yul\":982:986   */\n      0x1f\n        /* \"#utility.yul\":974:980   */\n      dup4\n        /* \"#utility.yul\":970:987   */\n      add\n        /* \"#utility.yul\":966:993   */\n      slt\n        /* \"#utility.yul\":956:1078   */\n      tag_90\n      jumpi\n        /* \"#utility.yul\":997:1076   */\n      tag_91\n      tag_92\n      jump\t// in\n    tag_91:\n        /* \"#utility.yul\":956:1078   */\n    tag_90:\n        /* \"#utility.yul\":1114:1120   */\n      dup2\n        /* \"#utility.yul\":1101:1121   */\n      calldataload\n        /* \"#utility.yul\":1139:1218   */\n      tag_93\n        /* \"#utility.yul\":1214:1217   */\n      dup5\n        /* \"#utility.yul\":1206:1212   */\n      dup3\n        /* \"#utility.yul\":1199:1203   */\n      0x20\n        /* \"#utility.yul\":1191:1197   */\n      dup7\n        /* \"#utility.yul\":1187:1204   */\n      add\n        /* \"#utility.yul\":1139:1218   */\n      tag_65\n      jump\t// in\n    tag_93:\n        /* \"#utility.yul\":1130:1218   */\n      swap2\n      pop\n        /* \"#utility.yul\":946:1224   */\n      pop\n        /* \"#utility.yul\":884:1224   */\n      swap3\n      swap2\n      pop\n      pop\n      jump\t// out\n        /* \"#utility.yul\":1230:1369   */\n    tag_94:\n        /* \"#utility.yul\":1276:1281   */\n      0x00\n        /* \"#utility.yul\":1314:1320   */\n      dup2\n        /* \"#utility.yul\":1301:1321   */\n      calldataload\n        /* \"#utility.yul\":1292:1321   */\n      swap1\n      pop\n        /* \"#utility.yul\":1330:1363   */\n      tag_96\n        /* \"#utility.yul\":1357:1362   */\n      dup2\n        /* \"#utility.yul\":1330:1363   */\n      tag_97\n      jump\t// in\n    tag_96:\n        /* \"#utility.yul\":1230:1369   */\n      swap3\n      swap2\n      pop\n      pop\n      jump\t// out\n        /* \"#utility.yul\":1375:1704   */\n    tag_10:\n        /* \"#utility.yul\":1434:1440   */\n      0x00\n        /* \"#utility.yul\":1483:1485   */\n      0x20\n        /* \"#utility.yul\":1471:1480   */\n      dup3\n        /* \"#utility.yul\":1462:1469   */\n      dup5\n        /* \"#utility.yul\":1458:1481   */\n      sub\n        /* \"#utility.yul\":1454:1486   */\n      slt\n        /* \"#utility.yul\":1451:1570   */\n      iszero\n      tag_99\n      jumpi\n        /* \"#utility.yul\":1489:1568   */\n      tag_100\n      tag_101\n      jump\t// in\n    tag_100:\n        /* \"#utility.yul\":1451:1570   */\n    tag_99:\n        /* \"#utility.yul\":1609:1610   */\n      0x00\n        /* \"#utility.yul\":1634:1687   */\n      tag_102\n        /* \"#utility.yul\":1679:1686   */\n      dup5\n        /* \"#utility.yul\":1670:1676   */\n      dup3\n        /* \"#utility.yul\":1659:1668   */\n      dup6\n        /* \"#utility.yul\":1655:1677   */\n      add\n        /* \"#utility.yul\":1634:1687   */\n      tag_76\n      jump\t// in\n    tag_102:\n        /* \"#utility.yul\":1624:1687   */\n      swap2\n      pop\n        /* \"#utility.yul\":1580:1697   */\n      pop\n        /* \"#utility.yul\":1375:1704   */\n      swap3\n      swap2\n      pop\n      pop\n      jump\t// out\n        /* \"#utility.yul\":1710:3569   */\n    tag_16:\n        /* \"#utility.yul\":1863:1869   */\n      0x00\n        /* \"#utility.yul\":1871:1877   */\n      dup1\n        /* \"#utility.yul\":1879:1885   */\n      0x00\n        /* \"#utility.yul\":1887:1893   */\n      dup1\n        /* \"#utility.yul\":1895:1901   */\n      0x00\n        /* \"#utility.yul\":1903:1909   */\n      dup1\n        /* \"#utility.yul\":1911:1917   */\n      0x00\n        /* \"#utility.yul\":1919:1925   */\n      dup1\n        /* \"#utility.yul\":1927:1933   */\n      0x00\n        /* \"#utility.yul\":1976:1979   */\n      0x0120\n        /* \"#utility.yul\":1964:1973   */\n      dup11\n        /* \"#utility.yul\":1955:1962   */\n      dup13\n        /* \"#utility.yul\":1951:1974   */\n      sub\n        /* \"#utility.yul\":1947:1980   */\n      slt\n        /* \"#utility.yul\":1944:2064   */\n      iszero\n      tag_104\n      jumpi\n        /* \"#utility.yul\":1983:2062   */\n      tag_105\n      tag_101\n      jump\t// in\n    tag_105:\n        /* \"#utility.yul\":1944:2064   */\n    tag_104:\n        /* \"#utility.yul\":2103:2104   */\n      0x00\n        /* \"#utility.yul\":2128:2189   */\n      tag_106\n        /* \"#utility.yul\":2181:2188   */\n      dup13\n        /* \"#utility.yul\":2172:2178   */\n      dup3\n        /* \"#utility.yul\":2161:2170   */\n      dup14\n        /* \"#utility.yul\":2157:2179   */\n      add\n        /* \"#utility.yul\":2128:2189   */\n      tag_80\n      jump\t// in\n    tag_106:\n        /* \"#utility.yul\":2118:2189   */\n      swap10\n      pop\n        /* \"#utility.yul\":2074:2199   */\n      pop\n        /* \"#utility.yul\":2266:2268   */\n      0x20\n        /* \"#utility.yul\":2255:2264   */\n      dup11\n        /* \"#utility.yul\":2251:2269   */\n      add\n        /* \"#utility.yul\":2238:2270   */\n      calldataload\n        /* \"#utility.yul\":2297:2315   */\n      0xffffffffffffffff\n        /* \"#utility.yul\":2289:2295   */\n      dup2\n        /* \"#utility.yul\":2286:2316   */\n      gt\n        /* \"#utility.yul\":2283:2400   */\n      iszero\n      tag_107\n      jumpi\n        /* \"#utility.yul\":2319:2398   */\n      tag_108\n      tag_109\n      jump\t// in\n    tag_108:\n        /* \"#utility.yul\":2283:2400   */\n    tag_107:\n        /* \"#utility.yul\":2424:2487   */\n      tag_110\n        /* \"#utility.yul\":2479:2486   */\n      dup13\n        /* \"#utility.yul\":2470:2476   */\n      dup3\n        /* \"#utility.yul\":2459:2468   */\n      dup14\n        /* \"#utility.yul\":2455:2477   */\n      add\n        /* \"#utility.yul\":2424:2487   */\n      tag_88\n      jump\t// in\n    tag_110:\n        /* \"#utility.yul\":2414:2487   */\n      swap9\n      pop\n        /* \"#utility.yul\":2209:2497   */\n      pop\n        /* \"#utility.yul\":2564:2566   */\n      0x40\n        /* \"#utility.yul\":2553:2562   */\n      dup11\n        /* \"#utility.yul\":2549:2567   */\n      add\n        /* \"#utility.yul\":2536:2568   */\n      calldataload\n        /* \"#utility.yul\":2595:2613   */\n      0xffffffffffffffff\n        /* \"#utility.yul\":2587:2593   */\n      dup2\n        /* \"#utility.yul\":2584:2614   */\n      gt\n        /* \"#utility.yul\":2581:2698   */\n      iszero\n      tag_111\n      jumpi\n        /* \"#utility.yul\":2617:2696   */\n      tag_112\n      tag_109\n      jump\t// in\n    tag_112:\n        /* \"#utility.yul\":2581:2698   */\n    tag_111:\n        /* \"#utility.yul\":2722:2785   */\n      tag_113\n        /* \"#utility.yul\":2777:2784   */\n      dup13\n        /* \"#utility.yul\":2768:2774   */\n      dup3\n        /* \"#utility.yul\":2757:2766   */\n      dup14\n        /* \"#utility.yul\":2753:2775   */\n      add\n        /* \"#utility.yul\":2722:2785   */\n      tag_88\n      jump\t// in\n    tag_113:\n        /* \"#utility.yul\":2712:2785   */\n      swap8\n      pop\n        /* \"#utility.yul\":2507:2795   */\n      pop\n        /* \"#utility.yul\":2834:2836   */\n      0x60\n        /* \"#utility.yul\":2860:2910   */\n      tag_114\n        /* \"#utility.yul\":2902:2909   */\n      dup13\n        /* \"#utility.yul\":2893:2899   */\n      dup3\n        /* \"#utility.yul\":2882:2891   */\n      dup14\n        /* \"#utility.yul\":2878:2900   */\n      add\n        /* \"#utility.yul\":2860:2910   */\n      tag_84\n      jump\t// in\n    tag_114:\n        /* \"#utility.yul\":2850:2910   */\n      swap7\n      pop\n        /* \"#utility.yul\":2805:2920   */\n      pop\n        /* \"#utility.yul\":2959:2962   */\n      0x80\n        /* \"#utility.yul\":2986:3036   */\n      tag_115\n        /* \"#utility.yul\":3028:3035   */\n      dup13\n        /* \"#utility.yul\":3019:3025   */\n      dup3\n        /* \"#utility.yul\":3008:3017   */\n      dup14\n        /* \"#utility.yul\":3004:3026   */\n      add\n        /* \"#utility.yul\":2986:3036   */\n      tag_84\n      jump\t// in\n    tag_115:\n        /* \"#utility.yul\":2976:3036   */\n      swap6\n      pop\n        /* \"#utility.yul\":2930:3046   */\n      pop\n        /* \"#utility.yul\":3085:3088   */\n      0xa0\n        /* \"#utility.yul\":3112:3165   */\n      tag_116\n        /* \"#utility.yul\":3157:3164   */\n      dup13\n        /* \"#utility.yul\":3148:3154   */\n      dup3\n        /* \"#utility.yul\":3137:3146   */\n      dup14\n        /* \"#utility.yul\":3133:3155   */\n      add\n        /* \"#utility.yul\":3112:3165   */\n      tag_94\n      jump\t// in\n    tag_116:\n        /* \"#utility.yul\":3102:3165   */\n      swap5\n      pop\n        /* \"#utility.yul\":3056:3175   */\n      pop\n        /* \"#utility.yul\":3214:3217   */\n      0xc0\n        /* \"#utility.yul\":3241:3294   */\n      tag_117\n        /* \"#utility.yul\":3286:3293   */\n      dup13\n        /* \"#utility.yul\":3277:3283   */\n      dup3\n        /* \"#utility.yul\":3266:3275   */\n      dup14\n        /* \"#utility.yul\":3262:3284   */\n      add\n        /* \"#utility.yul\":3241:3294   */\n      tag_94\n      jump\t// in\n    tag_117:\n        /* \"#utility.yul\":3231:3294   */\n      swap4\n      pop\n        /* \"#utility.yul\":3185:3304   */\n      pop\n        /* \"#utility.yul\":3343:3346   */\n      0xe0\n        /* \"#utility.yul\":3370:3423   */\n      tag_118\n        /* \"#utility.yul\":3415:3422   */\n      dup13\n        /* \"#utility.yul\":3406:3412   */\n      dup3\n        /* \"#utility.yul\":3395:3404   */\n      dup14\n        /* \"#utility.yul\":3391:3413   */\n      add\n        /* \"#utility.yul\":3370:3423   */\n      tag_94\n      jump\t// in\n    tag_118:\n        /* \"#utility.yul\":3360:3423   */\n      swap3\n      pop\n        /* \"#utility.yul\":3314:3433   */\n      pop\n        /* \"#utility.yul\":3472:3475   */\n      0x0100\n        /* \"#utility.yul\":3499:3552   */\n      tag_119\n        /* \"#utility.yul\":3544:3551   */\n      dup13\n        /* \"#utility.yul\":3535:3541   */\n      dup3\n        /* \"#utility.yul\":3524:3533   */\n      dup14\n        /* \"#utility.yul\":3520:3542   */\n      add\n        /* \"#utility.yul\":3499:3552   */\n      tag_94\n      jump\t// in\n    tag_119:\n        /* \"#utility.yul\":3489:3552   */\n      swap2\n      pop\n        /* \"#utility.yul\":3443:3562   */\n      pop\n        /* \"#utility.yul\":1710:3569   */\n      swap3\n      swap6\n      swap9\n      pop\n      swap3\n      swap6\n      swap9\n      pop\n      swap3\n      swap6\n      swap9\n      jump\t// out\n        /* \"#utility.yul\":3575:3717   */\n    tag_120:\n        /* \"#utility.yul\":3678:3710   */\n      tag_122\n        /* \"#utility.yul\":3704:3709   */\n      dup2\n        /* \"#utility.yul\":3678:3710   */\n      tag_123\n      jump\t// in\n    tag_122:\n        /* \"#utility.yul\":3673:3676   */\n      dup3\n        /* \"#utility.yul\":3666:3711   */\n      mstore\n        /* \"#utility.yul\":3575:3717   */\n      pop\n      pop\n      jump\t// out\n        /* \"#utility.yul\":3723:3832   */\n    tag_124:\n        /* \"#utility.yul\":3804:3825   */\n      tag_126\n        /* \"#utility.yul\":3819:3824   */\n      dup2\n        /* \"#utility.yul\":3804:3825   */\n      tag_127\n      jump\t// in\n    tag_126:\n        /* \"#utility.yul\":3799:3802   */\n      dup3\n        /* \"#utility.yul\":3792:3826   */\n      mstore\n        /* \"#utility.yul\":3723:3832   */\n      pop\n      pop\n      jump\t// out\n        /* \"#utility.yul\":3838:4202   */\n    tag_128:\n        /* \"#utility.yul\":3926:3929   */\n      0x00\n        /* \"#utility.yul\":3954:3993   */\n      tag_130\n        /* \"#utility.yul\":3987:3992   */\n      dup3\n        /* \"#utility.yul\":3954:3993   */\n      tag_131\n      jump\t// in\n    tag_130:\n        /* \"#utility.yul\":4009:4080   */\n      tag_132\n        /* \"#utility.yul\":4073:4079   */\n      dup2\n        /* \"#utility.yul\":4068:4071   */\n      dup6\n        /* \"#utility.yul\":4009:4080   */\n      tag_133\n      jump\t// in\n    tag_132:\n        /* \"#utility.yul\":4002:4080   */\n      swap4\n      pop\n        /* \"#utility.yul\":4089:4141   */\n      tag_134\n        /* \"#utility.yul\":4134:4140   */\n      dup2\n        /* \"#utility.yul\":4129:4132   */\n      dup6\n        /* \"#utility.yul\":4122:4126   */\n      0x20\n        /* \"#utility.yul\":4115:4120   */\n      dup7\n        /* \"#utility.yul\":4111:4127   */\n      add\n        /* \"#utility.yul\":4089:4141   */\n      tag_135\n      jump\t// in\n    tag_134:\n        /* \"#utility.yul\":4166:4195   */\n      tag_136\n        /* \"#utility.yul\":4188:4194   */\n      dup2\n        /* \"#utility.yul\":4166:4195   */\n      tag_137\n      jump\t// in\n    tag_136:\n        /* \"#utility.yul\":4161:4164   */\n      dup5\n        /* \"#utility.yul\":4157:4196   */\n      add\n        /* \"#utility.yul\":4150:4196   */\n      swap2\n      pop\n        /* \"#utility.yul\":3930:4202   */\n      pop\n        /* \"#utility.yul\":3838:4202   */\n      swap3\n      swap2\n      pop\n      pop\n      jump\t// out\n        /* \"#utility.yul\":4208:4326   */\n    tag_138:\n        /* \"#utility.yul\":4295:4319   */\n      tag_140\n        /* \"#utility.yul\":4313:4318   */\n      dup2\n        /* \"#utility.yul\":4295:4319   */\n      tag_141\n      jump\t// in\n    tag_140:\n        /* \"#utility.yul\":4290:4293   */\n      dup3\n        /* \"#utility.yul\":4283:4320   */\n      mstore\n        /* \"#utility.yul\":4208:4326   */\n      pop\n      pop\n      jump\t// out\n        /* \"#utility.yul\":4332:5630   */\n    tag_22:\n        /* \"#utility.yul\":4693:4697   */\n      0x00\n        /* \"#utility.yul\":4731:4734   */\n      0x0120\n        /* \"#utility.yul\":4720:4729   */\n      dup3\n        /* \"#utility.yul\":4716:4735   */\n      add\n        /* \"#utility.yul\":4708:4735   */\n      swap1\n      pop\n        /* \"#utility.yul\":4745:4832   */\n      tag_143\n        /* \"#utility.yul\":4829:4830   */\n      0x00\n        /* \"#utility.yul\":4818:4827   */\n      dup4\n        /* \"#utility.yul\":4814:4831   */\n      add\n        /* \"#utility.yul\":4805:4811   */\n      dup13\n        /* \"#utility.yul\":4745:4832   */\n      tag_120\n      jump\t// in\n    tag_143:\n        /* \"#utility.yul\":4879:4888   */\n      dup2\n        /* \"#utility.yul\":4873:4877   */\n      dup2\n        /* \"#utility.yul\":4869:4889   */\n      sub\n        /* \"#utility.yul\":4864:4866   */\n      0x20\n        /* \"#utility.yul\":4853:4862   */\n      dup4\n        /* \"#utility.yul\":4849:4867   */\n      add\n        /* \"#utility.yul\":4842:4890   */\n      mstore\n        /* \"#utility.yul\":4907:4985   */\n      tag_144\n        /* \"#utility.yul\":4980:4984   */\n      dup2\n        /* \"#utility.yul\":4971:4977   */\n      dup12\n        /* \"#utility.yul\":4907:4985   */\n      tag_128\n      jump\t// in\n    tag_144:\n        /* \"#utility.yul\":4899:4985   */\n      swap1\n      pop\n        /* \"#utility.yul\":5032:5041   */\n      dup2\n        /* \"#utility.yul\":5026:5030   */\n      dup2\n        /* \"#utility.yul\":5022:5042   */\n      sub\n        /* \"#utility.yul\":5017:5019   */\n      0x40\n        /* \"#utility.yul\":5006:5015   */\n      dup4\n        /* \"#utility.yul\":5002:5020   */\n      add\n        /* \"#utility.yul\":4995:5043   */\n      mstore\n        /* \"#utility.yul\":5060:5138   */\n      tag_145\n        /* \"#utility.yul\":5133:5137   */\n      dup2\n        /* \"#utility.yul\":5124:5130   */\n      dup11\n        /* \"#utility.yul\":5060:5138   */\n      tag_128\n      jump\t// in\n    tag_145:\n        /* \"#utility.yul\":5052:5138   */\n      swap1\n      pop\n        /* \"#utility.yul\":5148:5214   */\n      tag_146\n        /* \"#utility.yul\":5210:5212   */\n      0x60\n        /* \"#utility.yul\":5199:5208   */\n      dup4\n        /* \"#utility.yul\":5195:5213   */\n      add\n        /* \"#utility.yul\":5186:5192   */\n      dup10\n        /* \"#utility.yul\":5148:5214   */\n      tag_124\n      jump\t// in\n    tag_146:\n        /* \"#utility.yul\":5224:5291   */\n      tag_147\n        /* \"#utility.yul\":5286:5289   */\n      0x80\n        /* \"#utility.yul\":5275:5284   */\n      dup4\n        /* \"#utility.yul\":5271:5290   */\n      add\n        /* \"#utility.yul\":5262:5268   */\n      dup9\n        /* \"#utility.yul\":5224:5291   */\n      tag_124\n      jump\t// in\n    tag_147:\n        /* \"#utility.yul\":5301:5374   */\n      tag_148\n        /* \"#utility.yul\":5369:5372   */\n      0xa0\n        /* \"#utility.yul\":5358:5367   */\n      dup4\n        /* \"#utility.yul\":5354:5373   */\n      add\n        /* \"#utility.yul\":5345:5351   */\n      dup8\n        /* \"#utility.yul\":5301:5374   */\n      tag_138\n      jump\t// in\n    tag_148:\n        /* \"#utility.yul\":5384:5457   */\n      tag_149\n        /* \"#utility.yul\":5452:5455   */\n      0xc0\n        /* \"#utility.yul\":5441:5450   */\n      dup4\n        /* \"#utility.yul\":5437:5456   */\n      add\n        /* \"#utility.yul\":5428:5434   */\n      dup7\n        /* \"#utility.yul\":5384:5457   */\n      tag_138\n      jump\t// in\n    tag_149:\n        /* \"#utility.yul\":5467:5540   */\n      tag_150\n        /* \"#utility.yul\":5535:5538   */\n      0xe0\n        /* \"#utility.yul\":5524:5533   */\n      dup4\n        /* \"#utility.yul\":5520:5539   */\n      add\n        /* \"#utility.yul\":5511:5517   */\n      dup6\n        /* \"#utility.yul\":5467:5540   */\n      tag_138\n      jump\t// in\n    tag_150:\n        /* \"#utility.yul\":5550:5623   */\n      tag_151\n        /* \"#utility.yul\":5618:5621   */\n      0x0100\n        /* \"#utility.yul\":5607:5616   */\n      dup4\n        /* \"#utility.yul\":5603:5622   */\n      add\n        /* \"#utility.yul\":5594:5600   */\n      dup5\n        /* \"#utility.yul\":5550:5623   */\n      tag_138\n      jump\t// in\n    tag_151:\n        /* \"#utility.yul\":4332:5630   */\n      swap11\n      swap10\n      pop\n      pop\n      pop\n      pop\n      pop\n      pop\n      pop\n      pop\n      pop\n      pop\n      jump\t// out\n        /* \"#utility.yul\":5636:5858   */\n    tag_13:\n        /* \"#utility.yul\":5729:5733   */\n      0x00\n        /* \"#utility.yul\":5767:5769   */\n      0x20\n        /* \"#utility.yul\":5756:5765   */\n      dup3\n        /* \"#utility.yul\":5752:5770   */\n      add\n        /* \"#utility.yul\":5744:5770   */\n      swap1\n      pop\n        /* \"#utility.yul\":5780:5851   */\n      tag_153\n        /* \"#utility.yul\":5848:5849   */\n      0x00\n        /* \"#utility.yul\":5837:5846   */\n      dup4\n        /* \"#utility.yul\":5833:5850   */\n      add\n        /* \"#utility.yul\":5824:5830   */\n      dup5\n        /* \"#utility.yul\":5780:5851   */\n      tag_138\n      jump\t// in\n    tag_153:\n        /* \"#utility.yul\":5636:5858   */\n      swap3\n      swap2\n      pop\n      pop\n      jump\t// out\n        /* \"#utility.yul\":5864:5993   */\n    tag_70:\n        /* \"#utility.yul\":5898:5904   */\n      0x00\n        /* \"#utility.yul\":5925:5945   */\n      tag_155\n      tag_156\n      jump\t// in\n    tag_155:\n        /* \"#utility.yul\":5915:5945   */\n      swap1\n      pop\n        /* \"#utility.yul\":5954:5987   */\n      tag_157\n        /* \"#utility.yul\":5982:5986   */\n      dup3\n        /* \"#utility.yul\":5974:5980   */\n      dup3\n        /* \"#utility.yul\":5954:5987   */\n      tag_158\n      jump\t// in\n    tag_157:\n        /* \"#utility.yul\":5864:5993   */\n      swap2\n      swap1\n      pop\n      jump\t// out\n        /* \"#utility.yul\":5999:6074   */\n    tag_156:\n        /* \"#utility.yul\":6032:6038   */\n      0x00\n        /* \"#utility.yul\":6065:6067   */\n      0x40\n        /* \"#utility.yul\":6059:6068   */\n      mload\n        /* \"#utility.yul\":6049:6068   */\n      swap1\n      pop\n        /* \"#utility.yul\":5999:6074   */\n      swap1\n      jump\t// out\n        /* \"#utility.yul\":6080:6388   */\n    tag_69:\n        /* \"#utility.yul\":6142:6146   */\n      0x00\n        /* \"#utility.yul\":6232:6250   */\n      0xffffffffffffffff\n        /* \"#utility.yul\":6224:6230   */\n      dup3\n        /* \"#utility.yul\":6221:6251   */\n      gt\n        /* \"#utility.yul\":6218:6274   */\n      iszero\n      tag_161\n      jumpi\n        /* \"#utility.yul\":6254:6272   */\n      tag_162\n      tag_163\n      jump\t// in\n    tag_162:\n        /* \"#utility.yul\":6218:6274   */\n    tag_161:\n        /* \"#utility.yul\":6292:6321   */\n      tag_164\n        /* \"#utility.yul\":6314:6320   */\n      dup3\n        /* \"#utility.yul\":6292:6321   */\n      tag_137\n      jump\t// in\n    tag_164:\n        /* \"#utility.yul\":6284:6321   */\n      swap1\n      pop\n        /* \"#utility.yul\":6376:6380   */\n      0x20\n        /* \"#utility.yul\":6370:6374   */\n      dup2\n        /* \"#utility.yul\":6366:6381   */\n      add\n        /* \"#utility.yul\":6358:6381   */\n      swap1\n      pop\n        /* \"#utility.yul\":6080:6388   */\n      swap2\n      swap1\n      pop\n      jump\t// out\n        /* \"#utility.yul\":6394:6493   */\n    tag_131:\n        /* \"#utility.yul\":6446:6452   */\n      0x00\n        /* \"#utility.yul\":6480:6485   */\n      dup2\n        /* \"#utility.yul\":6474:6486   */\n      mload\n        /* \"#utility.yul\":6464:6486   */\n      swap1\n      pop\n        /* \"#utility.yul\":6394:6493   */\n      swap2\n      swap1\n      pop\n      jump\t// out\n        /* \"#utility.yul\":6499:6668   */\n    tag_133:\n        /* \"#utility.yul\":6583:6594   */\n      0x00\n        /* \"#utility.yul\":6617:6623   */\n      dup3\n        /* \"#utility.yul\":6612:6615   */\n      dup3\n        /* \"#utility.yul\":6605:6624   */\n      mstore\n        /* \"#utility.yul\":6657:6661   */\n      0x20\n        /* \"#utility.yul\":6652:6655   */\n      dup3\n        /* \"#utility.yul\":6648:6662   */\n      add\n        /* \"#utility.yul\":6633:6662   */\n      swap1\n      pop\n        /* \"#utility.yul\":6499:6668   */\n      swap3\n      swap2\n      pop\n      pop\n      jump\t// out\n        /* \"#utility.yul\":6674:6859   */\n    tag_33:\n        /* \"#utility.yul\":6714:6715   */\n      0x00\n        /* \"#utility.yul\":6731:6751   */\n      tag_168\n        /* \"#utility.yul\":6749:6750   */\n      dup3\n        /* \"#utility.yul\":6731:6751   */\n      tag_141\n      jump\t// in\n    tag_168:\n        /* \"#utility.yul\":6726:6751   */\n      swap2\n      pop\n        /* \"#utility.yul\":6765:6785   */\n      tag_169\n        /* \"#utility.yul\":6783:6784   */\n      dup4\n        /* \"#utility.yul\":6765:6785   */\n      tag_141\n      jump\t// in\n    tag_169:\n        /* \"#utility.yul\":6760:6785   */\n      swap3\n      pop\n        /* \"#utility.yul\":6804:6805   */\n      dup3\n        /* \"#utility.yul\":6794:6829   */\n      tag_170\n      jumpi\n        /* \"#utility.yul\":6809:6827   */\n      tag_171\n      tag_172\n      jump\t// in\n    tag_171:\n        /* \"#utility.yul\":6794:6829   */\n    tag_170:\n        /* \"#utility.yul\":6851:6852   */\n      dup3\n        /* \"#utility.yul\":6848:6849   */\n      dup3\n        /* \"#utility.yul\":6844:6853   */\n      div\n        /* \"#utility.yul\":6839:6853   */\n      swap1\n      pop\n        /* \"#utility.yul\":6674:6859   */\n      swap3\n      swap2\n      pop\n      pop\n      jump\t// out\n        /* \"#utility.yul\":6865:7056   */\n    tag_53:\n        /* \"#utility.yul\":6905:6909   */\n      0x00\n        /* \"#utility.yul\":6925:6945   */\n      tag_174\n        /* \"#utility.yul\":6943:6944   */\n      dup3\n        /* \"#utility.yul\":6925:6945   */\n      tag_141\n      jump\t// in\n    tag_174:\n        /* \"#utility.yul\":6920:6945   */\n      swap2\n      pop\n        /* \"#utility.yul\":6959:6979   */\n      tag_175\n        /* \"#utility.yul\":6977:6978   */\n      dup4\n        /* \"#utility.yul\":6959:6979   */\n      tag_141\n      jump\t// in\n    tag_175:\n        /* \"#utility.yul\":6954:6979   */\n      swap3\n      pop\n        /* \"#utility.yul\":6998:6999   */\n      dup3\n        /* \"#utility.yul\":6995:6996   */\n      dup3\n        /* \"#utility.yul\":6992:7000   */\n      lt\n        /* \"#utility.yul\":6989:7023   */\n      iszero\n      tag_176\n      jumpi\n        /* \"#utility.yul\":7003:7021   */\n      tag_177\n      tag_178\n      jump\t// in\n    tag_177:\n        /* \"#utility.yul\":6989:7023   */\n    tag_176:\n        /* \"#utility.yul\":7048:7049   */\n      dup3\n        /* \"#utility.yul\":7045:7046   */\n      dup3\n        /* \"#utility.yul\":7041:7050   */\n      sub\n        /* \"#utility.yul\":7033:7050   */\n      swap1\n      pop\n        /* \"#utility.yul\":6865:7056   */\n      swap3\n      swap2\n      pop\n      pop\n      jump\t// out\n        /* \"#utility.yul\":7062:7158   */\n    tag_179:\n        /* \"#utility.yul\":7099:7106   */\n      0x00\n        /* \"#utility.yul\":7128:7152   */\n      tag_181\n        /* \"#utility.yul\":7146:7151   */\n      dup3\n        /* \"#utility.yul\":7128:7152   */\n      tag_182\n      jump\t// in\n    tag_181:\n        /* \"#utility.yul\":7117:7152   */\n      swap1\n      pop\n        /* \"#utility.yul\":7062:7158   */\n      swap2\n      swap1\n      pop\n      jump\t// out\n        /* \"#utility.yul\":7164:7268   */\n    tag_123:\n        /* \"#utility.yul\":7209:7216   */\n      0x00\n        /* \"#utility.yul\":7238:7262   */\n      tag_184\n        /* \"#utility.yul\":7256:7261   */\n      dup3\n        /* \"#utility.yul\":7238:7262   */\n      tag_182\n      jump\t// in\n    tag_184:\n        /* \"#utility.yul\":7227:7262   */\n      swap1\n      pop\n        /* \"#utility.yul\":7164:7268   */\n      swap2\n      swap1\n      pop\n      jump\t// out\n        /* \"#utility.yul\":7274:7364   */\n    tag_127:\n        /* \"#utility.yul\":7308:7315   */\n      0x00\n        /* \"#utility.yul\":7351:7356   */\n      dup2\n        /* \"#utility.yul\":7344:7357   */\n      iszero\n        /* \"#utility.yul\":7337:7358   */\n      iszero\n        /* \"#utility.yul\":7326:7358   */\n      swap1\n      pop\n        /* \"#utility.yul\":7274:7364   */\n      swap2\n      swap1\n      pop\n      jump\t// out\n        /* \"#utility.yul\":7370:7496   */\n    tag_182:\n        /* \"#utility.yul\":7407:7414   */\n      0x00\n        /* \"#utility.yul\":7447:7489   */\n      0xffffffffffffffffffffffffffffffffffffffff\n        /* \"#utility.yul\":7440:7445   */\n      dup3\n        /* \"#utility.yul\":7436:7490   */\n      and\n        /* \"#utility.yul\":7425:7490   */\n      swap1\n      pop\n        /* \"#utility.yul\":7370:7496   */\n      swap2\n      swap1\n      pop\n      jump\t// out\n        /* \"#utility.yul\":7502:7579   */\n    tag_141:\n        /* \"#utility.yul\":7539:7546   */\n      0x00\n        /* \"#utility.yul\":7568:7573   */\n      dup2\n        /* \"#utility.yul\":7557:7573   */\n      swap1\n      pop\n        /* \"#utility.yul\":7502:7579   */\n      swap2\n      swap1\n      pop\n      jump\t// out\n        /* \"#utility.yul\":7585:7739   */\n    tag_75:\n        /* \"#utility.yul\":7669:7675   */\n      dup3\n        /* \"#utility.yul\":7664:7667   */\n      dup2\n        /* \"#utility.yul\":7659:7662   */\n      dup4\n        /* \"#utility.yul\":7646:7676   */\n      calldatacopy\n        /* \"#utility.yul\":7731:7732   */\n      0x00\n        /* \"#utility.yul\":7722:7728   */\n      dup4\n        /* \"#utility.yul\":7717:7720   */\n      dup4\n        /* \"#utility.yul\":7713:7729   */\n      add\n        /* \"#utility.yul\":7706:7733   */\n      mstore\n        /* \"#utility.yul\":7585:7739   */\n      pop\n      pop\n      pop\n      jump\t// out\n        /* \"#utility.yul\":7745:8052   */\n    tag_135:\n        /* \"#utility.yul\":7813:7814   */\n      0x00\n        /* \"#utility.yul\":7823:7936   */\n    tag_190:\n        /* \"#utility.yul\":7837:7843   */\n      dup4\n        /* \"#utility.yul\":7834:7835   */\n      dup2\n        /* \"#utility.yul\":7831:7844   */\n      lt\n        /* \"#utility.yul\":7823:7936   */\n      iszero\n      tag_192\n      jumpi\n        /* \"#utility.yul\":7922:7923   */\n      dup1\n        /* \"#utility.yul\":7917:7920   */\n      dup3\n        /* \"#utility.yul\":7913:7924   */\n      add\n        /* \"#utility.yul\":7907:7925   */\n      mload\n        /* \"#utility.yul\":7903:7904   */\n      dup2\n        /* \"#utility.yul\":7898:7901   */\n      dup5\n        /* \"#utility.yul\":7894:7905   */\n      add\n        /* \"#utility.yul\":7887:7926   */\n      mstore\n        /* \"#utility.yul\":7859:7861   */\n      0x20\n        /* \"#utility.yul\":7856:7857   */\n      dup2\n        /* \"#utility.yul\":7852:7862   */\n      add\n        /* \"#utility.yul\":7847:7862   */\n      swap1\n      pop\n        /* \"#utility.yul\":7823:7936   */\n      jump(tag_190)\n    tag_192:\n        /* \"#utility.yul\":7954:7960   */\n      dup4\n        /* \"#utility.yul\":7951:7952   */\n      dup2\n        /* \"#utility.yul\":7948:7961   */\n      gt\n        /* \"#utility.yul\":7945:8046   */\n      iszero\n      tag_193\n      jumpi\n        /* \"#utility.yul\":8034:8035   */\n      0x00\n        /* \"#utility.yul\":8025:8031   */\n      dup5\n        /* \"#utility.yul\":8020:8023   */\n      dup5\n        /* \"#utility.yul\":8016:8032   */\n      add\n        /* \"#utility.yul\":8009:8036   */\n      mstore\n        /* \"#utility.yul\":7945:8046   */\n    tag_193:\n        /* \"#utility.yul\":7794:8052   */\n      pop\n        /* \"#utility.yul\":7745:8052   */\n      pop\n      pop\n      pop\n      jump\t// out\n        /* \"#utility.yul\":8058:8378   */\n    tag_39:\n        /* \"#utility.yul\":8102:8108   */\n      0x00\n        /* \"#utility.yul\":8139:8140   */\n      0x02\n        /* \"#utility.yul\":8133:8137   */\n      dup3\n        /* \"#utility.yul\":8129:8141   */\n      div\n        /* \"#utility.yul\":8119:8141   */\n      swap1\n      pop\n        /* \"#utility.yul\":8186:8187   */\n      0x01\n        /* \"#utility.yul\":8180:8184   */\n      dup3\n        /* \"#utility.yul\":8176:8188   */\n      and\n        /* \"#utility.yul\":8207:8225   */\n      dup1\n        /* \"#utility.yul\":8197:8278   */\n      tag_195\n      jumpi\n        /* \"#utility.yul\":8263:8267   */\n      0x7f\n        /* \"#utility.yul\":8255:8261   */\n      dup3\n        /* \"#utility.yul\":8251:8268   */\n      and\n        /* \"#utility.yul\":8241:8268   */\n      swap2\n      pop\n        /* \"#utility.yul\":8197:8278   */\n    tag_195:\n        /* \"#utility.yul\":8325:8327   */\n      0x20\n        /* \"#utility.yul\":8317:8323   */\n      dup3\n        /* \"#utility.yul\":8314:8328   */\n      lt\n        /* \"#utility.yul\":8294:8312   */\n      dup2\n        /* \"#utility.yul\":8291:8329   */\n      eq\n        /* \"#utility.yul\":8288:8372   */\n      iszero\n      tag_196\n      jumpi\n        /* \"#utility.yul\":8344:8362   */\n      tag_197\n      tag_198\n      jump\t// in\n    tag_197:\n        /* \"#utility.yul\":8288:8372   */\n    tag_196:\n        /* \"#utility.yul\":8109:8378   */\n      pop\n        /* \"#utility.yul\":8058:8378   */\n      swap2\n      swap1\n      pop\n      jump\t// out\n        /* \"#utility.yul\":8384:8665   */\n    tag_158:\n        /* \"#utility.yul\":8467:8494   */\n      tag_200\n        /* \"#utility.yul\":8489:8493   */\n      dup3\n        /* \"#utility.yul\":8467:8494   */\n      tag_137\n      jump\t// in\n    tag_200:\n        /* \"#utility.yul\":8459:8465   */\n      dup2\n        /* \"#utility.yul\":8455:8495   */\n      add\n        /* \"#utility.yul\":8597:8603   */\n      dup2\n        /* \"#utility.yul\":8585:8595   */\n      dup2\n        /* \"#utility.yul\":8582:8604   */\n      lt\n        /* \"#utility.yul\":8561:8579   */\n      0xffffffffffffffff\n        /* \"#utility.yul\":8549:8559   */\n      dup3\n        /* \"#utility.yul\":8546:8580   */\n      gt\n        /* \"#utility.yul\":8543:8605   */\n      or\n        /* \"#utility.yul\":8540:8628   */\n      iszero\n      tag_201\n      jumpi\n        /* \"#utility.yul\":8608:8626   */\n      tag_202\n      tag_163\n      jump\t// in\n    tag_202:\n        /* \"#utility.yul\":8540:8628   */\n    tag_201:\n        /* \"#utility.yul\":8648:8658   */\n      dup1\n        /* \"#utility.yul\":8644:8646   */\n      0x40\n        /* \"#utility.yul\":8637:8659   */\n      mstore\n        /* \"#utility.yul\":8427:8665   */\n      pop\n        /* \"#utility.yul\":8384:8665   */\n      pop\n      pop\n      jump\t// out\n        /* \"#utility.yul\":8671:8851   */\n    tag_178:\n        /* \"#utility.yul\":8719:8796   */\n      0x4e487b7100000000000000000000000000000000000000000000000000000000\n        /* \"#utility.yul\":8716:8717   */\n      0x00\n        /* \"#utility.yul\":8709:8797   */\n      mstore\n        /* \"#utility.yul\":8816:8820   */\n      0x11\n        /* \"#utility.yul\":8813:8814   */\n      0x04\n        /* \"#utility.yul\":8806:8821   */\n      mstore\n        /* \"#utility.yul\":8840:8844   */\n      0x24\n        /* \"#utility.yul\":8837:8838   */\n      0x00\n        /* \"#utility.yul\":8830:8845   */\n      revert\n        /* \"#utility.yul\":8857:9037   */\n    tag_172:\n        /* \"#utility.yul\":8905:8982   */\n      0x4e487b7100000000000000000000000000000000000000000000000000000000\n        /* \"#utility.yul\":8902:8903   */\n      0x00\n        /* \"#utility.yul\":8895:8983   */\n      mstore\n        /* \"#utility.yul\":9002:9006   */\n      0x12\n        /* \"#utility.yul\":8999:9000   */\n      0x04\n        /* \"#utility.yul\":8992:9007   */\n      mstore\n        /* \"#utility.yul\":9026:9030   */\n      0x24\n        /* \"#utility.yul\":9023:9024   */\n      0x00\n        /* \"#utility.yul\":9016:9031   */\n      revert\n        /* \"#utility.yul\":9043:9223   */\n    tag_198:\n        /* \"#utility.yul\":9091:9168   */\n      0x4e487b7100000000000000000000000000000000000000000000000000000000\n        /* \"#utility.yul\":9088:9089   */\n      0x00\n        /* \"#utility.yul\":9081:9169   */\n      mstore\n        /* \"#utility.yul\":9188:9192   */\n      0x22\n        /* \"#utility.yul\":9185:9186   */\n      0x04\n        /* \"#utility.yul\":9178:9193   */\n      mstore\n        /* \"#utility.yul\":9212:9216   */\n      0x24\n        /* \"#utility.yul\":9209:9210   */\n      0x00\n        /* \"#utility.yul\":9202:9217   */\n      revert\n        /* \"#utility.yul\":9229:9409   */\n    tag_163:\n        /* \"#utility.yul\":9277:9354   */\n      0x4e487b7100000000000000000000000000000000000000000000000000000000\n        /* \"#utility.yul\":9274:9275   */\n      0x00\n        /* \"#utility.yul\":9267:9355   */\n      mstore\n        /* \"#utility.yul\":9374:9378   */\n      0x41\n        /* \"#utility.yul\":9371:9372   */\n      0x04\n        /* \"#utility.yul\":9364:9379   */\n      mstore\n        /* \"#utility.yul\":9398:9402   */\n      0x24\n        /* \"#utility.yul\":9395:9396   */\n      0x00\n        /* \"#utility.yul\":9388:9403   */\n      revert\n        /* \"#utility.yul\":9415:9532   */\n    tag_92:\n        /* \"#utility.yul\":9524:9525   */\n      0x00\n        /* \"#utility.yul\":9521:9522   */\n      dup1\n        /* \"#utility.yul\":9514:9526   */\n      revert\n        /* \"#utility.yul\":9538:9655   */\n    tag_73:\n        /* \"#utility.yul\":9647:9648   */\n      0x00\n        /* \"#utility.yul\":9644:9645   */\n      dup1\n        /* \"#utility.yul\":9637:9649   */\n      revert\n        /* \"#utility.yul\":9661:9778   */\n    tag_109:\n        /* \"#utility.yul\":9770:9771   */\n      0x00\n        /* \"#utility.yul\":9767:9768   */\n      dup1\n        /* \"#utility.yul\":9760:9772   */\n      revert\n        /* \"#utility.yul\":9784:9901   */\n    tag_101:\n        /* \"#utility.yul\":9893:9894   */\n      0x00\n        /* \"#utility.yul\":9890:9891   */\n      dup1\n        /* \"#utility.yul\":9883:9895   */\n      revert\n        /* \"#utility.yul\":9907:10009   */\n    tag_137:\n        /* \"#utility.yul\":9948:9954   */\n      0x00\n        /* \"#utility.yul\":9999:10001   */\n      0x1f\n        /* \"#utility.yul\":9995:10002   */\n      not\n        /* \"#utility.yul\":9990:9992   */\n      0x1f\n        /* \"#utility.yul\":9983:9988   */\n      dup4\n        /* \"#utility.yul\":9979:9993   */\n      add\n        /* \"#utility.yul\":9975:10003   */\n      and\n        /* \"#utility.yul\":9965:10003   */\n      swap1\n      pop\n        /* \"#utility.yul\":9907:10009   */\n      swap2\n      swap1\n      pop\n      jump\t// out\n        /* \"#utility.yul\":10015:10137   */\n    tag_79:\n        /* \"#utility.yul\":10088:10112   */\n      tag_213\n        /* \"#utility.yul\":10106:10111   */\n      dup2\n        /* \"#utility.yul\":10088:10112   */\n      tag_179\n      jump\t// in\n    tag_213:\n        /* \"#utility.yul\":10081:10086   */\n      dup2\n        /* \"#utility.yul\":10078:10113   */\n      eq\n        /* \"#utility.yul\":10068:10131   */\n      tag_214\n      jumpi\n        /* \"#utility.yul\":10127:10128   */\n      0x00\n        /* \"#utility.yul\":10124:10125   */\n      dup1\n        /* \"#utility.yul\":10117:10129   */\n      revert\n        /* \"#utility.yul\":10068:10131   */\n    tag_214:\n        /* \"#utility.yul\":10015:10137   */\n      pop\n      jump\t// out\n        /* \"#utility.yul\":10143:10281   */\n    tag_83:\n        /* \"#utility.yul\":10224:10256   */\n      tag_216\n        /* \"#utility.yul\":10250:10255   */\n      dup2\n        /* \"#utility.yul\":10224:10256   */\n      tag_123\n      jump\t// in\n    tag_216:\n        /* \"#utility.yul\":10217:10222   */\n      dup2\n        /* \"#utility.yul\":10214:10257   */\n      eq\n        /* \"#utility.yul\":10204:10275   */\n      tag_217\n      jumpi\n        /* \"#utility.yul\":10271:10272   */\n      0x00\n        /* \"#utility.yul\":10268:10269   */\n      dup1\n        /* \"#utility.yul\":10261:10273   */\n      revert\n        /* \"#utility.yul\":10204:10275   */\n    tag_217:\n        /* \"#utility.yul\":10143:10281   */\n      pop\n      jump\t// out\n        /* \"#utility.yul\":10287:10403   */\n    tag_87:\n        /* \"#utility.yul\":10357:10378   */\n      tag_219\n        /* \"#utility.yul\":10372:10377   */\n      dup2\n        /* \"#utility.yul\":10357:10378   */\n      tag_127\n      jump\t// in\n    tag_219:\n        /* \"#utility.yul\":10350:10355   */\n      dup2\n        /* \"#utility.yul\":10347:10379   */\n      eq\n        /* \"#utility.yul\":10337:10397   */\n      tag_220\n      jumpi\n        /* \"#utility.yul\":10393:10394   */\n      0x00\n        /* \"#utility.yul\":10390:10391   */\n      dup1\n        /* \"#utility.yul\":10383:10395   */\n      revert\n        /* \"#utility.yul\":10337:10397   */\n    tag_220:\n        /* \"#utility.yul\":10287:10403   */\n      pop\n      jump\t// out\n        /* \"#utility.yul\":10409:10531   */\n    tag_97:\n        /* \"#utility.yul\":10482:10506   */\n      tag_222\n        /* \"#utility.yul\":10500:10505   */\n      dup2\n        /* \"#utility.yul\":10482:10506   */\n      tag_141\n      jump\t// in\n    tag_222:\n        /* \"#utility.yul\":10475:10480   */\n      dup2\n        /* \"#utility.yul\":10472:10507   */\n      eq\n        /* \"#utility.yul\":10462:10525   */\n      tag_223\n      jumpi\n        /* \"#utility.yul\":10521:10522   */\n      0x00\n        /* \"#utility.yul\":10518:10519   */\n      dup1\n        /* \"#utility.yul\":10511:10523   */\n      revert\n        /* \"#utility.yul\":10462:10525   */\n    tag_223:\n        /* \"#utility.yul\":10409:10531   */\n      pop\n      jump\t// out\n\n    auxdata: 0xa2646970667358221220a36e0897ed6e9686e50d7c545f07cd396be970740a6094a03d38aa80b8f81a4864736f6c63430008070033\n}\n",
				"bytecode": {
					"linkReferences": {},
					"object": "608060405234801561001057600080fd5b50336000806101000a81548173ffffffffffffffffffffffffffffffffffffffff021916908373ffffffffffffffffffffffffffffffffffffffff160217905550610da4806100606000396000f3fe608060405234801561001057600080fd5b50600436106100575760003560e01c806341ba6e891461005c5780635e6497271461008c578063644a1370146100a85780638d23caa0146100e0578063d9a59e33146100fc575b600080fd5b61007660048036038101906100719190610810565b610118565b6040516100839190610a40565b60405180910390f35b6100a660048036038101906100a1919061083d565b6101c6565b005b6100c260048036038101906100bd9190610810565b610357565b6040516100d7999897969594939291906109a5565b60405180910390f35b6100fa60048036038101906100f59190610810565b6104ef565b005b61011660048036038101906101119190610810565b6105ee565b005b6000806101a9600160008573ffffffffffffffffffffffffffffffffffffffff1673ffffffffffffffffffffffffffffffffffffffff16815260200190815260200160002060060154600160008673ffffffffffffffffffffffffffffffffffffffff1673ffffffffffffffffffffffffffffffffffffffff16815260200190815260200160002060070154610693565b90506000603c826101ba9190610acd565b90508092505050919050565b6040518061012001604052808a73ffffffffffffffffffffffffffffffffffffffff1681526020018981526020018881526020018715158152602001861515815260200185815260200184815260200183815260200182815250600160008b73ffffffffffffffffffffffffffffffffffffffff1673ffffffffffffffffffffffffffffffffffffffff16815260200190815260200160002060008201518160000160006101000a81548173ffffffffffffffffffffffffffffffffffffffff021916908373ffffffffffffffffffffffffffffffffffffffff16021790555060208201518160010190805190602001906102c29291906106a9565b5060408201518160020190805190602001906102df9291906106a9565b5060608201518160030160006101000a81548160ff02191690831515021790555060808201518160030160016101000a81548160ff02191690831515021790555060a0820151816004015560c0820151816005015560e082015181600601556101008201518160070155905050505050505050505050565b60016020528060005260406000206000915090508060000160009054906101000a900473ffffffffffffffffffffffffffffffffffffffff16908060010180546103a090610bce565b80601f01602080910402602001604051908101604052809291908181526020018280546103cc90610bce565b80156104195780601f106103ee57610100808354040283529160200191610419565b820191906000526020600020905b8154815290600101906020018083116103fc57829003601f168201915b50505050509080600201805461042e90610bce565b80601f016020809104026020016040519081016040528092919081815260200182805461045a90610bce565b80156104a75780601f1061047c576101008083540402835291602001916104a7565b820191906000526020600020905b81548152906001019060200180831161048a57829003601f168201915b5050505050908060030160009054906101000a900460ff16908060030160019054906101000a900460ff16908060040154908060050154908060060154908060070154905089565b60018060008373ffffffffffffffffffffffffffffffffffffffff1673ffffffffffffffffffffffffffffffffffffffff16815260200190815260200160002060030160016101000a81548160ff02191690831515021790555042600160008373ffffffffffffffffffffffffffffffffffffffff1673ffffffffffffffffffffffffffffffffffffffff168152602001908152602001600020600601819055506000600160008373ffffffffffffffffffffffffffffffffffffffff1673ffffffffffffffffffffffffffffffffffffffff16815260200190815260200160002060030160006101000a81548160ff02191690831515021790555050565b6000600160008373ffffffffffffffffffffffffffffffffffffffff1673ffffffffffffffffffffffffffffffffffffffff16815260200190815260200160002060030160016101000a81548160ff02191690831515021790555042600160008373ffffffffffffffffffffffffffffffffffffffff1673ffffffffffffffffffffffffffffffffffffffff1681526020019081526020016000206007018190555050565b600082826106a19190610afe565b905092915050565b8280546106b590610bce565b90600052602060002090601f0160209004810192826106d7576000855561071e565b82601f106106f057805160ff191683800117855561071e565b8280016001018555821561071e579182015b8281111561071d578251825591602001919060010190610702565b5b50905061072b919061072f565b5090565b5b80821115610748576000816000905550600101610730565b5090565b600061075f61075a84610a80565b610a5b565b90508281526020810184848401111561077b5761077a610cf2565b5b610786848285610b8c565b509392505050565b60008135905061079d81610d12565b92915050565b6000813590506107b281610d29565b92915050565b6000813590506107c781610d40565b92915050565b600082601f8301126107e2576107e1610ced565b5b81356107f284826020860161074c565b91505092915050565b60008135905061080a81610d57565b92915050565b60006020828403121561082657610825610cfc565b5b60006108348482850161078e565b91505092915050565b60008060008060008060008060006101208a8c0312156108605761085f610cfc565b5b600061086e8c828d016107a3565b99505060208a013567ffffffffffffffff81111561088f5761088e610cf7565b5b61089b8c828d016107cd565b98505060408a013567ffffffffffffffff8111156108bc576108bb610cf7565b5b6108c88c828d016107cd565b97505060606108d98c828d016107b8565b96505060806108ea8c828d016107b8565b95505060a06108fb8c828d016107fb565b94505060c061090c8c828d016107fb565b93505060e061091d8c828d016107fb565b92505061010061092f8c828d016107fb565b9150509295985092959850929598565b61094881610b44565b82525050565b61095781610b56565b82525050565b600061096882610ab1565b6109728185610abc565b9350610982818560208601610b9b565b61098b81610d01565b840191505092915050565b61099f81610b82565b82525050565b6000610120820190506109bb600083018c61093f565b81810360208301526109cd818b61095d565b905081810360408301526109e1818a61095d565b90506109f0606083018961094e565b6109fd608083018861094e565b610a0a60a0830187610996565b610a1760c0830186610996565b610a2460e0830185610996565b610a32610100830184610996565b9a9950505050505050505050565b6000602082019050610a556000830184610996565b92915050565b6000610a65610a76565b9050610a718282610c00565b919050565b6000604051905090565b600067ffffffffffffffff821115610a9b57610a9a610cbe565b5b610aa482610d01565b9050602081019050919050565b600081519050919050565b600082825260208201905092915050565b6000610ad882610b82565b9150610ae383610b82565b925082610af357610af2610c60565b5b828204905092915050565b6000610b0982610b82565b9150610b1483610b82565b925082821015610b2757610b26610c31565b5b828203905092915050565b6000610b3d82610b62565b9050919050565b6000610b4f82610b62565b9050919050565b60008115159050919050565b600073ffffffffffffffffffffffffffffffffffffffff82169050919050565b6000819050919050565b82818337600083830152505050565b60005b83811015610bb9578082015181840152602081019050610b9e565b83811115610bc8576000848401525b50505050565b60006002820490506001821680610be657607f821691505b60208210811415610bfa57610bf9610c8f565b5b50919050565b610c0982610d01565b810181811067ffffffffffffffff82111715610c2857610c27610cbe565b5b80604052505050565b7f4e487b7100000000000000000000000000000000000000000000000000000000600052601160045260246000fd5b7f4e487b7100000000000000000000000000000000000000000000000000000000600052601260045260246000fd5b7f4e487b7100000000000000000000000000000000000000000000000000000000600052602260045260246000fd5b7f4e487b7100000000000000000000000000000000000000000000000000000000600052604160045260246000fd5b600080fd5b600080fd5b600080fd5b600080fd5b6000601f19601f8301169050919050565b610d1b81610b32565b8114610d2657600080fd5b50565b610d3281610b44565b8114610d3d57600080fd5b50565b610d4981610b56565b8114610d5457600080fd5b50565b610d6081610b82565b8114610d6b57600080fd5b5056fea2646970667358221220a36e0897ed6e9686e50d7c545f07cd396be970740a6094a03d38aa80b8f81a4864736f6c63430008070033",
					"opcodes": "PUSH1 0x80 PUSH1 0x40 MSTORE CALLVALUE DUP1 ISZERO PUSH2 0x10 JUMPI PUSH1 0x0 DUP1 REVERT JUMPDEST POP CALLER PUSH1 0x0 DUP1 PUSH2 0x100 EXP DUP2 SLOAD DUP2 PUSH20 0xFFFFFFFFFFFFFFFFFFFFFFFFFFFFFFFFFFFFFFFF MUL NOT AND SWAP1 DUP4 PUSH20 0xFFFFFFFFFFFFFFFFFFFFFFFFFFFFFFFFFFFFFFFF AND MUL OR SWAP1 SSTORE POP PUSH2 0xDA4 DUP1 PUSH2 0x60 PUSH1 0x0 CODECOPY PUSH1 0x0 RETURN INVALID PUSH1 0x80 PUSH1 0x40 MSTORE CALLVALUE DUP1 ISZERO PUSH2 0x10 JUMPI PUSH1 0x0 DUP1 REVERT JUMPDEST POP PUSH1 0x4 CALLDATASIZE LT PUSH2 0x57 JUMPI PUSH1 0x0 CALLDATALOAD PUSH1 0xE0 SHR DUP1 PUSH4 0x41BA6E89 EQ PUSH2 0x5C JUMPI DUP1 PUSH4 0x5E649727 EQ PUSH2 0x8C JUMPI DUP1 PUSH4 0x644A1370 EQ PUSH2 0xA8 JUMPI DUP1 PUSH4 0x8D23CAA0 EQ PUSH2 0xE0 JUMPI DUP1 PUSH4 0xD9A59E33 EQ PUSH2 0xFC JUMPI JUMPDEST PUSH1 0x0 DUP1 REVERT JUMPDEST PUSH2 0x76 PUSH1 0x4 DUP1 CALLDATASIZE SUB DUP2 ADD SWAP1 PUSH2 0x71 SWAP2 SWAP1 PUSH2 0x810 JUMP JUMPDEST PUSH2 0x118 JUMP JUMPDEST PUSH1 0x40 MLOAD PUSH2 0x83 SWAP2 SWAP1 PUSH2 0xA40 JUMP JUMPDEST PUSH1 0x40 MLOAD DUP1 SWAP2 SUB SWAP1 RETURN JUMPDEST PUSH2 0xA6 PUSH1 0x4 DUP1 CALLDATASIZE SUB DUP2 ADD SWAP1 PUSH2 0xA1 SWAP2 SWAP1 PUSH2 0x83D JUMP JUMPDEST PUSH2 0x1C6 JUMP JUMPDEST STOP JUMPDEST PUSH2 0xC2 PUSH1 0x4 DUP1 CALLDATASIZE SUB DUP2 ADD SWAP1 PUSH2 0xBD SWAP2 SWAP1 PUSH2 0x810 JUMP JUMPDEST PUSH2 0x357 JUMP JUMPDEST PUSH1 0x40 MLOAD PUSH2 0xD7 SWAP10 SWAP9 SWAP8 SWAP7 SWAP6 SWAP5 SWAP4 SWAP3 SWAP2 SWAP1 PUSH2 0x9A5 JUMP JUMPDEST PUSH1 0x40 MLOAD DUP1 SWAP2 SUB SWAP1 RETURN JUMPDEST PUSH2 0xFA PUSH1 0x4 DUP1 CALLDATASIZE SUB DUP2 ADD SWAP1 PUSH2 0xF5 SWAP2 SWAP1 PUSH2 0x810 JUMP JUMPDEST PUSH2 0x4EF JUMP JUMPDEST STOP JUMPDEST PUSH2 0x116 PUSH1 0x4 DUP1 CALLDATASIZE SUB DUP2 ADD SWAP1 PUSH2 0x111 SWAP2 SWAP1 PUSH2 0x810 JUMP JUMPDEST PUSH2 0x5EE JUMP JUMPDEST STOP JUMPDEST PUSH1 0x0 DUP1 PUSH2 0x1A9 PUSH1 0x1 PUSH1 0x0 DUP6 PUSH20 0xFFFFFFFFFFFFFFFFFFFFFFFFFFFFFFFFFFFFFFFF AND PUSH20 0xFFFFFFFFFFFFFFFFFFFFFFFFFFFFFFFFFFFFFFFF AND DUP2 MSTORE PUSH1 0x20 ADD SWAP1 DUP2 MSTORE PUSH1 0x20 ADD PUSH1 0x0 KECCAK256 PUSH1 0x6 ADD SLOAD PUSH1 0x1 PUSH1 0x0 DUP7 PUSH20 0xFFFFFFFFFFFFFFFFFFFFFFFFFFFFFFFFFFFFFFFF AND PUSH20 0xFFFFFFFFFFFFFFFFFFFFFFFFFFFFFFFFFFFFFFFF AND DUP2 MSTORE PUSH1 0x20 ADD SWAP1 DUP2 MSTORE PUSH1 0x20 ADD PUSH1 0x0 KECCAK256 PUSH1 0x7 ADD SLOAD PUSH2 0x693 JUMP JUMPDEST SWAP1 POP PUSH1 0x0 PUSH1 0x3C DUP3 PUSH2 0x1BA SWAP2 SWAP1 PUSH2 0xACD JUMP JUMPDEST SWAP1 POP DUP1 SWAP3 POP POP POP SWAP2 SWAP1 POP JUMP JUMPDEST PUSH1 0x40 MLOAD DUP1 PUSH2 0x120 ADD PUSH1 0x40 MSTORE DUP1 DUP11 PUSH20 0xFFFFFFFFFFFFFFFFFFFFFFFFFFFFFFFFFFFFFFFF AND DUP2 MSTORE PUSH1 0x20 ADD DUP10 DUP2 MSTORE PUSH1 0x20 ADD DUP9 DUP2 MSTORE PUSH1 0x20 ADD DUP8 ISZERO ISZERO DUP2 MSTORE PUSH1 0x20 ADD DUP7 ISZERO ISZERO DUP2 MSTORE PUSH1 0x20 ADD DUP6 DUP2 MSTORE PUSH1 0x20 ADD DUP5 DUP2 MSTORE PUSH1 0x20 ADD DUP4 DUP2 MSTORE PUSH1 0x20 ADD DUP3 DUP2 MSTORE POP PUSH1 0x1 PUSH1 0x0 DUP12 PUSH20 0xFFFFFFFFFFFFFFFFFFFFFFFFFFFFFFFFFFFFFFFF AND PUSH20 0xFFFFFFFFFFFFFFFFFFFFFFFFFFFFFFFFFFFFFFFF AND DUP2 MSTORE PUSH1 0x20 ADD SWAP1 DUP2 MSTORE PUSH1 0x20 ADD PUSH1 0x0 KECCAK256 PUSH1 0x0 DUP3 ADD MLOAD DUP2 PUSH1 0x0 ADD PUSH1 0x0 PUSH2 0x100 EXP DUP2 SLOAD DUP2 PUSH20 0xFFFFFFFFFFFFFFFFFFFFFFFFFFFFFFFFFFFFFFFF MUL NOT AND SWAP1 DUP4 PUSH20 0xFFFFFFFFFFFFFFFFFFFFFFFFFFFFFFFFFFFFFFFF AND MUL OR SWAP1 SSTORE POP PUSH1 0x20 DUP3 ADD MLOAD DUP2 PUSH1 0x1 ADD SWAP1 DUP1 MLOAD SWAP1 PUSH1 0x20 ADD SWAP1 PUSH2 0x2C2 SWAP3 SWAP2 SWAP1 PUSH2 0x6A9 JUMP JUMPDEST POP PUSH1 0x40 DUP3 ADD MLOAD DUP2 PUSH1 0x2 ADD SWAP1 DUP1 MLOAD SWAP1 PUSH1 0x20 ADD SWAP1 PUSH2 0x2DF SWAP3 SWAP2 SWAP1 PUSH2 0x6A9 JUMP JUMPDEST POP PUSH1 0x60 DUP3 ADD MLOAD DUP2 PUSH1 0x3 ADD PUSH1 0x0 PUSH2 0x100 EXP DUP2 SLOAD DUP2 PUSH1 0xFF MUL NOT AND SWAP1 DUP4 ISZERO ISZERO MUL OR SWAP1 SSTORE POP PUSH1 0x80 DUP3 ADD MLOAD DUP2 PUSH1 0x3 ADD PUSH1 0x1 PUSH2 0x100 EXP DUP2 SLOAD DUP2 PUSH1 0xFF MUL NOT AND SWAP1 DUP4 ISZERO ISZERO MUL OR SWAP1 SSTORE POP PUSH1 0xA0 DUP3 ADD MLOAD DUP2 PUSH1 0x4 ADD SSTORE PUSH1 0xC0 DUP3 ADD MLOAD DUP2 PUSH1 0x5 ADD SSTORE PUSH1 0xE0 DUP3 ADD MLOAD DUP2 PUSH1 0x6 ADD SSTORE PUSH2 0x100 DUP3 ADD MLOAD DUP2 PUSH1 0x7 ADD SSTORE SWAP1 POP POP POP POP POP POP POP POP POP POP POP JUMP JUMPDEST PUSH1 0x1 PUSH1 0x20 MSTORE DUP1 PUSH1 0x0 MSTORE PUSH1 0x40 PUSH1 0x0 KECCAK256 PUSH1 0x0 SWAP2 POP SWAP1 POP DUP1 PUSH1 0x0 ADD PUSH1 0x0 SWAP1 SLOAD SWAP1 PUSH2 0x100 EXP SWAP1 DIV PUSH20 0xFFFFFFFFFFFFFFFFFFFFFFFFFFFFFFFFFFFFFFFF AND SWAP1 DUP1 PUSH1 0x1 ADD DUP1 SLOAD PUSH2 0x3A0 SWAP1 PUSH2 0xBCE JUMP JUMPDEST DUP1 PUSH1 0x1F ADD PUSH1 0x20 DUP1 SWAP2 DIV MUL PUSH1 0x20 ADD PUSH1 0x40 MLOAD SWAP1 DUP2 ADD PUSH1 0x40 MSTORE DUP1 SWAP3 SWAP2 SWAP1 DUP2 DUP2 MSTORE PUSH1 0x20 ADD DUP3 DUP1 SLOAD PUSH2 0x3CC SWAP1 PUSH2 0xBCE JUMP JUMPDEST DUP1 ISZERO PUSH2 0x419 JUMPI DUP1 PUSH1 0x1F LT PUSH2 0x3EE JUMPI PUSH2 0x100 DUP1 DUP4 SLOAD DIV MUL DUP4 MSTORE SWAP2 PUSH1 0x20 ADD SWAP2 PUSH2 0x419 JUMP JUMPDEST DUP3 ADD SWAP2 SWAP1 PUSH1 0x0 MSTORE PUSH1 0x20 PUSH1 0x0 KECCAK256 SWAP1 JUMPDEST DUP2 SLOAD DUP2 MSTORE SWAP1 PUSH1 0x1 ADD SWAP1 PUSH1 0x20 ADD DUP1 DUP4 GT PUSH2 0x3FC JUMPI DUP3 SWAP1 SUB PUSH1 0x1F AND DUP3 ADD SWAP2 JUMPDEST POP POP POP POP POP SWAP1 DUP1 PUSH1 0x2 ADD DUP1 SLOAD PUSH2 0x42E SWAP1 PUSH2 0xBCE JUMP JUMPDEST DUP1 PUSH1 0x1F ADD PUSH1 0x20 DUP1 SWAP2 DIV MUL PUSH1 0x20 ADD PUSH1 0x40 MLOAD SWAP1 DUP2 ADD PUSH1 0x40 MSTORE DUP1 SWAP3 SWAP2 SWAP1 DUP2 DUP2 MSTORE PUSH1 0x20 ADD DUP3 DUP1 SLOAD PUSH2 0x45A SWAP1 PUSH2 0xBCE JUMP JUMPDEST DUP1 ISZERO PUSH2 0x4A7 JUMPI DUP1 PUSH1 0x1F LT PUSH2 0x47C JUMPI PUSH2 0x100 DUP1 DUP4 SLOAD DIV MUL DUP4 MSTORE SWAP2 PUSH1 0x20 ADD SWAP2 PUSH2 0x4A7 JUMP JUMPDEST DUP3 ADD SWAP2 SWAP1 PUSH1 0x0 MSTORE PUSH1 0x20 PUSH1 0x0 KECCAK256 SWAP1 JUMPDEST DUP2 SLOAD DUP2 MSTORE SWAP1 PUSH1 0x1 ADD SWAP1 PUSH1 0x20 ADD DUP1 DUP4 GT PUSH2 0x48A JUMPI DUP3 SWAP1 SUB PUSH1 0x1F AND DUP3 ADD SWAP2 JUMPDEST POP POP POP POP POP SWAP1 DUP1 PUSH1 0x3 ADD PUSH1 0x0 SWAP1 SLOAD SWAP1 PUSH2 0x100 EXP SWAP1 DIV PUSH1 0xFF AND SWAP1 DUP1 PUSH1 0x3 ADD PUSH1 0x1 SWAP1 SLOAD SWAP1 PUSH2 0x100 EXP SWAP1 DIV PUSH1 0xFF AND SWAP1 DUP1 PUSH1 0x4 ADD SLOAD SWAP1 DUP1 PUSH1 0x5 ADD SLOAD SWAP1 DUP1 PUSH1 0x6 ADD SLOAD SWAP1 DUP1 PUSH1 0x7 ADD SLOAD SWAP1 POP DUP10 JUMP JUMPDEST PUSH1 0x1 DUP1 PUSH1 0x0 DUP4 PUSH20 0xFFFFFFFFFFFFFFFFFFFFFFFFFFFFFFFFFFFFFFFF AND PUSH20 0xFFFFFFFFFFFFFFFFFFFFFFFFFFFFFFFFFFFFFFFF AND DUP2 MSTORE PUSH1 0x20 ADD SWAP1 DUP2 MSTORE PUSH1 0x20 ADD PUSH1 0x0 KECCAK256 PUSH1 0x3 ADD PUSH1 0x1 PUSH2 0x100 EXP DUP2 SLOAD DUP2 PUSH1 0xFF MUL NOT AND SWAP1 DUP4 ISZERO ISZERO MUL OR SWAP1 SSTORE POP TIMESTAMP PUSH1 0x1 PUSH1 0x0 DUP4 PUSH20 0xFFFFFFFFFFFFFFFFFFFFFFFFFFFFFFFFFFFFFFFF AND PUSH20 0xFFFFFFFFFFFFFFFFFFFFFFFFFFFFFFFFFFFFFFFF AND DUP2 MSTORE PUSH1 0x20 ADD SWAP1 DUP2 MSTORE PUSH1 0x20 ADD PUSH1 0x0 KECCAK256 PUSH1 0x6 ADD DUP2 SWAP1 SSTORE POP PUSH1 0x0 PUSH1 0x1 PUSH1 0x0 DUP4 PUSH20 0xFFFFFFFFFFFFFFFFFFFFFFFFFFFFFFFFFFFFFFFF AND PUSH20 0xFFFFFFFFFFFFFFFFFFFFFFFFFFFFFFFFFFFFFFFF AND DUP2 MSTORE PUSH1 0x20 ADD SWAP1 DUP2 MSTORE PUSH1 0x20 ADD PUSH1 0x0 KECCAK256 PUSH1 0x3 ADD PUSH1 0x0 PUSH2 0x100 EXP DUP2 SLOAD DUP2 PUSH1 0xFF MUL NOT AND SWAP1 DUP4 ISZERO ISZERO MUL OR SWAP1 SSTORE POP POP JUMP JUMPDEST PUSH1 0x0 PUSH1 0x1 PUSH1 0x0 DUP4 PUSH20 0xFFFFFFFFFFFFFFFFFFFFFFFFFFFFFFFFFFFFFFFF AND PUSH20 0xFFFFFFFFFFFFFFFFFFFFFFFFFFFFFFFFFFFFFFFF AND DUP2 MSTORE PUSH1 0x20 ADD SWAP1 DUP2 MSTORE PUSH1 0x20 ADD PUSH1 0x0 KECCAK256 PUSH1 0x3 ADD PUSH1 0x1 PUSH2 0x100 EXP DUP2 SLOAD DUP2 PUSH1 0xFF MUL NOT AND SWAP1 DUP4 ISZERO ISZERO MUL OR SWAP1 SSTORE POP TIMESTAMP PUSH1 0x1 PUSH1 0x0 DUP4 PUSH20 0xFFFFFFFFFFFFFFFFFFFFFFFFFFFFFFFFFFFFFFFF AND PUSH20 0xFFFFFFFFFFFFFFFFFFFFFFFFFFFFFFFFFFFFFFFF AND DUP2 MSTORE PUSH1 0x20 ADD SWAP1 DUP2 MSTORE PUSH1 0x20 ADD PUSH1 0x0 KECCAK256 PUSH1 0x7 ADD DUP2 SWAP1 SSTORE POP POP JUMP JUMPDEST PUSH1 0x0 DUP3 DUP3 PUSH2 0x6A1 SWAP2 SWAP1 PUSH2 0xAFE JUMP JUMPDEST SWAP1 POP SWAP3 SWAP2 POP POP JUMP JUMPDEST DUP3 DUP1 SLOAD PUSH2 0x6B5 SWAP1 PUSH2 0xBCE JUMP JUMPDEST SWAP1 PUSH1 0x0 MSTORE PUSH1 0x20 PUSH1 0x0 KECCAK256 SWAP1 PUSH1 0x1F ADD PUSH1 0x20 SWAP1 DIV DUP2 ADD SWAP3 DUP3 PUSH2 0x6D7 JUMPI PUSH1 0x0 DUP6 SSTORE PUSH2 0x71E JUMP JUMPDEST DUP3 PUSH1 0x1F LT PUSH2 0x6F0 JUMPI DUP1 MLOAD PUSH1 0xFF NOT AND DUP4 DUP1 ADD OR DUP6 SSTORE PUSH2 0x71E JUMP JUMPDEST DUP3 DUP1 ADD PUSH1 0x1 ADD DUP6 SSTORE DUP3 ISZERO PUSH2 0x71E JUMPI SWAP2 DUP3 ADD JUMPDEST DUP3 DUP2 GT ISZERO PUSH2 0x71D JUMPI DUP3 MLOAD DUP3 SSTORE SWAP2 PUSH1 0x20 ADD SWAP2 SWAP1 PUSH1 0x1 ADD SWAP1 PUSH2 0x702 JUMP JUMPDEST JUMPDEST POP SWAP1 POP PUSH2 0x72B SWAP2 SWAP1 PUSH2 0x72F JUMP JUMPDEST POP SWAP1 JUMP JUMPDEST JUMPDEST DUP1 DUP3 GT ISZERO PUSH2 0x748 JUMPI PUSH1 0x0 DUP2 PUSH1 0x0 SWAP1 SSTORE POP PUSH1 0x1 ADD PUSH2 0x730 JUMP JUMPDEST POP SWAP1 JUMP JUMPDEST PUSH1 0x0 PUSH2 0x75F PUSH2 0x75A DUP5 PUSH2 0xA80 JUMP JUMPDEST PUSH2 0xA5B JUMP JUMPDEST SWAP1 POP DUP3 DUP2 MSTORE PUSH1 0x20 DUP2 ADD DUP5 DUP5 DUP5 ADD GT ISZERO PUSH2 0x77B JUMPI PUSH2 0x77A PUSH2 0xCF2 JUMP JUMPDEST JUMPDEST PUSH2 0x786 DUP5 DUP3 DUP6 PUSH2 0xB8C JUMP JUMPDEST POP SWAP4 SWAP3 POP POP POP JUMP JUMPDEST PUSH1 0x0 DUP2 CALLDATALOAD SWAP1 POP PUSH2 0x79D DUP2 PUSH2 0xD12 JUMP JUMPDEST SWAP3 SWAP2 POP POP JUMP JUMPDEST PUSH1 0x0 DUP2 CALLDATALOAD SWAP1 POP PUSH2 0x7B2 DUP2 PUSH2 0xD29 JUMP JUMPDEST SWAP3 SWAP2 POP POP JUMP JUMPDEST PUSH1 0x0 DUP2 CALLDATALOAD SWAP1 POP PUSH2 0x7C7 DUP2 PUSH2 0xD40 JUMP JUMPDEST SWAP3 SWAP2 POP POP JUMP JUMPDEST PUSH1 0x0 DUP3 PUSH1 0x1F DUP4 ADD SLT PUSH2 0x7E2 JUMPI PUSH2 0x7E1 PUSH2 0xCED JUMP JUMPDEST JUMPDEST DUP2 CALLDATALOAD PUSH2 0x7F2 DUP5 DUP3 PUSH1 0x20 DUP7 ADD PUSH2 0x74C JUMP JUMPDEST SWAP2 POP POP SWAP3 SWAP2 POP POP JUMP JUMPDEST PUSH1 0x0 DUP2 CALLDATALOAD SWAP1 POP PUSH2 0x80A DUP2 PUSH2 0xD57 JUMP JUMPDEST SWAP3 SWAP2 POP POP JUMP JUMPDEST PUSH1 0x0 PUSH1 0x20 DUP3 DUP5 SUB SLT ISZERO PUSH2 0x826 JUMPI PUSH2 0x825 PUSH2 0xCFC JUMP JUMPDEST JUMPDEST PUSH1 0x0 PUSH2 0x834 DUP5 DUP3 DUP6 ADD PUSH2 0x78E JUMP JUMPDEST SWAP2 POP POP SWAP3 SWAP2 POP POP JUMP JUMPDEST PUSH1 0x0 DUP1 PUSH1 0x0 DUP1 PUSH1 0x0 DUP1 PUSH1 0x0 DUP1 PUSH1 0x0 PUSH2 0x120 DUP11 DUP13 SUB SLT ISZERO PUSH2 0x860 JUMPI PUSH2 0x85F PUSH2 0xCFC JUMP JUMPDEST JUMPDEST PUSH1 0x0 PUSH2 0x86E DUP13 DUP3 DUP14 ADD PUSH2 0x7A3 JUMP JUMPDEST SWAP10 POP POP PUSH1 0x20 DUP11 ADD CALLDATALOAD PUSH8 0xFFFFFFFFFFFFFFFF DUP2 GT ISZERO PUSH2 0x88F JUMPI PUSH2 0x88E PUSH2 0xCF7 JUMP JUMPDEST JUMPDEST PUSH2 0x89B DUP13 DUP3 DUP14 ADD PUSH2 0x7CD JUMP JUMPDEST SWAP9 POP POP PUSH1 0x40 DUP11 ADD CALLDATALOAD PUSH8 0xFFFFFFFFFFFFFFFF DUP2 GT ISZERO PUSH2 0x8BC JUMPI PUSH2 0x8BB PUSH2 0xCF7 JUMP JUMPDEST JUMPDEST PUSH2 0x8C8 DUP13 DUP3 DUP14 ADD PUSH2 0x7CD JUMP JUMPDEST SWAP8 POP POP PUSH1 0x60 PUSH2 0x8D9 DUP13 DUP3 DUP14 ADD PUSH2 0x7B8 JUMP JUMPDEST SWAP7 POP POP PUSH1 0x80 PUSH2 0x8EA DUP13 DUP3 DUP14 ADD PUSH2 0x7B8 JUMP JUMPDEST SWAP6 POP POP PUSH1 0xA0 PUSH2 0x8FB DUP13 DUP3 DUP14 ADD PUSH2 0x7FB JUMP JUMPDEST SWAP5 POP POP PUSH1 0xC0 PUSH2 0x90C DUP13 DUP3 DUP14 ADD PUSH2 0x7FB JUMP JUMPDEST SWAP4 POP POP PUSH1 0xE0 PUSH2 0x91D DUP13 DUP3 DUP14 ADD PUSH2 0x7FB JUMP JUMPDEST SWAP3 POP POP PUSH2 0x100 PUSH2 0x92F DUP13 DUP3 DUP14 ADD PUSH2 0x7FB JUMP JUMPDEST SWAP2 POP POP SWAP3 SWAP6 SWAP9 POP SWAP3 SWAP6 SWAP9 POP SWAP3 SWAP6 SWAP9 JUMP JUMPDEST PUSH2 0x948 DUP2 PUSH2 0xB44 JUMP JUMPDEST DUP3 MSTORE POP POP JUMP JUMPDEST PUSH2 0x957 DUP2 PUSH2 0xB56 JUMP JUMPDEST DUP3 MSTORE POP POP JUMP JUMPDEST PUSH1 0x0 PUSH2 0x968 DUP3 PUSH2 0xAB1 JUMP JUMPDEST PUSH2 0x972 DUP2 DUP6 PUSH2 0xABC JUMP JUMPDEST SWAP4 POP PUSH2 0x982 DUP2 DUP6 PUSH1 0x20 DUP7 ADD PUSH2 0xB9B JUMP JUMPDEST PUSH2 0x98B DUP2 PUSH2 0xD01 JUMP JUMPDEST DUP5 ADD SWAP2 POP POP SWAP3 SWAP2 POP POP JUMP JUMPDEST PUSH2 0x99F DUP2 PUSH2 0xB82 JUMP JUMPDEST DUP3 MSTORE POP POP JUMP JUMPDEST PUSH1 0x0 PUSH2 0x120 DUP3 ADD SWAP1 POP PUSH2 0x9BB PUSH1 0x0 DUP4 ADD DUP13 PUSH2 0x93F JUMP JUMPDEST DUP2 DUP2 SUB PUSH1 0x20 DUP4 ADD MSTORE PUSH2 0x9CD DUP2 DUP12 PUSH2 0x95D JUMP JUMPDEST SWAP1 POP DUP2 DUP2 SUB PUSH1 0x40 DUP4 ADD MSTORE PUSH2 0x9E1 DUP2 DUP11 PUSH2 0x95D JUMP JUMPDEST SWAP1 POP PUSH2 0x9F0 PUSH1 0x60 DUP4 ADD DUP10 PUSH2 0x94E JUMP JUMPDEST PUSH2 0x9FD PUSH1 0x80 DUP4 ADD DUP9 PUSH2 0x94E JUMP JUMPDEST PUSH2 0xA0A PUSH1 0xA0 DUP4 ADD DUP8 PUSH2 0x996 JUMP JUMPDEST PUSH2 0xA17 PUSH1 0xC0 DUP4 ADD DUP7 PUSH2 0x996 JUMP JUMPDEST PUSH2 0xA24 PUSH1 0xE0 DUP4 ADD DUP6 PUSH2 0x996 JUMP JUMPDEST PUSH2 0xA32 PUSH2 0x100 DUP4 ADD DUP5 PUSH2 0x996 JUMP JUMPDEST SWAP11 SWAP10 POP POP POP POP POP POP POP POP POP POP JUMP JUMPDEST PUSH1 0x0 PUSH1 0x20 DUP3 ADD SWAP1 POP PUSH2 0xA55 PUSH1 0x0 DUP4 ADD DUP5 PUSH2 0x996 JUMP JUMPDEST SWAP3 SWAP2 POP POP JUMP JUMPDEST PUSH1 0x0 PUSH2 0xA65 PUSH2 0xA76 JUMP JUMPDEST SWAP1 POP PUSH2 0xA71 DUP3 DUP3 PUSH2 0xC00 JUMP JUMPDEST SWAP2 SWAP1 POP JUMP JUMPDEST PUSH1 0x0 PUSH1 0x40 MLOAD SWAP1 POP SWAP1 JUMP JUMPDEST PUSH1 0x0 PUSH8 0xFFFFFFFFFFFFFFFF DUP3 GT ISZERO PUSH2 0xA9B JUMPI PUSH2 0xA9A PUSH2 0xCBE JUMP JUMPDEST JUMPDEST PUSH2 0xAA4 DUP3 PUSH2 0xD01 JUMP JUMPDEST SWAP1 POP PUSH1 0x20 DUP2 ADD SWAP1 POP SWAP2 SWAP1 POP JUMP JUMPDEST PUSH1 0x0 DUP2 MLOAD SWAP1 POP SWAP2 SWAP1 POP JUMP JUMPDEST PUSH1 0x0 DUP3 DUP3 MSTORE PUSH1 0x20 DUP3 ADD SWAP1 POP SWAP3 SWAP2 POP POP JUMP JUMPDEST PUSH1 0x0 PUSH2 0xAD8 DUP3 PUSH2 0xB82 JUMP JUMPDEST SWAP2 POP PUSH2 0xAE3 DUP4 PUSH2 0xB82 JUMP JUMPDEST SWAP3 POP DUP3 PUSH2 0xAF3 JUMPI PUSH2 0xAF2 PUSH2 0xC60 JUMP JUMPDEST JUMPDEST DUP3 DUP3 DIV SWAP1 POP SWAP3 SWAP2 POP POP JUMP JUMPDEST PUSH1 0x0 PUSH2 0xB09 DUP3 PUSH2 0xB82 JUMP JUMPDEST SWAP2 POP PUSH2 0xB14 DUP4 PUSH2 0xB82 JUMP JUMPDEST SWAP3 POP DUP3 DUP3 LT ISZERO PUSH2 0xB27 JUMPI PUSH2 0xB26 PUSH2 0xC31 JUMP JUMPDEST JUMPDEST DUP3 DUP3 SUB SWAP1 POP SWAP3 SWAP2 POP POP JUMP JUMPDEST PUSH1 0x0 PUSH2 0xB3D DUP3 PUSH2 0xB62 JUMP JUMPDEST SWAP1 POP SWAP2 SWAP1 POP JUMP JUMPDEST PUSH1 0x0 PUSH2 0xB4F DUP3 PUSH2 0xB62 JUMP JUMPDEST SWAP1 POP SWAP2 SWAP1 POP JUMP JUMPDEST PUSH1 0x0 DUP2 ISZERO ISZERO SWAP1 POP SWAP2 SWAP1 POP JUMP JUMPDEST PUSH1 0x0 PUSH20 0xFFFFFFFFFFFFFFFFFFFFFFFFFFFFFFFFFFFFFFFF DUP3 AND SWAP1 POP SWAP2 SWAP1 POP JUMP JUMPDEST PUSH1 0x0 DUP2 SWAP1 POP SWAP2 SWAP1 POP JUMP JUMPDEST DUP3 DUP2 DUP4 CALLDATACOPY PUSH1 0x0 DUP4 DUP4 ADD MSTORE POP POP POP JUMP JUMPDEST PUSH1 0x0 JUMPDEST DUP4 DUP2 LT ISZERO PUSH2 0xBB9 JUMPI DUP1 DUP3 ADD MLOAD DUP2 DUP5 ADD MSTORE PUSH1 0x20 DUP2 ADD SWAP1 POP PUSH2 0xB9E JUMP JUMPDEST DUP4 DUP2 GT ISZERO PUSH2 0xBC8 JUMPI PUSH1 0x0 DUP5 DUP5 ADD MSTORE JUMPDEST POP POP POP POP JUMP JUMPDEST PUSH1 0x0 PUSH1 0x2 DUP3 DIV SWAP1 POP PUSH1 0x1 DUP3 AND DUP1 PUSH2 0xBE6 JUMPI PUSH1 0x7F DUP3 AND SWAP2 POP JUMPDEST PUSH1 0x20 DUP3 LT DUP2 EQ ISZERO PUSH2 0xBFA JUMPI PUSH2 0xBF9 PUSH2 0xC8F JUMP JUMPDEST JUMPDEST POP SWAP2 SWAP1 POP JUMP JUMPDEST PUSH2 0xC09 DUP3 PUSH2 0xD01 JUMP JUMPDEST DUP2 ADD DUP2 DUP2 LT PUSH8 0xFFFFFFFFFFFFFFFF DUP3 GT OR ISZERO PUSH2 0xC28 JUMPI PUSH2 0xC27 PUSH2 0xCBE JUMP JUMPDEST JUMPDEST DUP1 PUSH1 0x40 MSTORE POP POP POP JUMP JUMPDEST PUSH32 0x4E487B7100000000000000000000000000000000000000000000000000000000 PUSH1 0x0 MSTORE PUSH1 0x11 PUSH1 0x4 MSTORE PUSH1 0x24 PUSH1 0x0 REVERT JUMPDEST PUSH32 0x4E487B7100000000000000000000000000000000000000000000000000000000 PUSH1 0x0 MSTORE PUSH1 0x12 PUSH1 0x4 MSTORE PUSH1 0x24 PUSH1 0x0 REVERT JUMPDEST PUSH32 0x4E487B7100000000000000000000000000000000000000000000000000000000 PUSH1 0x0 MSTORE PUSH1 0x22 PUSH1 0x4 MSTORE PUSH1 0x24 PUSH1 0x0 REVERT JUMPDEST PUSH32 0x4E487B7100000000000000000000000000000000000000000000000000000000 PUSH1 0x0 MSTORE PUSH1 0x41 PUSH1 0x4 MSTORE PUSH1 0x24 PUSH1 0x0 REVERT JUMPDEST PUSH1 0x0 DUP1 REVERT JUMPDEST PUSH1 0x0 DUP1 REVERT JUMPDEST PUSH1 0x0 DUP1 REVERT JUMPDEST PUSH1 0x0 DUP1 REVERT JUMPDEST PUSH1 0x0 PUSH1 0x1F NOT PUSH1 0x1F DUP4 ADD AND SWAP1 POP SWAP2 SWAP1 POP JUMP JUMPDEST PUSH2 0xD1B DUP2 PUSH2 0xB32 JUMP JUMPDEST DUP2 EQ PUSH2 0xD26 JUMPI PUSH1 0x0 DUP1 REVERT JUMPDEST POP JUMP JUMPDEST PUSH2 0xD32 DUP2 PUSH2 0xB44 JUMP JUMPDEST DUP2 EQ PUSH2 0xD3D JUMPI PUSH1 0x0 DUP1 REVERT JUMPDEST POP JUMP JUMPDEST PUSH2 0xD49 DUP2 PUSH2 0xB56 JUMP JUMPDEST DUP2 EQ PUSH2 0xD54 JUMPI PUSH1 0x0 DUP1 REVERT JUMPDEST POP JUMP JUMPDEST PUSH2 0xD60 DUP2 PUSH2 0xB82 JUMP JUMPDEST DUP2 EQ PUSH2 0xD6B JUMPI PUSH1 0x0 DUP1 REVERT JUMPDEST POP JUMP INVALID LOG2 PUSH5 0x6970667358 0x22 SLT KECCAK256 LOG3 PUSH15 0x897ED6E9686E50D7C545F07CD396B 0xE9 PUSH17 0x740A6094A03D38AA80B8F81A4864736F6C PUSH4 0x43000807 STOP CALLER "
				},
				"gasEstimates": {
					"creation": {
						"codeDepositCost": "698400",
						"executionCost": "25000",
						"totalCost": "723400"
					},
					"external": {
						"addRenter(address,string,string,bool,bool,uint256,uint256,uint256,uint256)": "infinite",
						"checkIn(address)": "47143",
						"checkOut(address)": "71484",
						"getTotalDuration(address)": "infinite",
						"renters(address)": "infinite"
					},
					"internal": {
						"renterTimespan(uint256,uint256)": "infinite"
					}
				},
				"methodIdentifiers": {
					"addRenter(address,string,string,bool,bool,uint256,uint256,uint256,uint256)": "5e649727",
					"checkIn(address)": "d9a59e33",
					"checkOut(address)": "8d23caa0",
					"getTotalDuration(address)": "41ba6e89",
					"renters(address)": "644a1370"
				}
			},
			"storageLayout": {
				"storage": [
					{
						"astId": 3,
						"contract": "contracts/Automobchain.sol:Automobchain",
						"label": "owner",
						"offset": 0,
						"slot": "0",
						"type": "t_address"
					},
					{
						"astId": 36,
						"contract": "contracts/Automobchain.sol:Automobchain",
						"label": "renters",
						"offset": 0,
						"slot": "1",
						"type": "t_mapping(t_address,t_struct(Renter)31_storage)"
					}
				],
				"types": {
					"t_address": {
						"encoding": "inplace",
						"label": "address",
						"numberOfBytes": "20"
					},
					"t_address_payable": {
						"encoding": "inplace",
						"label": "address payable",
						"numberOfBytes": "20"
					},
					"t_bool": {
						"encoding": "inplace",
						"label": "bool",
						"numberOfBytes": "1"
					},
					"t_mapping(t_address,t_struct(Renter)31_storage)": {
						"encoding": "mapping",
						"key": "t_address",
						"label": "mapping(address => struct Automobchain.Renter)",
						"numberOfBytes": "32",
						"value": "t_struct(Renter)31_storage"
					},
					"t_string_storage": {
						"encoding": "bytes",
						"label": "string",
						"numberOfBytes": "32"
					},
					"t_struct(Renter)31_storage": {
						"encoding": "inplace",
						"label": "struct Automobchain.Renter",
						"members": [
							{
								"astId": 14,
								"contract": "contracts/Automobchain.sol:Automobchain",
								"label": "walletAddress",
								"offset": 0,
								"slot": "0",
								"type": "t_address_payable"
							},
							{
								"astId": 16,
								"contract": "contracts/Automobchain.sol:Automobchain",
								"label": "firstName",
								"offset": 0,
								"slot": "1",
								"type": "t_string_storage"
							},
							{
								"astId": 18,
								"contract": "contracts/Automobchain.sol:Automobchain",
								"label": "lastName",
								"offset": 0,
								"slot": "2",
								"type": "t_string_storage"
							},
							{
								"astId": 20,
								"contract": "contracts/Automobchain.sol:Automobchain",
								"label": "canRent",
								"offset": 0,
								"slot": "3",
								"type": "t_bool"
							},
							{
								"astId": 22,
								"contract": "contracts/Automobchain.sol:Automobchain",
								"label": "active",
								"offset": 1,
								"slot": "3",
								"type": "t_bool"
							},
							{
								"astId": 24,
								"contract": "contracts/Automobchain.sol:Automobchain",
								"label": "balance",
								"offset": 0,
								"slot": "4",
								"type": "t_uint256"
							},
							{
								"astId": 26,
								"contract": "contracts/Automobchain.sol:Automobchain",
								"label": "due",
								"offset": 0,
								"slot": "5",
								"type": "t_uint256"
							},
							{
								"astId": 28,
								"contract": "contracts/Automobchain.sol:Automobchain",
								"label": "start",
								"offset": 0,
								"slot": "6",
								"type": "t_uint256"
							},
							{
								"astId": 30,
								"contract": "contracts/Automobchain.sol:Automobchain",
								"label": "end",
								"offset": 0,
								"slot": "7",
								"type": "t_uint256"
							}
						],
						"numberOfBytes": "256"
					},
					"t_uint256": {
						"encoding": "inplace",
						"label": "uint256",
						"numberOfBytes": "32"
					}
				}
			},
			"userdoc": {
				"kind": "user",
				"methods": {},
				"version": 1
			}
		}
	}
}